{
	"contracts/SubscriptionConsumer.sol": {
		"SubscriptionConsumer": {
			"abi": [
				{
					"inputs": [
						{
							"internalType": "uint256",
							"name": "subscriptionId",
							"type": "uint256"
						}
					],
					"stateMutability": "nonpayable",
					"type": "constructor"
				},
				{
					"inputs": [
						{
							"internalType": "address",
							"name": "have",
							"type": "address"
						},
						{
							"internalType": "address",
							"name": "want",
							"type": "address"
						}
					],
					"name": "OnlyCoordinatorCanFulfill",
					"type": "error"
				},
				{
					"inputs": [
						{
							"internalType": "address",
							"name": "have",
							"type": "address"
						},
						{
							"internalType": "address",
							"name": "owner",
							"type": "address"
						},
						{
							"internalType": "address",
							"name": "coordinator",
							"type": "address"
						}
					],
					"name": "OnlyOwnerOrCoordinator",
					"type": "error"
				},
				{
					"inputs": [],
					"name": "ZeroAddress",
					"type": "error"
				},
				{
					"anonymous": false,
					"inputs": [
						{
							"indexed": false,
							"internalType": "address",
							"name": "vrfCoordinator",
							"type": "address"
						}
					],
					"name": "CoordinatorSet",
					"type": "event"
				},
				{
					"anonymous": false,
					"inputs": [
						{
							"indexed": true,
							"internalType": "address",
							"name": "from",
							"type": "address"
						},
						{
							"indexed": true,
							"internalType": "address",
							"name": "to",
							"type": "address"
						}
					],
					"name": "OwnershipTransferRequested",
					"type": "event"
				},
				{
					"anonymous": false,
					"inputs": [
						{
							"indexed": true,
							"internalType": "address",
							"name": "from",
							"type": "address"
						},
						{
							"indexed": true,
							"internalType": "address",
							"name": "to",
							"type": "address"
						}
					],
					"name": "OwnershipTransferred",
					"type": "event"
				},
				{
					"anonymous": false,
					"inputs": [
						{
							"indexed": false,
							"internalType": "uint256",
							"name": "requestId",
							"type": "uint256"
						},
						{
							"indexed": false,
							"internalType": "uint256[]",
							"name": "randomWords",
							"type": "uint256[]"
						}
					],
					"name": "RequestFulfilled",
					"type": "event"
				},
				{
					"anonymous": false,
					"inputs": [
						{
							"indexed": false,
							"internalType": "uint256",
							"name": "requestId",
							"type": "uint256"
						},
						{
							"indexed": false,
							"internalType": "uint32",
							"name": "numWords",
							"type": "uint32"
						}
					],
					"name": "RequestSent",
					"type": "event"
				},
				{
					"inputs": [],
					"name": "acceptOwnership",
					"outputs": [],
					"stateMutability": "nonpayable",
					"type": "function"
				},
				{
					"inputs": [],
					"name": "callbackGasLimit",
					"outputs": [
						{
							"internalType": "uint32",
							"name": "",
							"type": "uint32"
						}
					],
					"stateMutability": "view",
					"type": "function"
				},
				{
					"inputs": [
						{
							"internalType": "uint256",
							"name": "_requestId",
							"type": "uint256"
						}
					],
					"name": "getRequestStatus",
					"outputs": [
						{
							"internalType": "bool",
							"name": "fulfilled",
							"type": "bool"
						},
						{
							"internalType": "uint256[]",
							"name": "randomWords",
							"type": "uint256[]"
						}
					],
					"stateMutability": "view",
					"type": "function"
				},
				{
					"inputs": [],
					"name": "keyHash",
					"outputs": [
						{
							"internalType": "bytes32",
							"name": "",
							"type": "bytes32"
						}
					],
					"stateMutability": "view",
					"type": "function"
				},
				{
					"inputs": [],
					"name": "lastRequestId",
					"outputs": [
						{
							"internalType": "uint256",
							"name": "",
							"type": "uint256"
						}
					],
					"stateMutability": "view",
					"type": "function"
				},
				{
					"inputs": [],
					"name": "numWords",
					"outputs": [
						{
							"internalType": "uint32",
							"name": "",
							"type": "uint32"
						}
					],
					"stateMutability": "view",
					"type": "function"
				},
				{
					"inputs": [],
					"name": "owner",
					"outputs": [
						{
							"internalType": "address",
							"name": "",
							"type": "address"
						}
					],
					"stateMutability": "view",
					"type": "function"
				},
				{
					"inputs": [
						{
							"internalType": "uint256",
							"name": "requestId",
							"type": "uint256"
						},
						{
							"internalType": "uint256[]",
							"name": "randomWords",
							"type": "uint256[]"
						}
					],
					"name": "rawFulfillRandomWords",
					"outputs": [],
					"stateMutability": "nonpayable",
					"type": "function"
				},
				{
					"inputs": [],
					"name": "requestConfirmations",
					"outputs": [
						{
							"internalType": "uint16",
							"name": "",
							"type": "uint16"
						}
					],
					"stateMutability": "view",
					"type": "function"
				},
				{
					"inputs": [
						{
							"internalType": "uint256",
							"name": "",
							"type": "uint256"
						}
					],
					"name": "requestIds",
					"outputs": [
						{
							"internalType": "uint256",
							"name": "",
							"type": "uint256"
						}
					],
					"stateMutability": "view",
					"type": "function"
				},
				{
					"inputs": [
						{
							"internalType": "bool",
							"name": "enableNativePayment",
							"type": "bool"
						}
					],
					"name": "requestRandomNumbers",
					"outputs": [
						{
							"internalType": "uint256",
							"name": "requestId",
							"type": "uint256"
						}
					],
					"stateMutability": "nonpayable",
					"type": "function"
				},
				{
					"inputs": [
						{
							"internalType": "uint256",
							"name": "",
							"type": "uint256"
						}
					],
					"name": "s_requests",
					"outputs": [
						{
							"internalType": "bool",
							"name": "fulfilled",
							"type": "bool"
						},
						{
							"internalType": "bool",
							"name": "exists",
							"type": "bool"
						}
					],
					"stateMutability": "view",
					"type": "function"
				},
				{
					"inputs": [],
					"name": "s_subscriptionId",
					"outputs": [
						{
							"internalType": "uint256",
							"name": "",
							"type": "uint256"
						}
					],
					"stateMutability": "view",
					"type": "function"
				},
				{
					"inputs": [],
					"name": "s_vrfCoordinator",
					"outputs": [
						{
							"internalType": "contract IVRFCoordinatorV2Plus",
							"name": "",
							"type": "address"
						}
					],
					"stateMutability": "view",
					"type": "function"
				},
				{
					"inputs": [
						{
							"internalType": "address",
							"name": "_vrfCoordinator",
							"type": "address"
						}
					],
					"name": "setCoordinator",
					"outputs": [],
					"stateMutability": "nonpayable",
					"type": "function"
				},
				{
					"inputs": [
						{
							"internalType": "address",
							"name": "to",
							"type": "address"
						}
					],
					"name": "transferOwnership",
					"outputs": [],
					"stateMutability": "nonpayable",
					"type": "function"
				}
			],
			"devdoc": {
				"kind": "dev",
				"methods": {},
				"version": 1
			},
			"evm": {
				"assembly": "    /* \"contracts/SubscriptionConsumer.sol\":765:4718  contract SubscriptionConsumer is VRFConsumerBaseV2Plus {... */\n  mstore(0x40, 0x80)\n    /* \"contracts/SubscriptionConsumer.sol\":1665:1731  0x787d74caea10b2b357790d5b5247c2f63d1d91572a9846f780606e4d953677ae */\n  0x787d74caea10b2b357790d5b5247c2f63d1d91572a9846f780606e4d953677ae\n    /* \"contracts/SubscriptionConsumer.sol\":1631:1731  bytes32 public keyHash =... */\n  0x00\n  shl\n  0x07\n  sstore\n    /* \"contracts/SubscriptionConsumer.sol\":2189:2195  100000 */\n  0x0186a0\n    /* \"contracts/SubscriptionConsumer.sol\":2156:2195  uint32 public callbackGasLimit = 100000 */\n  0x08\n  exp(0x0100, 0x00)\n  dup2\n  sload\n  dup2\n  0xffffffff\n  mul\n  not\n  and\n  swap1\n  dup4\n  0xffffffff\n  and\n  mul\n  or\n  swap1\n  sstore\n  pop\n    /* \"contracts/SubscriptionConsumer.sol\":2296:2297  3 */\n  0x03\n    /* \"contracts/SubscriptionConsumer.sol\":2259:2297  uint16 public requestConfirmations = 3 */\n  0x08\n  exp(0x0100, 0x04)\n  dup2\n  sload\n  dup2\n  0xffff\n  mul\n  not\n  and\n  swap1\n  dup4\n  0xffff\n  and\n  mul\n  or\n  swap1\n  sstore\n  pop\n    /* \"contracts/SubscriptionConsumer.sol\":2454:2455  1 */\n  0x01\n    /* \"contracts/SubscriptionConsumer.sol\":2429:2455  uint32 public numWords = 1 */\n  0x08\n  exp(0x0100, 0x06)\n  dup2\n  sload\n  dup2\n  0xffffffff\n  mul\n  not\n  and\n  swap1\n  dup4\n  0xffffffff\n  and\n  mul\n  or\n  swap1\n  sstore\n  pop\n    /* \"contracts/SubscriptionConsumer.sol\":2576:2746  constructor(... */\n  callvalue\n  dup1\n  iszero\n  tag_1\n  jumpi\n  0x00\n  dup1\n  revert\ntag_1:\n  pop\n  mload(0x40)\n  sub(codesize, bytecodeSize)\n  dup1\n  bytecodeSize\n  dup4\n  codecopy\n  dup2\n  dup2\n  add\n  0x40\n  mstore\n  dup2\n  add\n  swap1\n  tag_2\n  swap2\n  swap1\n  tag_3\n  jump\t// in\ntag_2:\n    /* \"contracts/SubscriptionConsumer.sol\":2650:2692  0x9DdfaCa8183c41ad55329BdeeD9F6A8d53168B1B */\n  0x9ddfaca8183c41ad55329bdeed9f6a8d53168b1b\n    /* \"@chainlink/contracts@1.4.0/src/v0.8/vrf/dev/VRFConsumerBaseV2Plus.sol\":6254:6264  msg.sender */\n  caller\n    /* \"@chainlink/contracts@1.4.0/src/v0.8/shared/access/ConfirmedOwner.sol\":355:363  newOwner */\n  dup1\n    /* \"@chainlink/contracts@1.4.0/src/v0.8/shared/access/ConfirmedOwner.sol\":373:374  0 */\n  0x00\n    /* \"@chainlink/contracts@1.4.0/src/v0.8/shared/access/ConfirmedOwnerWithProposal.sol\":618:619  0 */\n  dup1\n    /* \"@chainlink/contracts@1.4.0/src/v0.8/shared/access/ConfirmedOwnerWithProposal.sol\":598:620  newOwner != address(0) */\n  0xffffffffffffffffffffffffffffffffffffffff\n  and\n    /* \"@chainlink/contracts@1.4.0/src/v0.8/shared/access/ConfirmedOwnerWithProposal.sol\":598:606  newOwner */\n  dup3\n    /* \"@chainlink/contracts@1.4.0/src/v0.8/shared/access/ConfirmedOwnerWithProposal.sol\":598:620  newOwner != address(0) */\n  0xffffffffffffffffffffffffffffffffffffffff\n  and\n  sub\n    /* \"@chainlink/contracts@1.4.0/src/v0.8/shared/access/ConfirmedOwnerWithProposal.sol\":590:649  require(newOwner != address(0), \"Cannot set owner to zero\") */\n  tag_9\n  jumpi\n  mload(0x40)\n  0x08c379a000000000000000000000000000000000000000000000000000000000\n  dup2\n  mstore\n  0x04\n  add\n  tag_10\n  swap1\n  tag_11\n  jump\t// in\ntag_10:\n  mload(0x40)\n  dup1\n  swap2\n  sub\n  swap1\n  revert\ntag_9:\n    /* \"@chainlink/contracts@1.4.0/src/v0.8/shared/access/ConfirmedOwnerWithProposal.sol\":666:674  newOwner */\n  dup2\n    /* \"@chainlink/contracts@1.4.0/src/v0.8/shared/access/ConfirmedOwnerWithProposal.sol\":656:663  s_owner */\n  0x00\n  dup1\n    /* \"@chainlink/contracts@1.4.0/src/v0.8/shared/access/ConfirmedOwnerWithProposal.sol\":656:674  s_owner = newOwner */\n  0x0100\n  exp\n  dup2\n  sload\n  dup2\n  0xffffffffffffffffffffffffffffffffffffffff\n  mul\n  not\n  and\n  swap1\n  dup4\n  0xffffffffffffffffffffffffffffffffffffffff\n  and\n  mul\n  or\n  swap1\n  sstore\n  pop\n    /* \"@chainlink/contracts@1.4.0/src/v0.8/shared/access/ConfirmedOwnerWithProposal.sol\":708:709  0 */\n  0x00\n    /* \"@chainlink/contracts@1.4.0/src/v0.8/shared/access/ConfirmedOwnerWithProposal.sol\":684:710  pendingOwner != address(0) */\n  0xffffffffffffffffffffffffffffffffffffffff\n  and\n    /* \"@chainlink/contracts@1.4.0/src/v0.8/shared/access/ConfirmedOwnerWithProposal.sol\":684:696  pendingOwner */\n  dup2\n    /* \"@chainlink/contracts@1.4.0/src/v0.8/shared/access/ConfirmedOwnerWithProposal.sol\":684:710  pendingOwner != address(0) */\n  0xffffffffffffffffffffffffffffffffffffffff\n  and\n  eq\n    /* \"@chainlink/contracts@1.4.0/src/v0.8/shared/access/ConfirmedOwnerWithProposal.sol\":680:759  if (pendingOwner != address(0)) {... */\n  tag_12\n  jumpi\n    /* \"@chainlink/contracts@1.4.0/src/v0.8/shared/access/ConfirmedOwnerWithProposal.sol\":720:752  _transferOwnership(pendingOwner) */\n  tag_13\n    /* \"@chainlink/contracts@1.4.0/src/v0.8/shared/access/ConfirmedOwnerWithProposal.sol\":739:751  pendingOwner */\n  dup2\n    /* \"@chainlink/contracts@1.4.0/src/v0.8/shared/access/ConfirmedOwnerWithProposal.sol\":720:738  _transferOwnership */\n  shl(0x20, tag_14)\n    /* \"@chainlink/contracts@1.4.0/src/v0.8/shared/access/ConfirmedOwnerWithProposal.sol\":720:752  _transferOwnership(pendingOwner) */\n  0x20\n  shr\n  jump\t// in\ntag_13:\n    /* \"@chainlink/contracts@1.4.0/src/v0.8/shared/access/ConfirmedOwnerWithProposal.sol\":680:759  if (pendingOwner != address(0)) {... */\ntag_12:\n    /* \"@chainlink/contracts@1.4.0/src/v0.8/shared/access/ConfirmedOwnerWithProposal.sol\":481:763  constructor(address newOwner, address pendingOwner) {... */\n  pop\n  pop\n    /* \"@chainlink/contracts@1.4.0/src/v0.8/shared/access/ConfirmedOwner.sol\":298:379  constructor(address newOwner) ConfirmedOwnerWithProposal(newOwner, address(0)) {} */\n  pop\n    /* \"@chainlink/contracts@1.4.0/src/v0.8/vrf/dev/VRFConsumerBaseV2Plus.sol\":6303:6304  0 */\n  0x00\n    /* \"@chainlink/contracts@1.4.0/src/v0.8/vrf/dev/VRFConsumerBaseV2Plus.sol\":6276:6305  _vrfCoordinator == address(0) */\n  0xffffffffffffffffffffffffffffffffffffffff\n  and\n    /* \"@chainlink/contracts@1.4.0/src/v0.8/vrf/dev/VRFConsumerBaseV2Plus.sol\":6276:6291  _vrfCoordinator */\n  dup2\n    /* \"@chainlink/contracts@1.4.0/src/v0.8/vrf/dev/VRFConsumerBaseV2Plus.sol\":6276:6305  _vrfCoordinator == address(0) */\n  0xffffffffffffffffffffffffffffffffffffffff\n  and\n  sub\n    /* \"@chainlink/contracts@1.4.0/src/v0.8/vrf/dev/VRFConsumerBaseV2Plus.sol\":6272:6342  if (_vrfCoordinator == address(0)) {... */\n  tag_17\n  jumpi\n    /* \"@chainlink/contracts@1.4.0/src/v0.8/vrf/dev/VRFConsumerBaseV2Plus.sol\":6322:6335  ZeroAddress() */\n  mload(0x40)\n  0xd92e233d00000000000000000000000000000000000000000000000000000000\n  dup2\n  mstore\n  0x04\n  add\n  mload(0x40)\n  dup1\n  swap2\n  sub\n  swap1\n  revert\n    /* \"@chainlink/contracts@1.4.0/src/v0.8/vrf/dev/VRFConsumerBaseV2Plus.sol\":6272:6342  if (_vrfCoordinator == address(0)) {... */\ntag_17:\n    /* \"@chainlink/contracts@1.4.0/src/v0.8/vrf/dev/VRFConsumerBaseV2Plus.sol\":6388:6403  _vrfCoordinator */\n  dup1\n    /* \"@chainlink/contracts@1.4.0/src/v0.8/vrf/dev/VRFConsumerBaseV2Plus.sol\":6347:6363  s_vrfCoordinator */\n  0x02\n  0x00\n    /* \"@chainlink/contracts@1.4.0/src/v0.8/vrf/dev/VRFConsumerBaseV2Plus.sol\":6347:6404  s_vrfCoordinator = IVRFCoordinatorV2Plus(_vrfCoordinator) */\n  0x0100\n  exp\n  dup2\n  sload\n  dup2\n  0xffffffffffffffffffffffffffffffffffffffff\n  mul\n  not\n  and\n  swap1\n  dup4\n  0xffffffffffffffffffffffffffffffffffffffff\n  and\n  mul\n  or\n  swap1\n  sstore\n  pop\n    /* \"@chainlink/contracts@1.4.0/src/v0.8/vrf/dev/VRFConsumerBaseV2Plus.sol\":6202:6409  constructor(address _vrfCoordinator) ConfirmedOwner(msg.sender) {... */\n  pop\n    /* \"contracts/SubscriptionConsumer.sol\":2724:2738  subscriptionId */\n  dup1\n    /* \"contracts/SubscriptionConsumer.sol\":2705:2721  s_subscriptionId */\n  0x04\n    /* \"contracts/SubscriptionConsumer.sol\":2705:2738  s_subscriptionId = subscriptionId */\n  dup2\n  swap1\n  sstore\n  pop\n    /* \"contracts/SubscriptionConsumer.sol\":2576:2746  constructor(... */\n  pop\n    /* \"contracts/SubscriptionConsumer.sol\":765:4718  contract SubscriptionConsumer is VRFConsumerBaseV2Plus {... */\n  jump(tag_19)\n    /* \"@chainlink/contracts@1.4.0/src/v0.8/shared/access/ConfirmedOwnerWithProposal.sol\":1536:1775  function _transferOwnership(address to) private {... */\ntag_14:\n    /* \"@chainlink/contracts@1.4.0/src/v0.8/shared/access/ConfirmedOwnerWithProposal.sol\":1655:1665  msg.sender */\n  caller\n    /* \"@chainlink/contracts@1.4.0/src/v0.8/shared/access/ConfirmedOwnerWithProposal.sol\":1649:1665  to != msg.sender */\n  0xffffffffffffffffffffffffffffffffffffffff\n  and\n    /* \"@chainlink/contracts@1.4.0/src/v0.8/shared/access/ConfirmedOwnerWithProposal.sol\":1649:1651  to */\n  dup2\n    /* \"@chainlink/contracts@1.4.0/src/v0.8/shared/access/ConfirmedOwnerWithProposal.sol\":1649:1665  to != msg.sender */\n  0xffffffffffffffffffffffffffffffffffffffff\n  and\n  sub\n    /* \"@chainlink/contracts@1.4.0/src/v0.8/shared/access/ConfirmedOwnerWithProposal.sol\":1641:1693  require(to != msg.sender, \"Cannot transfer to self\") */\n  tag_21\n  jumpi\n  mload(0x40)\n  0x08c379a000000000000000000000000000000000000000000000000000000000\n  dup2\n  mstore\n  0x04\n  add\n  tag_22\n  swap1\n  tag_23\n  jump\t// in\ntag_22:\n  mload(0x40)\n  dup1\n  swap2\n  sub\n  swap1\n  revert\ntag_21:\n    /* \"@chainlink/contracts@1.4.0/src/v0.8/shared/access/ConfirmedOwnerWithProposal.sol\":1717:1719  to */\n  dup1\n    /* \"@chainlink/contracts@1.4.0/src/v0.8/shared/access/ConfirmedOwnerWithProposal.sol\":1700:1714  s_pendingOwner */\n  0x01\n  0x00\n    /* \"@chainlink/contracts@1.4.0/src/v0.8/shared/access/ConfirmedOwnerWithProposal.sol\":1700:1719  s_pendingOwner = to */\n  0x0100\n  exp\n  dup2\n  sload\n  dup2\n  0xffffffffffffffffffffffffffffffffffffffff\n  mul\n  not\n  and\n  swap1\n  dup4\n  0xffffffffffffffffffffffffffffffffffffffff\n  and\n  mul\n  or\n  swap1\n  sstore\n  pop\n    /* \"@chainlink/contracts@1.4.0/src/v0.8/shared/access/ConfirmedOwnerWithProposal.sol\":1767:1769  to */\n  dup1\n    /* \"@chainlink/contracts@1.4.0/src/v0.8/shared/access/ConfirmedOwnerWithProposal.sol\":1731:1770  OwnershipTransferRequested(s_owner, to) */\n  0xffffffffffffffffffffffffffffffffffffffff\n  and\n    /* \"@chainlink/contracts@1.4.0/src/v0.8/shared/access/ConfirmedOwnerWithProposal.sol\":1758:1765  s_owner */\n  0x00\n  dup1\n  sload\n  swap1\n  0x0100\n  exp\n  swap1\n  div\n  0xffffffffffffffffffffffffffffffffffffffff\n  and\n    /* \"@chainlink/contracts@1.4.0/src/v0.8/shared/access/ConfirmedOwnerWithProposal.sol\":1731:1770  OwnershipTransferRequested(s_owner, to) */\n  0xffffffffffffffffffffffffffffffffffffffff\n  and\n  0xed8889f560326eb138920d842192f0eb3dd22b4f139c87a2c57538e05bae1278\n  mload(0x40)\n  mload(0x40)\n  dup1\n  swap2\n  sub\n  swap1\n  log3\n    /* \"@chainlink/contracts@1.4.0/src/v0.8/shared/access/ConfirmedOwnerWithProposal.sol\":1536:1775  function _transferOwnership(address to) private {... */\n  pop\n  jump\t// out\n    /* \"#utility.yul\":88:205   */\ntag_25:\n    /* \"#utility.yul\":197:198   */\n  0x00\n    /* \"#utility.yul\":194:195   */\n  dup1\n    /* \"#utility.yul\":187:199   */\n  revert\n    /* \"#utility.yul\":334:411   */\ntag_27:\n    /* \"#utility.yul\":371:378   */\n  0x00\n    /* \"#utility.yul\":400:405   */\n  dup2\n    /* \"#utility.yul\":389:405   */\n  swap1\n  pop\n    /* \"#utility.yul\":334:411   */\n  swap2\n  swap1\n  pop\n  jump\t// out\n    /* \"#utility.yul\":417:539   */\ntag_28:\n    /* \"#utility.yul\":490:514   */\n  tag_41\n    /* \"#utility.yul\":508:513   */\n  dup2\n    /* \"#utility.yul\":490:514   */\n  tag_27\n  jump\t// in\ntag_41:\n    /* \"#utility.yul\":483:488   */\n  dup2\n    /* \"#utility.yul\":480:515   */\n  eq\n    /* \"#utility.yul\":470:533   */\n  tag_42\n  jumpi\n    /* \"#utility.yul\":529:530   */\n  0x00\n    /* \"#utility.yul\":526:527   */\n  dup1\n    /* \"#utility.yul\":519:531   */\n  revert\n    /* \"#utility.yul\":470:533   */\ntag_42:\n    /* \"#utility.yul\":417:539   */\n  pop\n  jump\t// out\n    /* \"#utility.yul\":545:688   */\ntag_29:\n    /* \"#utility.yul\":602:607   */\n  0x00\n    /* \"#utility.yul\":633:639   */\n  dup2\n    /* \"#utility.yul\":627:640   */\n  mload\n    /* \"#utility.yul\":618:640   */\n  swap1\n  pop\n    /* \"#utility.yul\":649:682   */\n  tag_44\n    /* \"#utility.yul\":676:681   */\n  dup2\n    /* \"#utility.yul\":649:682   */\n  tag_28\n  jump\t// in\ntag_44:\n    /* \"#utility.yul\":545:688   */\n  swap3\n  swap2\n  pop\n  pop\n  jump\t// out\n    /* \"#utility.yul\":694:1045   */\ntag_3:\n    /* \"#utility.yul\":764:770   */\n  0x00\n    /* \"#utility.yul\":813:815   */\n  0x20\n    /* \"#utility.yul\":801:810   */\n  dup3\n    /* \"#utility.yul\":792:799   */\n  dup5\n    /* \"#utility.yul\":788:811   */\n  sub\n    /* \"#utility.yul\":784:816   */\n  slt\n    /* \"#utility.yul\":781:900   */\n  iszero\n  tag_46\n  jumpi\n    /* \"#utility.yul\":819:898   */\n  tag_47\n  tag_25\n  jump\t// in\ntag_47:\n    /* \"#utility.yul\":781:900   */\ntag_46:\n    /* \"#utility.yul\":939:940   */\n  0x00\n    /* \"#utility.yul\":964:1028   */\n  tag_48\n    /* \"#utility.yul\":1020:1027   */\n  dup5\n    /* \"#utility.yul\":1011:1017   */\n  dup3\n    /* \"#utility.yul\":1000:1009   */\n  dup6\n    /* \"#utility.yul\":996:1018   */\n  add\n    /* \"#utility.yul\":964:1028   */\n  tag_29\n  jump\t// in\ntag_48:\n    /* \"#utility.yul\":954:1028   */\n  swap2\n  pop\n    /* \"#utility.yul\":910:1038   */\n  pop\n    /* \"#utility.yul\":694:1045   */\n  swap3\n  swap2\n  pop\n  pop\n  jump\t// out\n    /* \"#utility.yul\":1051:1220   */\ntag_30:\n    /* \"#utility.yul\":1135:1146   */\n  0x00\n    /* \"#utility.yul\":1169:1175   */\n  dup3\n    /* \"#utility.yul\":1164:1167   */\n  dup3\n    /* \"#utility.yul\":1157:1176   */\n  mstore\n    /* \"#utility.yul\":1209:1213   */\n  0x20\n    /* \"#utility.yul\":1204:1207   */\n  dup3\n    /* \"#utility.yul\":1200:1214   */\n  add\n    /* \"#utility.yul\":1185:1214   */\n  swap1\n  pop\n    /* \"#utility.yul\":1051:1220   */\n  swap3\n  swap2\n  pop\n  pop\n  jump\t// out\n    /* \"#utility.yul\":1226:1400   */\ntag_31:\n    /* \"#utility.yul\":1366:1392   */\n  0x43616e6e6f7420736574206f776e657220746f207a65726f0000000000000000\n    /* \"#utility.yul\":1362:1363   */\n  0x00\n    /* \"#utility.yul\":1354:1360   */\n  dup3\n    /* \"#utility.yul\":1350:1364   */\n  add\n    /* \"#utility.yul\":1343:1393   */\n  mstore\n    /* \"#utility.yul\":1226:1400   */\n  pop\n  jump\t// out\n    /* \"#utility.yul\":1406:1772   */\ntag_32:\n    /* \"#utility.yul\":1548:1551   */\n  0x00\n    /* \"#utility.yul\":1569:1636   */\n  tag_52\n    /* \"#utility.yul\":1633:1635   */\n  0x18\n    /* \"#utility.yul\":1628:1631   */\n  dup4\n    /* \"#utility.yul\":1569:1636   */\n  tag_30\n  jump\t// in\ntag_52:\n    /* \"#utility.yul\":1562:1636   */\n  swap2\n  pop\n    /* \"#utility.yul\":1645:1738   */\n  tag_53\n    /* \"#utility.yul\":1734:1737   */\n  dup3\n    /* \"#utility.yul\":1645:1738   */\n  tag_31\n  jump\t// in\ntag_53:\n    /* \"#utility.yul\":1763:1765   */\n  0x20\n    /* \"#utility.yul\":1758:1761   */\n  dup3\n    /* \"#utility.yul\":1754:1766   */\n  add\n    /* \"#utility.yul\":1747:1766   */\n  swap1\n  pop\n    /* \"#utility.yul\":1406:1772   */\n  swap2\n  swap1\n  pop\n  jump\t// out\n    /* \"#utility.yul\":1778:2197   */\ntag_11:\n    /* \"#utility.yul\":1944:1948   */\n  0x00\n    /* \"#utility.yul\":1982:1984   */\n  0x20\n    /* \"#utility.yul\":1971:1980   */\n  dup3\n    /* \"#utility.yul\":1967:1985   */\n  add\n    /* \"#utility.yul\":1959:1985   */\n  swap1\n  pop\n    /* \"#utility.yul\":2031:2040   */\n  dup2\n    /* \"#utility.yul\":2025:2029   */\n  dup2\n    /* \"#utility.yul\":2021:2041   */\n  sub\n    /* \"#utility.yul\":2017:2018   */\n  0x00\n    /* \"#utility.yul\":2006:2015   */\n  dup4\n    /* \"#utility.yul\":2002:2019   */\n  add\n    /* \"#utility.yul\":1995:2042   */\n  mstore\n    /* \"#utility.yul\":2059:2190   */\n  tag_55\n    /* \"#utility.yul\":2185:2189   */\n  dup2\n    /* \"#utility.yul\":2059:2190   */\n  tag_32\n  jump\t// in\ntag_55:\n    /* \"#utility.yul\":2051:2190   */\n  swap1\n  pop\n    /* \"#utility.yul\":1778:2197   */\n  swap2\n  swap1\n  pop\n  jump\t// out\n    /* \"#utility.yul\":2203:2376   */\ntag_33:\n    /* \"#utility.yul\":2343:2368   */\n  0x43616e6e6f74207472616e7366657220746f2073656c66000000000000000000\n    /* \"#utility.yul\":2339:2340   */\n  0x00\n    /* \"#utility.yul\":2331:2337   */\n  dup3\n    /* \"#utility.yul\":2327:2341   */\n  add\n    /* \"#utility.yul\":2320:2369   */\n  mstore\n    /* \"#utility.yul\":2203:2376   */\n  pop\n  jump\t// out\n    /* \"#utility.yul\":2382:2748   */\ntag_34:\n    /* \"#utility.yul\":2524:2527   */\n  0x00\n    /* \"#utility.yul\":2545:2612   */\n  tag_58\n    /* \"#utility.yul\":2609:2611   */\n  0x17\n    /* \"#utility.yul\":2604:2607   */\n  dup4\n    /* \"#utility.yul\":2545:2612   */\n  tag_30\n  jump\t// in\ntag_58:\n    /* \"#utility.yul\":2538:2612   */\n  swap2\n  pop\n    /* \"#utility.yul\":2621:2714   */\n  tag_59\n    /* \"#utility.yul\":2710:2713   */\n  dup3\n    /* \"#utility.yul\":2621:2714   */\n  tag_33\n  jump\t// in\ntag_59:\n    /* \"#utility.yul\":2739:2741   */\n  0x20\n    /* \"#utility.yul\":2734:2737   */\n  dup3\n    /* \"#utility.yul\":2730:2742   */\n  add\n    /* \"#utility.yul\":2723:2742   */\n  swap1\n  pop\n    /* \"#utility.yul\":2382:2748   */\n  swap2\n  swap1\n  pop\n  jump\t// out\n    /* \"#utility.yul\":2754:3173   */\ntag_23:\n    /* \"#utility.yul\":2920:2924   */\n  0x00\n    /* \"#utility.yul\":2958:2960   */\n  0x20\n    /* \"#utility.yul\":2947:2956   */\n  dup3\n    /* \"#utility.yul\":2943:2961   */\n  add\n    /* \"#utility.yul\":2935:2961   */\n  swap1\n  pop\n    /* \"#utility.yul\":3007:3016   */\n  dup2\n    /* \"#utility.yul\":3001:3005   */\n  dup2\n    /* \"#utility.yul\":2997:3017   */\n  sub\n    /* \"#utility.yul\":2993:2994   */\n  0x00\n    /* \"#utility.yul\":2982:2991   */\n  dup4\n    /* \"#utility.yul\":2978:2995   */\n  add\n    /* \"#utility.yul\":2971:3018   */\n  mstore\n    /* \"#utility.yul\":3035:3166   */\n  tag_61\n    /* \"#utility.yul\":3161:3165   */\n  dup2\n    /* \"#utility.yul\":3035:3166   */\n  tag_34\n  jump\t// in\ntag_61:\n    /* \"#utility.yul\":3027:3166   */\n  swap1\n  pop\n    /* \"#utility.yul\":2754:3173   */\n  swap2\n  swap1\n  pop\n  jump\t// out\n    /* \"contracts/SubscriptionConsumer.sol\":765:4718  contract SubscriptionConsumer is VRFConsumerBaseV2Plus {... */\ntag_19:\n  dataSize(sub_0)\n  dup1\n  dataOffset(sub_0)\n  0x00\n  codecopy\n  0x00\n  return\nstop\n\nsub_0: assembly {\n        /* \"contracts/SubscriptionConsumer.sol\":765:4718  contract SubscriptionConsumer is VRFConsumerBaseV2Plus {... */\n      mstore(0x40, 0x80)\n      callvalue\n      dup1\n      iszero\n      tag_1\n      jumpi\n      0x00\n      dup1\n      revert\n    tag_1:\n      pop\n      jumpi(tag_2, lt(calldatasize, 0x04))\n      shr(0xe0, calldataload(0x00))\n      dup1\n      0x8da5cb5b\n      gt\n      tag_19\n      jumpi\n      dup1\n      0xb0fb162f\n      gt\n      tag_20\n      jumpi\n      dup1\n      0xb0fb162f\n      eq\n      tag_15\n      jumpi\n      dup1\n      0xd8a4676f\n      eq\n      tag_16\n      jumpi\n      dup1\n      0xf2fde38b\n      eq\n      tag_17\n      jumpi\n      dup1\n      0xfc2a88c3\n      eq\n      tag_18\n      jumpi\n      jump(tag_2)\n    tag_20:\n      dup1\n      0x8da5cb5b\n      eq\n      tag_11\n      jumpi\n      dup1\n      0x8ea98117\n      eq\n      tag_12\n      jumpi\n      dup1\n      0x9eccacf6\n      eq\n      tag_13\n      jumpi\n      dup1\n      0xa168fa89\n      eq\n      tag_14\n      jumpi\n      jump(tag_2)\n    tag_19:\n      dup1\n      0x79ba5097\n      gt\n      tag_21\n      jumpi\n      dup1\n      0x79ba5097\n      eq\n      tag_7\n      jumpi\n      dup1\n      0x7ccfd7fc\n      eq\n      tag_8\n      jumpi\n      dup1\n      0x8796ba8c\n      eq\n      tag_9\n      jumpi\n      dup1\n      0x8ac00021\n      eq\n      tag_10\n      jumpi\n      jump(tag_2)\n    tag_21:\n      dup1\n      0x1fe543e3\n      eq\n      tag_3\n      jumpi\n      dup1\n      0x24f74697\n      eq\n      tag_4\n      jumpi\n      dup1\n      0x5cd8e746\n      eq\n      tag_5\n      jumpi\n      dup1\n      0x61728f39\n      eq\n      tag_6\n      jumpi\n    tag_2:\n      0x00\n      dup1\n      revert\n        /* \"@chainlink/contracts@1.4.0/src/v0.8/vrf/dev/VRFConsumerBaseV2Plus.sol\":7489:7769  function rawFulfillRandomWords(uint256 requestId, uint256[] calldata randomWords) external {... */\n    tag_3:\n      tag_22\n      0x04\n      dup1\n      calldatasize\n      sub\n      dup2\n      add\n      swap1\n      tag_23\n      swap2\n      swap1\n      tag_24\n      jump\t// in\n    tag_23:\n      tag_25\n      jump\t// in\n    tag_22:\n      stop\n        /* \"contracts/SubscriptionConsumer.sol\":2156:2195  uint32 public callbackGasLimit = 100000 */\n    tag_4:\n      tag_26\n      tag_27\n      jump\t// in\n    tag_26:\n      mload(0x40)\n      tag_28\n      swap2\n      swap1\n      tag_29\n      jump\t// in\n    tag_28:\n      mload(0x40)\n      dup1\n      swap2\n      sub\n      swap1\n      return\n        /* \"contracts/SubscriptionConsumer.sol\":2931:3998  function requestRandomNumbers(... */\n    tag_5:\n      tag_30\n      0x04\n      dup1\n      calldatasize\n      sub\n      dup2\n      add\n      swap1\n      tag_31\n      swap2\n      swap1\n      tag_32\n      jump\t// in\n    tag_31:\n      tag_33\n      jump\t// in\n    tag_30:\n      mload(0x40)\n      tag_34\n      swap2\n      swap1\n      tag_35\n      jump\t// in\n    tag_34:\n      mload(0x40)\n      dup1\n      swap2\n      sub\n      swap1\n      return\n        /* \"contracts/SubscriptionConsumer.sol\":1631:1731  bytes32 public keyHash =... */\n    tag_6:\n      tag_36\n      tag_37\n      jump\t// in\n    tag_36:\n      mload(0x40)\n      tag_38\n      swap2\n      swap1\n      tag_39\n      jump\t// in\n    tag_38:\n      mload(0x40)\n      dup1\n      swap2\n      sub\n      swap1\n      return\n        /* \"@chainlink/contracts@1.4.0/src/v0.8/shared/access/ConfirmedOwnerWithProposal.sol\":1026:1342  function acceptOwnership() external override {... */\n    tag_7:\n      tag_40\n      tag_41\n      jump\t// in\n    tag_40:\n      stop\n        /* \"contracts/SubscriptionConsumer.sol\":2429:2455  uint32 public numWords = 1 */\n    tag_8:\n      tag_42\n      tag_43\n      jump\t// in\n    tag_42:\n      mload(0x40)\n      tag_44\n      swap2\n      swap1\n      tag_29\n      jump\t// in\n    tag_44:\n      mload(0x40)\n      dup1\n      swap2\n      sub\n      swap1\n      return\n        /* \"contracts/SubscriptionConsumer.sol\":1358:1385  uint256[] public requestIds */\n    tag_9:\n      tag_45\n      0x04\n      dup1\n      calldatasize\n      sub\n      dup2\n      add\n      swap1\n      tag_46\n      swap2\n      swap1\n      tag_47\n      jump\t// in\n    tag_46:\n      tag_48\n      jump\t// in\n    tag_45:\n      mload(0x40)\n      tag_49\n      swap2\n      swap1\n      tag_35\n      jump\t// in\n    tag_49:\n      mload(0x40)\n      dup1\n      swap2\n      sub\n      swap1\n      return\n        /* \"contracts/SubscriptionConsumer.sol\":1292:1323  uint256 public s_subscriptionId */\n    tag_10:\n      tag_50\n      tag_51\n      jump\t// in\n    tag_50:\n      mload(0x40)\n      tag_52\n      swap2\n      swap1\n      tag_35\n      jump\t// in\n    tag_52:\n      mload(0x40)\n      dup1\n      swap2\n      sub\n      swap1\n      return\n        /* \"@chainlink/contracts@1.4.0/src/v0.8/shared/access/ConfirmedOwnerWithProposal.sol\":1382:1463  function owner() public view override returns (address) {... */\n    tag_11:\n      tag_53\n      tag_54\n      jump\t// in\n    tag_53:\n      mload(0x40)\n      tag_55\n      swap2\n      swap1\n      tag_56\n      jump\t// in\n    tag_55:\n      mload(0x40)\n      dup1\n      swap2\n      sub\n      swap1\n      return\n        /* \"@chainlink/contracts@1.4.0/src/v0.8/vrf/dev/VRFConsumerBaseV2Plus.sol\":7831:8107  function setCoordinator(address _vrfCoordinator) external override onlyOwnerOrCoordinator {... */\n    tag_12:\n      tag_57\n      0x04\n      dup1\n      calldatasize\n      sub\n      dup2\n      add\n      swap1\n      tag_58\n      swap2\n      swap1\n      tag_59\n      jump\t// in\n    tag_58:\n      tag_60\n      jump\t// in\n    tag_57:\n      stop\n        /* \"@chainlink/contracts@1.4.0/src/v0.8/vrf/dev/VRFConsumerBaseV2Plus.sol\":6077:6122  IVRFCoordinatorV2Plus public s_vrfCoordinator */\n    tag_13:\n      tag_61\n      tag_62\n      jump\t// in\n    tag_61:\n      mload(0x40)\n      tag_63\n      swap2\n      swap1\n      tag_64\n      jump\t// in\n    tag_63:\n      mload(0x40)\n      dup1\n      swap2\n      sub\n      swap1\n      return\n        /* \"contracts/SubscriptionConsumer.sol\":1159:1219  mapping(uint256 => RequestStatus)... */\n    tag_14:\n      tag_65\n      0x04\n      dup1\n      calldatasize\n      sub\n      dup2\n      add\n      swap1\n      tag_66\n      swap2\n      swap1\n      tag_47\n      jump\t// in\n    tag_66:\n      tag_67\n      jump\t// in\n    tag_65:\n      mload(0x40)\n      tag_68\n      swap3\n      swap2\n      swap1\n      tag_69\n      jump\t// in\n    tag_68:\n      mload(0x40)\n      dup1\n      swap2\n      sub\n      swap1\n      return\n        /* \"contracts/SubscriptionConsumer.sol\":2259:2297  uint16 public requestConfirmations = 3 */\n    tag_15:\n      tag_70\n      tag_71\n      jump\t// in\n    tag_70:\n      mload(0x40)\n      tag_72\n      swap2\n      swap1\n      tag_73\n      jump\t// in\n    tag_72:\n      mload(0x40)\n      dup1\n      swap2\n      sub\n      swap1\n      return\n        /* \"contracts/SubscriptionConsumer.sol\":4384:4715  function getRequestStatus(... */\n    tag_16:\n      tag_74\n      0x04\n      dup1\n      calldatasize\n      sub\n      dup2\n      add\n      swap1\n      tag_75\n      swap2\n      swap1\n      tag_47\n      jump\t// in\n    tag_75:\n      tag_76\n      jump\t// in\n    tag_74:\n      mload(0x40)\n      tag_77\n      swap3\n      swap2\n      swap1\n      tag_78\n      jump\t// in\n    tag_77:\n      mload(0x40)\n      dup1\n      swap2\n      sub\n      swap1\n      return\n        /* \"@chainlink/contracts@1.4.0/src/v0.8/shared/access/ConfirmedOwnerWithProposal.sol\":847:945  function transferOwnership(address to) public override onlyOwner {... */\n    tag_17:\n      tag_79\n      0x04\n      dup1\n      calldatasize\n      sub\n      dup2\n      add\n      swap1\n      tag_80\n      swap2\n      swap1\n      tag_59\n      jump\t// in\n    tag_80:\n      tag_81\n      jump\t// in\n    tag_79:\n      stop\n        /* \"contracts/SubscriptionConsumer.sol\":1392:1420  uint256 public lastRequestId */\n    tag_18:\n      tag_82\n      tag_83\n      jump\t// in\n    tag_82:\n      mload(0x40)\n      tag_84\n      swap2\n      swap1\n      tag_35\n      jump\t// in\n    tag_84:\n      mload(0x40)\n      dup1\n      swap2\n      sub\n      swap1\n      return\n        /* \"@chainlink/contracts@1.4.0/src/v0.8/vrf/dev/VRFConsumerBaseV2Plus.sol\":7489:7769  function rawFulfillRandomWords(uint256 requestId, uint256[] calldata randomWords) external {... */\n    tag_25:\n        /* \"@chainlink/contracts@1.4.0/src/v0.8/vrf/dev/VRFConsumerBaseV2Plus.sol\":7612:7628  s_vrfCoordinator */\n      0x02\n      0x00\n      swap1\n      sload\n      swap1\n      0x0100\n      exp\n      swap1\n      div\n      0xffffffffffffffffffffffffffffffffffffffff\n      and\n        /* \"@chainlink/contracts@1.4.0/src/v0.8/vrf/dev/VRFConsumerBaseV2Plus.sol\":7590:7629  msg.sender != address(s_vrfCoordinator) */\n      0xffffffffffffffffffffffffffffffffffffffff\n      and\n        /* \"@chainlink/contracts@1.4.0/src/v0.8/vrf/dev/VRFConsumerBaseV2Plus.sol\":7590:7600  msg.sender */\n      caller\n        /* \"@chainlink/contracts@1.4.0/src/v0.8/vrf/dev/VRFConsumerBaseV2Plus.sol\":7590:7629  msg.sender != address(s_vrfCoordinator) */\n      0xffffffffffffffffffffffffffffffffffffffff\n      and\n      eq\n        /* \"@chainlink/contracts@1.4.0/src/v0.8/vrf/dev/VRFConsumerBaseV2Plus.sol\":7586:7717  if (msg.sender != address(s_vrfCoordinator)) {... */\n      tag_86\n      jumpi\n        /* \"@chainlink/contracts@1.4.0/src/v0.8/vrf/dev/VRFConsumerBaseV2Plus.sol\":7672:7682  msg.sender */\n      caller\n        /* \"@chainlink/contracts@1.4.0/src/v0.8/vrf/dev/VRFConsumerBaseV2Plus.sol\":7692:7708  s_vrfCoordinator */\n      0x02\n      0x00\n      swap1\n      sload\n      swap1\n      0x0100\n      exp\n      swap1\n      div\n      0xffffffffffffffffffffffffffffffffffffffff\n      and\n        /* \"@chainlink/contracts@1.4.0/src/v0.8/vrf/dev/VRFConsumerBaseV2Plus.sol\":7646:7710  OnlyCoordinatorCanFulfill(msg.sender, address(s_vrfCoordinator)) */\n      mload(0x40)\n      0x1cf993f400000000000000000000000000000000000000000000000000000000\n      dup2\n      mstore\n      0x04\n      add\n      tag_87\n      swap3\n      swap2\n      swap1\n      tag_88\n      jump\t// in\n    tag_87:\n      mload(0x40)\n      dup1\n      swap2\n      sub\n      swap1\n      revert\n        /* \"@chainlink/contracts@1.4.0/src/v0.8/vrf/dev/VRFConsumerBaseV2Plus.sol\":7586:7717  if (msg.sender != address(s_vrfCoordinator)) {... */\n    tag_86:\n        /* \"@chainlink/contracts@1.4.0/src/v0.8/vrf/dev/VRFConsumerBaseV2Plus.sol\":7722:7764  fulfillRandomWords(requestId, randomWords) */\n      tag_89\n        /* \"@chainlink/contracts@1.4.0/src/v0.8/vrf/dev/VRFConsumerBaseV2Plus.sol\":7741:7750  requestId */\n      dup4\n        /* \"@chainlink/contracts@1.4.0/src/v0.8/vrf/dev/VRFConsumerBaseV2Plus.sol\":7752:7763  randomWords */\n      dup4\n      dup4\n        /* \"@chainlink/contracts@1.4.0/src/v0.8/vrf/dev/VRFConsumerBaseV2Plus.sol\":7722:7740  fulfillRandomWords */\n      tag_90\n        /* \"@chainlink/contracts@1.4.0/src/v0.8/vrf/dev/VRFConsumerBaseV2Plus.sol\":7722:7764  fulfillRandomWords(requestId, randomWords) */\n      jump\t// in\n    tag_89:\n        /* \"@chainlink/contracts@1.4.0/src/v0.8/vrf/dev/VRFConsumerBaseV2Plus.sol\":7489:7769  function rawFulfillRandomWords(uint256 requestId, uint256[] calldata randomWords) external {... */\n      pop\n      pop\n      pop\n      jump\t// out\n        /* \"contracts/SubscriptionConsumer.sol\":2156:2195  uint32 public callbackGasLimit = 100000 */\n    tag_27:\n      0x08\n      0x00\n      swap1\n      sload\n      swap1\n      0x0100\n      exp\n      swap1\n      div\n      0xffffffff\n      and\n      dup2\n      jump\t// out\n        /* \"contracts/SubscriptionConsumer.sol\":2931:3998  function requestRandomNumbers(... */\n    tag_33:\n        /* \"contracts/SubscriptionConsumer.sol\":3021:3038  uint256 requestId */\n      0x00\n        /* \"contracts/SubscriptionConsumer.sol\":3126:3142  s_vrfCoordinator */\n      0x02\n      0x00\n      swap1\n      sload\n      swap1\n      0x0100\n      exp\n      swap1\n      div\n      0xffffffffffffffffffffffffffffffffffffffff\n      and\n        /* \"contracts/SubscriptionConsumer.sol\":3126:3161  s_vrfCoordinator.requestRandomWords */\n      0xffffffffffffffffffffffffffffffffffffffff\n      and\n      0x9b1c385e\n        /* \"contracts/SubscriptionConsumer.sol\":3176:3668  VRFV2PlusClient.RandomWordsRequest({... */\n      mload(0x40)\n      dup1\n      0xc0\n      add\n      0x40\n      mstore\n      dup1\n        /* \"contracts/SubscriptionConsumer.sol\":3239:3246  keyHash */\n      sload(0x07)\n        /* \"contracts/SubscriptionConsumer.sol\":3176:3668  VRFV2PlusClient.RandomWordsRequest({... */\n      dup2\n      mstore\n      0x20\n      add\n        /* \"contracts/SubscriptionConsumer.sol\":3272:3288  s_subscriptionId */\n      sload(0x04)\n        /* \"contracts/SubscriptionConsumer.sol\":3176:3668  VRFV2PlusClient.RandomWordsRequest({... */\n      dup2\n      mstore\n      0x20\n      add\n        /* \"contracts/SubscriptionConsumer.sol\":3329:3349  requestConfirmations */\n      0x08\n      0x04\n      swap1\n      sload\n      swap1\n      0x0100\n      exp\n      swap1\n      div\n      0xffff\n      and\n        /* \"contracts/SubscriptionConsumer.sol\":3176:3668  VRFV2PlusClient.RandomWordsRequest({... */\n      0xffff\n      and\n      dup2\n      mstore\n      0x20\n      add\n        /* \"contracts/SubscriptionConsumer.sol\":3386:3402  callbackGasLimit */\n      0x08\n      0x00\n      swap1\n      sload\n      swap1\n      0x0100\n      exp\n      swap1\n      div\n      0xffffffff\n      and\n        /* \"contracts/SubscriptionConsumer.sol\":3176:3668  VRFV2PlusClient.RandomWordsRequest({... */\n      0xffffffff\n      and\n      dup2\n      mstore\n      0x20\n      add\n        /* \"contracts/SubscriptionConsumer.sol\":3431:3439  numWords */\n      0x08\n      0x06\n      swap1\n      sload\n      swap1\n      0x0100\n      exp\n      swap1\n      div\n      0xffffffff\n      and\n        /* \"contracts/SubscriptionConsumer.sol\":3176:3668  VRFV2PlusClient.RandomWordsRequest({... */\n      0xffffffff\n      and\n      dup2\n      mstore\n      0x20\n      add\n        /* \"contracts/SubscriptionConsumer.sol\":3469:3652  VRFV2PlusClient._argsToBytes(... */\n      tag_92\n        /* \"contracts/SubscriptionConsumer.sol\":3520:3633  VRFV2PlusClient.ExtraArgsV1({... */\n      mload(0x40)\n      dup1\n      0x20\n      add\n      0x40\n      mstore\n      dup1\n        /* \"contracts/SubscriptionConsumer.sol\":3590:3609  enableNativePayment */\n      dup9\n        /* \"contracts/SubscriptionConsumer.sol\":3520:3633  VRFV2PlusClient.ExtraArgsV1({... */\n      iszero\n      iszero\n      dup2\n      mstore\n      pop\n        /* \"contracts/SubscriptionConsumer.sol\":3469:3497  VRFV2PlusClient._argsToBytes */\n      tag_93\n        /* \"contracts/SubscriptionConsumer.sol\":3469:3652  VRFV2PlusClient._argsToBytes(... */\n      jump\t// in\n    tag_92:\n        /* \"contracts/SubscriptionConsumer.sol\":3176:3668  VRFV2PlusClient.RandomWordsRequest({... */\n      dup2\n      mstore\n      pop\n        /* \"contracts/SubscriptionConsumer.sol\":3126:3679  s_vrfCoordinator.requestRandomWords(... */\n      mload(0x40)\n      dup3\n      0xffffffff\n      and\n      0xe0\n      shl\n      dup2\n      mstore\n      0x04\n      add\n      tag_94\n      swap2\n      swap1\n      tag_95\n      jump\t// in\n    tag_94:\n      0x20\n      mload(0x40)\n      dup1\n      dup4\n      sub\n      dup2\n      0x00\n      dup8\n      gas\n      call\n      iszero\n      dup1\n      iszero\n      tag_97\n      jumpi\n      returndatasize\n      0x00\n      dup1\n      returndatacopy\n      revert(0x00, returndatasize)\n    tag_97:\n      pop\n      pop\n      pop\n      pop\n      mload(0x40)\n      returndatasize\n      not(0x1f)\n      0x1f\n      dup3\n      add\n      and\n      dup3\n      add\n      dup1\n      0x40\n      mstore\n      pop\n      dup2\n      add\n      swap1\n      tag_98\n      swap2\n      swap1\n      tag_99\n      jump\t// in\n    tag_98:\n        /* \"contracts/SubscriptionConsumer.sol\":3114:3679  requestId = s_vrfCoordinator.requestRandomWords(... */\n      swap1\n      pop\n        /* \"contracts/SubscriptionConsumer.sol\":3714:3842  RequestStatus({... */\n      mload(0x40)\n      dup1\n      0x60\n      add\n      0x40\n      mstore\n      dup1\n        /* \"contracts/SubscriptionConsumer.sol\":3825:3830  false */\n      0x00\n        /* \"contracts/SubscriptionConsumer.sol\":3714:3842  RequestStatus({... */\n      iszero\n      iszero\n      dup2\n      mstore\n      0x20\n      add\n        /* \"contracts/SubscriptionConsumer.sol\":3795:3799  true */\n      0x01\n        /* \"contracts/SubscriptionConsumer.sol\":3714:3842  RequestStatus({... */\n      iszero\n      iszero\n      dup2\n      mstore\n      0x20\n      add\n        /* \"contracts/SubscriptionConsumer.sol\":3770:3771  0 */\n      0x00\n        /* \"contracts/SubscriptionConsumer.sol\":3756:3772  new uint256[](0) */\n      0xffffffffffffffff\n      dup2\n      gt\n      iszero\n      tag_100\n      jumpi\n      tag_101\n      tag_102\n      jump\t// in\n    tag_101:\n    tag_100:\n      mload(0x40)\n      swap1\n      dup1\n      dup3\n      mstore\n      dup1\n      0x20\n      mul\n      0x20\n      add\n      dup3\n      add\n      0x40\n      mstore\n      dup1\n      iszero\n      tag_103\n      jumpi\n      dup2\n      0x20\n      add\n      0x20\n      dup3\n      mul\n      dup1\n      calldatasize\n      dup4\n      calldatacopy\n      dup1\n      dup3\n      add\n      swap2\n      pop\n      pop\n      swap1\n      pop\n    tag_103:\n      pop\n        /* \"contracts/SubscriptionConsumer.sol\":3714:3842  RequestStatus({... */\n      dup2\n      mstore\n      pop\n        /* \"contracts/SubscriptionConsumer.sol\":3690:3700  s_requests */\n      0x03\n        /* \"contracts/SubscriptionConsumer.sol\":3690:3711  s_requests[requestId] */\n      0x00\n        /* \"contracts/SubscriptionConsumer.sol\":3701:3710  requestId */\n      dup4\n        /* \"contracts/SubscriptionConsumer.sol\":3690:3711  s_requests[requestId] */\n      dup2\n      mstore\n      0x20\n      add\n      swap1\n      dup2\n      mstore\n      0x20\n      add\n      0x00\n      keccak256\n        /* \"contracts/SubscriptionConsumer.sol\":3690:3842  s_requests[requestId] = RequestStatus({... */\n      0x00\n      dup3\n      add\n      mload\n      dup2\n      0x00\n      add\n      exp(0x0100, 0x00)\n      dup2\n      sload\n      dup2\n      0xff\n      mul\n      not\n      and\n      swap1\n      dup4\n      iszero\n      iszero\n      mul\n      or\n      swap1\n      sstore\n      pop\n      0x20\n      dup3\n      add\n      mload\n      dup2\n      0x00\n      add\n      exp(0x0100, 0x01)\n      dup2\n      sload\n      dup2\n      0xff\n      mul\n      not\n      and\n      swap1\n      dup4\n      iszero\n      iszero\n      mul\n      or\n      swap1\n      sstore\n      pop\n      0x40\n      dup3\n      add\n      mload\n      dup2\n      0x01\n      add\n      swap1\n      dup1\n      mload\n      swap1\n      0x20\n      add\n      swap1\n      tag_104\n      swap3\n      swap2\n      swap1\n      tag_105\n      jump\t// in\n    tag_104:\n      pop\n      swap1\n      pop\n      pop\n        /* \"contracts/SubscriptionConsumer.sol\":3853:3863  requestIds */\n      0x05\n        /* \"contracts/SubscriptionConsumer.sol\":3869:3878  requestId */\n      dup2\n        /* \"contracts/SubscriptionConsumer.sol\":3853:3879  requestIds.push(requestId) */\n      swap1\n      dup1\n      0x01\n      dup2\n      sload\n      add\n      dup1\n      dup3\n      sstore\n      dup1\n      swap2\n      pop\n      pop\n      0x01\n      swap1\n      sub\n      swap1\n      0x00\n      mstore\n      keccak256(0x00, 0x20)\n      add\n      0x00\n      swap1\n      swap2\n      swap1\n      swap2\n      swap1\n      swap2\n      pop\n      sstore\n        /* \"contracts/SubscriptionConsumer.sol\":3906:3915  requestId */\n      dup1\n        /* \"contracts/SubscriptionConsumer.sol\":3890:3903  lastRequestId */\n      0x06\n        /* \"contracts/SubscriptionConsumer.sol\":3890:3915  lastRequestId = requestId */\n      dup2\n      swap1\n      sstore\n      pop\n        /* \"contracts/SubscriptionConsumer.sol\":3931:3963  RequestSent(requestId, numWords) */\n      0xcc58b13ad3eab50626c6a6300b1d139cd6ebb1688a7cced9461c2f7e762665ee\n        /* \"contracts/SubscriptionConsumer.sol\":3943:3952  requestId */\n      dup2\n        /* \"contracts/SubscriptionConsumer.sol\":3954:3962  numWords */\n      0x08\n      0x06\n      swap1\n      sload\n      swap1\n      0x0100\n      exp\n      swap1\n      div\n      0xffffffff\n      and\n        /* \"contracts/SubscriptionConsumer.sol\":3931:3963  RequestSent(requestId, numWords) */\n      mload(0x40)\n      tag_107\n      swap3\n      swap2\n      swap1\n      tag_108\n      jump\t// in\n    tag_107:\n      mload(0x40)\n      dup1\n      swap2\n      sub\n      swap1\n      log1\n        /* \"contracts/SubscriptionConsumer.sol\":2931:3998  function requestRandomNumbers(... */\n      swap2\n      swap1\n      pop\n      jump\t// out\n        /* \"contracts/SubscriptionConsumer.sol\":1631:1731  bytes32 public keyHash =... */\n    tag_37:\n      sload(0x07)\n      dup2\n      jump\t// out\n        /* \"@chainlink/contracts@1.4.0/src/v0.8/shared/access/ConfirmedOwnerWithProposal.sol\":1026:1342  function acceptOwnership() external override {... */\n    tag_41:\n        /* \"@chainlink/contracts@1.4.0/src/v0.8/shared/access/ConfirmedOwnerWithProposal.sol\":1150:1164  s_pendingOwner */\n      0x01\n      0x00\n      swap1\n      sload\n      swap1\n      0x0100\n      exp\n      swap1\n      div\n      0xffffffffffffffffffffffffffffffffffffffff\n      and\n        /* \"@chainlink/contracts@1.4.0/src/v0.8/shared/access/ConfirmedOwnerWithProposal.sol\":1136:1164  msg.sender == s_pendingOwner */\n      0xffffffffffffffffffffffffffffffffffffffff\n      and\n        /* \"@chainlink/contracts@1.4.0/src/v0.8/shared/access/ConfirmedOwnerWithProposal.sol\":1136:1146  msg.sender */\n      caller\n        /* \"@chainlink/contracts@1.4.0/src/v0.8/shared/access/ConfirmedOwnerWithProposal.sol\":1136:1164  msg.sender == s_pendingOwner */\n      0xffffffffffffffffffffffffffffffffffffffff\n      and\n      eq\n        /* \"@chainlink/contracts@1.4.0/src/v0.8/shared/access/ConfirmedOwnerWithProposal.sol\":1128:1191  require(msg.sender == s_pendingOwner, \"Must be proposed owner\") */\n      tag_110\n      jumpi\n      mload(0x40)\n      0x08c379a000000000000000000000000000000000000000000000000000000000\n      dup2\n      mstore\n      0x04\n      add\n      tag_111\n      swap1\n      tag_112\n      jump\t// in\n    tag_111:\n      mload(0x40)\n      dup1\n      swap2\n      sub\n      swap1\n      revert\n    tag_110:\n        /* \"@chainlink/contracts@1.4.0/src/v0.8/shared/access/ConfirmedOwnerWithProposal.sol\":1198:1214  address oldOwner */\n      0x00\n        /* \"@chainlink/contracts@1.4.0/src/v0.8/shared/access/ConfirmedOwnerWithProposal.sol\":1217:1224  s_owner */\n      dup1\n      0x00\n      swap1\n      sload\n      swap1\n      0x0100\n      exp\n      swap1\n      div\n      0xffffffffffffffffffffffffffffffffffffffff\n      and\n        /* \"@chainlink/contracts@1.4.0/src/v0.8/shared/access/ConfirmedOwnerWithProposal.sol\":1198:1224  address oldOwner = s_owner */\n      swap1\n      pop\n        /* \"@chainlink/contracts@1.4.0/src/v0.8/shared/access/ConfirmedOwnerWithProposal.sol\":1240:1250  msg.sender */\n      caller\n        /* \"@chainlink/contracts@1.4.0/src/v0.8/shared/access/ConfirmedOwnerWithProposal.sol\":1230:1237  s_owner */\n      0x00\n      dup1\n        /* \"@chainlink/contracts@1.4.0/src/v0.8/shared/access/ConfirmedOwnerWithProposal.sol\":1230:1250  s_owner = msg.sender */\n      0x0100\n      exp\n      dup2\n      sload\n      dup2\n      0xffffffffffffffffffffffffffffffffffffffff\n      mul\n      not\n      and\n      swap1\n      dup4\n      0xffffffffffffffffffffffffffffffffffffffff\n      and\n      mul\n      or\n      swap1\n      sstore\n      pop\n        /* \"@chainlink/contracts@1.4.0/src/v0.8/shared/access/ConfirmedOwnerWithProposal.sol\":1281:1282  0 */\n      0x00\n        /* \"@chainlink/contracts@1.4.0/src/v0.8/shared/access/ConfirmedOwnerWithProposal.sol\":1256:1270  s_pendingOwner */\n      0x01\n      0x00\n        /* \"@chainlink/contracts@1.4.0/src/v0.8/shared/access/ConfirmedOwnerWithProposal.sol\":1256:1283  s_pendingOwner = address(0) */\n      0x0100\n      exp\n      dup2\n      sload\n      dup2\n      0xffffffffffffffffffffffffffffffffffffffff\n      mul\n      not\n      and\n      swap1\n      dup4\n      0xffffffffffffffffffffffffffffffffffffffff\n      and\n      mul\n      or\n      swap1\n      sstore\n      pop\n        /* \"@chainlink/contracts@1.4.0/src/v0.8/shared/access/ConfirmedOwnerWithProposal.sol\":1326:1336  msg.sender */\n      caller\n        /* \"@chainlink/contracts@1.4.0/src/v0.8/shared/access/ConfirmedOwnerWithProposal.sol\":1295:1337  OwnershipTransferred(oldOwner, msg.sender) */\n      0xffffffffffffffffffffffffffffffffffffffff\n      and\n        /* \"@chainlink/contracts@1.4.0/src/v0.8/shared/access/ConfirmedOwnerWithProposal.sol\":1316:1324  oldOwner */\n      dup2\n        /* \"@chainlink/contracts@1.4.0/src/v0.8/shared/access/ConfirmedOwnerWithProposal.sol\":1295:1337  OwnershipTransferred(oldOwner, msg.sender) */\n      0xffffffffffffffffffffffffffffffffffffffff\n      and\n      0x8be0079c531659141344cd1fd0a4f28419497f9722a3daafe3b4186f6b6457e0\n      mload(0x40)\n      mload(0x40)\n      dup1\n      swap2\n      sub\n      swap1\n      log3\n        /* \"@chainlink/contracts@1.4.0/src/v0.8/shared/access/ConfirmedOwnerWithProposal.sol\":1071:1342  {... */\n      pop\n        /* \"@chainlink/contracts@1.4.0/src/v0.8/shared/access/ConfirmedOwnerWithProposal.sol\":1026:1342  function acceptOwnership() external override {... */\n      jump\t// out\n        /* \"contracts/SubscriptionConsumer.sol\":2429:2455  uint32 public numWords = 1 */\n    tag_43:\n      0x08\n      0x06\n      swap1\n      sload\n      swap1\n      0x0100\n      exp\n      swap1\n      div\n      0xffffffff\n      and\n      dup2\n      jump\t// out\n        /* \"contracts/SubscriptionConsumer.sol\":1358:1385  uint256[] public requestIds */\n    tag_48:\n      0x05\n      dup2\n      dup2\n      sload\n      dup2\n      lt\n      tag_113\n      jumpi\n      0x00\n      dup1\n      revert\n    tag_113:\n      swap1\n      0x00\n      mstore\n      keccak256(0x00, 0x20)\n      add\n      0x00\n      swap2\n      pop\n      swap1\n      pop\n      sload\n      dup2\n      jump\t// out\n        /* \"contracts/SubscriptionConsumer.sol\":1292:1323  uint256 public s_subscriptionId */\n    tag_51:\n      sload(0x04)\n      dup2\n      jump\t// out\n        /* \"@chainlink/contracts@1.4.0/src/v0.8/shared/access/ConfirmedOwnerWithProposal.sol\":1382:1463  function owner() public view override returns (address) {... */\n    tag_54:\n        /* \"@chainlink/contracts@1.4.0/src/v0.8/shared/access/ConfirmedOwnerWithProposal.sol\":1429:1436  address */\n      0x00\n        /* \"@chainlink/contracts@1.4.0/src/v0.8/shared/access/ConfirmedOwnerWithProposal.sol\":1451:1458  s_owner */\n      dup1\n      0x00\n      swap1\n      sload\n      swap1\n      0x0100\n      exp\n      swap1\n      div\n      0xffffffffffffffffffffffffffffffffffffffff\n      and\n        /* \"@chainlink/contracts@1.4.0/src/v0.8/shared/access/ConfirmedOwnerWithProposal.sol\":1444:1458  return s_owner */\n      swap1\n      pop\n        /* \"@chainlink/contracts@1.4.0/src/v0.8/shared/access/ConfirmedOwnerWithProposal.sol\":1382:1463  function owner() public view override returns (address) {... */\n      swap1\n      jump\t// out\n        /* \"@chainlink/contracts@1.4.0/src/v0.8/vrf/dev/VRFConsumerBaseV2Plus.sol\":7831:8107  function setCoordinator(address _vrfCoordinator) external override onlyOwnerOrCoordinator {... */\n    tag_60:\n        /* \"@chainlink/contracts@1.4.0/src/v0.8/vrf/dev/VRFConsumerBaseV2Plus.sol\":8169:8176  owner() */\n      tag_117\n        /* \"@chainlink/contracts@1.4.0/src/v0.8/vrf/dev/VRFConsumerBaseV2Plus.sol\":8169:8174  owner */\n      tag_54\n        /* \"@chainlink/contracts@1.4.0/src/v0.8/vrf/dev/VRFConsumerBaseV2Plus.sol\":8169:8176  owner() */\n      jump\t// in\n    tag_117:\n        /* \"@chainlink/contracts@1.4.0/src/v0.8/vrf/dev/VRFConsumerBaseV2Plus.sol\":8155:8176  msg.sender != owner() */\n      0xffffffffffffffffffffffffffffffffffffffff\n      and\n        /* \"@chainlink/contracts@1.4.0/src/v0.8/vrf/dev/VRFConsumerBaseV2Plus.sol\":8155:8165  msg.sender */\n      caller\n        /* \"@chainlink/contracts@1.4.0/src/v0.8/vrf/dev/VRFConsumerBaseV2Plus.sol\":8155:8176  msg.sender != owner() */\n      0xffffffffffffffffffffffffffffffffffffffff\n      and\n      eq\n      iszero\n        /* \"@chainlink/contracts@1.4.0/src/v0.8/vrf/dev/VRFConsumerBaseV2Plus.sol\":8155:8219  msg.sender != owner() && msg.sender != address(s_vrfCoordinator) */\n      dup1\n      iszero\n      tag_118\n      jumpi\n      pop\n        /* \"@chainlink/contracts@1.4.0/src/v0.8/vrf/dev/VRFConsumerBaseV2Plus.sol\":8202:8218  s_vrfCoordinator */\n      0x02\n      0x00\n      swap1\n      sload\n      swap1\n      0x0100\n      exp\n      swap1\n      div\n      0xffffffffffffffffffffffffffffffffffffffff\n      and\n        /* \"@chainlink/contracts@1.4.0/src/v0.8/vrf/dev/VRFConsumerBaseV2Plus.sol\":8180:8219  msg.sender != address(s_vrfCoordinator) */\n      0xffffffffffffffffffffffffffffffffffffffff\n      and\n        /* \"@chainlink/contracts@1.4.0/src/v0.8/vrf/dev/VRFConsumerBaseV2Plus.sol\":8180:8190  msg.sender */\n      caller\n        /* \"@chainlink/contracts@1.4.0/src/v0.8/vrf/dev/VRFConsumerBaseV2Plus.sol\":8180:8219  msg.sender != address(s_vrfCoordinator) */\n      0xffffffffffffffffffffffffffffffffffffffff\n      and\n      eq\n      iszero\n        /* \"@chainlink/contracts@1.4.0/src/v0.8/vrf/dev/VRFConsumerBaseV2Plus.sol\":8155:8219  msg.sender != owner() && msg.sender != address(s_vrfCoordinator) */\n    tag_118:\n        /* \"@chainlink/contracts@1.4.0/src/v0.8/vrf/dev/VRFConsumerBaseV2Plus.sol\":8151:8313  if (msg.sender != owner() && msg.sender != address(s_vrfCoordinator)) {... */\n      iszero\n      tag_119\n      jumpi\n        /* \"@chainlink/contracts@1.4.0/src/v0.8/vrf/dev/VRFConsumerBaseV2Plus.sol\":8259:8269  msg.sender */\n      caller\n        /* \"@chainlink/contracts@1.4.0/src/v0.8/vrf/dev/VRFConsumerBaseV2Plus.sol\":8271:8278  owner() */\n      tag_120\n        /* \"@chainlink/contracts@1.4.0/src/v0.8/vrf/dev/VRFConsumerBaseV2Plus.sol\":8271:8276  owner */\n      tag_54\n        /* \"@chainlink/contracts@1.4.0/src/v0.8/vrf/dev/VRFConsumerBaseV2Plus.sol\":8271:8278  owner() */\n      jump\t// in\n    tag_120:\n        /* \"@chainlink/contracts@1.4.0/src/v0.8/vrf/dev/VRFConsumerBaseV2Plus.sol\":8288:8304  s_vrfCoordinator */\n      0x02\n      0x00\n      swap1\n      sload\n      swap1\n      0x0100\n      exp\n      swap1\n      div\n      0xffffffffffffffffffffffffffffffffffffffff\n      and\n        /* \"@chainlink/contracts@1.4.0/src/v0.8/vrf/dev/VRFConsumerBaseV2Plus.sol\":8236:8306  OnlyOwnerOrCoordinator(msg.sender, owner(), address(s_vrfCoordinator)) */\n      mload(0x40)\n      0x061db9c100000000000000000000000000000000000000000000000000000000\n      dup2\n      mstore\n      0x04\n      add\n      tag_121\n      swap4\n      swap3\n      swap2\n      swap1\n      tag_122\n      jump\t// in\n    tag_121:\n      mload(0x40)\n      dup1\n      swap2\n      sub\n      swap1\n      revert\n        /* \"@chainlink/contracts@1.4.0/src/v0.8/vrf/dev/VRFConsumerBaseV2Plus.sol\":8151:8313  if (msg.sender != owner() && msg.sender != address(s_vrfCoordinator)) {... */\n    tag_119:\n        /* \"@chainlink/contracts@1.4.0/src/v0.8/vrf/dev/VRFConsumerBaseV2Plus.sol\":7958:7959  0 */\n      0x00\n        /* \"@chainlink/contracts@1.4.0/src/v0.8/vrf/dev/VRFConsumerBaseV2Plus.sol\":7931:7960  _vrfCoordinator == address(0) */\n      0xffffffffffffffffffffffffffffffffffffffff\n      and\n        /* \"@chainlink/contracts@1.4.0/src/v0.8/vrf/dev/VRFConsumerBaseV2Plus.sol\":7931:7946  _vrfCoordinator */\n      dup2\n        /* \"@chainlink/contracts@1.4.0/src/v0.8/vrf/dev/VRFConsumerBaseV2Plus.sol\":7931:7960  _vrfCoordinator == address(0) */\n      0xffffffffffffffffffffffffffffffffffffffff\n      and\n      sub\n        /* \"@chainlink/contracts@1.4.0/src/v0.8/vrf/dev/VRFConsumerBaseV2Plus.sol\":7927:7997  if (_vrfCoordinator == address(0)) {... */\n      tag_124\n      jumpi\n        /* \"@chainlink/contracts@1.4.0/src/v0.8/vrf/dev/VRFConsumerBaseV2Plus.sol\":7977:7990  ZeroAddress() */\n      mload(0x40)\n      0xd92e233d00000000000000000000000000000000000000000000000000000000\n      dup2\n      mstore\n      0x04\n      add\n      mload(0x40)\n      dup1\n      swap2\n      sub\n      swap1\n      revert\n        /* \"@chainlink/contracts@1.4.0/src/v0.8/vrf/dev/VRFConsumerBaseV2Plus.sol\":7927:7997  if (_vrfCoordinator == address(0)) {... */\n    tag_124:\n        /* \"@chainlink/contracts@1.4.0/src/v0.8/vrf/dev/VRFConsumerBaseV2Plus.sol\":8043:8058  _vrfCoordinator */\n      dup1\n        /* \"@chainlink/contracts@1.4.0/src/v0.8/vrf/dev/VRFConsumerBaseV2Plus.sol\":8002:8018  s_vrfCoordinator */\n      0x02\n      0x00\n        /* \"@chainlink/contracts@1.4.0/src/v0.8/vrf/dev/VRFConsumerBaseV2Plus.sol\":8002:8059  s_vrfCoordinator = IVRFCoordinatorV2Plus(_vrfCoordinator) */\n      0x0100\n      exp\n      dup2\n      sload\n      dup2\n      0xffffffffffffffffffffffffffffffffffffffff\n      mul\n      not\n      and\n      swap1\n      dup4\n      0xffffffffffffffffffffffffffffffffffffffff\n      and\n      mul\n      or\n      swap1\n      sstore\n      pop\n        /* \"@chainlink/contracts@1.4.0/src/v0.8/vrf/dev/VRFConsumerBaseV2Plus.sol\":8071:8102  CoordinatorSet(_vrfCoordinator) */\n      0xd1a6a14209a385a964d036e404cb5cfb71f4000cdb03c9366292430787261be6\n        /* \"@chainlink/contracts@1.4.0/src/v0.8/vrf/dev/VRFConsumerBaseV2Plus.sol\":8086:8101  _vrfCoordinator */\n      dup2\n        /* \"@chainlink/contracts@1.4.0/src/v0.8/vrf/dev/VRFConsumerBaseV2Plus.sol\":8071:8102  CoordinatorSet(_vrfCoordinator) */\n      mload(0x40)\n      tag_125\n      swap2\n      swap1\n      tag_56\n      jump\t// in\n    tag_125:\n      mload(0x40)\n      dup1\n      swap2\n      sub\n      swap1\n      log1\n        /* \"@chainlink/contracts@1.4.0/src/v0.8/vrf/dev/VRFConsumerBaseV2Plus.sol\":7831:8107  function setCoordinator(address _vrfCoordinator) external override onlyOwnerOrCoordinator {... */\n      pop\n      jump\t// out\n        /* \"@chainlink/contracts@1.4.0/src/v0.8/vrf/dev/VRFConsumerBaseV2Plus.sol\":6077:6122  IVRFCoordinatorV2Plus public s_vrfCoordinator */\n    tag_62:\n      0x02\n      0x00\n      swap1\n      sload\n      swap1\n      0x0100\n      exp\n      swap1\n      div\n      0xffffffffffffffffffffffffffffffffffffffff\n      and\n      dup2\n      jump\t// out\n        /* \"contracts/SubscriptionConsumer.sol\":1159:1219  mapping(uint256 => RequestStatus)... */\n    tag_67:\n      mstore(0x20, 0x03)\n      dup1\n      0x00\n      mstore\n      keccak256(0x00, 0x40)\n      0x00\n      swap2\n      pop\n      swap1\n      pop\n      dup1\n      0x00\n      add\n      0x00\n      swap1\n      sload\n      swap1\n      0x0100\n      exp\n      swap1\n      div\n      0xff\n      and\n      swap1\n      dup1\n      0x00\n      add\n      0x01\n      swap1\n      sload\n      swap1\n      0x0100\n      exp\n      swap1\n      div\n      0xff\n      and\n      swap1\n      pop\n      dup3\n      jump\t// out\n        /* \"contracts/SubscriptionConsumer.sol\":2259:2297  uint16 public requestConfirmations = 3 */\n    tag_71:\n      0x08\n      0x04\n      swap1\n      sload\n      swap1\n      0x0100\n      exp\n      swap1\n      div\n      0xffff\n      and\n      dup2\n      jump\t// out\n        /* \"contracts/SubscriptionConsumer.sol\":4384:4715  function getRequestStatus(... */\n    tag_76:\n        /* \"contracts/SubscriptionConsumer.sol\":4469:4483  bool fulfilled */\n      0x00\n        /* \"contracts/SubscriptionConsumer.sol\":4485:4513  uint256[] memory randomWords */\n      0x60\n        /* \"contracts/SubscriptionConsumer.sol\":4534:4544  s_requests */\n      0x03\n        /* \"contracts/SubscriptionConsumer.sol\":4534:4556  s_requests[_requestId] */\n      0x00\n        /* \"contracts/SubscriptionConsumer.sol\":4545:4555  _requestId */\n      dup5\n        /* \"contracts/SubscriptionConsumer.sol\":4534:4556  s_requests[_requestId] */\n      dup2\n      mstore\n      0x20\n      add\n      swap1\n      dup2\n      mstore\n      0x20\n      add\n      0x00\n      keccak256\n        /* \"contracts/SubscriptionConsumer.sol\":4534:4563  s_requests[_requestId].exists */\n      0x00\n      add\n      0x01\n      swap1\n      sload\n      swap1\n      0x0100\n      exp\n      swap1\n      div\n      0xff\n      and\n        /* \"contracts/SubscriptionConsumer.sol\":4526:4585  require(s_requests[_requestId].exists, \"request not found\") */\n      tag_127\n      jumpi\n      mload(0x40)\n      0x08c379a000000000000000000000000000000000000000000000000000000000\n      dup2\n      mstore\n      0x04\n      add\n      tag_128\n      swap1\n      tag_129\n      jump\t// in\n    tag_128:\n      mload(0x40)\n      dup1\n      swap2\n      sub\n      swap1\n      revert\n    tag_127:\n        /* \"contracts/SubscriptionConsumer.sol\":4596:4624  RequestStatus memory request */\n      0x00\n        /* \"contracts/SubscriptionConsumer.sol\":4627:4637  s_requests */\n      0x03\n        /* \"contracts/SubscriptionConsumer.sol\":4627:4649  s_requests[_requestId] */\n      0x00\n        /* \"contracts/SubscriptionConsumer.sol\":4638:4648  _requestId */\n      dup6\n        /* \"contracts/SubscriptionConsumer.sol\":4627:4649  s_requests[_requestId] */\n      dup2\n      mstore\n      0x20\n      add\n      swap1\n      dup2\n      mstore\n      0x20\n      add\n      0x00\n      keccak256\n        /* \"contracts/SubscriptionConsumer.sol\":4596:4649  RequestStatus memory request = s_requests[_requestId] */\n      mload(0x40)\n      dup1\n      0x60\n      add\n      0x40\n      mstore\n      swap1\n      dup2\n      0x00\n      dup3\n      add\n      0x00\n      swap1\n      sload\n      swap1\n      0x0100\n      exp\n      swap1\n      div\n      0xff\n      and\n      iszero\n      iszero\n      iszero\n      iszero\n      dup2\n      mstore\n      0x20\n      add\n      0x00\n      dup3\n      add\n      0x01\n      swap1\n      sload\n      swap1\n      0x0100\n      exp\n      swap1\n      div\n      0xff\n      and\n      iszero\n      iszero\n      iszero\n      iszero\n      dup2\n      mstore\n      0x20\n      add\n      0x01\n      dup3\n      add\n      dup1\n      sload\n      dup1\n      0x20\n      mul\n      0x20\n      add\n      mload(0x40)\n      swap1\n      dup2\n      add\n      0x40\n      mstore\n      dup1\n      swap3\n      swap2\n      swap1\n      dup2\n      dup2\n      mstore\n      0x20\n      add\n      dup3\n      dup1\n      sload\n      dup1\n      iszero\n      tag_130\n      jumpi\n      0x20\n      mul\n      dup3\n      add\n      swap2\n      swap1\n      0x00\n      mstore\n      keccak256(0x00, 0x20)\n      swap1\n    tag_131:\n      dup2\n      sload\n      dup2\n      mstore\n      0x20\n      add\n      swap1\n      0x01\n      add\n      swap1\n      dup1\n      dup4\n      gt\n      tag_131\n      jumpi\n    tag_130:\n      pop\n      pop\n      pop\n      pop\n      pop\n      dup2\n      mstore\n      pop\n      pop\n      swap1\n      pop\n        /* \"contracts/SubscriptionConsumer.sol\":4668:4675  request */\n      dup1\n        /* \"contracts/SubscriptionConsumer.sol\":4668:4685  request.fulfilled */\n      0x00\n      add\n      mload\n        /* \"contracts/SubscriptionConsumer.sol\":4687:4694  request */\n      dup2\n        /* \"contracts/SubscriptionConsumer.sol\":4687:4706  request.randomWords */\n      0x40\n      add\n      mload\n        /* \"contracts/SubscriptionConsumer.sol\":4660:4707  return (request.fulfilled, request.randomWords) */\n      swap3\n      pop\n      swap3\n      pop\n      pop\n        /* \"contracts/SubscriptionConsumer.sol\":4384:4715  function getRequestStatus(... */\n      swap2\n      pop\n      swap2\n      jump\t// out\n        /* \"@chainlink/contracts@1.4.0/src/v0.8/shared/access/ConfirmedOwnerWithProposal.sol\":847:945  function transferOwnership(address to) public override onlyOwner {... */\n    tag_81:\n        /* \"@chainlink/contracts@1.4.0/src/v0.8/shared/access/ConfirmedOwnerWithProposal.sol\":2075:2095  _validateOwnership() */\n      tag_133\n        /* \"@chainlink/contracts@1.4.0/src/v0.8/shared/access/ConfirmedOwnerWithProposal.sol\":2075:2093  _validateOwnership */\n      tag_134\n        /* \"@chainlink/contracts@1.4.0/src/v0.8/shared/access/ConfirmedOwnerWithProposal.sol\":2075:2095  _validateOwnership() */\n      jump\t// in\n    tag_133:\n        /* \"@chainlink/contracts@1.4.0/src/v0.8/shared/access/ConfirmedOwnerWithProposal.sol\":918:940  _transferOwnership(to) */\n      tag_136\n        /* \"@chainlink/contracts@1.4.0/src/v0.8/shared/access/ConfirmedOwnerWithProposal.sol\":937:939  to */\n      dup2\n        /* \"@chainlink/contracts@1.4.0/src/v0.8/shared/access/ConfirmedOwnerWithProposal.sol\":918:936  _transferOwnership */\n      tag_137\n        /* \"@chainlink/contracts@1.4.0/src/v0.8/shared/access/ConfirmedOwnerWithProposal.sol\":918:940  _transferOwnership(to) */\n      jump\t// in\n    tag_136:\n        /* \"@chainlink/contracts@1.4.0/src/v0.8/shared/access/ConfirmedOwnerWithProposal.sol\":847:945  function transferOwnership(address to) public override onlyOwner {... */\n      pop\n      jump\t// out\n        /* \"contracts/SubscriptionConsumer.sol\":1392:1420  uint256 public lastRequestId */\n    tag_83:\n      sload(0x06)\n      dup2\n      jump\t// out\n        /* \"contracts/SubscriptionConsumer.sol\":4006:4376  function fulfillRandomWords(... */\n    tag_90:\n        /* \"contracts/SubscriptionConsumer.sol\":4149:4159  s_requests */\n      0x03\n        /* \"contracts/SubscriptionConsumer.sol\":4149:4171  s_requests[_requestId] */\n      0x00\n        /* \"contracts/SubscriptionConsumer.sol\":4160:4170  _requestId */\n      dup5\n        /* \"contracts/SubscriptionConsumer.sol\":4149:4171  s_requests[_requestId] */\n      dup2\n      mstore\n      0x20\n      add\n      swap1\n      dup2\n      mstore\n      0x20\n      add\n      0x00\n      keccak256\n        /* \"contracts/SubscriptionConsumer.sol\":4149:4178  s_requests[_requestId].exists */\n      0x00\n      add\n      0x01\n      swap1\n      sload\n      swap1\n      0x0100\n      exp\n      swap1\n      div\n      0xff\n      and\n        /* \"contracts/SubscriptionConsumer.sol\":4141:4200  require(s_requests[_requestId].exists, \"request not found\") */\n      tag_139\n      jumpi\n      mload(0x40)\n      0x08c379a000000000000000000000000000000000000000000000000000000000\n      dup2\n      mstore\n      0x04\n      add\n      tag_140\n      swap1\n      tag_129\n      jump\t// in\n    tag_140:\n      mload(0x40)\n      dup1\n      swap2\n      sub\n      swap1\n      revert\n    tag_139:\n        /* \"contracts/SubscriptionConsumer.sol\":4246:4250  true */\n      0x01\n        /* \"contracts/SubscriptionConsumer.sol\":4211:4221  s_requests */\n      0x03\n        /* \"contracts/SubscriptionConsumer.sol\":4211:4233  s_requests[_requestId] */\n      0x00\n        /* \"contracts/SubscriptionConsumer.sol\":4222:4232  _requestId */\n      dup6\n        /* \"contracts/SubscriptionConsumer.sol\":4211:4233  s_requests[_requestId] */\n      dup2\n      mstore\n      0x20\n      add\n      swap1\n      dup2\n      mstore\n      0x20\n      add\n      0x00\n      keccak256\n        /* \"contracts/SubscriptionConsumer.sol\":4211:4243  s_requests[_requestId].fulfilled */\n      0x00\n      add\n      0x00\n        /* \"contracts/SubscriptionConsumer.sol\":4211:4250  s_requests[_requestId].fulfilled = true */\n      0x0100\n      exp\n      dup2\n      sload\n      dup2\n      0xff\n      mul\n      not\n      and\n      swap1\n      dup4\n      iszero\n      iszero\n      mul\n      or\n      swap1\n      sstore\n      pop\n        /* \"contracts/SubscriptionConsumer.sol\":4298:4310  _randomWords */\n      dup2\n      dup2\n        /* \"contracts/SubscriptionConsumer.sol\":4261:4271  s_requests */\n      0x03\n        /* \"contracts/SubscriptionConsumer.sol\":4261:4283  s_requests[_requestId] */\n      0x00\n        /* \"contracts/SubscriptionConsumer.sol\":4272:4282  _requestId */\n      dup7\n        /* \"contracts/SubscriptionConsumer.sol\":4261:4283  s_requests[_requestId] */\n      dup2\n      mstore\n      0x20\n      add\n      swap1\n      dup2\n      mstore\n      0x20\n      add\n      0x00\n      keccak256\n        /* \"contracts/SubscriptionConsumer.sol\":4261:4295  s_requests[_requestId].randomWords */\n      0x01\n      add\n        /* \"contracts/SubscriptionConsumer.sol\":4261:4310  s_requests[_requestId].randomWords = _randomWords */\n      swap2\n      swap1\n      tag_141\n      swap3\n      swap2\n      swap1\n      tag_142\n      jump\t// in\n    tag_141:\n      pop\n        /* \"contracts/SubscriptionConsumer.sol\":4326:4368  RequestFulfilled(_requestId, _randomWords) */\n      0xfe2e2d779dba245964d4e3ef9b994be63856fd568bf7d3ca9e224755cb1bd54d\n        /* \"contracts/SubscriptionConsumer.sol\":4343:4353  _requestId */\n      dup4\n        /* \"contracts/SubscriptionConsumer.sol\":4355:4367  _randomWords */\n      dup4\n      dup4\n        /* \"contracts/SubscriptionConsumer.sol\":4326:4368  RequestFulfilled(_requestId, _randomWords) */\n      mload(0x40)\n      tag_143\n      swap4\n      swap3\n      swap2\n      swap1\n      tag_144\n      jump\t// in\n    tag_143:\n      mload(0x40)\n      dup1\n      swap2\n      sub\n      swap1\n      log1\n        /* \"contracts/SubscriptionConsumer.sol\":4006:4376  function fulfillRandomWords(... */\n      pop\n      pop\n      pop\n      jump\t// out\n        /* \"@chainlink/contracts@1.4.0/src/v0.8/vrf/dev/libraries/VRFV2PlusClient.sol\":475:638  function _argsToBytes(ExtraArgsV1 memory extraArgs) internal pure returns (bytes memory bts) {... */\n    tag_93:\n        /* \"@chainlink/contracts@1.4.0/src/v0.8/vrf/dev/libraries/VRFV2PlusClient.sol\":550:566  bytes memory bts */\n      0x60\n        /* \"@chainlink/contracts@1.4.0/src/v0.8/vrf/dev/libraries/VRFV2PlusClient.sol\":211:239  keccak256(\"VRF ExtraArgsV1\") */\n      0x92fd13387c7fe7befbc38d303d6468778fb9731bc4583f17d92989c6fcfdeaaa\n        /* \"@chainlink/contracts@1.4.0/src/v0.8/vrf/dev/libraries/VRFV2PlusClient.sol\":623:632  extraArgs */\n      dup3\n        /* \"@chainlink/contracts@1.4.0/src/v0.8/vrf/dev/libraries/VRFV2PlusClient.sol\":581:633  abi.encodeWithSelector(EXTRA_ARGS_V1_TAG, extraArgs) */\n      add(0x24, mload(0x40))\n      tag_146\n      swap2\n      swap1\n      tag_147\n      jump\t// in\n    tag_146:\n      mload(0x40)\n      0x20\n      dup2\n      dup4\n      sub\n      sub\n      dup2\n      mstore\n      swap1\n      0x40\n      mstore\n      swap1\n      not(0xffffffffffffffffffffffffffffffffffffffffffffffffffffffff)\n      and\n      0x20\n      dup3\n      add\n      dup1\n      mload\n      0xffffffffffffffffffffffffffffffffffffffffffffffffffffffff\n      dup4\n      dup2\n      dup4\n      and\n      or\n      dup4\n      mstore\n      pop\n      pop\n      pop\n      pop\n        /* \"@chainlink/contracts@1.4.0/src/v0.8/vrf/dev/libraries/VRFV2PlusClient.sol\":574:633  return abi.encodeWithSelector(EXTRA_ARGS_V1_TAG, extraArgs) */\n      swap1\n      pop\n        /* \"@chainlink/contracts@1.4.0/src/v0.8/vrf/dev/libraries/VRFV2PlusClient.sol\":475:638  function _argsToBytes(ExtraArgsV1 memory extraArgs) internal pure returns (bytes memory bts) {... */\n      swap2\n      swap1\n      pop\n      jump\t// out\n        /* \"@chainlink/contracts@1.4.0/src/v0.8/shared/access/ConfirmedOwnerWithProposal.sol\":1809:1971  function _validateOwnership() internal view {... */\n    tag_134:\n        /* \"@chainlink/contracts@1.4.0/src/v0.8/shared/access/ConfirmedOwnerWithProposal.sol\":1932:1939  s_owner */\n      0x00\n      dup1\n      sload\n      swap1\n      0x0100\n      exp\n      swap1\n      div\n      0xffffffffffffffffffffffffffffffffffffffff\n      and\n        /* \"@chainlink/contracts@1.4.0/src/v0.8/shared/access/ConfirmedOwnerWithProposal.sol\":1918:1939  msg.sender == s_owner */\n      0xffffffffffffffffffffffffffffffffffffffff\n      and\n        /* \"@chainlink/contracts@1.4.0/src/v0.8/shared/access/ConfirmedOwnerWithProposal.sol\":1918:1928  msg.sender */\n      caller\n        /* \"@chainlink/contracts@1.4.0/src/v0.8/shared/access/ConfirmedOwnerWithProposal.sol\":1918:1939  msg.sender == s_owner */\n      0xffffffffffffffffffffffffffffffffffffffff\n      and\n      eq\n        /* \"@chainlink/contracts@1.4.0/src/v0.8/shared/access/ConfirmedOwnerWithProposal.sol\":1910:1966  require(msg.sender == s_owner, \"Only callable by owner\") */\n      tag_149\n      jumpi\n      mload(0x40)\n      0x08c379a000000000000000000000000000000000000000000000000000000000\n      dup2\n      mstore\n      0x04\n      add\n      tag_150\n      swap1\n      tag_151\n      jump\t// in\n    tag_150:\n      mload(0x40)\n      dup1\n      swap2\n      sub\n      swap1\n      revert\n    tag_149:\n        /* \"@chainlink/contracts@1.4.0/src/v0.8/shared/access/ConfirmedOwnerWithProposal.sol\":1809:1971  function _validateOwnership() internal view {... */\n      jump\t// out\n        /* \"@chainlink/contracts@1.4.0/src/v0.8/shared/access/ConfirmedOwnerWithProposal.sol\":1536:1775  function _transferOwnership(address to) private {... */\n    tag_137:\n        /* \"@chainlink/contracts@1.4.0/src/v0.8/shared/access/ConfirmedOwnerWithProposal.sol\":1655:1665  msg.sender */\n      caller\n        /* \"@chainlink/contracts@1.4.0/src/v0.8/shared/access/ConfirmedOwnerWithProposal.sol\":1649:1665  to != msg.sender */\n      0xffffffffffffffffffffffffffffffffffffffff\n      and\n        /* \"@chainlink/contracts@1.4.0/src/v0.8/shared/access/ConfirmedOwnerWithProposal.sol\":1649:1651  to */\n      dup2\n        /* \"@chainlink/contracts@1.4.0/src/v0.8/shared/access/ConfirmedOwnerWithProposal.sol\":1649:1665  to != msg.sender */\n      0xffffffffffffffffffffffffffffffffffffffff\n      and\n      sub\n        /* \"@chainlink/contracts@1.4.0/src/v0.8/shared/access/ConfirmedOwnerWithProposal.sol\":1641:1693  require(to != msg.sender, \"Cannot transfer to self\") */\n      tag_153\n      jumpi\n      mload(0x40)\n      0x08c379a000000000000000000000000000000000000000000000000000000000\n      dup2\n      mstore\n      0x04\n      add\n      tag_154\n      swap1\n      tag_155\n      jump\t// in\n    tag_154:\n      mload(0x40)\n      dup1\n      swap2\n      sub\n      swap1\n      revert\n    tag_153:\n        /* \"@chainlink/contracts@1.4.0/src/v0.8/shared/access/ConfirmedOwnerWithProposal.sol\":1717:1719  to */\n      dup1\n        /* \"@chainlink/contracts@1.4.0/src/v0.8/shared/access/ConfirmedOwnerWithProposal.sol\":1700:1714  s_pendingOwner */\n      0x01\n      0x00\n        /* \"@chainlink/contracts@1.4.0/src/v0.8/shared/access/ConfirmedOwnerWithProposal.sol\":1700:1719  s_pendingOwner = to */\n      0x0100\n      exp\n      dup2\n      sload\n      dup2\n      0xffffffffffffffffffffffffffffffffffffffff\n      mul\n      not\n      and\n      swap1\n      dup4\n      0xffffffffffffffffffffffffffffffffffffffff\n      and\n      mul\n      or\n      swap1\n      sstore\n      pop\n        /* \"@chainlink/contracts@1.4.0/src/v0.8/shared/access/ConfirmedOwnerWithProposal.sol\":1767:1769  to */\n      dup1\n        /* \"@chainlink/contracts@1.4.0/src/v0.8/shared/access/ConfirmedOwnerWithProposal.sol\":1731:1770  OwnershipTransferRequested(s_owner, to) */\n      0xffffffffffffffffffffffffffffffffffffffff\n      and\n        /* \"@chainlink/contracts@1.4.0/src/v0.8/shared/access/ConfirmedOwnerWithProposal.sol\":1758:1765  s_owner */\n      0x00\n      dup1\n      sload\n      swap1\n      0x0100\n      exp\n      swap1\n      div\n      0xffffffffffffffffffffffffffffffffffffffff\n      and\n        /* \"@chainlink/contracts@1.4.0/src/v0.8/shared/access/ConfirmedOwnerWithProposal.sol\":1731:1770  OwnershipTransferRequested(s_owner, to) */\n      0xffffffffffffffffffffffffffffffffffffffff\n      and\n      0xed8889f560326eb138920d842192f0eb3dd22b4f139c87a2c57538e05bae1278\n      mload(0x40)\n      mload(0x40)\n      dup1\n      swap2\n      sub\n      swap1\n      log3\n        /* \"@chainlink/contracts@1.4.0/src/v0.8/shared/access/ConfirmedOwnerWithProposal.sol\":1536:1775  function _transferOwnership(address to) private {... */\n      pop\n      jump\t// out\n    tag_105:\n      dup3\n      dup1\n      sload\n      dup3\n      dup3\n      sstore\n      swap1\n      0x00\n      mstore\n      keccak256(0x00, 0x20)\n      swap1\n      dup2\n      add\n      swap3\n      dup3\n      iszero\n      tag_156\n      jumpi\n      swap2\n      0x20\n      mul\n      dup3\n      add\n    tag_157:\n      dup3\n      dup2\n      gt\n      iszero\n      tag_158\n      jumpi\n      dup3\n      mload\n      dup3\n      sstore\n      swap2\n      0x20\n      add\n      swap2\n      swap1\n      0x01\n      add\n      swap1\n      jump(tag_157)\n    tag_158:\n    tag_156:\n      pop\n      swap1\n      pop\n      tag_159\n      swap2\n      swap1\n      tag_160\n      jump\t// in\n    tag_159:\n      pop\n      swap1\n      jump\t// out\n    tag_142:\n      dup3\n      dup1\n      sload\n      dup3\n      dup3\n      sstore\n      swap1\n      0x00\n      mstore\n      keccak256(0x00, 0x20)\n      swap1\n      dup2\n      add\n      swap3\n      dup3\n      iszero\n      tag_161\n      jumpi\n      swap2\n      0x20\n      mul\n      dup3\n      add\n    tag_162:\n      dup3\n      dup2\n      gt\n      iszero\n      tag_163\n      jumpi\n      dup3\n      calldataload\n      dup3\n      sstore\n      swap2\n      0x20\n      add\n      swap2\n      swap1\n      0x01\n      add\n      swap1\n      jump(tag_162)\n    tag_163:\n    tag_161:\n      pop\n      swap1\n      pop\n      tag_164\n      swap2\n      swap1\n      tag_160\n      jump\t// in\n    tag_164:\n      pop\n      swap1\n      jump\t// out\n    tag_160:\n    tag_165:\n      dup1\n      dup3\n      gt\n      iszero\n      tag_166\n      jumpi\n      0x00\n      dup2\n      0x00\n      swap1\n      sstore\n      pop\n      0x01\n      add\n      jump(tag_165)\n    tag_166:\n      pop\n      swap1\n      jump\t// out\n        /* \"#utility.yul\":88:205   */\n    tag_168:\n        /* \"#utility.yul\":197:198   */\n      0x00\n        /* \"#utility.yul\":194:195   */\n      dup1\n        /* \"#utility.yul\":187:199   */\n      revert\n        /* \"#utility.yul\":211:328   */\n    tag_169:\n        /* \"#utility.yul\":320:321   */\n      0x00\n        /* \"#utility.yul\":317:318   */\n      dup1\n        /* \"#utility.yul\":310:322   */\n      revert\n        /* \"#utility.yul\":334:411   */\n    tag_170:\n        /* \"#utility.yul\":371:378   */\n      0x00\n        /* \"#utility.yul\":400:405   */\n      dup2\n        /* \"#utility.yul\":389:405   */\n      swap1\n      pop\n        /* \"#utility.yul\":334:411   */\n      swap2\n      swap1\n      pop\n      jump\t// out\n        /* \"#utility.yul\":417:539   */\n    tag_171:\n        /* \"#utility.yul\":490:514   */\n      tag_235\n        /* \"#utility.yul\":508:513   */\n      dup2\n        /* \"#utility.yul\":490:514   */\n      tag_170\n      jump\t// in\n    tag_235:\n        /* \"#utility.yul\":483:488   */\n      dup2\n        /* \"#utility.yul\":480:515   */\n      eq\n        /* \"#utility.yul\":470:533   */\n      tag_236\n      jumpi\n        /* \"#utility.yul\":529:530   */\n      0x00\n        /* \"#utility.yul\":526:527   */\n      dup1\n        /* \"#utility.yul\":519:531   */\n      revert\n        /* \"#utility.yul\":470:533   */\n    tag_236:\n        /* \"#utility.yul\":417:539   */\n      pop\n      jump\t// out\n        /* \"#utility.yul\":545:684   */\n    tag_172:\n        /* \"#utility.yul\":591:596   */\n      0x00\n        /* \"#utility.yul\":629:635   */\n      dup2\n        /* \"#utility.yul\":616:636   */\n      calldataload\n        /* \"#utility.yul\":607:636   */\n      swap1\n      pop\n        /* \"#utility.yul\":645:678   */\n      tag_238\n        /* \"#utility.yul\":672:677   */\n      dup2\n        /* \"#utility.yul\":645:678   */\n      tag_171\n      jump\t// in\n    tag_238:\n        /* \"#utility.yul\":545:684   */\n      swap3\n      swap2\n      pop\n      pop\n      jump\t// out\n        /* \"#utility.yul\":690:807   */\n    tag_173:\n        /* \"#utility.yul\":799:800   */\n      0x00\n        /* \"#utility.yul\":796:797   */\n      dup1\n        /* \"#utility.yul\":789:801   */\n      revert\n        /* \"#utility.yul\":813:930   */\n    tag_174:\n        /* \"#utility.yul\":922:923   */\n      0x00\n        /* \"#utility.yul\":919:920   */\n      dup1\n        /* \"#utility.yul\":912:924   */\n      revert\n        /* \"#utility.yul\":936:1053   */\n    tag_175:\n        /* \"#utility.yul\":1045:1046   */\n      0x00\n        /* \"#utility.yul\":1042:1043   */\n      dup1\n        /* \"#utility.yul\":1035:1047   */\n      revert\n        /* \"#utility.yul\":1076:1644   */\n    tag_176:\n        /* \"#utility.yul\":1149:1157   */\n      0x00\n        /* \"#utility.yul\":1159:1165   */\n      dup1\n        /* \"#utility.yul\":1209:1212   */\n      dup4\n        /* \"#utility.yul\":1202:1206   */\n      0x1f\n        /* \"#utility.yul\":1194:1200   */\n      dup5\n        /* \"#utility.yul\":1190:1207   */\n      add\n        /* \"#utility.yul\":1186:1213   */\n      slt\n        /* \"#utility.yul\":1176:1298   */\n      tag_243\n      jumpi\n        /* \"#utility.yul\":1217:1296   */\n      tag_244\n      tag_173\n      jump\t// in\n    tag_244:\n        /* \"#utility.yul\":1176:1298   */\n    tag_243:\n        /* \"#utility.yul\":1330:1336   */\n      dup3\n        /* \"#utility.yul\":1317:1337   */\n      calldataload\n        /* \"#utility.yul\":1307:1337   */\n      swap1\n      pop\n        /* \"#utility.yul\":1360:1378   */\n      0xffffffffffffffff\n        /* \"#utility.yul\":1352:1358   */\n      dup2\n        /* \"#utility.yul\":1349:1379   */\n      gt\n        /* \"#utility.yul\":1346:1463   */\n      iszero\n      tag_245\n      jumpi\n        /* \"#utility.yul\":1382:1461   */\n      tag_246\n      tag_174\n      jump\t// in\n    tag_246:\n        /* \"#utility.yul\":1346:1463   */\n    tag_245:\n        /* \"#utility.yul\":1496:1500   */\n      0x20\n        /* \"#utility.yul\":1488:1494   */\n      dup4\n        /* \"#utility.yul\":1484:1501   */\n      add\n        /* \"#utility.yul\":1472:1501   */\n      swap2\n      pop\n        /* \"#utility.yul\":1550:1553   */\n      dup4\n        /* \"#utility.yul\":1542:1546   */\n      0x20\n        /* \"#utility.yul\":1534:1540   */\n      dup3\n        /* \"#utility.yul\":1530:1547   */\n      mul\n        /* \"#utility.yul\":1520:1528   */\n      dup4\n        /* \"#utility.yul\":1516:1548   */\n      add\n        /* \"#utility.yul\":1513:1554   */\n      gt\n        /* \"#utility.yul\":1510:1638   */\n      iszero\n      tag_247\n      jumpi\n        /* \"#utility.yul\":1557:1636   */\n      tag_248\n      tag_175\n      jump\t// in\n    tag_248:\n        /* \"#utility.yul\":1510:1638   */\n    tag_247:\n        /* \"#utility.yul\":1076:1644   */\n      swap3\n      pop\n      swap3\n      swap1\n      pop\n      jump\t// out\n        /* \"#utility.yul\":1650:2354   */\n    tag_24:\n        /* \"#utility.yul\":1745:1751   */\n      0x00\n        /* \"#utility.yul\":1753:1759   */\n      dup1\n        /* \"#utility.yul\":1761:1767   */\n      0x00\n        /* \"#utility.yul\":1810:1812   */\n      0x40\n        /* \"#utility.yul\":1798:1807   */\n      dup5\n        /* \"#utility.yul\":1789:1796   */\n      dup7\n        /* \"#utility.yul\":1785:1808   */\n      sub\n        /* \"#utility.yul\":1781:1813   */\n      slt\n        /* \"#utility.yul\":1778:1897   */\n      iszero\n      tag_250\n      jumpi\n        /* \"#utility.yul\":1816:1895   */\n      tag_251\n      tag_168\n      jump\t// in\n    tag_251:\n        /* \"#utility.yul\":1778:1897   */\n    tag_250:\n        /* \"#utility.yul\":1936:1937   */\n      0x00\n        /* \"#utility.yul\":1961:2014   */\n      tag_252\n        /* \"#utility.yul\":2006:2013   */\n      dup7\n        /* \"#utility.yul\":1997:2003   */\n      dup3\n        /* \"#utility.yul\":1986:1995   */\n      dup8\n        /* \"#utility.yul\":1982:2004   */\n      add\n        /* \"#utility.yul\":1961:2014   */\n      tag_172\n      jump\t// in\n    tag_252:\n        /* \"#utility.yul\":1951:2014   */\n      swap4\n      pop\n        /* \"#utility.yul\":1907:2024   */\n      pop\n        /* \"#utility.yul\":2091:2093   */\n      0x20\n        /* \"#utility.yul\":2080:2089   */\n      dup5\n        /* \"#utility.yul\":2076:2094   */\n      add\n        /* \"#utility.yul\":2063:2095   */\n      calldataload\n        /* \"#utility.yul\":2122:2140   */\n      0xffffffffffffffff\n        /* \"#utility.yul\":2114:2120   */\n      dup2\n        /* \"#utility.yul\":2111:2141   */\n      gt\n        /* \"#utility.yul\":2108:2225   */\n      iszero\n      tag_253\n      jumpi\n        /* \"#utility.yul\":2144:2223   */\n      tag_254\n      tag_169\n      jump\t// in\n    tag_254:\n        /* \"#utility.yul\":2108:2225   */\n    tag_253:\n        /* \"#utility.yul\":2257:2337   */\n      tag_255\n        /* \"#utility.yul\":2329:2336   */\n      dup7\n        /* \"#utility.yul\":2320:2326   */\n      dup3\n        /* \"#utility.yul\":2309:2318   */\n      dup8\n        /* \"#utility.yul\":2305:2327   */\n      add\n        /* \"#utility.yul\":2257:2337   */\n      tag_176\n      jump\t// in\n    tag_255:\n        /* \"#utility.yul\":2239:2337   */\n      swap3\n      pop\n      swap3\n      pop\n        /* \"#utility.yul\":2034:2347   */\n      pop\n        /* \"#utility.yul\":1650:2354   */\n      swap3\n      pop\n      swap3\n      pop\n      swap3\n      jump\t// out\n        /* \"#utility.yul\":2360:2453   */\n    tag_177:\n        /* \"#utility.yul\":2396:2403   */\n      0x00\n        /* \"#utility.yul\":2436:2446   */\n      0xffffffff\n        /* \"#utility.yul\":2429:2434   */\n      dup3\n        /* \"#utility.yul\":2425:2447   */\n      and\n        /* \"#utility.yul\":2414:2447   */\n      swap1\n      pop\n        /* \"#utility.yul\":2360:2453   */\n      swap2\n      swap1\n      pop\n      jump\t// out\n        /* \"#utility.yul\":2459:2574   */\n    tag_178:\n        /* \"#utility.yul\":2544:2567   */\n      tag_258\n        /* \"#utility.yul\":2561:2566   */\n      dup2\n        /* \"#utility.yul\":2544:2567   */\n      tag_177\n      jump\t// in\n    tag_258:\n        /* \"#utility.yul\":2539:2542   */\n      dup3\n        /* \"#utility.yul\":2532:2568   */\n      mstore\n        /* \"#utility.yul\":2459:2574   */\n      pop\n      pop\n      jump\t// out\n        /* \"#utility.yul\":2580:2798   */\n    tag_29:\n        /* \"#utility.yul\":2671:2675   */\n      0x00\n        /* \"#utility.yul\":2709:2711   */\n      0x20\n        /* \"#utility.yul\":2698:2707   */\n      dup3\n        /* \"#utility.yul\":2694:2712   */\n      add\n        /* \"#utility.yul\":2686:2712   */\n      swap1\n      pop\n        /* \"#utility.yul\":2722:2791   */\n      tag_260\n        /* \"#utility.yul\":2788:2789   */\n      0x00\n        /* \"#utility.yul\":2777:2786   */\n      dup4\n        /* \"#utility.yul\":2773:2790   */\n      add\n        /* \"#utility.yul\":2764:2770   */\n      dup5\n        /* \"#utility.yul\":2722:2791   */\n      tag_178\n      jump\t// in\n    tag_260:\n        /* \"#utility.yul\":2580:2798   */\n      swap3\n      swap2\n      pop\n      pop\n      jump\t// out\n        /* \"#utility.yul\":2804:2894   */\n    tag_179:\n        /* \"#utility.yul\":2838:2845   */\n      0x00\n        /* \"#utility.yul\":2881:2886   */\n      dup2\n        /* \"#utility.yul\":2874:2887   */\n      iszero\n        /* \"#utility.yul\":2867:2888   */\n      iszero\n        /* \"#utility.yul\":2856:2888   */\n      swap1\n      pop\n        /* \"#utility.yul\":2804:2894   */\n      swap2\n      swap1\n      pop\n      jump\t// out\n        /* \"#utility.yul\":2900:3016   */\n    tag_180:\n        /* \"#utility.yul\":2970:2991   */\n      tag_263\n        /* \"#utility.yul\":2985:2990   */\n      dup2\n        /* \"#utility.yul\":2970:2991   */\n      tag_179\n      jump\t// in\n    tag_263:\n        /* \"#utility.yul\":2963:2968   */\n      dup2\n        /* \"#utility.yul\":2960:2992   */\n      eq\n        /* \"#utility.yul\":2950:3010   */\n      tag_264\n      jumpi\n        /* \"#utility.yul\":3006:3007   */\n      0x00\n        /* \"#utility.yul\":3003:3004   */\n      dup1\n        /* \"#utility.yul\":2996:3008   */\n      revert\n        /* \"#utility.yul\":2950:3010   */\n    tag_264:\n        /* \"#utility.yul\":2900:3016   */\n      pop\n      jump\t// out\n        /* \"#utility.yul\":3022:3155   */\n    tag_181:\n        /* \"#utility.yul\":3065:3070   */\n      0x00\n        /* \"#utility.yul\":3103:3109   */\n      dup2\n        /* \"#utility.yul\":3090:3110   */\n      calldataload\n        /* \"#utility.yul\":3081:3110   */\n      swap1\n      pop\n        /* \"#utility.yul\":3119:3149   */\n      tag_266\n        /* \"#utility.yul\":3143:3148   */\n      dup2\n        /* \"#utility.yul\":3119:3149   */\n      tag_180\n      jump\t// in\n    tag_266:\n        /* \"#utility.yul\":3022:3155   */\n      swap3\n      swap2\n      pop\n      pop\n      jump\t// out\n        /* \"#utility.yul\":3161:3484   */\n    tag_32:\n        /* \"#utility.yul\":3217:3223   */\n      0x00\n        /* \"#utility.yul\":3266:3268   */\n      0x20\n        /* \"#utility.yul\":3254:3263   */\n      dup3\n        /* \"#utility.yul\":3245:3252   */\n      dup5\n        /* \"#utility.yul\":3241:3264   */\n      sub\n        /* \"#utility.yul\":3237:3269   */\n      slt\n        /* \"#utility.yul\":3234:3353   */\n      iszero\n      tag_268\n      jumpi\n        /* \"#utility.yul\":3272:3351   */\n      tag_269\n      tag_168\n      jump\t// in\n    tag_269:\n        /* \"#utility.yul\":3234:3353   */\n    tag_268:\n        /* \"#utility.yul\":3392:3393   */\n      0x00\n        /* \"#utility.yul\":3417:3467   */\n      tag_270\n        /* \"#utility.yul\":3459:3466   */\n      dup5\n        /* \"#utility.yul\":3450:3456   */\n      dup3\n        /* \"#utility.yul\":3439:3448   */\n      dup6\n        /* \"#utility.yul\":3435:3457   */\n      add\n        /* \"#utility.yul\":3417:3467   */\n      tag_181\n      jump\t// in\n    tag_270:\n        /* \"#utility.yul\":3407:3467   */\n      swap2\n      pop\n        /* \"#utility.yul\":3363:3477   */\n      pop\n        /* \"#utility.yul\":3161:3484   */\n      swap3\n      swap2\n      pop\n      pop\n      jump\t// out\n        /* \"#utility.yul\":3490:3608   */\n    tag_182:\n        /* \"#utility.yul\":3577:3601   */\n      tag_272\n        /* \"#utility.yul\":3595:3600   */\n      dup2\n        /* \"#utility.yul\":3577:3601   */\n      tag_170\n      jump\t// in\n    tag_272:\n        /* \"#utility.yul\":3572:3575   */\n      dup3\n        /* \"#utility.yul\":3565:3602   */\n      mstore\n        /* \"#utility.yul\":3490:3608   */\n      pop\n      pop\n      jump\t// out\n        /* \"#utility.yul\":3614:3836   */\n    tag_35:\n        /* \"#utility.yul\":3707:3711   */\n      0x00\n        /* \"#utility.yul\":3745:3747   */\n      0x20\n        /* \"#utility.yul\":3734:3743   */\n      dup3\n        /* \"#utility.yul\":3730:3748   */\n      add\n        /* \"#utility.yul\":3722:3748   */\n      swap1\n      pop\n        /* \"#utility.yul\":3758:3829   */\n      tag_274\n        /* \"#utility.yul\":3826:3827   */\n      0x00\n        /* \"#utility.yul\":3815:3824   */\n      dup4\n        /* \"#utility.yul\":3811:3828   */\n      add\n        /* \"#utility.yul\":3802:3808   */\n      dup5\n        /* \"#utility.yul\":3758:3829   */\n      tag_182\n      jump\t// in\n    tag_274:\n        /* \"#utility.yul\":3614:3836   */\n      swap3\n      swap2\n      pop\n      pop\n      jump\t// out\n        /* \"#utility.yul\":3842:3919   */\n    tag_183:\n        /* \"#utility.yul\":3879:3886   */\n      0x00\n        /* \"#utility.yul\":3908:3913   */\n      dup2\n        /* \"#utility.yul\":3897:3913   */\n      swap1\n      pop\n        /* \"#utility.yul\":3842:3919   */\n      swap2\n      swap1\n      pop\n      jump\t// out\n        /* \"#utility.yul\":3925:4043   */\n    tag_184:\n        /* \"#utility.yul\":4012:4036   */\n      tag_277\n        /* \"#utility.yul\":4030:4035   */\n      dup2\n        /* \"#utility.yul\":4012:4036   */\n      tag_183\n      jump\t// in\n    tag_277:\n        /* \"#utility.yul\":4007:4010   */\n      dup3\n        /* \"#utility.yul\":4000:4037   */\n      mstore\n        /* \"#utility.yul\":3925:4043   */\n      pop\n      pop\n      jump\t// out\n        /* \"#utility.yul\":4049:4271   */\n    tag_39:\n        /* \"#utility.yul\":4142:4146   */\n      0x00\n        /* \"#utility.yul\":4180:4182   */\n      0x20\n        /* \"#utility.yul\":4169:4178   */\n      dup3\n        /* \"#utility.yul\":4165:4183   */\n      add\n        /* \"#utility.yul\":4157:4183   */\n      swap1\n      pop\n        /* \"#utility.yul\":4193:4264   */\n      tag_279\n        /* \"#utility.yul\":4261:4262   */\n      0x00\n        /* \"#utility.yul\":4250:4259   */\n      dup4\n        /* \"#utility.yul\":4246:4263   */\n      add\n        /* \"#utility.yul\":4237:4243   */\n      dup5\n        /* \"#utility.yul\":4193:4264   */\n      tag_184\n      jump\t// in\n    tag_279:\n        /* \"#utility.yul\":4049:4271   */\n      swap3\n      swap2\n      pop\n      pop\n      jump\t// out\n        /* \"#utility.yul\":4277:4606   */\n    tag_47:\n        /* \"#utility.yul\":4336:4342   */\n      0x00\n        /* \"#utility.yul\":4385:4387   */\n      0x20\n        /* \"#utility.yul\":4373:4382   */\n      dup3\n        /* \"#utility.yul\":4364:4371   */\n      dup5\n        /* \"#utility.yul\":4360:4383   */\n      sub\n        /* \"#utility.yul\":4356:4388   */\n      slt\n        /* \"#utility.yul\":4353:4472   */\n      iszero\n      tag_281\n      jumpi\n        /* \"#utility.yul\":4391:4470   */\n      tag_282\n      tag_168\n      jump\t// in\n    tag_282:\n        /* \"#utility.yul\":4353:4472   */\n    tag_281:\n        /* \"#utility.yul\":4511:4512   */\n      0x00\n        /* \"#utility.yul\":4536:4589   */\n      tag_283\n        /* \"#utility.yul\":4581:4588   */\n      dup5\n        /* \"#utility.yul\":4572:4578   */\n      dup3\n        /* \"#utility.yul\":4561:4570   */\n      dup6\n        /* \"#utility.yul\":4557:4579   */\n      add\n        /* \"#utility.yul\":4536:4589   */\n      tag_172\n      jump\t// in\n    tag_283:\n        /* \"#utility.yul\":4526:4589   */\n      swap2\n      pop\n        /* \"#utility.yul\":4482:4599   */\n      pop\n        /* \"#utility.yul\":4277:4606   */\n      swap3\n      swap2\n      pop\n      pop\n      jump\t// out\n        /* \"#utility.yul\":4612:4738   */\n    tag_185:\n        /* \"#utility.yul\":4649:4656   */\n      0x00\n        /* \"#utility.yul\":4689:4731   */\n      0xffffffffffffffffffffffffffffffffffffffff\n        /* \"#utility.yul\":4682:4687   */\n      dup3\n        /* \"#utility.yul\":4678:4732   */\n      and\n        /* \"#utility.yul\":4667:4732   */\n      swap1\n      pop\n        /* \"#utility.yul\":4612:4738   */\n      swap2\n      swap1\n      pop\n      jump\t// out\n        /* \"#utility.yul\":4744:4840   */\n    tag_186:\n        /* \"#utility.yul\":4781:4788   */\n      0x00\n        /* \"#utility.yul\":4810:4834   */\n      tag_286\n        /* \"#utility.yul\":4828:4833   */\n      dup3\n        /* \"#utility.yul\":4810:4834   */\n      tag_185\n      jump\t// in\n    tag_286:\n        /* \"#utility.yul\":4799:4834   */\n      swap1\n      pop\n        /* \"#utility.yul\":4744:4840   */\n      swap2\n      swap1\n      pop\n      jump\t// out\n        /* \"#utility.yul\":4846:4964   */\n    tag_187:\n        /* \"#utility.yul\":4933:4957   */\n      tag_288\n        /* \"#utility.yul\":4951:4956   */\n      dup2\n        /* \"#utility.yul\":4933:4957   */\n      tag_186\n      jump\t// in\n    tag_288:\n        /* \"#utility.yul\":4928:4931   */\n      dup3\n        /* \"#utility.yul\":4921:4958   */\n      mstore\n        /* \"#utility.yul\":4846:4964   */\n      pop\n      pop\n      jump\t// out\n        /* \"#utility.yul\":4970:5192   */\n    tag_56:\n        /* \"#utility.yul\":5063:5067   */\n      0x00\n        /* \"#utility.yul\":5101:5103   */\n      0x20\n        /* \"#utility.yul\":5090:5099   */\n      dup3\n        /* \"#utility.yul\":5086:5104   */\n      add\n        /* \"#utility.yul\":5078:5104   */\n      swap1\n      pop\n        /* \"#utility.yul\":5114:5185   */\n      tag_290\n        /* \"#utility.yul\":5182:5183   */\n      0x00\n        /* \"#utility.yul\":5171:5180   */\n      dup4\n        /* \"#utility.yul\":5167:5184   */\n      add\n        /* \"#utility.yul\":5158:5164   */\n      dup5\n        /* \"#utility.yul\":5114:5185   */\n      tag_187\n      jump\t// in\n    tag_290:\n        /* \"#utility.yul\":4970:5192   */\n      swap3\n      swap2\n      pop\n      pop\n      jump\t// out\n        /* \"#utility.yul\":5198:5320   */\n    tag_188:\n        /* \"#utility.yul\":5271:5295   */\n      tag_292\n        /* \"#utility.yul\":5289:5294   */\n      dup2\n        /* \"#utility.yul\":5271:5295   */\n      tag_186\n      jump\t// in\n    tag_292:\n        /* \"#utility.yul\":5264:5269   */\n      dup2\n        /* \"#utility.yul\":5261:5296   */\n      eq\n        /* \"#utility.yul\":5251:5314   */\n      tag_293\n      jumpi\n        /* \"#utility.yul\":5310:5311   */\n      0x00\n        /* \"#utility.yul\":5307:5308   */\n      dup1\n        /* \"#utility.yul\":5300:5312   */\n      revert\n        /* \"#utility.yul\":5251:5314   */\n    tag_293:\n        /* \"#utility.yul\":5198:5320   */\n      pop\n      jump\t// out\n        /* \"#utility.yul\":5326:5465   */\n    tag_189:\n        /* \"#utility.yul\":5372:5377   */\n      0x00\n        /* \"#utility.yul\":5410:5416   */\n      dup2\n        /* \"#utility.yul\":5397:5417   */\n      calldataload\n        /* \"#utility.yul\":5388:5417   */\n      swap1\n      pop\n        /* \"#utility.yul\":5426:5459   */\n      tag_295\n        /* \"#utility.yul\":5453:5458   */\n      dup2\n        /* \"#utility.yul\":5426:5459   */\n      tag_188\n      jump\t// in\n    tag_295:\n        /* \"#utility.yul\":5326:5465   */\n      swap3\n      swap2\n      pop\n      pop\n      jump\t// out\n        /* \"#utility.yul\":5471:5800   */\n    tag_59:\n        /* \"#utility.yul\":5530:5536   */\n      0x00\n        /* \"#utility.yul\":5579:5581   */\n      0x20\n        /* \"#utility.yul\":5567:5576   */\n      dup3\n        /* \"#utility.yul\":5558:5565   */\n      dup5\n        /* \"#utility.yul\":5554:5577   */\n      sub\n        /* \"#utility.yul\":5550:5582   */\n      slt\n        /* \"#utility.yul\":5547:5666   */\n      iszero\n      tag_297\n      jumpi\n        /* \"#utility.yul\":5585:5664   */\n      tag_298\n      tag_168\n      jump\t// in\n    tag_298:\n        /* \"#utility.yul\":5547:5666   */\n    tag_297:\n        /* \"#utility.yul\":5705:5706   */\n      0x00\n        /* \"#utility.yul\":5730:5783   */\n      tag_299\n        /* \"#utility.yul\":5775:5782   */\n      dup5\n        /* \"#utility.yul\":5766:5772   */\n      dup3\n        /* \"#utility.yul\":5755:5764   */\n      dup6\n        /* \"#utility.yul\":5751:5773   */\n      add\n        /* \"#utility.yul\":5730:5783   */\n      tag_189\n      jump\t// in\n    tag_299:\n        /* \"#utility.yul\":5720:5783   */\n      swap2\n      pop\n        /* \"#utility.yul\":5676:5793   */\n      pop\n        /* \"#utility.yul\":5471:5800   */\n      swap3\n      swap2\n      pop\n      pop\n      jump\t// out\n        /* \"#utility.yul\":5806:5866   */\n    tag_190:\n        /* \"#utility.yul\":5834:5837   */\n      0x00\n        /* \"#utility.yul\":5855:5860   */\n      dup2\n        /* \"#utility.yul\":5848:5860   */\n      swap1\n      pop\n        /* \"#utility.yul\":5806:5866   */\n      swap2\n      swap1\n      pop\n      jump\t// out\n        /* \"#utility.yul\":5872:6014   */\n    tag_191:\n        /* \"#utility.yul\":5922:5931   */\n      0x00\n        /* \"#utility.yul\":5955:6008   */\n      tag_302\n        /* \"#utility.yul\":5973:6007   */\n      tag_303\n        /* \"#utility.yul\":5982:6006   */\n      tag_304\n        /* \"#utility.yul\":6000:6005   */\n      dup5\n        /* \"#utility.yul\":5982:6006   */\n      tag_185\n      jump\t// in\n    tag_304:\n        /* \"#utility.yul\":5973:6007   */\n      tag_190\n      jump\t// in\n    tag_303:\n        /* \"#utility.yul\":5955:6008   */\n      tag_185\n      jump\t// in\n    tag_302:\n        /* \"#utility.yul\":5942:6008   */\n      swap1\n      pop\n        /* \"#utility.yul\":5872:6014   */\n      swap2\n      swap1\n      pop\n      jump\t// out\n        /* \"#utility.yul\":6020:6146   */\n    tag_192:\n        /* \"#utility.yul\":6070:6079   */\n      0x00\n        /* \"#utility.yul\":6103:6140   */\n      tag_306\n        /* \"#utility.yul\":6134:6139   */\n      dup3\n        /* \"#utility.yul\":6103:6140   */\n      tag_191\n      jump\t// in\n    tag_306:\n        /* \"#utility.yul\":6090:6140   */\n      swap1\n      pop\n        /* \"#utility.yul\":6020:6146   */\n      swap2\n      swap1\n      pop\n      jump\t// out\n        /* \"#utility.yul\":6152:6307   */\n    tag_193:\n        /* \"#utility.yul\":6231:6240   */\n      0x00\n        /* \"#utility.yul\":6264:6301   */\n      tag_308\n        /* \"#utility.yul\":6295:6300   */\n      dup3\n        /* \"#utility.yul\":6264:6301   */\n      tag_192\n      jump\t// in\n    tag_308:\n        /* \"#utility.yul\":6251:6301   */\n      swap1\n      pop\n        /* \"#utility.yul\":6152:6307   */\n      swap2\n      swap1\n      pop\n      jump\t// out\n        /* \"#utility.yul\":6313:6502   */\n    tag_194:\n        /* \"#utility.yul\":6429:6495   */\n      tag_310\n        /* \"#utility.yul\":6489:6494   */\n      dup2\n        /* \"#utility.yul\":6429:6495   */\n      tag_193\n      jump\t// in\n    tag_310:\n        /* \"#utility.yul\":6424:6427   */\n      dup3\n        /* \"#utility.yul\":6417:6496   */\n      mstore\n        /* \"#utility.yul\":6313:6502   */\n      pop\n      pop\n      jump\t// out\n        /* \"#utility.yul\":6508:6788   */\n    tag_64:\n        /* \"#utility.yul\":6630:6634   */\n      0x00\n        /* \"#utility.yul\":6668:6670   */\n      0x20\n        /* \"#utility.yul\":6657:6666   */\n      dup3\n        /* \"#utility.yul\":6653:6671   */\n      add\n        /* \"#utility.yul\":6645:6671   */\n      swap1\n      pop\n        /* \"#utility.yul\":6681:6781   */\n      tag_312\n        /* \"#utility.yul\":6778:6779   */\n      0x00\n        /* \"#utility.yul\":6767:6776   */\n      dup4\n        /* \"#utility.yul\":6763:6780   */\n      add\n        /* \"#utility.yul\":6754:6760   */\n      dup5\n        /* \"#utility.yul\":6681:6781   */\n      tag_194\n      jump\t// in\n    tag_312:\n        /* \"#utility.yul\":6508:6788   */\n      swap3\n      swap2\n      pop\n      pop\n      jump\t// out\n        /* \"#utility.yul\":6794:6903   */\n    tag_195:\n        /* \"#utility.yul\":6875:6896   */\n      tag_314\n        /* \"#utility.yul\":6890:6895   */\n      dup2\n        /* \"#utility.yul\":6875:6896   */\n      tag_179\n      jump\t// in\n    tag_314:\n        /* \"#utility.yul\":6870:6873   */\n      dup3\n        /* \"#utility.yul\":6863:6897   */\n      mstore\n        /* \"#utility.yul\":6794:6903   */\n      pop\n      pop\n      jump\t// out\n        /* \"#utility.yul\":6909:7217   */\n    tag_69:\n        /* \"#utility.yul\":7018:7022   */\n      0x00\n        /* \"#utility.yul\":7056:7058   */\n      0x40\n        /* \"#utility.yul\":7045:7054   */\n      dup3\n        /* \"#utility.yul\":7041:7059   */\n      add\n        /* \"#utility.yul\":7033:7059   */\n      swap1\n      pop\n        /* \"#utility.yul\":7069:7134   */\n      tag_316\n        /* \"#utility.yul\":7131:7132   */\n      0x00\n        /* \"#utility.yul\":7120:7129   */\n      dup4\n        /* \"#utility.yul\":7116:7133   */\n      add\n        /* \"#utility.yul\":7107:7113   */\n      dup6\n        /* \"#utility.yul\":7069:7134   */\n      tag_195\n      jump\t// in\n    tag_316:\n        /* \"#utility.yul\":7144:7210   */\n      tag_317\n        /* \"#utility.yul\":7206:7208   */\n      0x20\n        /* \"#utility.yul\":7195:7204   */\n      dup4\n        /* \"#utility.yul\":7191:7209   */\n      add\n        /* \"#utility.yul\":7182:7188   */\n      dup5\n        /* \"#utility.yul\":7144:7210   */\n      tag_195\n      jump\t// in\n    tag_317:\n        /* \"#utility.yul\":6909:7217   */\n      swap4\n      swap3\n      pop\n      pop\n      pop\n      jump\t// out\n        /* \"#utility.yul\":7223:7312   */\n    tag_196:\n        /* \"#utility.yul\":7259:7266   */\n      0x00\n        /* \"#utility.yul\":7299:7305   */\n      0xffff\n        /* \"#utility.yul\":7292:7297   */\n      dup3\n        /* \"#utility.yul\":7288:7306   */\n      and\n        /* \"#utility.yul\":7277:7306   */\n      swap1\n      pop\n        /* \"#utility.yul\":7223:7312   */\n      swap2\n      swap1\n      pop\n      jump\t// out\n        /* \"#utility.yul\":7318:7433   */\n    tag_197:\n        /* \"#utility.yul\":7403:7426   */\n      tag_320\n        /* \"#utility.yul\":7420:7425   */\n      dup2\n        /* \"#utility.yul\":7403:7426   */\n      tag_196\n      jump\t// in\n    tag_320:\n        /* \"#utility.yul\":7398:7401   */\n      dup3\n        /* \"#utility.yul\":7391:7427   */\n      mstore\n        /* \"#utility.yul\":7318:7433   */\n      pop\n      pop\n      jump\t// out\n        /* \"#utility.yul\":7439:7657   */\n    tag_73:\n        /* \"#utility.yul\":7530:7534   */\n      0x00\n        /* \"#utility.yul\":7568:7570   */\n      0x20\n        /* \"#utility.yul\":7557:7566   */\n      dup3\n        /* \"#utility.yul\":7553:7571   */\n      add\n        /* \"#utility.yul\":7545:7571   */\n      swap1\n      pop\n        /* \"#utility.yul\":7581:7650   */\n      tag_322\n        /* \"#utility.yul\":7647:7648   */\n      0x00\n        /* \"#utility.yul\":7636:7645   */\n      dup4\n        /* \"#utility.yul\":7632:7649   */\n      add\n        /* \"#utility.yul\":7623:7629   */\n      dup5\n        /* \"#utility.yul\":7581:7650   */\n      tag_197\n      jump\t// in\n    tag_322:\n        /* \"#utility.yul\":7439:7657   */\n      swap3\n      swap2\n      pop\n      pop\n      jump\t// out\n        /* \"#utility.yul\":7663:7777   */\n    tag_198:\n        /* \"#utility.yul\":7730:7736   */\n      0x00\n        /* \"#utility.yul\":7764:7769   */\n      dup2\n        /* \"#utility.yul\":7758:7770   */\n      mload\n        /* \"#utility.yul\":7748:7770   */\n      swap1\n      pop\n        /* \"#utility.yul\":7663:7777   */\n      swap2\n      swap1\n      pop\n      jump\t// out\n        /* \"#utility.yul\":7783:7967   */\n    tag_199:\n        /* \"#utility.yul\":7882:7893   */\n      0x00\n        /* \"#utility.yul\":7916:7922   */\n      dup3\n        /* \"#utility.yul\":7911:7914   */\n      dup3\n        /* \"#utility.yul\":7904:7923   */\n      mstore\n        /* \"#utility.yul\":7956:7960   */\n      0x20\n        /* \"#utility.yul\":7951:7954   */\n      dup3\n        /* \"#utility.yul\":7947:7961   */\n      add\n        /* \"#utility.yul\":7932:7961   */\n      swap1\n      pop\n        /* \"#utility.yul\":7783:7967   */\n      swap3\n      swap2\n      pop\n      pop\n      jump\t// out\n        /* \"#utility.yul\":7973:8105   */\n    tag_200:\n        /* \"#utility.yul\":8040:8044   */\n      0x00\n        /* \"#utility.yul\":8063:8066   */\n      dup2\n        /* \"#utility.yul\":8055:8066   */\n      swap1\n      pop\n        /* \"#utility.yul\":8093:8097   */\n      0x20\n        /* \"#utility.yul\":8088:8091   */\n      dup3\n        /* \"#utility.yul\":8084:8098   */\n      add\n        /* \"#utility.yul\":8076:8098   */\n      swap1\n      pop\n        /* \"#utility.yul\":7973:8105   */\n      swap2\n      swap1\n      pop\n      jump\t// out\n        /* \"#utility.yul\":8111:8219   */\n    tag_201:\n        /* \"#utility.yul\":8188:8212   */\n      tag_327\n        /* \"#utility.yul\":8206:8211   */\n      dup2\n        /* \"#utility.yul\":8188:8212   */\n      tag_170\n      jump\t// in\n    tag_327:\n        /* \"#utility.yul\":8183:8186   */\n      dup3\n        /* \"#utility.yul\":8176:8213   */\n      mstore\n        /* \"#utility.yul\":8111:8219   */\n      pop\n      pop\n      jump\t// out\n        /* \"#utility.yul\":8225:8404   */\n    tag_202:\n        /* \"#utility.yul\":8294:8304   */\n      0x00\n        /* \"#utility.yul\":8315:8361   */\n      tag_329\n        /* \"#utility.yul\":8357:8360   */\n      dup4\n        /* \"#utility.yul\":8349:8355   */\n      dup4\n        /* \"#utility.yul\":8315:8361   */\n      tag_201\n      jump\t// in\n    tag_329:\n        /* \"#utility.yul\":8393:8397   */\n      0x20\n        /* \"#utility.yul\":8388:8391   */\n      dup4\n        /* \"#utility.yul\":8384:8398   */\n      add\n        /* \"#utility.yul\":8370:8398   */\n      swap1\n      pop\n        /* \"#utility.yul\":8225:8404   */\n      swap3\n      swap2\n      pop\n      pop\n      jump\t// out\n        /* \"#utility.yul\":8410:8523   */\n    tag_203:\n        /* \"#utility.yul\":8480:8484   */\n      0x00\n        /* \"#utility.yul\":8512:8516   */\n      0x20\n        /* \"#utility.yul\":8507:8510   */\n      dup3\n        /* \"#utility.yul\":8503:8517   */\n      add\n        /* \"#utility.yul\":8495:8517   */\n      swap1\n      pop\n        /* \"#utility.yul\":8410:8523   */\n      swap2\n      swap1\n      pop\n      jump\t// out\n        /* \"#utility.yul\":8559:9291   */\n    tag_204:\n        /* \"#utility.yul\":8678:8681   */\n      0x00\n        /* \"#utility.yul\":8707:8761   */\n      tag_332\n        /* \"#utility.yul\":8755:8760   */\n      dup3\n        /* \"#utility.yul\":8707:8761   */\n      tag_198\n      jump\t// in\n    tag_332:\n        /* \"#utility.yul\":8777:8863   */\n      tag_333\n        /* \"#utility.yul\":8856:8862   */\n      dup2\n        /* \"#utility.yul\":8851:8854   */\n      dup6\n        /* \"#utility.yul\":8777:8863   */\n      tag_199\n      jump\t// in\n    tag_333:\n        /* \"#utility.yul\":8770:8863   */\n      swap4\n      pop\n        /* \"#utility.yul\":8887:8943   */\n      tag_334\n        /* \"#utility.yul\":8937:8942   */\n      dup4\n        /* \"#utility.yul\":8887:8943   */\n      tag_200\n      jump\t// in\n    tag_334:\n        /* \"#utility.yul\":8966:8973   */\n      dup1\n        /* \"#utility.yul\":8997:8998   */\n      0x00\n        /* \"#utility.yul\":8982:9266   */\n    tag_335:\n        /* \"#utility.yul\":9007:9013   */\n      dup4\n        /* \"#utility.yul\":9004:9005   */\n      dup2\n        /* \"#utility.yul\":9001:9014   */\n      lt\n        /* \"#utility.yul\":8982:9266   */\n      iszero\n      tag_337\n      jumpi\n        /* \"#utility.yul\":9083:9089   */\n      dup2\n        /* \"#utility.yul\":9077:9090   */\n      mload\n        /* \"#utility.yul\":9110:9173   */\n      tag_338\n        /* \"#utility.yul\":9169:9172   */\n      dup9\n        /* \"#utility.yul\":9154:9167   */\n      dup3\n        /* \"#utility.yul\":9110:9173   */\n      tag_202\n      jump\t// in\n    tag_338:\n        /* \"#utility.yul\":9103:9173   */\n      swap8\n      pop\n        /* \"#utility.yul\":9196:9256   */\n      tag_339\n        /* \"#utility.yul\":9249:9255   */\n      dup4\n        /* \"#utility.yul\":9196:9256   */\n      tag_203\n      jump\t// in\n    tag_339:\n        /* \"#utility.yul\":9186:9256   */\n      swap3\n      pop\n        /* \"#utility.yul\":9042:9266   */\n      pop\n        /* \"#utility.yul\":9029:9030   */\n      0x01\n        /* \"#utility.yul\":9026:9027   */\n      dup2\n        /* \"#utility.yul\":9022:9031   */\n      add\n        /* \"#utility.yul\":9017:9031   */\n      swap1\n      pop\n        /* \"#utility.yul\":8982:9266   */\n      jump(tag_335)\n    tag_337:\n        /* \"#utility.yul\":8986:9000   */\n      pop\n        /* \"#utility.yul\":9282:9285   */\n      dup6\n        /* \"#utility.yul\":9275:9285   */\n      swap4\n      pop\n        /* \"#utility.yul\":8683:9291   */\n      pop\n      pop\n      pop\n        /* \"#utility.yul\":8559:9291   */\n      swap3\n      swap2\n      pop\n      pop\n      jump\t// out\n        /* \"#utility.yul\":9297:9768   */\n    tag_78:\n        /* \"#utility.yul\":9462:9466   */\n      0x00\n        /* \"#utility.yul\":9500:9502   */\n      0x40\n        /* \"#utility.yul\":9489:9498   */\n      dup3\n        /* \"#utility.yul\":9485:9503   */\n      add\n        /* \"#utility.yul\":9477:9503   */\n      swap1\n      pop\n        /* \"#utility.yul\":9513:9578   */\n      tag_341\n        /* \"#utility.yul\":9575:9576   */\n      0x00\n        /* \"#utility.yul\":9564:9573   */\n      dup4\n        /* \"#utility.yul\":9560:9577   */\n      add\n        /* \"#utility.yul\":9551:9557   */\n      dup6\n        /* \"#utility.yul\":9513:9578   */\n      tag_195\n      jump\t// in\n    tag_341:\n        /* \"#utility.yul\":9625:9634   */\n      dup2\n        /* \"#utility.yul\":9619:9623   */\n      dup2\n        /* \"#utility.yul\":9615:9635   */\n      sub\n        /* \"#utility.yul\":9610:9612   */\n      0x20\n        /* \"#utility.yul\":9599:9608   */\n      dup4\n        /* \"#utility.yul\":9595:9613   */\n      add\n        /* \"#utility.yul\":9588:9636   */\n      mstore\n        /* \"#utility.yul\":9653:9761   */\n      tag_342\n        /* \"#utility.yul\":9756:9760   */\n      dup2\n        /* \"#utility.yul\":9747:9753   */\n      dup5\n        /* \"#utility.yul\":9653:9761   */\n      tag_204\n      jump\t// in\n    tag_342:\n        /* \"#utility.yul\":9645:9761   */\n      swap1\n      pop\n        /* \"#utility.yul\":9297:9768   */\n      swap4\n      swap3\n      pop\n      pop\n      pop\n      jump\t// out\n        /* \"#utility.yul\":9774:10106   */\n    tag_88:\n        /* \"#utility.yul\":9895:9899   */\n      0x00\n        /* \"#utility.yul\":9933:9935   */\n      0x40\n        /* \"#utility.yul\":9922:9931   */\n      dup3\n        /* \"#utility.yul\":9918:9936   */\n      add\n        /* \"#utility.yul\":9910:9936   */\n      swap1\n      pop\n        /* \"#utility.yul\":9946:10017   */\n      tag_344\n        /* \"#utility.yul\":10014:10015   */\n      0x00\n        /* \"#utility.yul\":10003:10012   */\n      dup4\n        /* \"#utility.yul\":9999:10016   */\n      add\n        /* \"#utility.yul\":9990:9996   */\n      dup6\n        /* \"#utility.yul\":9946:10017   */\n      tag_187\n      jump\t// in\n    tag_344:\n        /* \"#utility.yul\":10027:10099   */\n      tag_345\n        /* \"#utility.yul\":10095:10097   */\n      0x20\n        /* \"#utility.yul\":10084:10093   */\n      dup4\n        /* \"#utility.yul\":10080:10098   */\n      add\n        /* \"#utility.yul\":10071:10077   */\n      dup5\n        /* \"#utility.yul\":10027:10099   */\n      tag_187\n      jump\t// in\n    tag_345:\n        /* \"#utility.yul\":9774:10106   */\n      swap4\n      swap3\n      pop\n      pop\n      pop\n      jump\t// out\n        /* \"#utility.yul\":10112:10220   */\n    tag_205:\n        /* \"#utility.yul\":10189:10213   */\n      tag_347\n        /* \"#utility.yul\":10207:10212   */\n      dup2\n        /* \"#utility.yul\":10189:10213   */\n      tag_183\n      jump\t// in\n    tag_347:\n        /* \"#utility.yul\":10184:10187   */\n      dup3\n        /* \"#utility.yul\":10177:10214   */\n      mstore\n        /* \"#utility.yul\":10112:10220   */\n      pop\n      pop\n      jump\t// out\n        /* \"#utility.yul\":10226:10331   */\n    tag_206:\n        /* \"#utility.yul\":10301:10324   */\n      tag_349\n        /* \"#utility.yul\":10318:10323   */\n      dup2\n        /* \"#utility.yul\":10301:10324   */\n      tag_196\n      jump\t// in\n    tag_349:\n        /* \"#utility.yul\":10296:10299   */\n      dup3\n        /* \"#utility.yul\":10289:10325   */\n      mstore\n        /* \"#utility.yul\":10226:10331   */\n      pop\n      pop\n      jump\t// out\n        /* \"#utility.yul\":10337:10442   */\n    tag_207:\n        /* \"#utility.yul\":10412:10435   */\n      tag_351\n        /* \"#utility.yul\":10429:10434   */\n      dup2\n        /* \"#utility.yul\":10412:10435   */\n      tag_177\n      jump\t// in\n    tag_351:\n        /* \"#utility.yul\":10407:10410   */\n      dup3\n        /* \"#utility.yul\":10400:10436   */\n      mstore\n        /* \"#utility.yul\":10337:10442   */\n      pop\n      pop\n      jump\t// out\n        /* \"#utility.yul\":10448:10546   */\n    tag_208:\n        /* \"#utility.yul\":10499:10505   */\n      0x00\n        /* \"#utility.yul\":10533:10538   */\n      dup2\n        /* \"#utility.yul\":10527:10539   */\n      mload\n        /* \"#utility.yul\":10517:10539   */\n      swap1\n      pop\n        /* \"#utility.yul\":10448:10546   */\n      swap2\n      swap1\n      pop\n      jump\t// out\n        /* \"#utility.yul\":10552:10710   */\n    tag_209:\n        /* \"#utility.yul\":10625:10636   */\n      0x00\n        /* \"#utility.yul\":10659:10665   */\n      dup3\n        /* \"#utility.yul\":10654:10657   */\n      dup3\n        /* \"#utility.yul\":10647:10666   */\n      mstore\n        /* \"#utility.yul\":10699:10703   */\n      0x20\n        /* \"#utility.yul\":10694:10697   */\n      dup3\n        /* \"#utility.yul\":10690:10704   */\n      add\n        /* \"#utility.yul\":10675:10704   */\n      swap1\n      pop\n        /* \"#utility.yul\":10552:10710   */\n      swap3\n      swap2\n      pop\n      pop\n      jump\t// out\n        /* \"#utility.yul\":10716:10962   */\n    tag_210:\n        /* \"#utility.yul\":10797:10798   */\n      0x00\n        /* \"#utility.yul\":10807:10920   */\n    tag_355:\n        /* \"#utility.yul\":10821:10827   */\n      dup4\n        /* \"#utility.yul\":10818:10819   */\n      dup2\n        /* \"#utility.yul\":10815:10828   */\n      lt\n        /* \"#utility.yul\":10807:10920   */\n      iszero\n      tag_357\n      jumpi\n        /* \"#utility.yul\":10906:10907   */\n      dup1\n        /* \"#utility.yul\":10901:10904   */\n      dup3\n        /* \"#utility.yul\":10897:10908   */\n      add\n        /* \"#utility.yul\":10891:10909   */\n      mload\n        /* \"#utility.yul\":10887:10888   */\n      dup2\n        /* \"#utility.yul\":10882:10885   */\n      dup5\n        /* \"#utility.yul\":10878:10889   */\n      add\n        /* \"#utility.yul\":10871:10910   */\n      mstore\n        /* \"#utility.yul\":10843:10845   */\n      0x20\n        /* \"#utility.yul\":10840:10841   */\n      dup2\n        /* \"#utility.yul\":10836:10846   */\n      add\n        /* \"#utility.yul\":10831:10846   */\n      swap1\n      pop\n        /* \"#utility.yul\":10807:10920   */\n      jump(tag_355)\n    tag_357:\n        /* \"#utility.yul\":10954:10955   */\n      0x00\n        /* \"#utility.yul\":10945:10951   */\n      dup5\n        /* \"#utility.yul\":10940:10943   */\n      dup5\n        /* \"#utility.yul\":10936:10952   */\n      add\n        /* \"#utility.yul\":10929:10956   */\n      mstore\n        /* \"#utility.yul\":10778:10962   */\n      pop\n        /* \"#utility.yul\":10716:10962   */\n      pop\n      pop\n      pop\n      jump\t// out\n        /* \"#utility.yul\":10968:11070   */\n    tag_211:\n        /* \"#utility.yul\":11009:11015   */\n      0x00\n        /* \"#utility.yul\":11060:11062   */\n      0x1f\n        /* \"#utility.yul\":11056:11063   */\n      not\n        /* \"#utility.yul\":11051:11053   */\n      0x1f\n        /* \"#utility.yul\":11044:11049   */\n      dup4\n        /* \"#utility.yul\":11040:11054   */\n      add\n        /* \"#utility.yul\":11036:11064   */\n      and\n        /* \"#utility.yul\":11026:11064   */\n      swap1\n      pop\n        /* \"#utility.yul\":10968:11070   */\n      swap2\n      swap1\n      pop\n      jump\t// out\n        /* \"#utility.yul\":11076:11429   */\n    tag_212:\n        /* \"#utility.yul\":11152:11155   */\n      0x00\n        /* \"#utility.yul\":11180:11218   */\n      tag_360\n        /* \"#utility.yul\":11212:11217   */\n      dup3\n        /* \"#utility.yul\":11180:11218   */\n      tag_208\n      jump\t// in\n    tag_360:\n        /* \"#utility.yul\":11234:11294   */\n      tag_361\n        /* \"#utility.yul\":11287:11293   */\n      dup2\n        /* \"#utility.yul\":11282:11285   */\n      dup6\n        /* \"#utility.yul\":11234:11294   */\n      tag_209\n      jump\t// in\n    tag_361:\n        /* \"#utility.yul\":11227:11294   */\n      swap4\n      pop\n        /* \"#utility.yul\":11303:11368   */\n      tag_362\n        /* \"#utility.yul\":11361:11367   */\n      dup2\n        /* \"#utility.yul\":11356:11359   */\n      dup6\n        /* \"#utility.yul\":11349:11353   */\n      0x20\n        /* \"#utility.yul\":11342:11347   */\n      dup7\n        /* \"#utility.yul\":11338:11354   */\n      add\n        /* \"#utility.yul\":11303:11368   */\n      tag_210\n      jump\t// in\n    tag_362:\n        /* \"#utility.yul\":11393:11422   */\n      tag_363\n        /* \"#utility.yul\":11415:11421   */\n      dup2\n        /* \"#utility.yul\":11393:11422   */\n      tag_211\n      jump\t// in\n    tag_363:\n        /* \"#utility.yul\":11388:11391   */\n      dup5\n        /* \"#utility.yul\":11384:11423   */\n      add\n        /* \"#utility.yul\":11377:11423   */\n      swap2\n      pop\n        /* \"#utility.yul\":11156:11429   */\n      pop\n        /* \"#utility.yul\":11076:11429   */\n      swap3\n      swap2\n      pop\n      pop\n      jump\t// out\n        /* \"#utility.yul\":11529:12884   */\n    tag_213:\n        /* \"#utility.yul\":11668:11671   */\n      0x00\n        /* \"#utility.yul\":11704:11708   */\n      0xc0\n        /* \"#utility.yul\":11699:11702   */\n      dup4\n        /* \"#utility.yul\":11695:11709   */\n      add\n        /* \"#utility.yul\":11794:11798   */\n      0x00\n        /* \"#utility.yul\":11787:11792   */\n      dup4\n        /* \"#utility.yul\":11783:11799   */\n      add\n        /* \"#utility.yul\":11777:11800   */\n      mload\n        /* \"#utility.yul\":11813:11876   */\n      tag_365\n        /* \"#utility.yul\":11870:11874   */\n      0x00\n        /* \"#utility.yul\":11865:11868   */\n      dup7\n        /* \"#utility.yul\":11861:11875   */\n      add\n        /* \"#utility.yul\":11847:11859   */\n      dup3\n        /* \"#utility.yul\":11813:11876   */\n      tag_205\n      jump\t// in\n    tag_365:\n        /* \"#utility.yul\":11719:11886   */\n      pop\n        /* \"#utility.yul\":11969:11973   */\n      0x20\n        /* \"#utility.yul\":11962:11967   */\n      dup4\n        /* \"#utility.yul\":11958:11974   */\n      add\n        /* \"#utility.yul\":11952:11975   */\n      mload\n        /* \"#utility.yul\":11988:12051   */\n      tag_366\n        /* \"#utility.yul\":12045:12049   */\n      0x20\n        /* \"#utility.yul\":12040:12043   */\n      dup7\n        /* \"#utility.yul\":12036:12050   */\n      add\n        /* \"#utility.yul\":12022:12034   */\n      dup3\n        /* \"#utility.yul\":11988:12051   */\n      tag_201\n      jump\t// in\n    tag_366:\n        /* \"#utility.yul\":11896:12061   */\n      pop\n        /* \"#utility.yul\":12159:12163   */\n      0x40\n        /* \"#utility.yul\":12152:12157   */\n      dup4\n        /* \"#utility.yul\":12148:12164   */\n      add\n        /* \"#utility.yul\":12142:12165   */\n      mload\n        /* \"#utility.yul\":12178:12239   */\n      tag_367\n        /* \"#utility.yul\":12233:12237   */\n      0x40\n        /* \"#utility.yul\":12228:12231   */\n      dup7\n        /* \"#utility.yul\":12224:12238   */\n      add\n        /* \"#utility.yul\":12210:12222   */\n      dup3\n        /* \"#utility.yul\":12178:12239   */\n      tag_206\n      jump\t// in\n    tag_367:\n        /* \"#utility.yul\":12071:12249   */\n      pop\n        /* \"#utility.yul\":12343:12347   */\n      0x60\n        /* \"#utility.yul\":12336:12341   */\n      dup4\n        /* \"#utility.yul\":12332:12348   */\n      add\n        /* \"#utility.yul\":12326:12349   */\n      mload\n        /* \"#utility.yul\":12362:12423   */\n      tag_368\n        /* \"#utility.yul\":12417:12421   */\n      0x60\n        /* \"#utility.yul\":12412:12415   */\n      dup7\n        /* \"#utility.yul\":12408:12422   */\n      add\n        /* \"#utility.yul\":12394:12406   */\n      dup3\n        /* \"#utility.yul\":12362:12423   */\n      tag_207\n      jump\t// in\n    tag_368:\n        /* \"#utility.yul\":12259:12433   */\n      pop\n        /* \"#utility.yul\":12519:12523   */\n      0x80\n        /* \"#utility.yul\":12512:12517   */\n      dup4\n        /* \"#utility.yul\":12508:12524   */\n      add\n        /* \"#utility.yul\":12502:12525   */\n      mload\n        /* \"#utility.yul\":12538:12599   */\n      tag_369\n        /* \"#utility.yul\":12593:12597   */\n      0x80\n        /* \"#utility.yul\":12588:12591   */\n      dup7\n        /* \"#utility.yul\":12584:12598   */\n      add\n        /* \"#utility.yul\":12570:12582   */\n      dup3\n        /* \"#utility.yul\":12538:12599   */\n      tag_207\n      jump\t// in\n    tag_369:\n        /* \"#utility.yul\":12443:12609   */\n      pop\n        /* \"#utility.yul\":12696:12700   */\n      0xa0\n        /* \"#utility.yul\":12689:12694   */\n      dup4\n        /* \"#utility.yul\":12685:12701   */\n      add\n        /* \"#utility.yul\":12679:12702   */\n      mload\n        /* \"#utility.yul\":12749:12752   */\n      dup5\n        /* \"#utility.yul\":12743:12747   */\n      dup3\n        /* \"#utility.yul\":12739:12753   */\n      sub\n        /* \"#utility.yul\":12732:12736   */\n      0xa0\n        /* \"#utility.yul\":12727:12730   */\n      dup7\n        /* \"#utility.yul\":12723:12737   */\n      add\n        /* \"#utility.yul\":12716:12754   */\n      mstore\n        /* \"#utility.yul\":12775:12846   */\n      tag_370\n        /* \"#utility.yul\":12841:12845   */\n      dup3\n        /* \"#utility.yul\":12827:12839   */\n      dup3\n        /* \"#utility.yul\":12775:12846   */\n      tag_212\n      jump\t// in\n    tag_370:\n        /* \"#utility.yul\":12767:12846   */\n      swap2\n      pop\n        /* \"#utility.yul\":12619:12857   */\n      pop\n        /* \"#utility.yul\":12874:12878   */\n      dup1\n        /* \"#utility.yul\":12867:12878   */\n      swap2\n      pop\n        /* \"#utility.yul\":11673:12884   */\n      pop\n        /* \"#utility.yul\":11529:12884   */\n      swap3\n      swap2\n      pop\n      pop\n      jump\t// out\n        /* \"#utility.yul\":12890:13303   */\n    tag_95:\n        /* \"#utility.yul\":13053:13057   */\n      0x00\n        /* \"#utility.yul\":13091:13093   */\n      0x20\n        /* \"#utility.yul\":13080:13089   */\n      dup3\n        /* \"#utility.yul\":13076:13094   */\n      add\n        /* \"#utility.yul\":13068:13094   */\n      swap1\n      pop\n        /* \"#utility.yul\":13140:13149   */\n      dup2\n        /* \"#utility.yul\":13134:13138   */\n      dup2\n        /* \"#utility.yul\":13130:13150   */\n      sub\n        /* \"#utility.yul\":13126:13127   */\n      0x00\n        /* \"#utility.yul\":13115:13124   */\n      dup4\n        /* \"#utility.yul\":13111:13128   */\n      add\n        /* \"#utility.yul\":13104:13151   */\n      mstore\n        /* \"#utility.yul\":13168:13296   */\n      tag_372\n        /* \"#utility.yul\":13291:13295   */\n      dup2\n        /* \"#utility.yul\":13282:13288   */\n      dup5\n        /* \"#utility.yul\":13168:13296   */\n      tag_213\n      jump\t// in\n    tag_372:\n        /* \"#utility.yul\":13160:13296   */\n      swap1\n      pop\n        /* \"#utility.yul\":12890:13303   */\n      swap3\n      swap2\n      pop\n      pop\n      jump\t// out\n        /* \"#utility.yul\":13309:13452   */\n    tag_214:\n        /* \"#utility.yul\":13366:13371   */\n      0x00\n        /* \"#utility.yul\":13397:13403   */\n      dup2\n        /* \"#utility.yul\":13391:13404   */\n      mload\n        /* \"#utility.yul\":13382:13404   */\n      swap1\n      pop\n        /* \"#utility.yul\":13413:13446   */\n      tag_374\n        /* \"#utility.yul\":13440:13445   */\n      dup2\n        /* \"#utility.yul\":13413:13446   */\n      tag_171\n      jump\t// in\n    tag_374:\n        /* \"#utility.yul\":13309:13452   */\n      swap3\n      swap2\n      pop\n      pop\n      jump\t// out\n        /* \"#utility.yul\":13458:13809   */\n    tag_99:\n        /* \"#utility.yul\":13528:13534   */\n      0x00\n        /* \"#utility.yul\":13577:13579   */\n      0x20\n        /* \"#utility.yul\":13565:13574   */\n      dup3\n        /* \"#utility.yul\":13556:13563   */\n      dup5\n        /* \"#utility.yul\":13552:13575   */\n      sub\n        /* \"#utility.yul\":13548:13580   */\n      slt\n        /* \"#utility.yul\":13545:13664   */\n      iszero\n      tag_376\n      jumpi\n        /* \"#utility.yul\":13583:13662   */\n      tag_377\n      tag_168\n      jump\t// in\n    tag_377:\n        /* \"#utility.yul\":13545:13664   */\n    tag_376:\n        /* \"#utility.yul\":13703:13704   */\n      0x00\n        /* \"#utility.yul\":13728:13792   */\n      tag_378\n        /* \"#utility.yul\":13784:13791   */\n      dup5\n        /* \"#utility.yul\":13775:13781   */\n      dup3\n        /* \"#utility.yul\":13764:13773   */\n      dup6\n        /* \"#utility.yul\":13760:13782   */\n      add\n        /* \"#utility.yul\":13728:13792   */\n      tag_214\n      jump\t// in\n    tag_378:\n        /* \"#utility.yul\":13718:13792   */\n      swap2\n      pop\n        /* \"#utility.yul\":13674:13802   */\n      pop\n        /* \"#utility.yul\":13458:13809   */\n      swap3\n      swap2\n      pop\n      pop\n      jump\t// out\n        /* \"#utility.yul\":13815:13995   */\n    tag_102:\n        /* \"#utility.yul\":13863:13940   */\n      0x4e487b7100000000000000000000000000000000000000000000000000000000\n        /* \"#utility.yul\":13860:13861   */\n      0x00\n        /* \"#utility.yul\":13853:13941   */\n      mstore\n        /* \"#utility.yul\":13960:13964   */\n      0x41\n        /* \"#utility.yul\":13957:13958   */\n      0x04\n        /* \"#utility.yul\":13950:13965   */\n      mstore\n        /* \"#utility.yul\":13984:13988   */\n      0x24\n        /* \"#utility.yul\":13981:13982   */\n      0x00\n        /* \"#utility.yul\":13974:13989   */\n      revert\n        /* \"#utility.yul\":14001:14329   */\n    tag_108:\n        /* \"#utility.yul\":14120:14124   */\n      0x00\n        /* \"#utility.yul\":14158:14160   */\n      0x40\n        /* \"#utility.yul\":14147:14156   */\n      dup3\n        /* \"#utility.yul\":14143:14161   */\n      add\n        /* \"#utility.yul\":14135:14161   */\n      swap1\n      pop\n        /* \"#utility.yul\":14171:14242   */\n      tag_381\n        /* \"#utility.yul\":14239:14240   */\n      0x00\n        /* \"#utility.yul\":14228:14237   */\n      dup4\n        /* \"#utility.yul\":14224:14241   */\n      add\n        /* \"#utility.yul\":14215:14221   */\n      dup6\n        /* \"#utility.yul\":14171:14242   */\n      tag_182\n      jump\t// in\n    tag_381:\n        /* \"#utility.yul\":14252:14322   */\n      tag_382\n        /* \"#utility.yul\":14318:14320   */\n      0x20\n        /* \"#utility.yul\":14307:14316   */\n      dup4\n        /* \"#utility.yul\":14303:14321   */\n      add\n        /* \"#utility.yul\":14294:14300   */\n      dup5\n        /* \"#utility.yul\":14252:14322   */\n      tag_178\n      jump\t// in\n    tag_382:\n        /* \"#utility.yul\":14001:14329   */\n      swap4\n      swap3\n      pop\n      pop\n      pop\n      jump\t// out\n        /* \"#utility.yul\":14335:14504   */\n    tag_215:\n        /* \"#utility.yul\":14419:14430   */\n      0x00\n        /* \"#utility.yul\":14453:14459   */\n      dup3\n        /* \"#utility.yul\":14448:14451   */\n      dup3\n        /* \"#utility.yul\":14441:14460   */\n      mstore\n        /* \"#utility.yul\":14493:14497   */\n      0x20\n        /* \"#utility.yul\":14488:14491   */\n      dup3\n        /* \"#utility.yul\":14484:14498   */\n      add\n        /* \"#utility.yul\":14469:14498   */\n      swap1\n      pop\n        /* \"#utility.yul\":14335:14504   */\n      swap3\n      swap2\n      pop\n      pop\n      jump\t// out\n        /* \"#utility.yul\":14510:14682   */\n    tag_216:\n        /* \"#utility.yul\":14650:14674   */\n      0x4d7573742062652070726f706f736564206f776e657200000000000000000000\n        /* \"#utility.yul\":14646:14647   */\n      0x00\n        /* \"#utility.yul\":14638:14644   */\n      dup3\n        /* \"#utility.yul\":14634:14648   */\n      add\n        /* \"#utility.yul\":14627:14675   */\n      mstore\n        /* \"#utility.yul\":14510:14682   */\n      pop\n      jump\t// out\n        /* \"#utility.yul\":14688:15054   */\n    tag_217:\n        /* \"#utility.yul\":14830:14833   */\n      0x00\n        /* \"#utility.yul\":14851:14918   */\n      tag_386\n        /* \"#utility.yul\":14915:14917   */\n      0x16\n        /* \"#utility.yul\":14910:14913   */\n      dup4\n        /* \"#utility.yul\":14851:14918   */\n      tag_215\n      jump\t// in\n    tag_386:\n        /* \"#utility.yul\":14844:14918   */\n      swap2\n      pop\n        /* \"#utility.yul\":14927:15020   */\n      tag_387\n        /* \"#utility.yul\":15016:15019   */\n      dup3\n        /* \"#utility.yul\":14927:15020   */\n      tag_216\n      jump\t// in\n    tag_387:\n        /* \"#utility.yul\":15045:15047   */\n      0x20\n        /* \"#utility.yul\":15040:15043   */\n      dup3\n        /* \"#utility.yul\":15036:15048   */\n      add\n        /* \"#utility.yul\":15029:15048   */\n      swap1\n      pop\n        /* \"#utility.yul\":14688:15054   */\n      swap2\n      swap1\n      pop\n      jump\t// out\n        /* \"#utility.yul\":15060:15479   */\n    tag_112:\n        /* \"#utility.yul\":15226:15230   */\n      0x00\n        /* \"#utility.yul\":15264:15266   */\n      0x20\n        /* \"#utility.yul\":15253:15262   */\n      dup3\n        /* \"#utility.yul\":15249:15267   */\n      add\n        /* \"#utility.yul\":15241:15267   */\n      swap1\n      pop\n        /* \"#utility.yul\":15313:15322   */\n      dup2\n        /* \"#utility.yul\":15307:15311   */\n      dup2\n        /* \"#utility.yul\":15303:15323   */\n      sub\n        /* \"#utility.yul\":15299:15300   */\n      0x00\n        /* \"#utility.yul\":15288:15297   */\n      dup4\n        /* \"#utility.yul\":15284:15301   */\n      add\n        /* \"#utility.yul\":15277:15324   */\n      mstore\n        /* \"#utility.yul\":15341:15472   */\n      tag_389\n        /* \"#utility.yul\":15467:15471   */\n      dup2\n        /* \"#utility.yul\":15341:15472   */\n      tag_217\n      jump\t// in\n    tag_389:\n        /* \"#utility.yul\":15333:15472   */\n      swap1\n      pop\n        /* \"#utility.yul\":15060:15479   */\n      swap2\n      swap1\n      pop\n      jump\t// out\n        /* \"#utility.yul\":15485:15927   */\n    tag_122:\n        /* \"#utility.yul\":15634:15638   */\n      0x00\n        /* \"#utility.yul\":15672:15674   */\n      0x60\n        /* \"#utility.yul\":15661:15670   */\n      dup3\n        /* \"#utility.yul\":15657:15675   */\n      add\n        /* \"#utility.yul\":15649:15675   */\n      swap1\n      pop\n        /* \"#utility.yul\":15685:15756   */\n      tag_391\n        /* \"#utility.yul\":15753:15754   */\n      0x00\n        /* \"#utility.yul\":15742:15751   */\n      dup4\n        /* \"#utility.yul\":15738:15755   */\n      add\n        /* \"#utility.yul\":15729:15735   */\n      dup7\n        /* \"#utility.yul\":15685:15756   */\n      tag_187\n      jump\t// in\n    tag_391:\n        /* \"#utility.yul\":15766:15838   */\n      tag_392\n        /* \"#utility.yul\":15834:15836   */\n      0x20\n        /* \"#utility.yul\":15823:15832   */\n      dup4\n        /* \"#utility.yul\":15819:15837   */\n      add\n        /* \"#utility.yul\":15810:15816   */\n      dup6\n        /* \"#utility.yul\":15766:15838   */\n      tag_187\n      jump\t// in\n    tag_392:\n        /* \"#utility.yul\":15848:15920   */\n      tag_393\n        /* \"#utility.yul\":15916:15918   */\n      0x40\n        /* \"#utility.yul\":15905:15914   */\n      dup4\n        /* \"#utility.yul\":15901:15919   */\n      add\n        /* \"#utility.yul\":15892:15898   */\n      dup5\n        /* \"#utility.yul\":15848:15920   */\n      tag_187\n      jump\t// in\n    tag_393:\n        /* \"#utility.yul\":15485:15927   */\n      swap5\n      swap4\n      pop\n      pop\n      pop\n      pop\n      jump\t// out\n        /* \"#utility.yul\":15933:16100   */\n    tag_218:\n        /* \"#utility.yul\":16073:16092   */\n      0x72657175657374206e6f7420666f756e64000000000000000000000000000000\n        /* \"#utility.yul\":16069:16070   */\n      0x00\n        /* \"#utility.yul\":16061:16067   */\n      dup3\n        /* \"#utility.yul\":16057:16071   */\n      add\n        /* \"#utility.yul\":16050:16093   */\n      mstore\n        /* \"#utility.yul\":15933:16100   */\n      pop\n      jump\t// out\n        /* \"#utility.yul\":16106:16472   */\n    tag_219:\n        /* \"#utility.yul\":16248:16251   */\n      0x00\n        /* \"#utility.yul\":16269:16336   */\n      tag_396\n        /* \"#utility.yul\":16333:16335   */\n      0x11\n        /* \"#utility.yul\":16328:16331   */\n      dup4\n        /* \"#utility.yul\":16269:16336   */\n      tag_215\n      jump\t// in\n    tag_396:\n        /* \"#utility.yul\":16262:16336   */\n      swap2\n      pop\n        /* \"#utility.yul\":16345:16438   */\n      tag_397\n        /* \"#utility.yul\":16434:16437   */\n      dup3\n        /* \"#utility.yul\":16345:16438   */\n      tag_218\n      jump\t// in\n    tag_397:\n        /* \"#utility.yul\":16463:16465   */\n      0x20\n        /* \"#utility.yul\":16458:16461   */\n      dup3\n        /* \"#utility.yul\":16454:16466   */\n      add\n        /* \"#utility.yul\":16447:16466   */\n      swap1\n      pop\n        /* \"#utility.yul\":16106:16472   */\n      swap2\n      swap1\n      pop\n      jump\t// out\n        /* \"#utility.yul\":16478:16897   */\n    tag_129:\n        /* \"#utility.yul\":16644:16648   */\n      0x00\n        /* \"#utility.yul\":16682:16684   */\n      0x20\n        /* \"#utility.yul\":16671:16680   */\n      dup3\n        /* \"#utility.yul\":16667:16685   */\n      add\n        /* \"#utility.yul\":16659:16685   */\n      swap1\n      pop\n        /* \"#utility.yul\":16731:16740   */\n      dup2\n        /* \"#utility.yul\":16725:16729   */\n      dup2\n        /* \"#utility.yul\":16721:16741   */\n      sub\n        /* \"#utility.yul\":16717:16718   */\n      0x00\n        /* \"#utility.yul\":16706:16715   */\n      dup4\n        /* \"#utility.yul\":16702:16719   */\n      add\n        /* \"#utility.yul\":16695:16742   */\n      mstore\n        /* \"#utility.yul\":16759:16890   */\n      tag_399\n        /* \"#utility.yul\":16885:16889   */\n      dup2\n        /* \"#utility.yul\":16759:16890   */\n      tag_219\n      jump\t// in\n    tag_399:\n        /* \"#utility.yul\":16751:16890   */\n      swap1\n      pop\n        /* \"#utility.yul\":16478:16897   */\n      swap2\n      swap1\n      pop\n      jump\t// out\n        /* \"#utility.yul\":16903:17020   */\n    tag_220:\n        /* \"#utility.yul\":17012:17013   */\n      0x00\n        /* \"#utility.yul\":17009:17010   */\n      dup1\n        /* \"#utility.yul\":17002:17014   */\n      revert\n        /* \"#utility.yul\":17026:17124   */\n    tag_221:\n        /* \"#utility.yul\":17110:17116   */\n      dup3\n        /* \"#utility.yul\":17105:17108   */\n      dup2\n        /* \"#utility.yul\":17100:17103   */\n      dup4\n        /* \"#utility.yul\":17087:17117   */\n      calldatacopy\n        /* \"#utility.yul\":17026:17124   */\n      pop\n      pop\n      pop\n      jump\t// out\n        /* \"#utility.yul\":17160:17697   */\n    tag_222:\n        /* \"#utility.yul\":17288:17291   */\n      0x00\n        /* \"#utility.yul\":17309:17395   */\n      tag_403\n        /* \"#utility.yul\":17388:17394   */\n      dup4\n        /* \"#utility.yul\":17383:17386   */\n      dup6\n        /* \"#utility.yul\":17309:17395   */\n      tag_199\n      jump\t// in\n    tag_403:\n        /* \"#utility.yul\":17302:17395   */\n      swap4\n      pop\n        /* \"#utility.yul\":17419:17485   */\n      0x07ffffffffffffffffffffffffffffffffffffffffffffffffffffffffffffff\n        /* \"#utility.yul\":17411:17417   */\n      dup4\n        /* \"#utility.yul\":17408:17486   */\n      gt\n        /* \"#utility.yul\":17405:17570   */\n      iszero\n      tag_404\n      jumpi\n        /* \"#utility.yul\":17489:17568   */\n      tag_405\n      tag_220\n      jump\t// in\n    tag_405:\n        /* \"#utility.yul\":17405:17570   */\n    tag_404:\n        /* \"#utility.yul\":17601:17605   */\n      0x20\n        /* \"#utility.yul\":17593:17599   */\n      dup4\n        /* \"#utility.yul\":17589:17606   */\n      mul\n        /* \"#utility.yul\":17579:17606   */\n      swap3\n      pop\n        /* \"#utility.yul\":17616:17659   */\n      tag_406\n        /* \"#utility.yul\":17652:17658   */\n      dup4\n        /* \"#utility.yul\":17647:17650   */\n      dup6\n        /* \"#utility.yul\":17640:17645   */\n      dup5\n        /* \"#utility.yul\":17616:17659   */\n      tag_221\n      jump\t// in\n    tag_406:\n        /* \"#utility.yul\":17684:17690   */\n      dup3\n        /* \"#utility.yul\":17679:17682   */\n      dup5\n        /* \"#utility.yul\":17675:17691   */\n      add\n        /* \"#utility.yul\":17668:17691   */\n      swap1\n      pop\n        /* \"#utility.yul\":17160:17697   */\n      swap4\n      swap3\n      pop\n      pop\n      pop\n      jump\t// out\n        /* \"#utility.yul\":17703:18206   */\n    tag_144:\n        /* \"#utility.yul\":17884:17888   */\n      0x00\n        /* \"#utility.yul\":17922:17924   */\n      0x40\n        /* \"#utility.yul\":17911:17920   */\n      dup3\n        /* \"#utility.yul\":17907:17925   */\n      add\n        /* \"#utility.yul\":17899:17925   */\n      swap1\n      pop\n        /* \"#utility.yul\":17935:18006   */\n      tag_408\n        /* \"#utility.yul\":18003:18004   */\n      0x00\n        /* \"#utility.yul\":17992:18001   */\n      dup4\n        /* \"#utility.yul\":17988:18005   */\n      add\n        /* \"#utility.yul\":17979:17985   */\n      dup7\n        /* \"#utility.yul\":17935:18006   */\n      tag_182\n      jump\t// in\n    tag_408:\n        /* \"#utility.yul\":18053:18062   */\n      dup2\n        /* \"#utility.yul\":18047:18051   */\n      dup2\n        /* \"#utility.yul\":18043:18063   */\n      sub\n        /* \"#utility.yul\":18038:18040   */\n      0x20\n        /* \"#utility.yul\":18027:18036   */\n      dup4\n        /* \"#utility.yul\":18023:18041   */\n      add\n        /* \"#utility.yul\":18016:18064   */\n      mstore\n        /* \"#utility.yul\":18081:18199   */\n      tag_409\n        /* \"#utility.yul\":18194:18198   */\n      dup2\n        /* \"#utility.yul\":18185:18191   */\n      dup5\n        /* \"#utility.yul\":18177:18183   */\n      dup7\n        /* \"#utility.yul\":18081:18199   */\n      tag_222\n      jump\t// in\n    tag_409:\n        /* \"#utility.yul\":18073:18199   */\n      swap1\n      pop\n        /* \"#utility.yul\":17703:18206   */\n      swap5\n      swap4\n      pop\n      pop\n      pop\n      pop\n      jump\t// out\n        /* \"#utility.yul\":18212:18311   */\n    tag_223:\n        /* \"#utility.yul\":18283:18304   */\n      tag_411\n        /* \"#utility.yul\":18298:18303   */\n      dup2\n        /* \"#utility.yul\":18283:18304   */\n      tag_179\n      jump\t// in\n    tag_411:\n        /* \"#utility.yul\":18278:18281   */\n      dup3\n        /* \"#utility.yul\":18271:18305   */\n      mstore\n        /* \"#utility.yul\":18212:18311   */\n      pop\n      pop\n      jump\t// out\n        /* \"#utility.yul\":18397:18739   */\n    tag_224:\n        /* \"#utility.yul\":18550:18554   */\n      0x20\n        /* \"#utility.yul\":18545:18548   */\n      dup3\n        /* \"#utility.yul\":18541:18555   */\n      add\n        /* \"#utility.yul\":18646:18650   */\n      0x00\n        /* \"#utility.yul\":18639:18644   */\n      dup3\n        /* \"#utility.yul\":18635:18651   */\n      add\n        /* \"#utility.yul\":18629:18652   */\n      mload\n        /* \"#utility.yul\":18665:18722   */\n      tag_413\n        /* \"#utility.yul\":18716:18720   */\n      0x00\n        /* \"#utility.yul\":18711:18714   */\n      dup6\n        /* \"#utility.yul\":18707:18721   */\n      add\n        /* \"#utility.yul\":18693:18705   */\n      dup3\n        /* \"#utility.yul\":18665:18722   */\n      tag_223\n      jump\t// in\n    tag_413:\n        /* \"#utility.yul\":18565:18732   */\n      pop\n        /* \"#utility.yul\":18519:18739   */\n      pop\n        /* \"#utility.yul\":18397:18739   */\n      pop\n      pop\n      jump\t// out\n        /* \"#utility.yul\":18745:19079   */\n    tag_147:\n        /* \"#utility.yul\":18894:18898   */\n      0x00\n        /* \"#utility.yul\":18932:18934   */\n      0x20\n        /* \"#utility.yul\":18921:18930   */\n      dup3\n        /* \"#utility.yul\":18917:18935   */\n      add\n        /* \"#utility.yul\":18909:18935   */\n      swap1\n      pop\n        /* \"#utility.yul\":18945:19072   */\n      tag_415\n        /* \"#utility.yul\":19069:19070   */\n      0x00\n        /* \"#utility.yul\":19058:19067   */\n      dup4\n        /* \"#utility.yul\":19054:19071   */\n      add\n        /* \"#utility.yul\":19045:19051   */\n      dup5\n        /* \"#utility.yul\":18945:19072   */\n      tag_224\n      jump\t// in\n    tag_415:\n        /* \"#utility.yul\":18745:19079   */\n      swap3\n      swap2\n      pop\n      pop\n      jump\t// out\n        /* \"#utility.yul\":19085:19257   */\n    tag_225:\n        /* \"#utility.yul\":19225:19249   */\n      0x4f6e6c792063616c6c61626c65206279206f776e657200000000000000000000\n        /* \"#utility.yul\":19221:19222   */\n      0x00\n        /* \"#utility.yul\":19213:19219   */\n      dup3\n        /* \"#utility.yul\":19209:19223   */\n      add\n        /* \"#utility.yul\":19202:19250   */\n      mstore\n        /* \"#utility.yul\":19085:19257   */\n      pop\n      jump\t// out\n        /* \"#utility.yul\":19263:19629   */\n    tag_226:\n        /* \"#utility.yul\":19405:19408   */\n      0x00\n        /* \"#utility.yul\":19426:19493   */\n      tag_418\n        /* \"#utility.yul\":19490:19492   */\n      0x16\n        /* \"#utility.yul\":19485:19488   */\n      dup4\n        /* \"#utility.yul\":19426:19493   */\n      tag_215\n      jump\t// in\n    tag_418:\n        /* \"#utility.yul\":19419:19493   */\n      swap2\n      pop\n        /* \"#utility.yul\":19502:19595   */\n      tag_419\n        /* \"#utility.yul\":19591:19594   */\n      dup3\n        /* \"#utility.yul\":19502:19595   */\n      tag_225\n      jump\t// in\n    tag_419:\n        /* \"#utility.yul\":19620:19622   */\n      0x20\n        /* \"#utility.yul\":19615:19618   */\n      dup3\n        /* \"#utility.yul\":19611:19623   */\n      add\n        /* \"#utility.yul\":19604:19623   */\n      swap1\n      pop\n        /* \"#utility.yul\":19263:19629   */\n      swap2\n      swap1\n      pop\n      jump\t// out\n        /* \"#utility.yul\":19635:20054   */\n    tag_151:\n        /* \"#utility.yul\":19801:19805   */\n      0x00\n        /* \"#utility.yul\":19839:19841   */\n      0x20\n        /* \"#utility.yul\":19828:19837   */\n      dup3\n        /* \"#utility.yul\":19824:19842   */\n      add\n        /* \"#utility.yul\":19816:19842   */\n      swap1\n      pop\n        /* \"#utility.yul\":19888:19897   */\n      dup2\n        /* \"#utility.yul\":19882:19886   */\n      dup2\n        /* \"#utility.yul\":19878:19898   */\n      sub\n        /* \"#utility.yul\":19874:19875   */\n      0x00\n        /* \"#utility.yul\":19863:19872   */\n      dup4\n        /* \"#utility.yul\":19859:19876   */\n      add\n        /* \"#utility.yul\":19852:19899   */\n      mstore\n        /* \"#utility.yul\":19916:20047   */\n      tag_421\n        /* \"#utility.yul\":20042:20046   */\n      dup2\n        /* \"#utility.yul\":19916:20047   */\n      tag_226\n      jump\t// in\n    tag_421:\n        /* \"#utility.yul\":19908:20047   */\n      swap1\n      pop\n        /* \"#utility.yul\":19635:20054   */\n      swap2\n      swap1\n      pop\n      jump\t// out\n        /* \"#utility.yul\":20060:20233   */\n    tag_227:\n        /* \"#utility.yul\":20200:20225   */\n      0x43616e6e6f74207472616e7366657220746f2073656c66000000000000000000\n        /* \"#utility.yul\":20196:20197   */\n      0x00\n        /* \"#utility.yul\":20188:20194   */\n      dup3\n        /* \"#utility.yul\":20184:20198   */\n      add\n        /* \"#utility.yul\":20177:20226   */\n      mstore\n        /* \"#utility.yul\":20060:20233   */\n      pop\n      jump\t// out\n        /* \"#utility.yul\":20239:20605   */\n    tag_228:\n        /* \"#utility.yul\":20381:20384   */\n      0x00\n        /* \"#utility.yul\":20402:20469   */\n      tag_424\n        /* \"#utility.yul\":20466:20468   */\n      0x17\n        /* \"#utility.yul\":20461:20464   */\n      dup4\n        /* \"#utility.yul\":20402:20469   */\n      tag_215\n      jump\t// in\n    tag_424:\n        /* \"#utility.yul\":20395:20469   */\n      swap2\n      pop\n        /* \"#utility.yul\":20478:20571   */\n      tag_425\n        /* \"#utility.yul\":20567:20570   */\n      dup3\n        /* \"#utility.yul\":20478:20571   */\n      tag_227\n      jump\t// in\n    tag_425:\n        /* \"#utility.yul\":20596:20598   */\n      0x20\n        /* \"#utility.yul\":20591:20594   */\n      dup3\n        /* \"#utility.yul\":20587:20599   */\n      add\n        /* \"#utility.yul\":20580:20599   */\n      swap1\n      pop\n        /* \"#utility.yul\":20239:20605   */\n      swap2\n      swap1\n      pop\n      jump\t// out\n        /* \"#utility.yul\":20611:21030   */\n    tag_155:\n        /* \"#utility.yul\":20777:20781   */\n      0x00\n        /* \"#utility.yul\":20815:20817   */\n      0x20\n        /* \"#utility.yul\":20804:20813   */\n      dup3\n        /* \"#utility.yul\":20800:20818   */\n      add\n        /* \"#utility.yul\":20792:20818   */\n      swap1\n      pop\n        /* \"#utility.yul\":20864:20873   */\n      dup2\n        /* \"#utility.yul\":20858:20862   */\n      dup2\n        /* \"#utility.yul\":20854:20874   */\n      sub\n        /* \"#utility.yul\":20850:20851   */\n      0x00\n        /* \"#utility.yul\":20839:20848   */\n      dup4\n        /* \"#utility.yul\":20835:20852   */\n      add\n        /* \"#utility.yul\":20828:20875   */\n      mstore\n        /* \"#utility.yul\":20892:21023   */\n      tag_427\n        /* \"#utility.yul\":21018:21022   */\n      dup2\n        /* \"#utility.yul\":20892:21023   */\n      tag_228\n      jump\t// in\n    tag_427:\n        /* \"#utility.yul\":20884:21023   */\n      swap1\n      pop\n        /* \"#utility.yul\":20611:21030   */\n      swap2\n      swap1\n      pop\n      jump\t// out\n\n    auxdata: 0xa2646970667358221220638a28a630d5f32b022757bbc08d4b8ca09f11d109a49ea53e6afd009e0dd78264736f6c63430008130033\n}\n",
				"bytecode": {
					"linkReferences": {},
					"object": "60806040527f787d74caea10b2b357790d5b5247c2f63d1d91572a9846f780606e4d953677ae60001b600755620186a0600860006101000a81548163ffffffff021916908363ffffffff1602179055506003600860046101000a81548161ffff021916908361ffff1602179055506001600860066101000a81548163ffffffff021916908363ffffffff1602179055503480156200009c57600080fd5b5060405162001f4b38038062001f4b8339818101604052810190620000c29190620003fc565b739ddfaca8183c41ad55329bdeed9f6a8d53168b1b338060008073ffffffffffffffffffffffffffffffffffffffff168273ffffffffffffffffffffffffffffffffffffffff16036200014c576040517f08c379a000000000000000000000000000000000000000000000000000000000815260040162000143906200048f565b60405180910390fd5b816000806101000a81548173ffffffffffffffffffffffffffffffffffffffff021916908373ffffffffffffffffffffffffffffffffffffffff160217905550600073ffffffffffffffffffffffffffffffffffffffff168173ffffffffffffffffffffffffffffffffffffffff1614620001d357620001d2816200028d60201b60201c565b5b505050600073ffffffffffffffffffffffffffffffffffffffff168173ffffffffffffffffffffffffffffffffffffffff16036200023d576040517fd92e233d00000000000000000000000000000000000000000000000000000000815260040160405180910390fd5b80600260006101000a81548173ffffffffffffffffffffffffffffffffffffffff021916908373ffffffffffffffffffffffffffffffffffffffff16021790555050806004819055505062000523565b3373ffffffffffffffffffffffffffffffffffffffff168173ffffffffffffffffffffffffffffffffffffffff1603620002fe576040517f08c379a0000000000000000000000000000000000000000000000000000000008152600401620002f59062000501565b60405180910390fd5b80600160006101000a81548173ffffffffffffffffffffffffffffffffffffffff021916908373ffffffffffffffffffffffffffffffffffffffff1602179055508073ffffffffffffffffffffffffffffffffffffffff1660008054906101000a900473ffffffffffffffffffffffffffffffffffffffff1673ffffffffffffffffffffffffffffffffffffffff167fed8889f560326eb138920d842192f0eb3dd22b4f139c87a2c57538e05bae127860405160405180910390a350565b600080fd5b6000819050919050565b620003d681620003c1565b8114620003e257600080fd5b50565b600081519050620003f681620003cb565b92915050565b600060208284031215620004155762000414620003bc565b5b60006200042584828501620003e5565b91505092915050565b600082825260208201905092915050565b7f43616e6e6f7420736574206f776e657220746f207a65726f0000000000000000600082015250565b6000620004776018836200042e565b915062000484826200043f565b602082019050919050565b60006020820190508181036000830152620004aa8162000468565b9050919050565b7f43616e6e6f74207472616e7366657220746f2073656c66000000000000000000600082015250565b6000620004e96017836200042e565b9150620004f682620004b1565b602082019050919050565b600060208201905081810360008301526200051c81620004da565b9050919050565b611a1880620005336000396000f3fe608060405234801561001057600080fd5b50600436106101005760003560e01c80638da5cb5b11610097578063b0fb162f11610066578063b0fb162f1461028c578063d8a4676f146102aa578063f2fde38b146102db578063fc2a88c3146102f757610100565b80638da5cb5b146102035780638ea98117146102215780639eccacf61461023d578063a168fa891461025b57610100565b806379ba5097116100d357806379ba50971461018d5780637ccfd7fc146101975780638796ba8c146101b55780638ac00021146101e557610100565b80631fe543e31461010557806324f74697146101215780635cd8e7461461013f57806361728f391461016f575b600080fd5b61011f600480360381019061011a91906110c6565b610315565b005b6101296103db565b6040516101369190611145565b60405180910390f35b61015960048036038101906101549190611198565b6103f1565b60405161016691906111d4565b60405180910390f35b61017761067c565b6040516101849190611208565b60405180910390f35b610195610682565b005b61019f610817565b6040516101ac9190611145565b60405180910390f35b6101cf60048036038101906101ca9190611223565b61082d565b6040516101dc91906111d4565b60405180910390f35b6101ed610851565b6040516101fa91906111d4565b60405180910390f35b61020b610857565b6040516102189190611291565b60405180910390f35b61023b600480360381019061023691906112d8565b610880565b005b610245610a61565b6040516102529190611364565b60405180910390f35b61027560048036038101906102709190611223565b610a87565b60405161028392919061138e565b60405180910390f35b610294610ac5565b6040516102a191906113d4565b60405180910390f35b6102c460048036038101906102bf9190611223565b610ad9565b6040516102d29291906114ad565b60405180910390f35b6102f560048036038101906102f091906112d8565b610c04565b005b6102ff610c18565b60405161030c91906111d4565b60405180910390f35b600260009054906101000a900473ffffffffffffffffffffffffffffffffffffffff1673ffffffffffffffffffffffffffffffffffffffff163373ffffffffffffffffffffffffffffffffffffffff16146103cb5733600260009054906101000a900473ffffffffffffffffffffffffffffffffffffffff166040517f1cf993f40000000000000000000000000000000000000000000000000000000081526004016103c29291906114dd565b60405180910390fd5b6103d6838383610c1e565b505050565b600860009054906101000a900463ffffffff1681565b6000600260009054906101000a900473ffffffffffffffffffffffffffffffffffffffff1673ffffffffffffffffffffffffffffffffffffffff16639b1c385e6040518060c0016040528060075481526020016004548152602001600860049054906101000a900461ffff1661ffff168152602001600860009054906101000a900463ffffffff1663ffffffff168152602001600860069054906101000a900463ffffffff1663ffffffff1681526020016104bb6040518060200160405280881515815250610d16565b8152506040518263ffffffff1660e01b81526004016104da919061164c565b6020604051808303816000875af11580156104f9573d6000803e3d6000fd5b505050506040513d601f19601f8201168201806040525081019061051d9190611683565b90506040518060600160405280600015158152602001600115158152602001600067ffffffffffffffff811115610557576105566116b0565b5b6040519080825280602002602001820160405280156105855781602001602082028036833780820191505090505b508152506003600083815260200190815260200160002060008201518160000160006101000a81548160ff02191690831515021790555060208201518160000160016101000a81548160ff02191690831515021790555060408201518160010190805190602001906105f8929190610f6a565b509050506005819080600181540180825580915050600190039060005260206000200160009091909190915055806006819055507fcc58b13ad3eab50626c6a6300b1d139cd6ebb1688a7cced9461c2f7e762665ee81600860069054906101000a900463ffffffff1660405161066f9291906116df565b60405180910390a1919050565b60075481565b600160009054906101000a900473ffffffffffffffffffffffffffffffffffffffff1673ffffffffffffffffffffffffffffffffffffffff163373ffffffffffffffffffffffffffffffffffffffff1614610712576040517f08c379a000000000000000000000000000000000000000000000000000000000815260040161070990611765565b60405180910390fd5b60008060009054906101000a900473ffffffffffffffffffffffffffffffffffffffff169050336000806101000a81548173ffffffffffffffffffffffffffffffffffffffff021916908373ffffffffffffffffffffffffffffffffffffffff1602179055506000600160006101000a81548173ffffffffffffffffffffffffffffffffffffffff021916908373ffffffffffffffffffffffffffffffffffffffff1602179055503373ffffffffffffffffffffffffffffffffffffffff168173ffffffffffffffffffffffffffffffffffffffff167f8be0079c531659141344cd1fd0a4f28419497f9722a3daafe3b4186f6b6457e060405160405180910390a350565b600860069054906101000a900463ffffffff1681565b6005818154811061083d57600080fd5b906000526020600020016000915090505481565b60045481565b60008060009054906101000a900473ffffffffffffffffffffffffffffffffffffffff16905090565b610888610857565b73ffffffffffffffffffffffffffffffffffffffff163373ffffffffffffffffffffffffffffffffffffffff16141580156109115750600260009054906101000a900473ffffffffffffffffffffffffffffffffffffffff1673ffffffffffffffffffffffffffffffffffffffff163373ffffffffffffffffffffffffffffffffffffffff1614155b15610980573361091f610857565b600260009054906101000a900473ffffffffffffffffffffffffffffffffffffffff166040517f061db9c100000000000000000000000000000000000000000000000000000000815260040161097793929190611785565b60405180910390fd5b600073ffffffffffffffffffffffffffffffffffffffff168173ffffffffffffffffffffffffffffffffffffffff16036109e6576040517fd92e233d00000000000000000000000000000000000000000000000000000000815260040160405180910390fd5b80600260006101000a81548173ffffffffffffffffffffffffffffffffffffffff021916908373ffffffffffffffffffffffffffffffffffffffff1602179055507fd1a6a14209a385a964d036e404cb5cfb71f4000cdb03c9366292430787261be681604051610a569190611291565b60405180910390a150565b600260009054906101000a900473ffffffffffffffffffffffffffffffffffffffff1681565b60036020528060005260406000206000915090508060000160009054906101000a900460ff16908060000160019054906101000a900460ff16905082565b600860049054906101000a900461ffff1681565b600060606003600084815260200190815260200160002060000160019054906101000a900460ff16610b40576040517f08c379a0000000000000000000000000000000000000000000000000000000008152600401610b3790611808565b60405180910390fd5b6000600360008581526020019081526020016000206040518060600160405290816000820160009054906101000a900460ff161515151581526020016000820160019054906101000a900460ff1615151515815260200160018201805480602002602001604051908101604052809291908181526020018280548015610be557602002820191906000526020600020905b815481526020019060010190808311610bd1575b5050505050815250509050806000015181604001519250925050915091565b610c0c610dae565b610c1581610e3e565b50565b60065481565b6003600084815260200190815260200160002060000160019054906101000a900460ff16610c81576040517f08c379a0000000000000000000000000000000000000000000000000000000008152600401610c7890611808565b60405180910390fd5b60016003600085815260200190815260200160002060000160006101000a81548160ff0219169083151502179055508181600360008681526020019081526020016000206001019190610cd5929190610fb7565b507ffe2e2d779dba245964d4e3ef9b994be63856fd568bf7d3ca9e224755cb1bd54d838383604051610d0993929190611892565b60405180910390a1505050565b60607f92fd13387c7fe7befbc38d303d6468778fb9731bc4583f17d92989c6fcfdeaaa82604051602401610d4a91906118ef565b604051602081830303815290604052907bffffffffffffffffffffffffffffffffffffffffffffffffffffffff19166020820180517bffffffffffffffffffffffffffffffffffffffffffffffffffffffff83818316178352505050509050919050565b60008054906101000a900473ffffffffffffffffffffffffffffffffffffffff1673ffffffffffffffffffffffffffffffffffffffff163373ffffffffffffffffffffffffffffffffffffffff1614610e3c576040517f08c379a0000000000000000000000000000000000000000000000000000000008152600401610e3390611956565b60405180910390fd5b565b3373ffffffffffffffffffffffffffffffffffffffff168173ffffffffffffffffffffffffffffffffffffffff1603610eac576040517f08c379a0000000000000000000000000000000000000000000000000000000008152600401610ea3906119c2565b60405180910390fd5b80600160006101000a81548173ffffffffffffffffffffffffffffffffffffffff021916908373ffffffffffffffffffffffffffffffffffffffff1602179055508073ffffffffffffffffffffffffffffffffffffffff1660008054906101000a900473ffffffffffffffffffffffffffffffffffffffff1673ffffffffffffffffffffffffffffffffffffffff167fed8889f560326eb138920d842192f0eb3dd22b4f139c87a2c57538e05bae127860405160405180910390a350565b828054828255906000526020600020908101928215610fa6579160200282015b82811115610fa5578251825591602001919060010190610f8a565b5b509050610fb39190611004565b5090565b828054828255906000526020600020908101928215610ff3579160200282015b82811115610ff2578235825591602001919060010190610fd7565b5b5090506110009190611004565b5090565b5b8082111561101d576000816000905550600101611005565b5090565b600080fd5b600080fd5b6000819050919050565b61103e8161102b565b811461104957600080fd5b50565b60008135905061105b81611035565b92915050565b600080fd5b600080fd5b600080fd5b60008083601f84011261108657611085611061565b5b8235905067ffffffffffffffff8111156110a3576110a2611066565b5b6020830191508360208202830111156110bf576110be61106b565b5b9250929050565b6000806000604084860312156110df576110de611021565b5b60006110ed8682870161104c565b935050602084013567ffffffffffffffff81111561110e5761110d611026565b5b61111a86828701611070565b92509250509250925092565b600063ffffffff82169050919050565b61113f81611126565b82525050565b600060208201905061115a6000830184611136565b92915050565b60008115159050919050565b61117581611160565b811461118057600080fd5b50565b6000813590506111928161116c565b92915050565b6000602082840312156111ae576111ad611021565b5b60006111bc84828501611183565b91505092915050565b6111ce8161102b565b82525050565b60006020820190506111e960008301846111c5565b92915050565b6000819050919050565b611202816111ef565b82525050565b600060208201905061121d60008301846111f9565b92915050565b60006020828403121561123957611238611021565b5b60006112478482850161104c565b91505092915050565b600073ffffffffffffffffffffffffffffffffffffffff82169050919050565b600061127b82611250565b9050919050565b61128b81611270565b82525050565b60006020820190506112a66000830184611282565b92915050565b6112b581611270565b81146112c057600080fd5b50565b6000813590506112d2816112ac565b92915050565b6000602082840312156112ee576112ed611021565b5b60006112fc848285016112c3565b91505092915050565b6000819050919050565b600061132a61132561132084611250565b611305565b611250565b9050919050565b600061133c8261130f565b9050919050565b600061134e82611331565b9050919050565b61135e81611343565b82525050565b60006020820190506113796000830184611355565b92915050565b61138881611160565b82525050565b60006040820190506113a3600083018561137f565b6113b0602083018461137f565b9392505050565b600061ffff82169050919050565b6113ce816113b7565b82525050565b60006020820190506113e960008301846113c5565b92915050565b600081519050919050565b600082825260208201905092915050565b6000819050602082019050919050565b6114248161102b565b82525050565b6000611436838361141b565b60208301905092915050565b6000602082019050919050565b600061145a826113ef565b61146481856113fa565b935061146f8361140b565b8060005b838110156114a0578151611487888261142a565b975061149283611442565b925050600181019050611473565b5085935050505092915050565b60006040820190506114c2600083018561137f565b81810360208301526114d4818461144f565b90509392505050565b60006040820190506114f26000830185611282565b6114ff6020830184611282565b9392505050565b61150f816111ef565b82525050565b61151e816113b7565b82525050565b61152d81611126565b82525050565b600081519050919050565b600082825260208201905092915050565b60005b8381101561156d578082015181840152602081019050611552565b60008484015250505050565b6000601f19601f8301169050919050565b600061159582611533565b61159f818561153e565b93506115af81856020860161154f565b6115b881611579565b840191505092915050565b600060c0830160008301516115db6000860182611506565b5060208301516115ee602086018261141b565b5060408301516116016040860182611515565b5060608301516116146060860182611524565b5060808301516116276080860182611524565b5060a083015184820360a086015261163f828261158a565b9150508091505092915050565b6000602082019050818103600083015261166681846115c3565b905092915050565b60008151905061167d81611035565b92915050565b60006020828403121561169957611698611021565b5b60006116a78482850161166e565b91505092915050565b7f4e487b7100000000000000000000000000000000000000000000000000000000600052604160045260246000fd5b60006040820190506116f460008301856111c5565b6117016020830184611136565b9392505050565b600082825260208201905092915050565b7f4d7573742062652070726f706f736564206f776e657200000000000000000000600082015250565b600061174f601683611708565b915061175a82611719565b602082019050919050565b6000602082019050818103600083015261177e81611742565b9050919050565b600060608201905061179a6000830186611282565b6117a76020830185611282565b6117b46040830184611282565b949350505050565b7f72657175657374206e6f7420666f756e64000000000000000000000000000000600082015250565b60006117f2601183611708565b91506117fd826117bc565b602082019050919050565b60006020820190508181036000830152611821816117e5565b9050919050565b600080fd5b82818337505050565b600061184283856113fa565b93507f07ffffffffffffffffffffffffffffffffffffffffffffffffffffffffffffff83111561187557611874611828565b5b60208302925061188683858461182d565b82840190509392505050565b60006040820190506118a760008301866111c5565b81810360208301526118ba818486611836565b9050949350505050565b6118cd81611160565b82525050565b6020820160008201516118e960008501826118c4565b50505050565b600060208201905061190460008301846118d3565b92915050565b7f4f6e6c792063616c6c61626c65206279206f776e657200000000000000000000600082015250565b6000611940601683611708565b915061194b8261190a565b602082019050919050565b6000602082019050818103600083015261196f81611933565b9050919050565b7f43616e6e6f74207472616e7366657220746f2073656c66000000000000000000600082015250565b60006119ac601783611708565b91506119b782611976565b602082019050919050565b600060208201905081810360008301526119db8161199f565b905091905056fea2646970667358221220638a28a630d5f32b022757bbc08d4b8ca09f11d109a49ea53e6afd009e0dd78264736f6c63430008130033",
					"opcodes": "PUSH1 0x80 PUSH1 0x40 MSTORE PUSH32 0x787D74CAEA10B2B357790D5B5247C2F63D1D91572A9846F780606E4D953677AE PUSH1 0x0 SHL PUSH1 0x7 SSTORE PUSH3 0x186A0 PUSH1 0x8 PUSH1 0x0 PUSH2 0x100 EXP DUP2 SLOAD DUP2 PUSH4 0xFFFFFFFF MUL NOT AND SWAP1 DUP4 PUSH4 0xFFFFFFFF AND MUL OR SWAP1 SSTORE POP PUSH1 0x3 PUSH1 0x8 PUSH1 0x4 PUSH2 0x100 EXP DUP2 SLOAD DUP2 PUSH2 0xFFFF MUL NOT AND SWAP1 DUP4 PUSH2 0xFFFF AND MUL OR SWAP1 SSTORE POP PUSH1 0x1 PUSH1 0x8 PUSH1 0x6 PUSH2 0x100 EXP DUP2 SLOAD DUP2 PUSH4 0xFFFFFFFF MUL NOT AND SWAP1 DUP4 PUSH4 0xFFFFFFFF AND MUL OR SWAP1 SSTORE POP CALLVALUE DUP1 ISZERO PUSH3 0x9C JUMPI PUSH1 0x0 DUP1 REVERT JUMPDEST POP PUSH1 0x40 MLOAD PUSH3 0x1F4B CODESIZE SUB DUP1 PUSH3 0x1F4B DUP4 CODECOPY DUP2 DUP2 ADD PUSH1 0x40 MSTORE DUP2 ADD SWAP1 PUSH3 0xC2 SWAP2 SWAP1 PUSH3 0x3FC JUMP JUMPDEST PUSH20 0x9DDFACA8183C41AD55329BDEED9F6A8D53168B1B CALLER DUP1 PUSH1 0x0 DUP1 PUSH20 0xFFFFFFFFFFFFFFFFFFFFFFFFFFFFFFFFFFFFFFFF AND DUP3 PUSH20 0xFFFFFFFFFFFFFFFFFFFFFFFFFFFFFFFFFFFFFFFF AND SUB PUSH3 0x14C JUMPI PUSH1 0x40 MLOAD PUSH32 0x8C379A000000000000000000000000000000000000000000000000000000000 DUP2 MSTORE PUSH1 0x4 ADD PUSH3 0x143 SWAP1 PUSH3 0x48F JUMP JUMPDEST PUSH1 0x40 MLOAD DUP1 SWAP2 SUB SWAP1 REVERT JUMPDEST DUP2 PUSH1 0x0 DUP1 PUSH2 0x100 EXP DUP2 SLOAD DUP2 PUSH20 0xFFFFFFFFFFFFFFFFFFFFFFFFFFFFFFFFFFFFFFFF MUL NOT AND SWAP1 DUP4 PUSH20 0xFFFFFFFFFFFFFFFFFFFFFFFFFFFFFFFFFFFFFFFF AND MUL OR SWAP1 SSTORE POP PUSH1 0x0 PUSH20 0xFFFFFFFFFFFFFFFFFFFFFFFFFFFFFFFFFFFFFFFF AND DUP2 PUSH20 0xFFFFFFFFFFFFFFFFFFFFFFFFFFFFFFFFFFFFFFFF AND EQ PUSH3 0x1D3 JUMPI PUSH3 0x1D2 DUP2 PUSH3 0x28D PUSH1 0x20 SHL PUSH1 0x20 SHR JUMP JUMPDEST JUMPDEST POP POP POP PUSH1 0x0 PUSH20 0xFFFFFFFFFFFFFFFFFFFFFFFFFFFFFFFFFFFFFFFF AND DUP2 PUSH20 0xFFFFFFFFFFFFFFFFFFFFFFFFFFFFFFFFFFFFFFFF AND SUB PUSH3 0x23D JUMPI PUSH1 0x40 MLOAD PUSH32 0xD92E233D00000000000000000000000000000000000000000000000000000000 DUP2 MSTORE PUSH1 0x4 ADD PUSH1 0x40 MLOAD DUP1 SWAP2 SUB SWAP1 REVERT JUMPDEST DUP1 PUSH1 0x2 PUSH1 0x0 PUSH2 0x100 EXP DUP2 SLOAD DUP2 PUSH20 0xFFFFFFFFFFFFFFFFFFFFFFFFFFFFFFFFFFFFFFFF MUL NOT AND SWAP1 DUP4 PUSH20 0xFFFFFFFFFFFFFFFFFFFFFFFFFFFFFFFFFFFFFFFF AND MUL OR SWAP1 SSTORE POP POP DUP1 PUSH1 0x4 DUP2 SWAP1 SSTORE POP POP PUSH3 0x523 JUMP JUMPDEST CALLER PUSH20 0xFFFFFFFFFFFFFFFFFFFFFFFFFFFFFFFFFFFFFFFF AND DUP2 PUSH20 0xFFFFFFFFFFFFFFFFFFFFFFFFFFFFFFFFFFFFFFFF AND SUB PUSH3 0x2FE JUMPI PUSH1 0x40 MLOAD PUSH32 0x8C379A000000000000000000000000000000000000000000000000000000000 DUP2 MSTORE PUSH1 0x4 ADD PUSH3 0x2F5 SWAP1 PUSH3 0x501 JUMP JUMPDEST PUSH1 0x40 MLOAD DUP1 SWAP2 SUB SWAP1 REVERT JUMPDEST DUP1 PUSH1 0x1 PUSH1 0x0 PUSH2 0x100 EXP DUP2 SLOAD DUP2 PUSH20 0xFFFFFFFFFFFFFFFFFFFFFFFFFFFFFFFFFFFFFFFF MUL NOT AND SWAP1 DUP4 PUSH20 0xFFFFFFFFFFFFFFFFFFFFFFFFFFFFFFFFFFFFFFFF AND MUL OR SWAP1 SSTORE POP DUP1 PUSH20 0xFFFFFFFFFFFFFFFFFFFFFFFFFFFFFFFFFFFFFFFF AND PUSH1 0x0 DUP1 SLOAD SWAP1 PUSH2 0x100 EXP SWAP1 DIV PUSH20 0xFFFFFFFFFFFFFFFFFFFFFFFFFFFFFFFFFFFFFFFF AND PUSH20 0xFFFFFFFFFFFFFFFFFFFFFFFFFFFFFFFFFFFFFFFF AND PUSH32 0xED8889F560326EB138920D842192F0EB3DD22B4F139C87A2C57538E05BAE1278 PUSH1 0x40 MLOAD PUSH1 0x40 MLOAD DUP1 SWAP2 SUB SWAP1 LOG3 POP JUMP JUMPDEST PUSH1 0x0 DUP1 REVERT JUMPDEST PUSH1 0x0 DUP2 SWAP1 POP SWAP2 SWAP1 POP JUMP JUMPDEST PUSH3 0x3D6 DUP2 PUSH3 0x3C1 JUMP JUMPDEST DUP2 EQ PUSH3 0x3E2 JUMPI PUSH1 0x0 DUP1 REVERT JUMPDEST POP JUMP JUMPDEST PUSH1 0x0 DUP2 MLOAD SWAP1 POP PUSH3 0x3F6 DUP2 PUSH3 0x3CB JUMP JUMPDEST SWAP3 SWAP2 POP POP JUMP JUMPDEST PUSH1 0x0 PUSH1 0x20 DUP3 DUP5 SUB SLT ISZERO PUSH3 0x415 JUMPI PUSH3 0x414 PUSH3 0x3BC JUMP JUMPDEST JUMPDEST PUSH1 0x0 PUSH3 0x425 DUP5 DUP3 DUP6 ADD PUSH3 0x3E5 JUMP JUMPDEST SWAP2 POP POP SWAP3 SWAP2 POP POP JUMP JUMPDEST PUSH1 0x0 DUP3 DUP3 MSTORE PUSH1 0x20 DUP3 ADD SWAP1 POP SWAP3 SWAP2 POP POP JUMP JUMPDEST PUSH32 0x43616E6E6F7420736574206F776E657220746F207A65726F0000000000000000 PUSH1 0x0 DUP3 ADD MSTORE POP JUMP JUMPDEST PUSH1 0x0 PUSH3 0x477 PUSH1 0x18 DUP4 PUSH3 0x42E JUMP JUMPDEST SWAP2 POP PUSH3 0x484 DUP3 PUSH3 0x43F JUMP JUMPDEST PUSH1 0x20 DUP3 ADD SWAP1 POP SWAP2 SWAP1 POP JUMP JUMPDEST PUSH1 0x0 PUSH1 0x20 DUP3 ADD SWAP1 POP DUP2 DUP2 SUB PUSH1 0x0 DUP4 ADD MSTORE PUSH3 0x4AA DUP2 PUSH3 0x468 JUMP JUMPDEST SWAP1 POP SWAP2 SWAP1 POP JUMP JUMPDEST PUSH32 0x43616E6E6F74207472616E7366657220746F2073656C66000000000000000000 PUSH1 0x0 DUP3 ADD MSTORE POP JUMP JUMPDEST PUSH1 0x0 PUSH3 0x4E9 PUSH1 0x17 DUP4 PUSH3 0x42E JUMP JUMPDEST SWAP2 POP PUSH3 0x4F6 DUP3 PUSH3 0x4B1 JUMP JUMPDEST PUSH1 0x20 DUP3 ADD SWAP1 POP SWAP2 SWAP1 POP JUMP JUMPDEST PUSH1 0x0 PUSH1 0x20 DUP3 ADD SWAP1 POP DUP2 DUP2 SUB PUSH1 0x0 DUP4 ADD MSTORE PUSH3 0x51C DUP2 PUSH3 0x4DA JUMP JUMPDEST SWAP1 POP SWAP2 SWAP1 POP JUMP JUMPDEST PUSH2 0x1A18 DUP1 PUSH3 0x533 PUSH1 0x0 CODECOPY PUSH1 0x0 RETURN INVALID PUSH1 0x80 PUSH1 0x40 MSTORE CALLVALUE DUP1 ISZERO PUSH2 0x10 JUMPI PUSH1 0x0 DUP1 REVERT JUMPDEST POP PUSH1 0x4 CALLDATASIZE LT PUSH2 0x100 JUMPI PUSH1 0x0 CALLDATALOAD PUSH1 0xE0 SHR DUP1 PUSH4 0x8DA5CB5B GT PUSH2 0x97 JUMPI DUP1 PUSH4 0xB0FB162F GT PUSH2 0x66 JUMPI DUP1 PUSH4 0xB0FB162F EQ PUSH2 0x28C JUMPI DUP1 PUSH4 0xD8A4676F EQ PUSH2 0x2AA JUMPI DUP1 PUSH4 0xF2FDE38B EQ PUSH2 0x2DB JUMPI DUP1 PUSH4 0xFC2A88C3 EQ PUSH2 0x2F7 JUMPI PUSH2 0x100 JUMP JUMPDEST DUP1 PUSH4 0x8DA5CB5B EQ PUSH2 0x203 JUMPI DUP1 PUSH4 0x8EA98117 EQ PUSH2 0x221 JUMPI DUP1 PUSH4 0x9ECCACF6 EQ PUSH2 0x23D JUMPI DUP1 PUSH4 0xA168FA89 EQ PUSH2 0x25B JUMPI PUSH2 0x100 JUMP JUMPDEST DUP1 PUSH4 0x79BA5097 GT PUSH2 0xD3 JUMPI DUP1 PUSH4 0x79BA5097 EQ PUSH2 0x18D JUMPI DUP1 PUSH4 0x7CCFD7FC EQ PUSH2 0x197 JUMPI DUP1 PUSH4 0x8796BA8C EQ PUSH2 0x1B5 JUMPI DUP1 PUSH4 0x8AC00021 EQ PUSH2 0x1E5 JUMPI PUSH2 0x100 JUMP JUMPDEST DUP1 PUSH4 0x1FE543E3 EQ PUSH2 0x105 JUMPI DUP1 PUSH4 0x24F74697 EQ PUSH2 0x121 JUMPI DUP1 PUSH4 0x5CD8E746 EQ PUSH2 0x13F JUMPI DUP1 PUSH4 0x61728F39 EQ PUSH2 0x16F JUMPI JUMPDEST PUSH1 0x0 DUP1 REVERT JUMPDEST PUSH2 0x11F PUSH1 0x4 DUP1 CALLDATASIZE SUB DUP2 ADD SWAP1 PUSH2 0x11A SWAP2 SWAP1 PUSH2 0x10C6 JUMP JUMPDEST PUSH2 0x315 JUMP JUMPDEST STOP JUMPDEST PUSH2 0x129 PUSH2 0x3DB JUMP JUMPDEST PUSH1 0x40 MLOAD PUSH2 0x136 SWAP2 SWAP1 PUSH2 0x1145 JUMP JUMPDEST PUSH1 0x40 MLOAD DUP1 SWAP2 SUB SWAP1 RETURN JUMPDEST PUSH2 0x159 PUSH1 0x4 DUP1 CALLDATASIZE SUB DUP2 ADD SWAP1 PUSH2 0x154 SWAP2 SWAP1 PUSH2 0x1198 JUMP JUMPDEST PUSH2 0x3F1 JUMP JUMPDEST PUSH1 0x40 MLOAD PUSH2 0x166 SWAP2 SWAP1 PUSH2 0x11D4 JUMP JUMPDEST PUSH1 0x40 MLOAD DUP1 SWAP2 SUB SWAP1 RETURN JUMPDEST PUSH2 0x177 PUSH2 0x67C JUMP JUMPDEST PUSH1 0x40 MLOAD PUSH2 0x184 SWAP2 SWAP1 PUSH2 0x1208 JUMP JUMPDEST PUSH1 0x40 MLOAD DUP1 SWAP2 SUB SWAP1 RETURN JUMPDEST PUSH2 0x195 PUSH2 0x682 JUMP JUMPDEST STOP JUMPDEST PUSH2 0x19F PUSH2 0x817 JUMP JUMPDEST PUSH1 0x40 MLOAD PUSH2 0x1AC SWAP2 SWAP1 PUSH2 0x1145 JUMP JUMPDEST PUSH1 0x40 MLOAD DUP1 SWAP2 SUB SWAP1 RETURN JUMPDEST PUSH2 0x1CF PUSH1 0x4 DUP1 CALLDATASIZE SUB DUP2 ADD SWAP1 PUSH2 0x1CA SWAP2 SWAP1 PUSH2 0x1223 JUMP JUMPDEST PUSH2 0x82D JUMP JUMPDEST PUSH1 0x40 MLOAD PUSH2 0x1DC SWAP2 SWAP1 PUSH2 0x11D4 JUMP JUMPDEST PUSH1 0x40 MLOAD DUP1 SWAP2 SUB SWAP1 RETURN JUMPDEST PUSH2 0x1ED PUSH2 0x851 JUMP JUMPDEST PUSH1 0x40 MLOAD PUSH2 0x1FA SWAP2 SWAP1 PUSH2 0x11D4 JUMP JUMPDEST PUSH1 0x40 MLOAD DUP1 SWAP2 SUB SWAP1 RETURN JUMPDEST PUSH2 0x20B PUSH2 0x857 JUMP JUMPDEST PUSH1 0x40 MLOAD PUSH2 0x218 SWAP2 SWAP1 PUSH2 0x1291 JUMP JUMPDEST PUSH1 0x40 MLOAD DUP1 SWAP2 SUB SWAP1 RETURN JUMPDEST PUSH2 0x23B PUSH1 0x4 DUP1 CALLDATASIZE SUB DUP2 ADD SWAP1 PUSH2 0x236 SWAP2 SWAP1 PUSH2 0x12D8 JUMP JUMPDEST PUSH2 0x880 JUMP JUMPDEST STOP JUMPDEST PUSH2 0x245 PUSH2 0xA61 JUMP JUMPDEST PUSH1 0x40 MLOAD PUSH2 0x252 SWAP2 SWAP1 PUSH2 0x1364 JUMP JUMPDEST PUSH1 0x40 MLOAD DUP1 SWAP2 SUB SWAP1 RETURN JUMPDEST PUSH2 0x275 PUSH1 0x4 DUP1 CALLDATASIZE SUB DUP2 ADD SWAP1 PUSH2 0x270 SWAP2 SWAP1 PUSH2 0x1223 JUMP JUMPDEST PUSH2 0xA87 JUMP JUMPDEST PUSH1 0x40 MLOAD PUSH2 0x283 SWAP3 SWAP2 SWAP1 PUSH2 0x138E JUMP JUMPDEST PUSH1 0x40 MLOAD DUP1 SWAP2 SUB SWAP1 RETURN JUMPDEST PUSH2 0x294 PUSH2 0xAC5 JUMP JUMPDEST PUSH1 0x40 MLOAD PUSH2 0x2A1 SWAP2 SWAP1 PUSH2 0x13D4 JUMP JUMPDEST PUSH1 0x40 MLOAD DUP1 SWAP2 SUB SWAP1 RETURN JUMPDEST PUSH2 0x2C4 PUSH1 0x4 DUP1 CALLDATASIZE SUB DUP2 ADD SWAP1 PUSH2 0x2BF SWAP2 SWAP1 PUSH2 0x1223 JUMP JUMPDEST PUSH2 0xAD9 JUMP JUMPDEST PUSH1 0x40 MLOAD PUSH2 0x2D2 SWAP3 SWAP2 SWAP1 PUSH2 0x14AD JUMP JUMPDEST PUSH1 0x40 MLOAD DUP1 SWAP2 SUB SWAP1 RETURN JUMPDEST PUSH2 0x2F5 PUSH1 0x4 DUP1 CALLDATASIZE SUB DUP2 ADD SWAP1 PUSH2 0x2F0 SWAP2 SWAP1 PUSH2 0x12D8 JUMP JUMPDEST PUSH2 0xC04 JUMP JUMPDEST STOP JUMPDEST PUSH2 0x2FF PUSH2 0xC18 JUMP JUMPDEST PUSH1 0x40 MLOAD PUSH2 0x30C SWAP2 SWAP1 PUSH2 0x11D4 JUMP JUMPDEST PUSH1 0x40 MLOAD DUP1 SWAP2 SUB SWAP1 RETURN JUMPDEST PUSH1 0x2 PUSH1 0x0 SWAP1 SLOAD SWAP1 PUSH2 0x100 EXP SWAP1 DIV PUSH20 0xFFFFFFFFFFFFFFFFFFFFFFFFFFFFFFFFFFFFFFFF AND PUSH20 0xFFFFFFFFFFFFFFFFFFFFFFFFFFFFFFFFFFFFFFFF AND CALLER PUSH20 0xFFFFFFFFFFFFFFFFFFFFFFFFFFFFFFFFFFFFFFFF AND EQ PUSH2 0x3CB JUMPI CALLER PUSH1 0x2 PUSH1 0x0 SWAP1 SLOAD SWAP1 PUSH2 0x100 EXP SWAP1 DIV PUSH20 0xFFFFFFFFFFFFFFFFFFFFFFFFFFFFFFFFFFFFFFFF AND PUSH1 0x40 MLOAD PUSH32 0x1CF993F400000000000000000000000000000000000000000000000000000000 DUP2 MSTORE PUSH1 0x4 ADD PUSH2 0x3C2 SWAP3 SWAP2 SWAP1 PUSH2 0x14DD JUMP JUMPDEST PUSH1 0x40 MLOAD DUP1 SWAP2 SUB SWAP1 REVERT JUMPDEST PUSH2 0x3D6 DUP4 DUP4 DUP4 PUSH2 0xC1E JUMP JUMPDEST POP POP POP JUMP JUMPDEST PUSH1 0x8 PUSH1 0x0 SWAP1 SLOAD SWAP1 PUSH2 0x100 EXP SWAP1 DIV PUSH4 0xFFFFFFFF AND DUP2 JUMP JUMPDEST PUSH1 0x0 PUSH1 0x2 PUSH1 0x0 SWAP1 SLOAD SWAP1 PUSH2 0x100 EXP SWAP1 DIV PUSH20 0xFFFFFFFFFFFFFFFFFFFFFFFFFFFFFFFFFFFFFFFF AND PUSH20 0xFFFFFFFFFFFFFFFFFFFFFFFFFFFFFFFFFFFFFFFF AND PUSH4 0x9B1C385E PUSH1 0x40 MLOAD DUP1 PUSH1 0xC0 ADD PUSH1 0x40 MSTORE DUP1 PUSH1 0x7 SLOAD DUP2 MSTORE PUSH1 0x20 ADD PUSH1 0x4 SLOAD DUP2 MSTORE PUSH1 0x20 ADD PUSH1 0x8 PUSH1 0x4 SWAP1 SLOAD SWAP1 PUSH2 0x100 EXP SWAP1 DIV PUSH2 0xFFFF AND PUSH2 0xFFFF AND DUP2 MSTORE PUSH1 0x20 ADD PUSH1 0x8 PUSH1 0x0 SWAP1 SLOAD SWAP1 PUSH2 0x100 EXP SWAP1 DIV PUSH4 0xFFFFFFFF AND PUSH4 0xFFFFFFFF AND DUP2 MSTORE PUSH1 0x20 ADD PUSH1 0x8 PUSH1 0x6 SWAP1 SLOAD SWAP1 PUSH2 0x100 EXP SWAP1 DIV PUSH4 0xFFFFFFFF AND PUSH4 0xFFFFFFFF AND DUP2 MSTORE PUSH1 0x20 ADD PUSH2 0x4BB PUSH1 0x40 MLOAD DUP1 PUSH1 0x20 ADD PUSH1 0x40 MSTORE DUP1 DUP9 ISZERO ISZERO DUP2 MSTORE POP PUSH2 0xD16 JUMP JUMPDEST DUP2 MSTORE POP PUSH1 0x40 MLOAD DUP3 PUSH4 0xFFFFFFFF AND PUSH1 0xE0 SHL DUP2 MSTORE PUSH1 0x4 ADD PUSH2 0x4DA SWAP2 SWAP1 PUSH2 0x164C JUMP JUMPDEST PUSH1 0x20 PUSH1 0x40 MLOAD DUP1 DUP4 SUB DUP2 PUSH1 0x0 DUP8 GAS CALL ISZERO DUP1 ISZERO PUSH2 0x4F9 JUMPI RETURNDATASIZE PUSH1 0x0 DUP1 RETURNDATACOPY RETURNDATASIZE PUSH1 0x0 REVERT JUMPDEST POP POP POP POP PUSH1 0x40 MLOAD RETURNDATASIZE PUSH1 0x1F NOT PUSH1 0x1F DUP3 ADD AND DUP3 ADD DUP1 PUSH1 0x40 MSTORE POP DUP2 ADD SWAP1 PUSH2 0x51D SWAP2 SWAP1 PUSH2 0x1683 JUMP JUMPDEST SWAP1 POP PUSH1 0x40 MLOAD DUP1 PUSH1 0x60 ADD PUSH1 0x40 MSTORE DUP1 PUSH1 0x0 ISZERO ISZERO DUP2 MSTORE PUSH1 0x20 ADD PUSH1 0x1 ISZERO ISZERO DUP2 MSTORE PUSH1 0x20 ADD PUSH1 0x0 PUSH8 0xFFFFFFFFFFFFFFFF DUP2 GT ISZERO PUSH2 0x557 JUMPI PUSH2 0x556 PUSH2 0x16B0 JUMP JUMPDEST JUMPDEST PUSH1 0x40 MLOAD SWAP1 DUP1 DUP3 MSTORE DUP1 PUSH1 0x20 MUL PUSH1 0x20 ADD DUP3 ADD PUSH1 0x40 MSTORE DUP1 ISZERO PUSH2 0x585 JUMPI DUP2 PUSH1 0x20 ADD PUSH1 0x20 DUP3 MUL DUP1 CALLDATASIZE DUP4 CALLDATACOPY DUP1 DUP3 ADD SWAP2 POP POP SWAP1 POP JUMPDEST POP DUP2 MSTORE POP PUSH1 0x3 PUSH1 0x0 DUP4 DUP2 MSTORE PUSH1 0x20 ADD SWAP1 DUP2 MSTORE PUSH1 0x20 ADD PUSH1 0x0 KECCAK256 PUSH1 0x0 DUP3 ADD MLOAD DUP2 PUSH1 0x0 ADD PUSH1 0x0 PUSH2 0x100 EXP DUP2 SLOAD DUP2 PUSH1 0xFF MUL NOT AND SWAP1 DUP4 ISZERO ISZERO MUL OR SWAP1 SSTORE POP PUSH1 0x20 DUP3 ADD MLOAD DUP2 PUSH1 0x0 ADD PUSH1 0x1 PUSH2 0x100 EXP DUP2 SLOAD DUP2 PUSH1 0xFF MUL NOT AND SWAP1 DUP4 ISZERO ISZERO MUL OR SWAP1 SSTORE POP PUSH1 0x40 DUP3 ADD MLOAD DUP2 PUSH1 0x1 ADD SWAP1 DUP1 MLOAD SWAP1 PUSH1 0x20 ADD SWAP1 PUSH2 0x5F8 SWAP3 SWAP2 SWAP1 PUSH2 0xF6A JUMP JUMPDEST POP SWAP1 POP POP PUSH1 0x5 DUP2 SWAP1 DUP1 PUSH1 0x1 DUP2 SLOAD ADD DUP1 DUP3 SSTORE DUP1 SWAP2 POP POP PUSH1 0x1 SWAP1 SUB SWAP1 PUSH1 0x0 MSTORE PUSH1 0x20 PUSH1 0x0 KECCAK256 ADD PUSH1 0x0 SWAP1 SWAP2 SWAP1 SWAP2 SWAP1 SWAP2 POP SSTORE DUP1 PUSH1 0x6 DUP2 SWAP1 SSTORE POP PUSH32 0xCC58B13AD3EAB50626C6A6300B1D139CD6EBB1688A7CCED9461C2F7E762665EE DUP2 PUSH1 0x8 PUSH1 0x6 SWAP1 SLOAD SWAP1 PUSH2 0x100 EXP SWAP1 DIV PUSH4 0xFFFFFFFF AND PUSH1 0x40 MLOAD PUSH2 0x66F SWAP3 SWAP2 SWAP1 PUSH2 0x16DF JUMP JUMPDEST PUSH1 0x40 MLOAD DUP1 SWAP2 SUB SWAP1 LOG1 SWAP2 SWAP1 POP JUMP JUMPDEST PUSH1 0x7 SLOAD DUP2 JUMP JUMPDEST PUSH1 0x1 PUSH1 0x0 SWAP1 SLOAD SWAP1 PUSH2 0x100 EXP SWAP1 DIV PUSH20 0xFFFFFFFFFFFFFFFFFFFFFFFFFFFFFFFFFFFFFFFF AND PUSH20 0xFFFFFFFFFFFFFFFFFFFFFFFFFFFFFFFFFFFFFFFF AND CALLER PUSH20 0xFFFFFFFFFFFFFFFFFFFFFFFFFFFFFFFFFFFFFFFF AND EQ PUSH2 0x712 JUMPI PUSH1 0x40 MLOAD PUSH32 0x8C379A000000000000000000000000000000000000000000000000000000000 DUP2 MSTORE PUSH1 0x4 ADD PUSH2 0x709 SWAP1 PUSH2 0x1765 JUMP JUMPDEST PUSH1 0x40 MLOAD DUP1 SWAP2 SUB SWAP1 REVERT JUMPDEST PUSH1 0x0 DUP1 PUSH1 0x0 SWAP1 SLOAD SWAP1 PUSH2 0x100 EXP SWAP1 DIV PUSH20 0xFFFFFFFFFFFFFFFFFFFFFFFFFFFFFFFFFFFFFFFF AND SWAP1 POP CALLER PUSH1 0x0 DUP1 PUSH2 0x100 EXP DUP2 SLOAD DUP2 PUSH20 0xFFFFFFFFFFFFFFFFFFFFFFFFFFFFFFFFFFFFFFFF MUL NOT AND SWAP1 DUP4 PUSH20 0xFFFFFFFFFFFFFFFFFFFFFFFFFFFFFFFFFFFFFFFF AND MUL OR SWAP1 SSTORE POP PUSH1 0x0 PUSH1 0x1 PUSH1 0x0 PUSH2 0x100 EXP DUP2 SLOAD DUP2 PUSH20 0xFFFFFFFFFFFFFFFFFFFFFFFFFFFFFFFFFFFFFFFF MUL NOT AND SWAP1 DUP4 PUSH20 0xFFFFFFFFFFFFFFFFFFFFFFFFFFFFFFFFFFFFFFFF AND MUL OR SWAP1 SSTORE POP CALLER PUSH20 0xFFFFFFFFFFFFFFFFFFFFFFFFFFFFFFFFFFFFFFFF AND DUP2 PUSH20 0xFFFFFFFFFFFFFFFFFFFFFFFFFFFFFFFFFFFFFFFF AND PUSH32 0x8BE0079C531659141344CD1FD0A4F28419497F9722A3DAAFE3B4186F6B6457E0 PUSH1 0x40 MLOAD PUSH1 0x40 MLOAD DUP1 SWAP2 SUB SWAP1 LOG3 POP JUMP JUMPDEST PUSH1 0x8 PUSH1 0x6 SWAP1 SLOAD SWAP1 PUSH2 0x100 EXP SWAP1 DIV PUSH4 0xFFFFFFFF AND DUP2 JUMP JUMPDEST PUSH1 0x5 DUP2 DUP2 SLOAD DUP2 LT PUSH2 0x83D JUMPI PUSH1 0x0 DUP1 REVERT JUMPDEST SWAP1 PUSH1 0x0 MSTORE PUSH1 0x20 PUSH1 0x0 KECCAK256 ADD PUSH1 0x0 SWAP2 POP SWAP1 POP SLOAD DUP2 JUMP JUMPDEST PUSH1 0x4 SLOAD DUP2 JUMP JUMPDEST PUSH1 0x0 DUP1 PUSH1 0x0 SWAP1 SLOAD SWAP1 PUSH2 0x100 EXP SWAP1 DIV PUSH20 0xFFFFFFFFFFFFFFFFFFFFFFFFFFFFFFFFFFFFFFFF AND SWAP1 POP SWAP1 JUMP JUMPDEST PUSH2 0x888 PUSH2 0x857 JUMP JUMPDEST PUSH20 0xFFFFFFFFFFFFFFFFFFFFFFFFFFFFFFFFFFFFFFFF AND CALLER PUSH20 0xFFFFFFFFFFFFFFFFFFFFFFFFFFFFFFFFFFFFFFFF AND EQ ISZERO DUP1 ISZERO PUSH2 0x911 JUMPI POP PUSH1 0x2 PUSH1 0x0 SWAP1 SLOAD SWAP1 PUSH2 0x100 EXP SWAP1 DIV PUSH20 0xFFFFFFFFFFFFFFFFFFFFFFFFFFFFFFFFFFFFFFFF AND PUSH20 0xFFFFFFFFFFFFFFFFFFFFFFFFFFFFFFFFFFFFFFFF AND CALLER PUSH20 0xFFFFFFFFFFFFFFFFFFFFFFFFFFFFFFFFFFFFFFFF AND EQ ISZERO JUMPDEST ISZERO PUSH2 0x980 JUMPI CALLER PUSH2 0x91F PUSH2 0x857 JUMP JUMPDEST PUSH1 0x2 PUSH1 0x0 SWAP1 SLOAD SWAP1 PUSH2 0x100 EXP SWAP1 DIV PUSH20 0xFFFFFFFFFFFFFFFFFFFFFFFFFFFFFFFFFFFFFFFF AND PUSH1 0x40 MLOAD PUSH32 0x61DB9C100000000000000000000000000000000000000000000000000000000 DUP2 MSTORE PUSH1 0x4 ADD PUSH2 0x977 SWAP4 SWAP3 SWAP2 SWAP1 PUSH2 0x1785 JUMP JUMPDEST PUSH1 0x40 MLOAD DUP1 SWAP2 SUB SWAP1 REVERT JUMPDEST PUSH1 0x0 PUSH20 0xFFFFFFFFFFFFFFFFFFFFFFFFFFFFFFFFFFFFFFFF AND DUP2 PUSH20 0xFFFFFFFFFFFFFFFFFFFFFFFFFFFFFFFFFFFFFFFF AND SUB PUSH2 0x9E6 JUMPI PUSH1 0x40 MLOAD PUSH32 0xD92E233D00000000000000000000000000000000000000000000000000000000 DUP2 MSTORE PUSH1 0x4 ADD PUSH1 0x40 MLOAD DUP1 SWAP2 SUB SWAP1 REVERT JUMPDEST DUP1 PUSH1 0x2 PUSH1 0x0 PUSH2 0x100 EXP DUP2 SLOAD DUP2 PUSH20 0xFFFFFFFFFFFFFFFFFFFFFFFFFFFFFFFFFFFFFFFF MUL NOT AND SWAP1 DUP4 PUSH20 0xFFFFFFFFFFFFFFFFFFFFFFFFFFFFFFFFFFFFFFFF AND MUL OR SWAP1 SSTORE POP PUSH32 0xD1A6A14209A385A964D036E404CB5CFB71F4000CDB03C9366292430787261BE6 DUP2 PUSH1 0x40 MLOAD PUSH2 0xA56 SWAP2 SWAP1 PUSH2 0x1291 JUMP JUMPDEST PUSH1 0x40 MLOAD DUP1 SWAP2 SUB SWAP1 LOG1 POP JUMP JUMPDEST PUSH1 0x2 PUSH1 0x0 SWAP1 SLOAD SWAP1 PUSH2 0x100 EXP SWAP1 DIV PUSH20 0xFFFFFFFFFFFFFFFFFFFFFFFFFFFFFFFFFFFFFFFF AND DUP2 JUMP JUMPDEST PUSH1 0x3 PUSH1 0x20 MSTORE DUP1 PUSH1 0x0 MSTORE PUSH1 0x40 PUSH1 0x0 KECCAK256 PUSH1 0x0 SWAP2 POP SWAP1 POP DUP1 PUSH1 0x0 ADD PUSH1 0x0 SWAP1 SLOAD SWAP1 PUSH2 0x100 EXP SWAP1 DIV PUSH1 0xFF AND SWAP1 DUP1 PUSH1 0x0 ADD PUSH1 0x1 SWAP1 SLOAD SWAP1 PUSH2 0x100 EXP SWAP1 DIV PUSH1 0xFF AND SWAP1 POP DUP3 JUMP JUMPDEST PUSH1 0x8 PUSH1 0x4 SWAP1 SLOAD SWAP1 PUSH2 0x100 EXP SWAP1 DIV PUSH2 0xFFFF AND DUP2 JUMP JUMPDEST PUSH1 0x0 PUSH1 0x60 PUSH1 0x3 PUSH1 0x0 DUP5 DUP2 MSTORE PUSH1 0x20 ADD SWAP1 DUP2 MSTORE PUSH1 0x20 ADD PUSH1 0x0 KECCAK256 PUSH1 0x0 ADD PUSH1 0x1 SWAP1 SLOAD SWAP1 PUSH2 0x100 EXP SWAP1 DIV PUSH1 0xFF AND PUSH2 0xB40 JUMPI PUSH1 0x40 MLOAD PUSH32 0x8C379A000000000000000000000000000000000000000000000000000000000 DUP2 MSTORE PUSH1 0x4 ADD PUSH2 0xB37 SWAP1 PUSH2 0x1808 JUMP JUMPDEST PUSH1 0x40 MLOAD DUP1 SWAP2 SUB SWAP1 REVERT JUMPDEST PUSH1 0x0 PUSH1 0x3 PUSH1 0x0 DUP6 DUP2 MSTORE PUSH1 0x20 ADD SWAP1 DUP2 MSTORE PUSH1 0x20 ADD PUSH1 0x0 KECCAK256 PUSH1 0x40 MLOAD DUP1 PUSH1 0x60 ADD PUSH1 0x40 MSTORE SWAP1 DUP2 PUSH1 0x0 DUP3 ADD PUSH1 0x0 SWAP1 SLOAD SWAP1 PUSH2 0x100 EXP SWAP1 DIV PUSH1 0xFF AND ISZERO ISZERO ISZERO ISZERO DUP2 MSTORE PUSH1 0x20 ADD PUSH1 0x0 DUP3 ADD PUSH1 0x1 SWAP1 SLOAD SWAP1 PUSH2 0x100 EXP SWAP1 DIV PUSH1 0xFF AND ISZERO ISZERO ISZERO ISZERO DUP2 MSTORE PUSH1 0x20 ADD PUSH1 0x1 DUP3 ADD DUP1 SLOAD DUP1 PUSH1 0x20 MUL PUSH1 0x20 ADD PUSH1 0x40 MLOAD SWAP1 DUP2 ADD PUSH1 0x40 MSTORE DUP1 SWAP3 SWAP2 SWAP1 DUP2 DUP2 MSTORE PUSH1 0x20 ADD DUP3 DUP1 SLOAD DUP1 ISZERO PUSH2 0xBE5 JUMPI PUSH1 0x20 MUL DUP3 ADD SWAP2 SWAP1 PUSH1 0x0 MSTORE PUSH1 0x20 PUSH1 0x0 KECCAK256 SWAP1 JUMPDEST DUP2 SLOAD DUP2 MSTORE PUSH1 0x20 ADD SWAP1 PUSH1 0x1 ADD SWAP1 DUP1 DUP4 GT PUSH2 0xBD1 JUMPI JUMPDEST POP POP POP POP POP DUP2 MSTORE POP POP SWAP1 POP DUP1 PUSH1 0x0 ADD MLOAD DUP2 PUSH1 0x40 ADD MLOAD SWAP3 POP SWAP3 POP POP SWAP2 POP SWAP2 JUMP JUMPDEST PUSH2 0xC0C PUSH2 0xDAE JUMP JUMPDEST PUSH2 0xC15 DUP2 PUSH2 0xE3E JUMP JUMPDEST POP JUMP JUMPDEST PUSH1 0x6 SLOAD DUP2 JUMP JUMPDEST PUSH1 0x3 PUSH1 0x0 DUP5 DUP2 MSTORE PUSH1 0x20 ADD SWAP1 DUP2 MSTORE PUSH1 0x20 ADD PUSH1 0x0 KECCAK256 PUSH1 0x0 ADD PUSH1 0x1 SWAP1 SLOAD SWAP1 PUSH2 0x100 EXP SWAP1 DIV PUSH1 0xFF AND PUSH2 0xC81 JUMPI PUSH1 0x40 MLOAD PUSH32 0x8C379A000000000000000000000000000000000000000000000000000000000 DUP2 MSTORE PUSH1 0x4 ADD PUSH2 0xC78 SWAP1 PUSH2 0x1808 JUMP JUMPDEST PUSH1 0x40 MLOAD DUP1 SWAP2 SUB SWAP1 REVERT JUMPDEST PUSH1 0x1 PUSH1 0x3 PUSH1 0x0 DUP6 DUP2 MSTORE PUSH1 0x20 ADD SWAP1 DUP2 MSTORE PUSH1 0x20 ADD PUSH1 0x0 KECCAK256 PUSH1 0x0 ADD PUSH1 0x0 PUSH2 0x100 EXP DUP2 SLOAD DUP2 PUSH1 0xFF MUL NOT AND SWAP1 DUP4 ISZERO ISZERO MUL OR SWAP1 SSTORE POP DUP2 DUP2 PUSH1 0x3 PUSH1 0x0 DUP7 DUP2 MSTORE PUSH1 0x20 ADD SWAP1 DUP2 MSTORE PUSH1 0x20 ADD PUSH1 0x0 KECCAK256 PUSH1 0x1 ADD SWAP2 SWAP1 PUSH2 0xCD5 SWAP3 SWAP2 SWAP1 PUSH2 0xFB7 JUMP JUMPDEST POP PUSH32 0xFE2E2D779DBA245964D4E3EF9B994BE63856FD568BF7D3CA9E224755CB1BD54D DUP4 DUP4 DUP4 PUSH1 0x40 MLOAD PUSH2 0xD09 SWAP4 SWAP3 SWAP2 SWAP1 PUSH2 0x1892 JUMP JUMPDEST PUSH1 0x40 MLOAD DUP1 SWAP2 SUB SWAP1 LOG1 POP POP POP JUMP JUMPDEST PUSH1 0x60 PUSH32 0x92FD13387C7FE7BEFBC38D303D6468778FB9731BC4583F17D92989C6FCFDEAAA DUP3 PUSH1 0x40 MLOAD PUSH1 0x24 ADD PUSH2 0xD4A SWAP2 SWAP1 PUSH2 0x18EF JUMP JUMPDEST PUSH1 0x40 MLOAD PUSH1 0x20 DUP2 DUP4 SUB SUB DUP2 MSTORE SWAP1 PUSH1 0x40 MSTORE SWAP1 PUSH28 0xFFFFFFFFFFFFFFFFFFFFFFFFFFFFFFFFFFFFFFFFFFFFFFFFFFFFFFFF NOT AND PUSH1 0x20 DUP3 ADD DUP1 MLOAD PUSH28 0xFFFFFFFFFFFFFFFFFFFFFFFFFFFFFFFFFFFFFFFFFFFFFFFFFFFFFFFF DUP4 DUP2 DUP4 AND OR DUP4 MSTORE POP POP POP POP SWAP1 POP SWAP2 SWAP1 POP JUMP JUMPDEST PUSH1 0x0 DUP1 SLOAD SWAP1 PUSH2 0x100 EXP SWAP1 DIV PUSH20 0xFFFFFFFFFFFFFFFFFFFFFFFFFFFFFFFFFFFFFFFF AND PUSH20 0xFFFFFFFFFFFFFFFFFFFFFFFFFFFFFFFFFFFFFFFF AND CALLER PUSH20 0xFFFFFFFFFFFFFFFFFFFFFFFFFFFFFFFFFFFFFFFF AND EQ PUSH2 0xE3C JUMPI PUSH1 0x40 MLOAD PUSH32 0x8C379A000000000000000000000000000000000000000000000000000000000 DUP2 MSTORE PUSH1 0x4 ADD PUSH2 0xE33 SWAP1 PUSH2 0x1956 JUMP JUMPDEST PUSH1 0x40 MLOAD DUP1 SWAP2 SUB SWAP1 REVERT JUMPDEST JUMP JUMPDEST CALLER PUSH20 0xFFFFFFFFFFFFFFFFFFFFFFFFFFFFFFFFFFFFFFFF AND DUP2 PUSH20 0xFFFFFFFFFFFFFFFFFFFFFFFFFFFFFFFFFFFFFFFF AND SUB PUSH2 0xEAC JUMPI PUSH1 0x40 MLOAD PUSH32 0x8C379A000000000000000000000000000000000000000000000000000000000 DUP2 MSTORE PUSH1 0x4 ADD PUSH2 0xEA3 SWAP1 PUSH2 0x19C2 JUMP JUMPDEST PUSH1 0x40 MLOAD DUP1 SWAP2 SUB SWAP1 REVERT JUMPDEST DUP1 PUSH1 0x1 PUSH1 0x0 PUSH2 0x100 EXP DUP2 SLOAD DUP2 PUSH20 0xFFFFFFFFFFFFFFFFFFFFFFFFFFFFFFFFFFFFFFFF MUL NOT AND SWAP1 DUP4 PUSH20 0xFFFFFFFFFFFFFFFFFFFFFFFFFFFFFFFFFFFFFFFF AND MUL OR SWAP1 SSTORE POP DUP1 PUSH20 0xFFFFFFFFFFFFFFFFFFFFFFFFFFFFFFFFFFFFFFFF AND PUSH1 0x0 DUP1 SLOAD SWAP1 PUSH2 0x100 EXP SWAP1 DIV PUSH20 0xFFFFFFFFFFFFFFFFFFFFFFFFFFFFFFFFFFFFFFFF AND PUSH20 0xFFFFFFFFFFFFFFFFFFFFFFFFFFFFFFFFFFFFFFFF AND PUSH32 0xED8889F560326EB138920D842192F0EB3DD22B4F139C87A2C57538E05BAE1278 PUSH1 0x40 MLOAD PUSH1 0x40 MLOAD DUP1 SWAP2 SUB SWAP1 LOG3 POP JUMP JUMPDEST DUP3 DUP1 SLOAD DUP3 DUP3 SSTORE SWAP1 PUSH1 0x0 MSTORE PUSH1 0x20 PUSH1 0x0 KECCAK256 SWAP1 DUP2 ADD SWAP3 DUP3 ISZERO PUSH2 0xFA6 JUMPI SWAP2 PUSH1 0x20 MUL DUP3 ADD JUMPDEST DUP3 DUP2 GT ISZERO PUSH2 0xFA5 JUMPI DUP3 MLOAD DUP3 SSTORE SWAP2 PUSH1 0x20 ADD SWAP2 SWAP1 PUSH1 0x1 ADD SWAP1 PUSH2 0xF8A JUMP JUMPDEST JUMPDEST POP SWAP1 POP PUSH2 0xFB3 SWAP2 SWAP1 PUSH2 0x1004 JUMP JUMPDEST POP SWAP1 JUMP JUMPDEST DUP3 DUP1 SLOAD DUP3 DUP3 SSTORE SWAP1 PUSH1 0x0 MSTORE PUSH1 0x20 PUSH1 0x0 KECCAK256 SWAP1 DUP2 ADD SWAP3 DUP3 ISZERO PUSH2 0xFF3 JUMPI SWAP2 PUSH1 0x20 MUL DUP3 ADD JUMPDEST DUP3 DUP2 GT ISZERO PUSH2 0xFF2 JUMPI DUP3 CALLDATALOAD DUP3 SSTORE SWAP2 PUSH1 0x20 ADD SWAP2 SWAP1 PUSH1 0x1 ADD SWAP1 PUSH2 0xFD7 JUMP JUMPDEST JUMPDEST POP SWAP1 POP PUSH2 0x1000 SWAP2 SWAP1 PUSH2 0x1004 JUMP JUMPDEST POP SWAP1 JUMP JUMPDEST JUMPDEST DUP1 DUP3 GT ISZERO PUSH2 0x101D JUMPI PUSH1 0x0 DUP2 PUSH1 0x0 SWAP1 SSTORE POP PUSH1 0x1 ADD PUSH2 0x1005 JUMP JUMPDEST POP SWAP1 JUMP JUMPDEST PUSH1 0x0 DUP1 REVERT JUMPDEST PUSH1 0x0 DUP1 REVERT JUMPDEST PUSH1 0x0 DUP2 SWAP1 POP SWAP2 SWAP1 POP JUMP JUMPDEST PUSH2 0x103E DUP2 PUSH2 0x102B JUMP JUMPDEST DUP2 EQ PUSH2 0x1049 JUMPI PUSH1 0x0 DUP1 REVERT JUMPDEST POP JUMP JUMPDEST PUSH1 0x0 DUP2 CALLDATALOAD SWAP1 POP PUSH2 0x105B DUP2 PUSH2 0x1035 JUMP JUMPDEST SWAP3 SWAP2 POP POP JUMP JUMPDEST PUSH1 0x0 DUP1 REVERT JUMPDEST PUSH1 0x0 DUP1 REVERT JUMPDEST PUSH1 0x0 DUP1 REVERT JUMPDEST PUSH1 0x0 DUP1 DUP4 PUSH1 0x1F DUP5 ADD SLT PUSH2 0x1086 JUMPI PUSH2 0x1085 PUSH2 0x1061 JUMP JUMPDEST JUMPDEST DUP3 CALLDATALOAD SWAP1 POP PUSH8 0xFFFFFFFFFFFFFFFF DUP2 GT ISZERO PUSH2 0x10A3 JUMPI PUSH2 0x10A2 PUSH2 0x1066 JUMP JUMPDEST JUMPDEST PUSH1 0x20 DUP4 ADD SWAP2 POP DUP4 PUSH1 0x20 DUP3 MUL DUP4 ADD GT ISZERO PUSH2 0x10BF JUMPI PUSH2 0x10BE PUSH2 0x106B JUMP JUMPDEST JUMPDEST SWAP3 POP SWAP3 SWAP1 POP JUMP JUMPDEST PUSH1 0x0 DUP1 PUSH1 0x0 PUSH1 0x40 DUP5 DUP7 SUB SLT ISZERO PUSH2 0x10DF JUMPI PUSH2 0x10DE PUSH2 0x1021 JUMP JUMPDEST JUMPDEST PUSH1 0x0 PUSH2 0x10ED DUP7 DUP3 DUP8 ADD PUSH2 0x104C JUMP JUMPDEST SWAP4 POP POP PUSH1 0x20 DUP5 ADD CALLDATALOAD PUSH8 0xFFFFFFFFFFFFFFFF DUP2 GT ISZERO PUSH2 0x110E JUMPI PUSH2 0x110D PUSH2 0x1026 JUMP JUMPDEST JUMPDEST PUSH2 0x111A DUP7 DUP3 DUP8 ADD PUSH2 0x1070 JUMP JUMPDEST SWAP3 POP SWAP3 POP POP SWAP3 POP SWAP3 POP SWAP3 JUMP JUMPDEST PUSH1 0x0 PUSH4 0xFFFFFFFF DUP3 AND SWAP1 POP SWAP2 SWAP1 POP JUMP JUMPDEST PUSH2 0x113F DUP2 PUSH2 0x1126 JUMP JUMPDEST DUP3 MSTORE POP POP JUMP JUMPDEST PUSH1 0x0 PUSH1 0x20 DUP3 ADD SWAP1 POP PUSH2 0x115A PUSH1 0x0 DUP4 ADD DUP5 PUSH2 0x1136 JUMP JUMPDEST SWAP3 SWAP2 POP POP JUMP JUMPDEST PUSH1 0x0 DUP2 ISZERO ISZERO SWAP1 POP SWAP2 SWAP1 POP JUMP JUMPDEST PUSH2 0x1175 DUP2 PUSH2 0x1160 JUMP JUMPDEST DUP2 EQ PUSH2 0x1180 JUMPI PUSH1 0x0 DUP1 REVERT JUMPDEST POP JUMP JUMPDEST PUSH1 0x0 DUP2 CALLDATALOAD SWAP1 POP PUSH2 0x1192 DUP2 PUSH2 0x116C JUMP JUMPDEST SWAP3 SWAP2 POP POP JUMP JUMPDEST PUSH1 0x0 PUSH1 0x20 DUP3 DUP5 SUB SLT ISZERO PUSH2 0x11AE JUMPI PUSH2 0x11AD PUSH2 0x1021 JUMP JUMPDEST JUMPDEST PUSH1 0x0 PUSH2 0x11BC DUP5 DUP3 DUP6 ADD PUSH2 0x1183 JUMP JUMPDEST SWAP2 POP POP SWAP3 SWAP2 POP POP JUMP JUMPDEST PUSH2 0x11CE DUP2 PUSH2 0x102B JUMP JUMPDEST DUP3 MSTORE POP POP JUMP JUMPDEST PUSH1 0x0 PUSH1 0x20 DUP3 ADD SWAP1 POP PUSH2 0x11E9 PUSH1 0x0 DUP4 ADD DUP5 PUSH2 0x11C5 JUMP JUMPDEST SWAP3 SWAP2 POP POP JUMP JUMPDEST PUSH1 0x0 DUP2 SWAP1 POP SWAP2 SWAP1 POP JUMP JUMPDEST PUSH2 0x1202 DUP2 PUSH2 0x11EF JUMP JUMPDEST DUP3 MSTORE POP POP JUMP JUMPDEST PUSH1 0x0 PUSH1 0x20 DUP3 ADD SWAP1 POP PUSH2 0x121D PUSH1 0x0 DUP4 ADD DUP5 PUSH2 0x11F9 JUMP JUMPDEST SWAP3 SWAP2 POP POP JUMP JUMPDEST PUSH1 0x0 PUSH1 0x20 DUP3 DUP5 SUB SLT ISZERO PUSH2 0x1239 JUMPI PUSH2 0x1238 PUSH2 0x1021 JUMP JUMPDEST JUMPDEST PUSH1 0x0 PUSH2 0x1247 DUP5 DUP3 DUP6 ADD PUSH2 0x104C JUMP JUMPDEST SWAP2 POP POP SWAP3 SWAP2 POP POP JUMP JUMPDEST PUSH1 0x0 PUSH20 0xFFFFFFFFFFFFFFFFFFFFFFFFFFFFFFFFFFFFFFFF DUP3 AND SWAP1 POP SWAP2 SWAP1 POP JUMP JUMPDEST PUSH1 0x0 PUSH2 0x127B DUP3 PUSH2 0x1250 JUMP JUMPDEST SWAP1 POP SWAP2 SWAP1 POP JUMP JUMPDEST PUSH2 0x128B DUP2 PUSH2 0x1270 JUMP JUMPDEST DUP3 MSTORE POP POP JUMP JUMPDEST PUSH1 0x0 PUSH1 0x20 DUP3 ADD SWAP1 POP PUSH2 0x12A6 PUSH1 0x0 DUP4 ADD DUP5 PUSH2 0x1282 JUMP JUMPDEST SWAP3 SWAP2 POP POP JUMP JUMPDEST PUSH2 0x12B5 DUP2 PUSH2 0x1270 JUMP JUMPDEST DUP2 EQ PUSH2 0x12C0 JUMPI PUSH1 0x0 DUP1 REVERT JUMPDEST POP JUMP JUMPDEST PUSH1 0x0 DUP2 CALLDATALOAD SWAP1 POP PUSH2 0x12D2 DUP2 PUSH2 0x12AC JUMP JUMPDEST SWAP3 SWAP2 POP POP JUMP JUMPDEST PUSH1 0x0 PUSH1 0x20 DUP3 DUP5 SUB SLT ISZERO PUSH2 0x12EE JUMPI PUSH2 0x12ED PUSH2 0x1021 JUMP JUMPDEST JUMPDEST PUSH1 0x0 PUSH2 0x12FC DUP5 DUP3 DUP6 ADD PUSH2 0x12C3 JUMP JUMPDEST SWAP2 POP POP SWAP3 SWAP2 POP POP JUMP JUMPDEST PUSH1 0x0 DUP2 SWAP1 POP SWAP2 SWAP1 POP JUMP JUMPDEST PUSH1 0x0 PUSH2 0x132A PUSH2 0x1325 PUSH2 0x1320 DUP5 PUSH2 0x1250 JUMP JUMPDEST PUSH2 0x1305 JUMP JUMPDEST PUSH2 0x1250 JUMP JUMPDEST SWAP1 POP SWAP2 SWAP1 POP JUMP JUMPDEST PUSH1 0x0 PUSH2 0x133C DUP3 PUSH2 0x130F JUMP JUMPDEST SWAP1 POP SWAP2 SWAP1 POP JUMP JUMPDEST PUSH1 0x0 PUSH2 0x134E DUP3 PUSH2 0x1331 JUMP JUMPDEST SWAP1 POP SWAP2 SWAP1 POP JUMP JUMPDEST PUSH2 0x135E DUP2 PUSH2 0x1343 JUMP JUMPDEST DUP3 MSTORE POP POP JUMP JUMPDEST PUSH1 0x0 PUSH1 0x20 DUP3 ADD SWAP1 POP PUSH2 0x1379 PUSH1 0x0 DUP4 ADD DUP5 PUSH2 0x1355 JUMP JUMPDEST SWAP3 SWAP2 POP POP JUMP JUMPDEST PUSH2 0x1388 DUP2 PUSH2 0x1160 JUMP JUMPDEST DUP3 MSTORE POP POP JUMP JUMPDEST PUSH1 0x0 PUSH1 0x40 DUP3 ADD SWAP1 POP PUSH2 0x13A3 PUSH1 0x0 DUP4 ADD DUP6 PUSH2 0x137F JUMP JUMPDEST PUSH2 0x13B0 PUSH1 0x20 DUP4 ADD DUP5 PUSH2 0x137F JUMP JUMPDEST SWAP4 SWAP3 POP POP POP JUMP JUMPDEST PUSH1 0x0 PUSH2 0xFFFF DUP3 AND SWAP1 POP SWAP2 SWAP1 POP JUMP JUMPDEST PUSH2 0x13CE DUP2 PUSH2 0x13B7 JUMP JUMPDEST DUP3 MSTORE POP POP JUMP JUMPDEST PUSH1 0x0 PUSH1 0x20 DUP3 ADD SWAP1 POP PUSH2 0x13E9 PUSH1 0x0 DUP4 ADD DUP5 PUSH2 0x13C5 JUMP JUMPDEST SWAP3 SWAP2 POP POP JUMP JUMPDEST PUSH1 0x0 DUP2 MLOAD SWAP1 POP SWAP2 SWAP1 POP JUMP JUMPDEST PUSH1 0x0 DUP3 DUP3 MSTORE PUSH1 0x20 DUP3 ADD SWAP1 POP SWAP3 SWAP2 POP POP JUMP JUMPDEST PUSH1 0x0 DUP2 SWAP1 POP PUSH1 0x20 DUP3 ADD SWAP1 POP SWAP2 SWAP1 POP JUMP JUMPDEST PUSH2 0x1424 DUP2 PUSH2 0x102B JUMP JUMPDEST DUP3 MSTORE POP POP JUMP JUMPDEST PUSH1 0x0 PUSH2 0x1436 DUP4 DUP4 PUSH2 0x141B JUMP JUMPDEST PUSH1 0x20 DUP4 ADD SWAP1 POP SWAP3 SWAP2 POP POP JUMP JUMPDEST PUSH1 0x0 PUSH1 0x20 DUP3 ADD SWAP1 POP SWAP2 SWAP1 POP JUMP JUMPDEST PUSH1 0x0 PUSH2 0x145A DUP3 PUSH2 0x13EF JUMP JUMPDEST PUSH2 0x1464 DUP2 DUP6 PUSH2 0x13FA JUMP JUMPDEST SWAP4 POP PUSH2 0x146F DUP4 PUSH2 0x140B JUMP JUMPDEST DUP1 PUSH1 0x0 JUMPDEST DUP4 DUP2 LT ISZERO PUSH2 0x14A0 JUMPI DUP2 MLOAD PUSH2 0x1487 DUP9 DUP3 PUSH2 0x142A JUMP JUMPDEST SWAP8 POP PUSH2 0x1492 DUP4 PUSH2 0x1442 JUMP JUMPDEST SWAP3 POP POP PUSH1 0x1 DUP2 ADD SWAP1 POP PUSH2 0x1473 JUMP JUMPDEST POP DUP6 SWAP4 POP POP POP POP SWAP3 SWAP2 POP POP JUMP JUMPDEST PUSH1 0x0 PUSH1 0x40 DUP3 ADD SWAP1 POP PUSH2 0x14C2 PUSH1 0x0 DUP4 ADD DUP6 PUSH2 0x137F JUMP JUMPDEST DUP2 DUP2 SUB PUSH1 0x20 DUP4 ADD MSTORE PUSH2 0x14D4 DUP2 DUP5 PUSH2 0x144F JUMP JUMPDEST SWAP1 POP SWAP4 SWAP3 POP POP POP JUMP JUMPDEST PUSH1 0x0 PUSH1 0x40 DUP3 ADD SWAP1 POP PUSH2 0x14F2 PUSH1 0x0 DUP4 ADD DUP6 PUSH2 0x1282 JUMP JUMPDEST PUSH2 0x14FF PUSH1 0x20 DUP4 ADD DUP5 PUSH2 0x1282 JUMP JUMPDEST SWAP4 SWAP3 POP POP POP JUMP JUMPDEST PUSH2 0x150F DUP2 PUSH2 0x11EF JUMP JUMPDEST DUP3 MSTORE POP POP JUMP JUMPDEST PUSH2 0x151E DUP2 PUSH2 0x13B7 JUMP JUMPDEST DUP3 MSTORE POP POP JUMP JUMPDEST PUSH2 0x152D DUP2 PUSH2 0x1126 JUMP JUMPDEST DUP3 MSTORE POP POP JUMP JUMPDEST PUSH1 0x0 DUP2 MLOAD SWAP1 POP SWAP2 SWAP1 POP JUMP JUMPDEST PUSH1 0x0 DUP3 DUP3 MSTORE PUSH1 0x20 DUP3 ADD SWAP1 POP SWAP3 SWAP2 POP POP JUMP JUMPDEST PUSH1 0x0 JUMPDEST DUP4 DUP2 LT ISZERO PUSH2 0x156D JUMPI DUP1 DUP3 ADD MLOAD DUP2 DUP5 ADD MSTORE PUSH1 0x20 DUP2 ADD SWAP1 POP PUSH2 0x1552 JUMP JUMPDEST PUSH1 0x0 DUP5 DUP5 ADD MSTORE POP POP POP POP JUMP JUMPDEST PUSH1 0x0 PUSH1 0x1F NOT PUSH1 0x1F DUP4 ADD AND SWAP1 POP SWAP2 SWAP1 POP JUMP JUMPDEST PUSH1 0x0 PUSH2 0x1595 DUP3 PUSH2 0x1533 JUMP JUMPDEST PUSH2 0x159F DUP2 DUP6 PUSH2 0x153E JUMP JUMPDEST SWAP4 POP PUSH2 0x15AF DUP2 DUP6 PUSH1 0x20 DUP7 ADD PUSH2 0x154F JUMP JUMPDEST PUSH2 0x15B8 DUP2 PUSH2 0x1579 JUMP JUMPDEST DUP5 ADD SWAP2 POP POP SWAP3 SWAP2 POP POP JUMP JUMPDEST PUSH1 0x0 PUSH1 0xC0 DUP4 ADD PUSH1 0x0 DUP4 ADD MLOAD PUSH2 0x15DB PUSH1 0x0 DUP7 ADD DUP3 PUSH2 0x1506 JUMP JUMPDEST POP PUSH1 0x20 DUP4 ADD MLOAD PUSH2 0x15EE PUSH1 0x20 DUP7 ADD DUP3 PUSH2 0x141B JUMP JUMPDEST POP PUSH1 0x40 DUP4 ADD MLOAD PUSH2 0x1601 PUSH1 0x40 DUP7 ADD DUP3 PUSH2 0x1515 JUMP JUMPDEST POP PUSH1 0x60 DUP4 ADD MLOAD PUSH2 0x1614 PUSH1 0x60 DUP7 ADD DUP3 PUSH2 0x1524 JUMP JUMPDEST POP PUSH1 0x80 DUP4 ADD MLOAD PUSH2 0x1627 PUSH1 0x80 DUP7 ADD DUP3 PUSH2 0x1524 JUMP JUMPDEST POP PUSH1 0xA0 DUP4 ADD MLOAD DUP5 DUP3 SUB PUSH1 0xA0 DUP7 ADD MSTORE PUSH2 0x163F DUP3 DUP3 PUSH2 0x158A JUMP JUMPDEST SWAP2 POP POP DUP1 SWAP2 POP POP SWAP3 SWAP2 POP POP JUMP JUMPDEST PUSH1 0x0 PUSH1 0x20 DUP3 ADD SWAP1 POP DUP2 DUP2 SUB PUSH1 0x0 DUP4 ADD MSTORE PUSH2 0x1666 DUP2 DUP5 PUSH2 0x15C3 JUMP JUMPDEST SWAP1 POP SWAP3 SWAP2 POP POP JUMP JUMPDEST PUSH1 0x0 DUP2 MLOAD SWAP1 POP PUSH2 0x167D DUP2 PUSH2 0x1035 JUMP JUMPDEST SWAP3 SWAP2 POP POP JUMP JUMPDEST PUSH1 0x0 PUSH1 0x20 DUP3 DUP5 SUB SLT ISZERO PUSH2 0x1699 JUMPI PUSH2 0x1698 PUSH2 0x1021 JUMP JUMPDEST JUMPDEST PUSH1 0x0 PUSH2 0x16A7 DUP5 DUP3 DUP6 ADD PUSH2 0x166E JUMP JUMPDEST SWAP2 POP POP SWAP3 SWAP2 POP POP JUMP JUMPDEST PUSH32 0x4E487B7100000000000000000000000000000000000000000000000000000000 PUSH1 0x0 MSTORE PUSH1 0x41 PUSH1 0x4 MSTORE PUSH1 0x24 PUSH1 0x0 REVERT JUMPDEST PUSH1 0x0 PUSH1 0x40 DUP3 ADD SWAP1 POP PUSH2 0x16F4 PUSH1 0x0 DUP4 ADD DUP6 PUSH2 0x11C5 JUMP JUMPDEST PUSH2 0x1701 PUSH1 0x20 DUP4 ADD DUP5 PUSH2 0x1136 JUMP JUMPDEST SWAP4 SWAP3 POP POP POP JUMP JUMPDEST PUSH1 0x0 DUP3 DUP3 MSTORE PUSH1 0x20 DUP3 ADD SWAP1 POP SWAP3 SWAP2 POP POP JUMP JUMPDEST PUSH32 0x4D7573742062652070726F706F736564206F776E657200000000000000000000 PUSH1 0x0 DUP3 ADD MSTORE POP JUMP JUMPDEST PUSH1 0x0 PUSH2 0x174F PUSH1 0x16 DUP4 PUSH2 0x1708 JUMP JUMPDEST SWAP2 POP PUSH2 0x175A DUP3 PUSH2 0x1719 JUMP JUMPDEST PUSH1 0x20 DUP3 ADD SWAP1 POP SWAP2 SWAP1 POP JUMP JUMPDEST PUSH1 0x0 PUSH1 0x20 DUP3 ADD SWAP1 POP DUP2 DUP2 SUB PUSH1 0x0 DUP4 ADD MSTORE PUSH2 0x177E DUP2 PUSH2 0x1742 JUMP JUMPDEST SWAP1 POP SWAP2 SWAP1 POP JUMP JUMPDEST PUSH1 0x0 PUSH1 0x60 DUP3 ADD SWAP1 POP PUSH2 0x179A PUSH1 0x0 DUP4 ADD DUP7 PUSH2 0x1282 JUMP JUMPDEST PUSH2 0x17A7 PUSH1 0x20 DUP4 ADD DUP6 PUSH2 0x1282 JUMP JUMPDEST PUSH2 0x17B4 PUSH1 0x40 DUP4 ADD DUP5 PUSH2 0x1282 JUMP JUMPDEST SWAP5 SWAP4 POP POP POP POP JUMP JUMPDEST PUSH32 0x72657175657374206E6F7420666F756E64000000000000000000000000000000 PUSH1 0x0 DUP3 ADD MSTORE POP JUMP JUMPDEST PUSH1 0x0 PUSH2 0x17F2 PUSH1 0x11 DUP4 PUSH2 0x1708 JUMP JUMPDEST SWAP2 POP PUSH2 0x17FD DUP3 PUSH2 0x17BC JUMP JUMPDEST PUSH1 0x20 DUP3 ADD SWAP1 POP SWAP2 SWAP1 POP JUMP JUMPDEST PUSH1 0x0 PUSH1 0x20 DUP3 ADD SWAP1 POP DUP2 DUP2 SUB PUSH1 0x0 DUP4 ADD MSTORE PUSH2 0x1821 DUP2 PUSH2 0x17E5 JUMP JUMPDEST SWAP1 POP SWAP2 SWAP1 POP JUMP JUMPDEST PUSH1 0x0 DUP1 REVERT JUMPDEST DUP3 DUP2 DUP4 CALLDATACOPY POP POP POP JUMP JUMPDEST PUSH1 0x0 PUSH2 0x1842 DUP4 DUP6 PUSH2 0x13FA JUMP JUMPDEST SWAP4 POP PUSH32 0x7FFFFFFFFFFFFFFFFFFFFFFFFFFFFFFFFFFFFFFFFFFFFFFFFFFFFFFFFFFFFFF DUP4 GT ISZERO PUSH2 0x1875 JUMPI PUSH2 0x1874 PUSH2 0x1828 JUMP JUMPDEST JUMPDEST PUSH1 0x20 DUP4 MUL SWAP3 POP PUSH2 0x1886 DUP4 DUP6 DUP5 PUSH2 0x182D JUMP JUMPDEST DUP3 DUP5 ADD SWAP1 POP SWAP4 SWAP3 POP POP POP JUMP JUMPDEST PUSH1 0x0 PUSH1 0x40 DUP3 ADD SWAP1 POP PUSH2 0x18A7 PUSH1 0x0 DUP4 ADD DUP7 PUSH2 0x11C5 JUMP JUMPDEST DUP2 DUP2 SUB PUSH1 0x20 DUP4 ADD MSTORE PUSH2 0x18BA DUP2 DUP5 DUP7 PUSH2 0x1836 JUMP JUMPDEST SWAP1 POP SWAP5 SWAP4 POP POP POP POP JUMP JUMPDEST PUSH2 0x18CD DUP2 PUSH2 0x1160 JUMP JUMPDEST DUP3 MSTORE POP POP JUMP JUMPDEST PUSH1 0x20 DUP3 ADD PUSH1 0x0 DUP3 ADD MLOAD PUSH2 0x18E9 PUSH1 0x0 DUP6 ADD DUP3 PUSH2 0x18C4 JUMP JUMPDEST POP POP POP POP JUMP JUMPDEST PUSH1 0x0 PUSH1 0x20 DUP3 ADD SWAP1 POP PUSH2 0x1904 PUSH1 0x0 DUP4 ADD DUP5 PUSH2 0x18D3 JUMP JUMPDEST SWAP3 SWAP2 POP POP JUMP JUMPDEST PUSH32 0x4F6E6C792063616C6C61626C65206279206F776E657200000000000000000000 PUSH1 0x0 DUP3 ADD MSTORE POP JUMP JUMPDEST PUSH1 0x0 PUSH2 0x1940 PUSH1 0x16 DUP4 PUSH2 0x1708 JUMP JUMPDEST SWAP2 POP PUSH2 0x194B DUP3 PUSH2 0x190A JUMP JUMPDEST PUSH1 0x20 DUP3 ADD SWAP1 POP SWAP2 SWAP1 POP JUMP JUMPDEST PUSH1 0x0 PUSH1 0x20 DUP3 ADD SWAP1 POP DUP2 DUP2 SUB PUSH1 0x0 DUP4 ADD MSTORE PUSH2 0x196F DUP2 PUSH2 0x1933 JUMP JUMPDEST SWAP1 POP SWAP2 SWAP1 POP JUMP JUMPDEST PUSH32 0x43616E6E6F74207472616E7366657220746F2073656C66000000000000000000 PUSH1 0x0 DUP3 ADD MSTORE POP JUMP JUMPDEST PUSH1 0x0 PUSH2 0x19AC PUSH1 0x17 DUP4 PUSH2 0x1708 JUMP JUMPDEST SWAP2 POP PUSH2 0x19B7 DUP3 PUSH2 0x1976 JUMP JUMPDEST PUSH1 0x20 DUP3 ADD SWAP1 POP SWAP2 SWAP1 POP JUMP JUMPDEST PUSH1 0x0 PUSH1 0x20 DUP3 ADD SWAP1 POP DUP2 DUP2 SUB PUSH1 0x0 DUP4 ADD MSTORE PUSH2 0x19DB DUP2 PUSH2 0x199F JUMP JUMPDEST SWAP1 POP SWAP2 SWAP1 POP JUMP INVALID LOG2 PUSH5 0x6970667358 0x22 SLT KECCAK256 PUSH4 0x8A28A630 0xD5 RETURN 0x2B MUL 0x27 JUMPI 0xBB 0xC0 DUP14 0x4B DUP13 LOG0 SWAP16 GT 0xD1 MULMOD LOG4 SWAP15 0xA5 RETURNDATACOPY PUSH11 0xFD009E0DD78264736F6C63 NUMBER STOP ADDMOD SGT STOP CALLER "
				},
				"gasEstimates": {
					"creation": {
						"codeDepositCost": "1336000",
						"executionCost": "infinite",
						"totalCost": "infinite"
					},
					"external": {
						"acceptOwnership()": "54563",
						"callbackGasLimit()": "2517",
						"getRequestStatus(uint256)": "infinite",
						"keyHash()": "2519",
						"lastRequestId()": "2517",
						"numWords()": "2566",
						"owner()": "2545",
						"rawFulfillRandomWords(uint256,uint256[])": "infinite",
						"requestConfirmations()": "2543",
						"requestIds(uint256)": "infinite",
						"requestRandomNumbers(bool)": "infinite",
						"s_requests(uint256)": "infinite",
						"s_subscriptionId()": "2518",
						"s_vrfCoordinator()": "infinite",
						"setCoordinator(address)": "infinite",
						"transferOwnership(address)": "30720"
					},
					"internal": {
						"fulfillRandomWords(uint256,uint256[] calldata)": "infinite"
					}
				},
				"methodIdentifiers": {
					"acceptOwnership()": "79ba5097",
					"callbackGasLimit()": "24f74697",
					"getRequestStatus(uint256)": "d8a4676f",
					"keyHash()": "61728f39",
					"lastRequestId()": "fc2a88c3",
					"numWords()": "7ccfd7fc",
					"owner()": "8da5cb5b",
					"rawFulfillRandomWords(uint256,uint256[])": "1fe543e3",
					"requestConfirmations()": "b0fb162f",
					"requestIds(uint256)": "8796ba8c",
					"requestRandomNumbers(bool)": "5cd8e746",
					"s_requests(uint256)": "a168fa89",
					"s_subscriptionId()": "8ac00021",
					"s_vrfCoordinator()": "9eccacf6",
					"setCoordinator(address)": "8ea98117",
					"transferOwnership(address)": "f2fde38b"
				}
			},
			"storageLayout": {
				"storage": [
					{
						"astId": 29,
						"contract": "contracts/SubscriptionConsumer.sol:SubscriptionConsumer",
						"label": "s_owner",
						"offset": 0,
						"slot": "0",
						"type": "t_address"
					},
					{
						"astId": 31,
						"contract": "contracts/SubscriptionConsumer.sol:SubscriptionConsumer",
						"label": "s_pendingOwner",
						"offset": 0,
						"slot": "1",
						"type": "t_address"
					},
					{
						"astId": 231,
						"contract": "contracts/SubscriptionConsumer.sol:SubscriptionConsumer",
						"label": "s_vrfCoordinator",
						"offset": 0,
						"slot": "2",
						"type": "t_contract(IVRFCoordinatorV2Plus)380"
					},
					{
						"astId": 764,
						"contract": "contracts/SubscriptionConsumer.sol:SubscriptionConsumer",
						"label": "s_requests",
						"offset": 0,
						"slot": "3",
						"type": "t_mapping(t_uint256,t_struct(RequestStatus)759_storage)"
					},
					{
						"astId": 766,
						"contract": "contracts/SubscriptionConsumer.sol:SubscriptionConsumer",
						"label": "s_subscriptionId",
						"offset": 0,
						"slot": "4",
						"type": "t_uint256"
					},
					{
						"astId": 769,
						"contract": "contracts/SubscriptionConsumer.sol:SubscriptionConsumer",
						"label": "requestIds",
						"offset": 0,
						"slot": "5",
						"type": "t_array(t_uint256)dyn_storage"
					},
					{
						"astId": 771,
						"contract": "contracts/SubscriptionConsumer.sol:SubscriptionConsumer",
						"label": "lastRequestId",
						"offset": 0,
						"slot": "6",
						"type": "t_uint256"
					},
					{
						"astId": 774,
						"contract": "contracts/SubscriptionConsumer.sol:SubscriptionConsumer",
						"label": "keyHash",
						"offset": 0,
						"slot": "7",
						"type": "t_bytes32"
					},
					{
						"astId": 777,
						"contract": "contracts/SubscriptionConsumer.sol:SubscriptionConsumer",
						"label": "callbackGasLimit",
						"offset": 0,
						"slot": "8",
						"type": "t_uint32"
					},
					{
						"astId": 780,
						"contract": "contracts/SubscriptionConsumer.sol:SubscriptionConsumer",
						"label": "requestConfirmations",
						"offset": 4,
						"slot": "8",
						"type": "t_uint16"
					},
					{
						"astId": 783,
						"contract": "contracts/SubscriptionConsumer.sol:SubscriptionConsumer",
						"label": "numWords",
						"offset": 6,
						"slot": "8",
						"type": "t_uint32"
					}
				],
				"types": {
					"t_address": {
						"encoding": "inplace",
						"label": "address",
						"numberOfBytes": "20"
					},
					"t_array(t_uint256)dyn_storage": {
						"base": "t_uint256",
						"encoding": "dynamic_array",
						"label": "uint256[]",
						"numberOfBytes": "32"
					},
					"t_bool": {
						"encoding": "inplace",
						"label": "bool",
						"numberOfBytes": "1"
					},
					"t_bytes32": {
						"encoding": "inplace",
						"label": "bytes32",
						"numberOfBytes": "32"
					},
					"t_contract(IVRFCoordinatorV2Plus)380": {
						"encoding": "inplace",
						"label": "contract IVRFCoordinatorV2Plus",
						"numberOfBytes": "20"
					},
					"t_mapping(t_uint256,t_struct(RequestStatus)759_storage)": {
						"encoding": "mapping",
						"key": "t_uint256",
						"label": "mapping(uint256 => struct SubscriptionConsumer.RequestStatus)",
						"numberOfBytes": "32",
						"value": "t_struct(RequestStatus)759_storage"
					},
					"t_struct(RequestStatus)759_storage": {
						"encoding": "inplace",
						"label": "struct SubscriptionConsumer.RequestStatus",
						"members": [
							{
								"astId": 753,
								"contract": "contracts/SubscriptionConsumer.sol:SubscriptionConsumer",
								"label": "fulfilled",
								"offset": 0,
								"slot": "0",
								"type": "t_bool"
							},
							{
								"astId": 755,
								"contract": "contracts/SubscriptionConsumer.sol:SubscriptionConsumer",
								"label": "exists",
								"offset": 1,
								"slot": "0",
								"type": "t_bool"
							},
							{
								"astId": 758,
								"contract": "contracts/SubscriptionConsumer.sol:SubscriptionConsumer",
								"label": "randomWords",
								"offset": 0,
								"slot": "1",
								"type": "t_array(t_uint256)dyn_storage"
							}
						],
						"numberOfBytes": "64"
					},
					"t_uint16": {
						"encoding": "inplace",
						"label": "uint16",
						"numberOfBytes": "2"
					},
					"t_uint256": {
						"encoding": "inplace",
						"label": "uint256",
						"numberOfBytes": "32"
					},
					"t_uint32": {
						"encoding": "inplace",
						"label": "uint32",
						"numberOfBytes": "4"
					}
				}
			},
			"userdoc": {
				"kind": "user",
				"methods": {
					"acceptOwnership()": {
						"notice": "Allows an ownership transfer to be completed by the recipient."
					},
					"constructor": {
						"notice": "HARDCODED FOR SEPOLIA COORDINATOR: 0x9DdfaCa8183c41ad55329BdeeD9F6A8d53168B1B"
					},
					"owner()": {
						"notice": "Get the current owner"
					},
					"setCoordinator(address)": {
						"notice": "Sets the VRF Coordinator addressThis method should only be callable by the coordinator or contract owner"
					},
					"transferOwnership(address)": {
						"notice": "Allows an owner to begin transferring ownership to a new address."
					}
				},
				"notice": "THIS IS AN EXAMPLE CONTRACT THAT USES HARDCODED VALUES FOR CLARITY. THIS IS AN EXAMPLE CONTRACT THAT USES UN-AUDITED CODE. DO NOT USE THIS CODE IN PRODUCTION.",
				"version": 1
			}
		}
	}
}