{
	"contracts/3_Ballot.sol": {
		"Lottery": {
			"abi": [
				{
					"inputs": [],
					"stateMutability": "nonpayable",
					"type": "constructor"
				},
				{
					"inputs": [],
					"name": "getPlayers",
					"outputs": [
						{
							"internalType": "address payable[]",
							"name": "",
							"type": "address[]"
						}
					],
					"stateMutability": "view",
					"type": "function"
				},
				{
					"inputs": [],
					"name": "lottery_state",
					"outputs": [
						{
							"internalType": "enum Lottery.LOTTERY_STATE",
							"name": "",
							"type": "uint8"
						}
					],
					"stateMutability": "view",
					"type": "function"
				},
				{
					"inputs": [],
					"name": "manager",
					"outputs": [
						{
							"internalType": "address payable",
							"name": "",
							"type": "address"
						}
					],
					"stateMutability": "view",
					"type": "function"
				},
				{
					"inputs": [],
					"name": "pickWinner",
					"outputs": [],
					"stateMutability": "nonpayable",
					"type": "function"
				},
				{
					"inputs": [
						{
							"internalType": "uint256",
							"name": "",
							"type": "uint256"
						}
					],
					"name": "players",
					"outputs": [
						{
							"internalType": "address payable",
							"name": "",
							"type": "address"
						}
					],
					"stateMutability": "view",
					"type": "function"
				},
				{
					"inputs": [
						{
							"internalType": "uint256",
							"name": "",
							"type": "uint256"
						}
					],
					"name": "roundToWinner",
					"outputs": [
						{
							"internalType": "address",
							"name": "",
							"type": "address"
						}
					],
					"stateMutability": "view",
					"type": "function"
				},
				{
					"stateMutability": "payable",
					"type": "receive"
				}
			],
			"devdoc": {
				"kind": "dev",
				"methods": {},
				"version": 1
			},
			"evm": {
				"assembly": "    /* \"contracts/3_Ballot.sol\":96:2326  contract Lottery {... */\n  mstore(0x40, 0x80)\n    /* \"contracts/3_Ballot.sol\":513:710  constructor() {... */\n  callvalue\n  dup1\n  iszero\n  tag_1\n  jumpi\n  0x00\n  dup1\n  revert\ntag_1:\n  pop\n    /* \"contracts/3_Ballot.sol\":555:565  msg.sender */\n  caller\n    /* \"contracts/3_Ballot.sol\":537:544  manager */\n  0x00\n  dup1\n    /* \"contracts/3_Ballot.sol\":537:566  manager = payable(msg.sender) */\n  0x0100\n  exp\n  dup2\n  sload\n  dup2\n  0xffffffffffffffffffffffffffffffffffffffff\n  mul\n  not\n  and\n  swap1\n  dup4\n  0xffffffffffffffffffffffffffffffffffffffff\n  and\n  mul\n  or\n  swap1\n  sstore\n  pop\n    /* \"contracts/3_Ballot.sol\":592:610  LOTTERY_STATE.OPEN */\n  0x00\n    /* \"contracts/3_Ballot.sol\":576:589  lottery_state */\n  0x05\n  0x00\n    /* \"contracts/3_Ballot.sol\":576:610  lottery_state = LOTTERY_STATE.OPEN */\n  0x0100\n  exp\n  dup2\n  sload\n  dup2\n  0xff\n  mul\n  not\n  and\n  swap1\n  dup4\n  0x02\n  dup2\n  gt\n  iszero\n  tag_4\n  jumpi\n  tag_5\n  tag_6\n  jump\t// in\ntag_5:\ntag_4:\n  mul\n  or\n  swap1\n  sstore\n  pop\n    /* \"contracts/3_Ballot.sol\":660:702  0xF9a29f539eb63fafc725E611c9460f8B764f9069 */\n  0xf9a29f539eb63fafc725e611c9460f8b764f9069\n    /* \"contracts/3_Ballot.sol\":620:636  consumerContract */\n  0x02\n  0x00\n    /* \"contracts/3_Ballot.sol\":620:703  consumerContract = SubscriptionConsumer(0xF9a29f539eb63fafc725E611c9460f8B764f9069) */\n  0x0100\n  exp\n  dup2\n  sload\n  dup2\n  0xffffffffffffffffffffffffffffffffffffffff\n  mul\n  not\n  and\n  swap1\n  dup4\n  0xffffffffffffffffffffffffffffffffffffffff\n  and\n  mul\n  or\n  swap1\n  sstore\n  pop\n    /* \"contracts/3_Ballot.sol\":96:2326  contract Lottery {... */\n  jump(tag_7)\n    /* \"#utility.yul\":7:187   */\ntag_6:\n    /* \"#utility.yul\":55:132   */\n  0x4e487b7100000000000000000000000000000000000000000000000000000000\n    /* \"#utility.yul\":52:53   */\n  0x00\n    /* \"#utility.yul\":45:133   */\n  mstore\n    /* \"#utility.yul\":152:156   */\n  0x21\n    /* \"#utility.yul\":149:150   */\n  0x04\n    /* \"#utility.yul\":142:157   */\n  mstore\n    /* \"#utility.yul\":176:180   */\n  0x24\n    /* \"#utility.yul\":173:174   */\n  0x00\n    /* \"#utility.yul\":166:181   */\n  revert\n    /* \"contracts/3_Ballot.sol\":96:2326  contract Lottery {... */\ntag_7:\n  dataSize(sub_0)\n  dup1\n  dataOffset(sub_0)\n  0x00\n  codecopy\n  0x00\n  return\nstop\n\nsub_0: assembly {\n        /* \"contracts/3_Ballot.sol\":96:2326  contract Lottery {... */\n      mstore(0x40, 0x80)\n      jumpi(tag_1, lt(calldatasize, 0x04))\n      shr(0xe0, calldataload(0x00))\n      dup1\n      0x481c6a75\n      eq\n      tag_3\n      jumpi\n      dup1\n      0x5d495aea\n      eq\n      tag_4\n      jumpi\n      dup1\n      0x81447999\n      eq\n      tag_5\n      jumpi\n      dup1\n      0x8b5b9ccc\n      eq\n      tag_6\n      jumpi\n      dup1\n      0x8e51001d\n      eq\n      tag_7\n      jumpi\n      dup1\n      0xf71d96cb\n      eq\n      tag_8\n      jumpi\n      jump(tag_2)\n    tag_1:\n      jumpi(tag_2, calldatasize)\n        /* \"contracts/3_Ballot.sol\":905:912  manager */\n      0x00\n      dup1\n      sload\n      swap1\n      0x0100\n      exp\n      swap1\n      div\n      0xffffffffffffffffffffffffffffffffffffffff\n      and\n        /* \"contracts/3_Ballot.sol\":882:912  payable(msg.sender) != manager */\n      0xffffffffffffffffffffffffffffffffffffffff\n      and\n        /* \"contracts/3_Ballot.sol\":890:900  msg.sender */\n      caller\n        /* \"contracts/3_Ballot.sol\":882:912  payable(msg.sender) != manager */\n      0xffffffffffffffffffffffffffffffffffffffff\n      and\n      sub\n        /* \"contracts/3_Ballot.sol\":874:947  require(payable(msg.sender) != manager, \"Manager can't play the lottery\") */\n      tag_11\n      jumpi\n      mload(0x40)\n      0x08c379a000000000000000000000000000000000000000000000000000000000\n      dup2\n      mstore\n      0x04\n      add\n      tag_12\n      swap1\n      tag_13\n      jump\t// in\n    tag_12:\n      mload(0x40)\n      dup1\n      swap2\n      sub\n      swap1\n      revert\n    tag_11:\n        /* \"contracts/3_Ballot.sol\":991:1002  0.011 ether */\n      0x27147114878000\n        /* \"contracts/3_Ballot.sol\":978:987  msg.value */\n      callvalue\n        /* \"contracts/3_Ballot.sol\":978:1002  msg.value == 0.011 ether */\n      eq\n        /* \"contracts/3_Ballot.sol\":957:1065  require(... */\n      tag_14\n      jumpi\n      mload(0x40)\n      0x08c379a000000000000000000000000000000000000000000000000000000000\n      dup2\n      mstore\n      0x04\n      add\n      tag_15\n      swap1\n      tag_16\n      jump\t// in\n    tag_15:\n      mload(0x40)\n      dup1\n      swap2\n      sub\n      swap1\n      revert\n    tag_14:\n        /* \"contracts/3_Ballot.sol\":1118:1125  players */\n      0x01\n        /* \"contracts/3_Ballot.sol\":1139:1149  msg.sender */\n      caller\n        /* \"contracts/3_Ballot.sol\":1118:1151  players.push(payable(msg.sender)) */\n      swap1\n      dup1\n      0x01\n      dup2\n      sload\n      add\n      dup1\n      dup3\n      sstore\n      dup1\n      swap2\n      pop\n      pop\n      0x01\n      swap1\n      sub\n      swap1\n      0x00\n      mstore\n      keccak256(0x00, 0x20)\n      add\n      0x00\n      swap1\n      swap2\n      swap1\n      swap2\n      swap1\n      swap2\n      0x0100\n      exp\n      dup2\n      sload\n      dup2\n      0xffffffffffffffffffffffffffffffffffffffff\n      mul\n      not\n      and\n      swap1\n      dup4\n      0xffffffffffffffffffffffffffffffffffffffff\n      and\n      mul\n      or\n      swap1\n      sstore\n      stop\n        /* \"contracts/3_Ballot.sol\":96:2326  contract Lottery {... */\n    tag_2:\n      0x00\n      dup1\n      revert\n        /* \"contracts/3_Ballot.sol\":119:149  address payable public manager */\n    tag_3:\n      callvalue\n      dup1\n      iszero\n      tag_18\n      jumpi\n      0x00\n      dup1\n      revert\n    tag_18:\n      pop\n      tag_19\n      tag_20\n      jump\t// in\n    tag_19:\n      mload(0x40)\n      tag_21\n      swap2\n      swap1\n      tag_22\n      jump\t// in\n    tag_21:\n      mload(0x40)\n      dup1\n      swap2\n      sub\n      swap1\n      return\n        /* \"contracts/3_Ballot.sol\":1560:2322  function pickWinner() public managerOnly {... */\n    tag_4:\n      callvalue\n      dup1\n      iszero\n      tag_23\n      jumpi\n      0x00\n      dup1\n      revert\n    tag_23:\n      pop\n      tag_24\n      tag_25\n      jump\t// in\n    tag_24:\n      stop\n        /* \"contracts/3_Ballot.sol\":472:506  LOTTERY_STATE public lottery_state */\n    tag_5:\n      callvalue\n      dup1\n      iszero\n      tag_26\n      jumpi\n      0x00\n      dup1\n      revert\n    tag_26:\n      pop\n      tag_27\n      tag_28\n      jump\t// in\n    tag_27:\n      mload(0x40)\n      tag_29\n      swap2\n      swap1\n      tag_30\n      jump\t// in\n    tag_29:\n      mload(0x40)\n      dup1\n      swap2\n      sub\n      swap1\n      return\n        /* \"contracts/3_Ballot.sol\":1164:1312  function getPlayers()... */\n    tag_6:\n      callvalue\n      dup1\n      iszero\n      tag_31\n      jumpi\n      0x00\n      dup1\n      revert\n    tag_31:\n      pop\n      tag_32\n      tag_33\n      jump\t// in\n    tag_32:\n      mload(0x40)\n      tag_34\n      swap2\n      swap1\n      tag_35\n      jump\t// in\n    tag_34:\n      mload(0x40)\n      dup1\n      swap2\n      sub\n      swap1\n      return\n        /* \"contracts/3_Ballot.sol\":264:309  mapping(uint => address) public roundToWinner */\n    tag_7:\n      callvalue\n      dup1\n      iszero\n      tag_36\n      jumpi\n      0x00\n      dup1\n      revert\n    tag_36:\n      pop\n      tag_37\n      0x04\n      dup1\n      calldatasize\n      sub\n      dup2\n      add\n      swap1\n      tag_38\n      swap2\n      swap1\n      tag_39\n      jump\t// in\n    tag_38:\n      tag_40\n      jump\t// in\n    tag_37:\n      mload(0x40)\n      tag_41\n      swap2\n      swap1\n      tag_42\n      jump\t// in\n    tag_41:\n      mload(0x40)\n      dup1\n      swap2\n      sub\n      swap1\n      return\n        /* \"contracts/3_Ballot.sol\":155:187  address payable[] public players */\n    tag_8:\n      callvalue\n      dup1\n      iszero\n      tag_43\n      jumpi\n      0x00\n      dup1\n      revert\n    tag_43:\n      pop\n      tag_44\n      0x04\n      dup1\n      calldatasize\n      sub\n      dup2\n      add\n      swap1\n      tag_45\n      swap2\n      swap1\n      tag_39\n      jump\t// in\n    tag_45:\n      tag_46\n      jump\t// in\n    tag_44:\n      mload(0x40)\n      tag_47\n      swap2\n      swap1\n      tag_22\n      jump\t// in\n    tag_47:\n      mload(0x40)\n      dup1\n      swap2\n      sub\n      swap1\n      return\n        /* \"contracts/3_Ballot.sol\":119:149  address payable public manager */\n    tag_20:\n      0x00\n      dup1\n      sload\n      swap1\n      0x0100\n      exp\n      swap1\n      div\n      0xffffffffffffffffffffffffffffffffffffffff\n      and\n      dup2\n      jump\t// out\n        /* \"contracts/3_Ballot.sol\":1560:2322  function pickWinner() public managerOnly {... */\n    tag_25:\n        /* \"contracts/3_Ballot.sol\":771:778  manager */\n      0x00\n      dup1\n      sload\n      swap1\n      0x0100\n      exp\n      swap1\n      div\n      0xffffffffffffffffffffffffffffffffffffffff\n      and\n        /* \"contracts/3_Ballot.sol\":757:778  msg.sender == manager */\n      0xffffffffffffffffffffffffffffffffffffffff\n      and\n        /* \"contracts/3_Ballot.sol\":757:767  msg.sender */\n      caller\n        /* \"contracts/3_Ballot.sol\":757:778  msg.sender == manager */\n      0xffffffffffffffffffffffffffffffffffffffff\n      and\n      eq\n        /* \"contracts/3_Ballot.sol\":749:813  require(msg.sender == manager, \"Can only be caller by manager.\") */\n      tag_49\n      jumpi\n      mload(0x40)\n      0x08c379a000000000000000000000000000000000000000000000000000000000\n      dup2\n      mstore\n      0x04\n      add\n      tag_50\n      swap1\n      tag_51\n      jump\t// in\n    tag_50:\n      mload(0x40)\n      dup1\n      swap2\n      sub\n      swap1\n      revert\n    tag_49:\n        /* \"contracts/3_Ballot.sol\":1637:1638  3 */\n      0x03\n        /* \"contracts/3_Ballot.sol\":1619:1626  players */\n      0x01\n        /* \"contracts/3_Ballot.sol\":1619:1633  players.length */\n      dup1\n      sload\n      swap1\n      pop\n        /* \"contracts/3_Ballot.sol\":1619:1638  players.length >= 3 */\n      lt\n      iszero\n        /* \"contracts/3_Ballot.sol\":1611:1669  require(players.length >= 3, \"Must be at least 3 players\") */\n      tag_53\n      jumpi\n      mload(0x40)\n      0x08c379a000000000000000000000000000000000000000000000000000000000\n      dup2\n      mstore\n      0x04\n      add\n      tag_54\n      swap1\n      tag_55\n      jump\t// in\n    tag_54:\n      mload(0x40)\n      dup1\n      swap2\n      sub\n      swap1\n      revert\n    tag_53:\n        /* \"contracts/3_Ballot.sol\":1679:1689  uint index */\n      0x00\n        /* \"contracts/3_Ballot.sol\":1707:1714  players */\n      0x01\n        /* \"contracts/3_Ballot.sol\":1707:1721  players.length */\n      dup1\n      sload\n      swap1\n      pop\n        /* \"contracts/3_Ballot.sol\":1692:1704  randomizer() */\n      tag_56\n        /* \"contracts/3_Ballot.sol\":1692:1702  randomizer */\n      tag_57\n        /* \"contracts/3_Ballot.sol\":1692:1704  randomizer() */\n      jump\t// in\n    tag_56:\n        /* \"contracts/3_Ballot.sol\":1692:1721  randomizer() % players.length */\n      tag_58\n      swap2\n      swap1\n      tag_59\n      jump\t// in\n    tag_58:\n        /* \"contracts/3_Ballot.sol\":1679:1721  uint index = randomizer() % players.length */\n      swap1\n      pop\n        /* \"contracts/3_Ballot.sol\":1731:1753  address payable winner */\n      0x00\n        /* \"contracts/3_Ballot.sol\":1756:1763  players */\n      0x01\n        /* \"contracts/3_Ballot.sol\":1764:1769  index */\n      dup3\n        /* \"contracts/3_Ballot.sol\":1756:1770  players[index] */\n      dup2\n      sload\n      dup2\n      lt\n      tag_60\n      jumpi\n      tag_61\n      tag_62\n      jump\t// in\n    tag_61:\n    tag_60:\n      swap1\n      0x00\n      mstore\n      keccak256(0x00, 0x20)\n      add\n      0x00\n      swap1\n      sload\n      swap1\n      0x0100\n      exp\n      swap1\n      div\n      0xffffffffffffffffffffffffffffffffffffffff\n      and\n        /* \"contracts/3_Ballot.sol\":1731:1770  address payable winner = players[index] */\n      swap1\n      pop\n        /* \"contracts/3_Ballot.sol\":1814:1830  bool sentManager */\n      0x00\n        /* \"contracts/3_Ballot.sol\":1836:1843  manager */\n      dup1\n      0x00\n      swap1\n      sload\n      swap1\n      0x0100\n      exp\n      swap1\n      div\n      0xffffffffffffffffffffffffffffffffffffffff\n      and\n        /* \"contracts/3_Ballot.sol\":1836:1848  manager.call */\n      0xffffffffffffffffffffffffffffffffffffffff\n      and\n        /* \"contracts/3_Ballot.sol\":1870:1877  players */\n      0x01\n        /* \"contracts/3_Ballot.sol\":1870:1884  players.length */\n      dup1\n      sload\n      swap1\n      pop\n        /* \"contracts/3_Ballot.sol\":1856:1867  0.001 ether */\n      0x038d7ea4c68000\n        /* \"contracts/3_Ballot.sol\":1856:1884  0.001 ether * players.length */\n      tag_64\n      swap2\n      swap1\n      tag_65\n      jump\t// in\n    tag_64:\n        /* \"contracts/3_Ballot.sol\":1836:1889  manager.call{value: 0.001 ether * players.length}(\"\") */\n      mload(0x40)\n      tag_66\n      swap1\n      tag_67\n      jump\t// in\n    tag_66:\n      0x00\n      mload(0x40)\n      dup1\n      dup4\n      sub\n      dup2\n      dup6\n      dup8\n      gas\n      call\n      swap3\n      pop\n      pop\n      pop\n      returndatasize\n      dup1\n      0x00\n      dup2\n      eq\n      tag_70\n      jumpi\n      mload(0x40)\n      swap2\n      pop\n      and(add(returndatasize, 0x3f), not(0x1f))\n      dup3\n      add\n      0x40\n      mstore\n      returndatasize\n      dup3\n      mstore\n      returndatasize\n      0x00\n      0x20\n      dup5\n      add\n      returndatacopy\n      jump(tag_69)\n    tag_70:\n      0x60\n      swap2\n      pop\n    tag_69:\n      pop\n        /* \"contracts/3_Ballot.sol\":1813:1889  (bool sentManager, ) = manager.call{value: 0.001 ether * players.length}(\"\") */\n      pop\n      swap1\n      pop\n        /* \"contracts/3_Ballot.sol\":1947:1958  sentManager */\n      dup1\n        /* \"contracts/3_Ballot.sol\":1939:1990  require(sentManager, \"Failed to send manager fee.\") */\n      tag_71\n      jumpi\n      mload(0x40)\n      0x08c379a000000000000000000000000000000000000000000000000000000000\n      dup2\n      mstore\n      0x04\n      add\n      tag_72\n      swap1\n      tag_73\n      jump\t// in\n    tag_72:\n      mload(0x40)\n      dup1\n      swap2\n      sub\n      swap1\n      revert\n    tag_71:\n        /* \"contracts/3_Ballot.sol\":2065:2080  bool sentWinner */\n      0x00\n        /* \"contracts/3_Ballot.sol\":2086:2092  winner */\n      dup3\n        /* \"contracts/3_Ballot.sol\":2086:2097  winner.call */\n      0xffffffffffffffffffffffffffffffffffffffff\n      and\n        /* \"contracts/3_Ballot.sol\":2105:2126  address(this).balance */\n      selfbalance\n        /* \"contracts/3_Ballot.sol\":2086:2131  winner.call{value: address(this).balance}(\"\") */\n      mload(0x40)\n      tag_74\n      swap1\n      tag_67\n      jump\t// in\n    tag_74:\n      0x00\n      mload(0x40)\n      dup1\n      dup4\n      sub\n      dup2\n      dup6\n      dup8\n      gas\n      call\n      swap3\n      pop\n      pop\n      pop\n      returndatasize\n      dup1\n      0x00\n      dup2\n      eq\n      tag_77\n      jumpi\n      mload(0x40)\n      swap2\n      pop\n      and(add(returndatasize, 0x3f), not(0x1f))\n      dup3\n      add\n      0x40\n      mstore\n      returndatasize\n      dup3\n      mstore\n      returndatasize\n      0x00\n      0x20\n      dup5\n      add\n      returndatacopy\n      jump(tag_76)\n    tag_77:\n      0x60\n      swap2\n      pop\n    tag_76:\n      pop\n        /* \"contracts/3_Ballot.sol\":2064:2131  (bool sentWinner, ) = winner.call{value: address(this).balance}(\"\") */\n      pop\n      swap1\n      pop\n        /* \"contracts/3_Ballot.sol\":2149:2159  sentWinner */\n      dup1\n        /* \"contracts/3_Ballot.sol\":2141:2194  require(sentWinner, \"Failed to send winner's prize.\") */\n      tag_78\n      jumpi\n      mload(0x40)\n      0x08c379a000000000000000000000000000000000000000000000000000000000\n      dup2\n      mstore\n      0x04\n      add\n      tag_79\n      swap1\n      tag_80\n      jump\t// in\n    tag_79:\n      mload(0x40)\n      dup1\n      swap2\n      sub\n      swap1\n      revert\n    tag_78:\n        /* \"contracts/3_Ballot.sol\":2204:2211  roundId */\n      0x03\n      0x00\n        /* \"contracts/3_Ballot.sol\":2204:2213  roundId++ */\n      dup2\n      sload\n      dup1\n      swap3\n      swap2\n      swap1\n      tag_81\n      swap1\n      tag_82\n      jump\t// in\n    tag_81:\n      swap2\n      swap1\n      pop\n      sstore\n      pop\n        /* \"contracts/3_Ballot.sol\":2264:2270  winner */\n      dup3\n        /* \"contracts/3_Ballot.sol\":2239:2252  roundToWinner */\n      0x04\n        /* \"contracts/3_Ballot.sol\":2239:2261  roundToWinner[roundId] */\n      0x00\n        /* \"contracts/3_Ballot.sol\":2253:2260  roundId */\n      sload(0x03)\n        /* \"contracts/3_Ballot.sol\":2239:2261  roundToWinner[roundId] */\n      dup2\n      mstore\n      0x20\n      add\n      swap1\n      dup2\n      mstore\n      0x20\n      add\n      0x00\n      keccak256\n      0x00\n        /* \"contracts/3_Ballot.sol\":2239:2270  roundToWinner[roundId] = winner */\n      0x0100\n      exp\n      dup2\n      sload\n      dup2\n      0xffffffffffffffffffffffffffffffffffffffff\n      mul\n      not\n      and\n      swap1\n      dup4\n      0xffffffffffffffffffffffffffffffffffffffff\n      and\n      mul\n      or\n      swap1\n      sstore\n      pop\n        /* \"contracts/3_Ballot.sol\":2312:2313  0 */\n      0x00\n        /* \"contracts/3_Ballot.sol\":2290:2314  new address payable[](0) */\n      0xffffffffffffffff\n      dup2\n      gt\n      iszero\n      tag_83\n      jumpi\n      tag_84\n      tag_85\n      jump\t// in\n    tag_84:\n    tag_83:\n      mload(0x40)\n      swap1\n      dup1\n      dup3\n      mstore\n      dup1\n      0x20\n      mul\n      0x20\n      add\n      dup3\n      add\n      0x40\n      mstore\n      dup1\n      iszero\n      tag_86\n      jumpi\n      dup2\n      0x20\n      add\n      0x20\n      dup3\n      mul\n      dup1\n      calldatasize\n      dup4\n      calldatacopy\n      dup1\n      dup3\n      add\n      swap2\n      pop\n      pop\n      swap1\n      pop\n    tag_86:\n      pop\n        /* \"contracts/3_Ballot.sol\":2280:2287  players */\n      0x01\n        /* \"contracts/3_Ballot.sol\":2280:2314  players = new address payable[](0) */\n      swap1\n      dup1\n      mload\n      swap1\n      0x20\n      add\n      swap1\n      tag_87\n      swap3\n      swap2\n      swap1\n      tag_88\n      jump\t// in\n    tag_87:\n      pop\n        /* \"contracts/3_Ballot.sol\":1601:2322  {... */\n      pop\n      pop\n      pop\n      pop\n        /* \"contracts/3_Ballot.sol\":1560:2322  function pickWinner() public managerOnly {... */\n      jump\t// out\n        /* \"contracts/3_Ballot.sol\":472:506  LOTTERY_STATE public lottery_state */\n    tag_28:\n      0x05\n      0x00\n      swap1\n      sload\n      swap1\n      0x0100\n      exp\n      swap1\n      div\n      0xff\n      and\n      dup2\n      jump\t// out\n        /* \"contracts/3_Ballot.sol\":1164:1312  function getPlayers()... */\n    tag_33:\n        /* \"contracts/3_Ballot.sol\":1251:1275  address payable[] memory */\n      0x60\n        /* \"contracts/3_Ballot.sol\":771:778  manager */\n      0x00\n      dup1\n      sload\n      swap1\n      0x0100\n      exp\n      swap1\n      div\n      0xffffffffffffffffffffffffffffffffffffffff\n      and\n        /* \"contracts/3_Ballot.sol\":757:778  msg.sender == manager */\n      0xffffffffffffffffffffffffffffffffffffffff\n      and\n        /* \"contracts/3_Ballot.sol\":757:767  msg.sender */\n      caller\n        /* \"contracts/3_Ballot.sol\":757:778  msg.sender == manager */\n      0xffffffffffffffffffffffffffffffffffffffff\n      and\n      eq\n        /* \"contracts/3_Ballot.sol\":749:813  require(msg.sender == manager, \"Can only be caller by manager.\") */\n      tag_90\n      jumpi\n      mload(0x40)\n      0x08c379a000000000000000000000000000000000000000000000000000000000\n      dup2\n      mstore\n      0x04\n      add\n      tag_91\n      swap1\n      tag_51\n      jump\t// in\n    tag_91:\n      mload(0x40)\n      dup1\n      swap2\n      sub\n      swap1\n      revert\n    tag_90:\n        /* \"contracts/3_Ballot.sol\":1298:1305  players */\n      0x01\n        /* \"contracts/3_Ballot.sol\":1291:1305  return players */\n      dup1\n      sload\n      dup1\n      0x20\n      mul\n      0x20\n      add\n      mload(0x40)\n      swap1\n      dup2\n      add\n      0x40\n      mstore\n      dup1\n      swap3\n      swap2\n      swap1\n      dup2\n      dup2\n      mstore\n      0x20\n      add\n      dup3\n      dup1\n      sload\n      dup1\n      iszero\n      tag_93\n      jumpi\n      0x20\n      mul\n      dup3\n      add\n      swap2\n      swap1\n      0x00\n      mstore\n      keccak256(0x00, 0x20)\n      swap1\n    tag_94:\n      dup2\n      0x00\n      swap1\n      sload\n      swap1\n      0x0100\n      exp\n      swap1\n      div\n      0xffffffffffffffffffffffffffffffffffffffff\n      and\n      0xffffffffffffffffffffffffffffffffffffffff\n      and\n      dup2\n      mstore\n      0x20\n      add\n      swap1\n      0x01\n      add\n      swap1\n      dup1\n      dup4\n      gt\n      tag_94\n      jumpi\n    tag_93:\n      pop\n      pop\n      pop\n      pop\n      pop\n      swap1\n      pop\n        /* \"contracts/3_Ballot.sol\":1164:1312  function getPlayers()... */\n      swap1\n      jump\t// out\n        /* \"contracts/3_Ballot.sol\":264:309  mapping(uint => address) public roundToWinner */\n    tag_40:\n      mstore(0x20, 0x04)\n      dup1\n      0x00\n      mstore\n      keccak256(0x00, 0x40)\n      0x00\n      swap2\n      pop\n      sload\n      swap1\n      0x0100\n      exp\n      swap1\n      div\n      0xffffffffffffffffffffffffffffffffffffffff\n      and\n      dup2\n      jump\t// out\n        /* \"contracts/3_Ballot.sol\":155:187  address payable[] public players */\n    tag_46:\n      0x01\n      dup2\n      dup2\n      sload\n      dup2\n      lt\n      tag_95\n      jumpi\n      0x00\n      dup1\n      revert\n    tag_95:\n      swap1\n      0x00\n      mstore\n      keccak256(0x00, 0x20)\n      add\n      0x00\n      swap2\n      pop\n      sload\n      swap1\n      0x0100\n      exp\n      swap1\n      div\n      0xffffffffffffffffffffffffffffffffffffffff\n      and\n      dup2\n      jump\t// out\n        /* \"contracts/3_Ballot.sol\":1318:1550  function randomizer() internal view returns (uint) {... */\n    tag_57:\n        /* \"contracts/3_Ballot.sol\":1363:1367  uint */\n      0x00\n        /* \"contracts/3_Ballot.sol\":1468:1484  block.prevrandao */\n      prevrandao\n        /* \"contracts/3_Ballot.sol\":1486:1501  block.timestamp */\n      timestamp\n        /* \"contracts/3_Ballot.sol\":1503:1510  players */\n      0x01\n        /* \"contracts/3_Ballot.sol\":1451:1511  abi.encodePacked(block.prevrandao, block.timestamp, players) */\n      add(0x20, mload(0x40))\n      tag_98\n      swap4\n      swap3\n      swap2\n      swap1\n      tag_99\n      jump\t// in\n    tag_98:\n      mload(0x40)\n      0x20\n      dup2\n      dup4\n      sub\n      sub\n      dup2\n      mstore\n      swap1\n      0x40\n      mstore\n        /* \"contracts/3_Ballot.sol\":1420:1529  keccak256(... */\n      dup1\n      mload\n      swap1\n      0x20\n      add\n      keccak256\n        /* \"contracts/3_Ballot.sol\":1398:1543  uint(... */\n      0x00\n      shr\n        /* \"contracts/3_Ballot.sol\":1379:1543  return... */\n      swap1\n      pop\n        /* \"contracts/3_Ballot.sol\":1318:1550  function randomizer() internal view returns (uint) {... */\n      swap1\n      jump\t// out\n    tag_88:\n      dup3\n      dup1\n      sload\n      dup3\n      dup3\n      sstore\n      swap1\n      0x00\n      mstore\n      keccak256(0x00, 0x20)\n      swap1\n      dup2\n      add\n      swap3\n      dup3\n      iszero\n      tag_100\n      jumpi\n      swap2\n      0x20\n      mul\n      dup3\n      add\n    tag_101:\n      dup3\n      dup2\n      gt\n      iszero\n      tag_102\n      jumpi\n      dup3\n      mload\n      dup3\n      exp(0x0100, 0x00)\n      dup2\n      sload\n      dup2\n      0xffffffffffffffffffffffffffffffffffffffff\n      mul\n      not\n      and\n      swap1\n      dup4\n      0xffffffffffffffffffffffffffffffffffffffff\n      and\n      mul\n      or\n      swap1\n      sstore\n      pop\n      swap2\n      0x20\n      add\n      swap2\n      swap1\n      0x01\n      add\n      swap1\n      jump(tag_101)\n    tag_102:\n    tag_100:\n      pop\n      swap1\n      pop\n      tag_103\n      swap2\n      swap1\n      tag_104\n      jump\t// in\n    tag_103:\n      pop\n      swap1\n      jump\t// out\n    tag_104:\n    tag_105:\n      dup1\n      dup3\n      gt\n      iszero\n      tag_106\n      jumpi\n      0x00\n      dup2\n      0x00\n      swap1\n      sstore\n      pop\n      0x01\n      add\n      jump(tag_105)\n    tag_106:\n      pop\n      swap1\n      jump\t// out\n        /* \"#utility.yul\":7:176   */\n    tag_107:\n        /* \"#utility.yul\":91:102   */\n      0x00\n        /* \"#utility.yul\":125:131   */\n      dup3\n        /* \"#utility.yul\":120:123   */\n      dup3\n        /* \"#utility.yul\":113:132   */\n      mstore\n        /* \"#utility.yul\":165:169   */\n      0x20\n        /* \"#utility.yul\":160:163   */\n      dup3\n        /* \"#utility.yul\":156:170   */\n      add\n        /* \"#utility.yul\":141:170   */\n      swap1\n      pop\n        /* \"#utility.yul\":7:176   */\n      swap3\n      swap2\n      pop\n      pop\n      jump\t// out\n        /* \"#utility.yul\":182:362   */\n    tag_108:\n        /* \"#utility.yul\":322:354   */\n      0x4d616e616765722063616e277420706c617920746865206c6f74746572790000\n        /* \"#utility.yul\":318:319   */\n      0x00\n        /* \"#utility.yul\":310:316   */\n      dup3\n        /* \"#utility.yul\":306:320   */\n      add\n        /* \"#utility.yul\":299:355   */\n      mstore\n        /* \"#utility.yul\":182:362   */\n      pop\n      jump\t// out\n        /* \"#utility.yul\":368:734   */\n    tag_109:\n        /* \"#utility.yul\":510:513   */\n      0x00\n        /* \"#utility.yul\":531:598   */\n      tag_165\n        /* \"#utility.yul\":595:597   */\n      0x1e\n        /* \"#utility.yul\":590:593   */\n      dup4\n        /* \"#utility.yul\":531:598   */\n      tag_107\n      jump\t// in\n    tag_165:\n        /* \"#utility.yul\":524:598   */\n      swap2\n      pop\n        /* \"#utility.yul\":607:700   */\n      tag_166\n        /* \"#utility.yul\":696:699   */\n      dup3\n        /* \"#utility.yul\":607:700   */\n      tag_108\n      jump\t// in\n    tag_166:\n        /* \"#utility.yul\":725:727   */\n      0x20\n        /* \"#utility.yul\":720:723   */\n      dup3\n        /* \"#utility.yul\":716:728   */\n      add\n        /* \"#utility.yul\":709:728   */\n      swap1\n      pop\n        /* \"#utility.yul\":368:734   */\n      swap2\n      swap1\n      pop\n      jump\t// out\n        /* \"#utility.yul\":740:1159   */\n    tag_13:\n        /* \"#utility.yul\":906:910   */\n      0x00\n        /* \"#utility.yul\":944:946   */\n      0x20\n        /* \"#utility.yul\":933:942   */\n      dup3\n        /* \"#utility.yul\":929:947   */\n      add\n        /* \"#utility.yul\":921:947   */\n      swap1\n      pop\n        /* \"#utility.yul\":993:1002   */\n      dup2\n        /* \"#utility.yul\":987:991   */\n      dup2\n        /* \"#utility.yul\":983:1003   */\n      sub\n        /* \"#utility.yul\":979:980   */\n      0x00\n        /* \"#utility.yul\":968:977   */\n      dup4\n        /* \"#utility.yul\":964:981   */\n      add\n        /* \"#utility.yul\":957:1004   */\n      mstore\n        /* \"#utility.yul\":1021:1152   */\n      tag_168\n        /* \"#utility.yul\":1147:1151   */\n      dup2\n        /* \"#utility.yul\":1021:1152   */\n      tag_109\n      jump\t// in\n    tag_168:\n        /* \"#utility.yul\":1013:1152   */\n      swap1\n      pop\n        /* \"#utility.yul\":740:1159   */\n      swap2\n      swap1\n      pop\n      jump\t// out\n        /* \"#utility.yul\":1165:1389   */\n    tag_110:\n        /* \"#utility.yul\":1305:1339   */\n      0x4d75737420626520302e30313145544820746f20656e74657220746865206c6f\n        /* \"#utility.yul\":1301:1302   */\n      0x00\n        /* \"#utility.yul\":1293:1299   */\n      dup3\n        /* \"#utility.yul\":1289:1303   */\n      add\n        /* \"#utility.yul\":1282:1340   */\n      mstore\n        /* \"#utility.yul\":1374:1381   */\n      0x7474657279000000000000000000000000000000000000000000000000000000\n        /* \"#utility.yul\":1369:1371   */\n      0x20\n        /* \"#utility.yul\":1361:1367   */\n      dup3\n        /* \"#utility.yul\":1357:1372   */\n      add\n        /* \"#utility.yul\":1350:1382   */\n      mstore\n        /* \"#utility.yul\":1165:1389   */\n      pop\n      jump\t// out\n        /* \"#utility.yul\":1395:1761   */\n    tag_111:\n        /* \"#utility.yul\":1537:1540   */\n      0x00\n        /* \"#utility.yul\":1558:1625   */\n      tag_171\n        /* \"#utility.yul\":1622:1624   */\n      0x25\n        /* \"#utility.yul\":1617:1620   */\n      dup4\n        /* \"#utility.yul\":1558:1625   */\n      tag_107\n      jump\t// in\n    tag_171:\n        /* \"#utility.yul\":1551:1625   */\n      swap2\n      pop\n        /* \"#utility.yul\":1634:1727   */\n      tag_172\n        /* \"#utility.yul\":1723:1726   */\n      dup3\n        /* \"#utility.yul\":1634:1727   */\n      tag_110\n      jump\t// in\n    tag_172:\n        /* \"#utility.yul\":1752:1754   */\n      0x40\n        /* \"#utility.yul\":1747:1750   */\n      dup3\n        /* \"#utility.yul\":1743:1755   */\n      add\n        /* \"#utility.yul\":1736:1755   */\n      swap1\n      pop\n        /* \"#utility.yul\":1395:1761   */\n      swap2\n      swap1\n      pop\n      jump\t// out\n        /* \"#utility.yul\":1767:2186   */\n    tag_16:\n        /* \"#utility.yul\":1933:1937   */\n      0x00\n        /* \"#utility.yul\":1971:1973   */\n      0x20\n        /* \"#utility.yul\":1960:1969   */\n      dup3\n        /* \"#utility.yul\":1956:1974   */\n      add\n        /* \"#utility.yul\":1948:1974   */\n      swap1\n      pop\n        /* \"#utility.yul\":2020:2029   */\n      dup2\n        /* \"#utility.yul\":2014:2018   */\n      dup2\n        /* \"#utility.yul\":2010:2030   */\n      sub\n        /* \"#utility.yul\":2006:2007   */\n      0x00\n        /* \"#utility.yul\":1995:2004   */\n      dup4\n        /* \"#utility.yul\":1991:2008   */\n      add\n        /* \"#utility.yul\":1984:2031   */\n      mstore\n        /* \"#utility.yul\":2048:2179   */\n      tag_174\n        /* \"#utility.yul\":2174:2178   */\n      dup2\n        /* \"#utility.yul\":2048:2179   */\n      tag_111\n      jump\t// in\n    tag_174:\n        /* \"#utility.yul\":2040:2179   */\n      swap1\n      pop\n        /* \"#utility.yul\":1767:2186   */\n      swap2\n      swap1\n      pop\n      jump\t// out\n        /* \"#utility.yul\":2192:2318   */\n    tag_112:\n        /* \"#utility.yul\":2229:2236   */\n      0x00\n        /* \"#utility.yul\":2269:2311   */\n      0xffffffffffffffffffffffffffffffffffffffff\n        /* \"#utility.yul\":2262:2267   */\n      dup3\n        /* \"#utility.yul\":2258:2312   */\n      and\n        /* \"#utility.yul\":2247:2312   */\n      swap1\n      pop\n        /* \"#utility.yul\":2192:2318   */\n      swap2\n      swap1\n      pop\n      jump\t// out\n        /* \"#utility.yul\":2324:2428   */\n    tag_113:\n        /* \"#utility.yul\":2369:2376   */\n      0x00\n        /* \"#utility.yul\":2398:2422   */\n      tag_177\n        /* \"#utility.yul\":2416:2421   */\n      dup3\n        /* \"#utility.yul\":2398:2422   */\n      tag_112\n      jump\t// in\n    tag_177:\n        /* \"#utility.yul\":2387:2422   */\n      swap1\n      pop\n        /* \"#utility.yul\":2324:2428   */\n      swap2\n      swap1\n      pop\n      jump\t// out\n        /* \"#utility.yul\":2434:2576   */\n    tag_114:\n        /* \"#utility.yul\":2537:2569   */\n      tag_179\n        /* \"#utility.yul\":2563:2568   */\n      dup2\n        /* \"#utility.yul\":2537:2569   */\n      tag_113\n      jump\t// in\n    tag_179:\n        /* \"#utility.yul\":2532:2535   */\n      dup3\n        /* \"#utility.yul\":2525:2570   */\n      mstore\n        /* \"#utility.yul\":2434:2576   */\n      pop\n      pop\n      jump\t// out\n        /* \"#utility.yul\":2582:2836   */\n    tag_22:\n        /* \"#utility.yul\":2691:2695   */\n      0x00\n        /* \"#utility.yul\":2729:2731   */\n      0x20\n        /* \"#utility.yul\":2718:2727   */\n      dup3\n        /* \"#utility.yul\":2714:2732   */\n      add\n        /* \"#utility.yul\":2706:2732   */\n      swap1\n      pop\n        /* \"#utility.yul\":2742:2829   */\n      tag_181\n        /* \"#utility.yul\":2826:2827   */\n      0x00\n        /* \"#utility.yul\":2815:2824   */\n      dup4\n        /* \"#utility.yul\":2811:2828   */\n      add\n        /* \"#utility.yul\":2802:2808   */\n      dup5\n        /* \"#utility.yul\":2742:2829   */\n      tag_114\n      jump\t// in\n    tag_181:\n        /* \"#utility.yul\":2582:2836   */\n      swap3\n      swap2\n      pop\n      pop\n      jump\t// out\n        /* \"#utility.yul\":2842:3022   */\n    tag_115:\n        /* \"#utility.yul\":2890:2967   */\n      0x4e487b7100000000000000000000000000000000000000000000000000000000\n        /* \"#utility.yul\":2887:2888   */\n      0x00\n        /* \"#utility.yul\":2880:2968   */\n      mstore\n        /* \"#utility.yul\":2987:2991   */\n      0x21\n        /* \"#utility.yul\":2984:2985   */\n      0x04\n        /* \"#utility.yul\":2977:2992   */\n      mstore\n        /* \"#utility.yul\":3011:3015   */\n      0x24\n        /* \"#utility.yul\":3008:3009   */\n      0x00\n        /* \"#utility.yul\":3001:3016   */\n      revert\n        /* \"#utility.yul\":3028:3150   */\n    tag_116:\n        /* \"#utility.yul\":3118:3119   */\n      0x03\n        /* \"#utility.yul\":3111:3116   */\n      dup2\n        /* \"#utility.yul\":3108:3120   */\n      lt\n        /* \"#utility.yul\":3098:3144   */\n      tag_184\n      jumpi\n        /* \"#utility.yul\":3124:3142   */\n      tag_185\n      tag_115\n      jump\t// in\n    tag_185:\n        /* \"#utility.yul\":3098:3144   */\n    tag_184:\n        /* \"#utility.yul\":3028:3150   */\n      pop\n      jump\t// out\n        /* \"#utility.yul\":3156:3301   */\n    tag_117:\n        /* \"#utility.yul\":3210:3217   */\n      0x00\n        /* \"#utility.yul\":3239:3244   */\n      dup2\n        /* \"#utility.yul\":3228:3244   */\n      swap1\n      pop\n        /* \"#utility.yul\":3245:3295   */\n      tag_187\n        /* \"#utility.yul\":3289:3294   */\n      dup3\n        /* \"#utility.yul\":3245:3295   */\n      tag_116\n      jump\t// in\n    tag_187:\n        /* \"#utility.yul\":3156:3301   */\n      swap2\n      swap1\n      pop\n      jump\t// out\n        /* \"#utility.yul\":3307:3452   */\n    tag_118:\n        /* \"#utility.yul\":3372:3381   */\n      0x00\n        /* \"#utility.yul\":3405:3446   */\n      tag_189\n        /* \"#utility.yul\":3440:3445   */\n      dup3\n        /* \"#utility.yul\":3405:3446   */\n      tag_117\n      jump\t// in\n    tag_189:\n        /* \"#utility.yul\":3392:3446   */\n      swap1\n      pop\n        /* \"#utility.yul\":3307:3452   */\n      swap2\n      swap1\n      pop\n      jump\t// out\n        /* \"#utility.yul\":3458:3619   */\n    tag_119:\n        /* \"#utility.yul\":3560:3612   */\n      tag_191\n        /* \"#utility.yul\":3606:3611   */\n      dup2\n        /* \"#utility.yul\":3560:3612   */\n      tag_118\n      jump\t// in\n    tag_191:\n        /* \"#utility.yul\":3555:3558   */\n      dup3\n        /* \"#utility.yul\":3548:3613   */\n      mstore\n        /* \"#utility.yul\":3458:3619   */\n      pop\n      pop\n      jump\t// out\n        /* \"#utility.yul\":3625:3877   */\n    tag_30:\n        /* \"#utility.yul\":3733:3737   */\n      0x00\n        /* \"#utility.yul\":3771:3773   */\n      0x20\n        /* \"#utility.yul\":3760:3769   */\n      dup3\n        /* \"#utility.yul\":3756:3774   */\n      add\n        /* \"#utility.yul\":3748:3774   */\n      swap1\n      pop\n        /* \"#utility.yul\":3784:3870   */\n      tag_193\n        /* \"#utility.yul\":3867:3868   */\n      0x00\n        /* \"#utility.yul\":3856:3865   */\n      dup4\n        /* \"#utility.yul\":3852:3869   */\n      add\n        /* \"#utility.yul\":3843:3849   */\n      dup5\n        /* \"#utility.yul\":3784:3870   */\n      tag_119\n      jump\t// in\n    tag_193:\n        /* \"#utility.yul\":3625:3877   */\n      swap3\n      swap2\n      pop\n      pop\n      jump\t// out\n        /* \"#utility.yul\":3883:4005   */\n    tag_120:\n        /* \"#utility.yul\":3958:3964   */\n      0x00\n        /* \"#utility.yul\":3992:3997   */\n      dup2\n        /* \"#utility.yul\":3986:3998   */\n      mload\n        /* \"#utility.yul\":3976:3998   */\n      swap1\n      pop\n        /* \"#utility.yul\":3883:4005   */\n      swap2\n      swap1\n      pop\n      jump\t// out\n        /* \"#utility.yul\":4011:4203   */\n    tag_121:\n        /* \"#utility.yul\":4118:4129   */\n      0x00\n        /* \"#utility.yul\":4152:4158   */\n      dup3\n        /* \"#utility.yul\":4147:4150   */\n      dup3\n        /* \"#utility.yul\":4140:4159   */\n      mstore\n        /* \"#utility.yul\":4192:4196   */\n      0x20\n        /* \"#utility.yul\":4187:4190   */\n      dup3\n        /* \"#utility.yul\":4183:4197   */\n      add\n        /* \"#utility.yul\":4168:4197   */\n      swap1\n      pop\n        /* \"#utility.yul\":4011:4203   */\n      swap3\n      swap2\n      pop\n      pop\n      jump\t// out\n        /* \"#utility.yul\":4209:4349   */\n    tag_122:\n        /* \"#utility.yul\":4284:4288   */\n      0x00\n        /* \"#utility.yul\":4307:4310   */\n      dup2\n        /* \"#utility.yul\":4299:4310   */\n      swap1\n      pop\n        /* \"#utility.yul\":4337:4341   */\n      0x20\n        /* \"#utility.yul\":4332:4335   */\n      dup3\n        /* \"#utility.yul\":4328:4342   */\n      add\n        /* \"#utility.yul\":4320:4342   */\n      swap1\n      pop\n        /* \"#utility.yul\":4209:4349   */\n      swap2\n      swap1\n      pop\n      jump\t// out\n        /* \"#utility.yul\":4355:4487   */\n    tag_123:\n        /* \"#utility.yul\":4448:4480   */\n      tag_198\n        /* \"#utility.yul\":4474:4479   */\n      dup2\n        /* \"#utility.yul\":4448:4480   */\n      tag_113\n      jump\t// in\n    tag_198:\n        /* \"#utility.yul\":4443:4446   */\n      dup3\n        /* \"#utility.yul\":4436:4481   */\n      mstore\n        /* \"#utility.yul\":4355:4487   */\n      pop\n      pop\n      jump\t// out\n        /* \"#utility.yul\":4493:4704   */\n    tag_124:\n        /* \"#utility.yul\":4578:4588   */\n      0x00\n        /* \"#utility.yul\":4599:4661   */\n      tag_200\n        /* \"#utility.yul\":4657:4660   */\n      dup4\n        /* \"#utility.yul\":4649:4655   */\n      dup4\n        /* \"#utility.yul\":4599:4661   */\n      tag_123\n      jump\t// in\n    tag_200:\n        /* \"#utility.yul\":4693:4697   */\n      0x20\n        /* \"#utility.yul\":4688:4691   */\n      dup4\n        /* \"#utility.yul\":4684:4698   */\n      add\n        /* \"#utility.yul\":4670:4698   */\n      swap1\n      pop\n        /* \"#utility.yul\":4493:4704   */\n      swap3\n      swap2\n      pop\n      pop\n      jump\t// out\n        /* \"#utility.yul\":4710:4831   */\n    tag_125:\n        /* \"#utility.yul\":4788:4792   */\n      0x00\n        /* \"#utility.yul\":4820:4824   */\n      0x20\n        /* \"#utility.yul\":4815:4818   */\n      dup3\n        /* \"#utility.yul\":4811:4825   */\n      add\n        /* \"#utility.yul\":4803:4825   */\n      swap1\n      pop\n        /* \"#utility.yul\":4710:4831   */\n      swap2\n      swap1\n      pop\n      jump\t// out\n        /* \"#utility.yul\":4883:5679   */\n    tag_126:\n        /* \"#utility.yul\":5018:5021   */\n      0x00\n        /* \"#utility.yul\":5047:5109   */\n      tag_203\n        /* \"#utility.yul\":5103:5108   */\n      dup3\n        /* \"#utility.yul\":5047:5109   */\n      tag_120\n      jump\t// in\n    tag_203:\n        /* \"#utility.yul\":5125:5219   */\n      tag_204\n        /* \"#utility.yul\":5212:5218   */\n      dup2\n        /* \"#utility.yul\":5207:5210   */\n      dup6\n        /* \"#utility.yul\":5125:5219   */\n      tag_121\n      jump\t// in\n    tag_204:\n        /* \"#utility.yul\":5118:5219   */\n      swap4\n      pop\n        /* \"#utility.yul\":5243:5307   */\n      tag_205\n        /* \"#utility.yul\":5301:5306   */\n      dup4\n        /* \"#utility.yul\":5243:5307   */\n      tag_122\n      jump\t// in\n    tag_205:\n        /* \"#utility.yul\":5330:5337   */\n      dup1\n        /* \"#utility.yul\":5361:5362   */\n      0x00\n        /* \"#utility.yul\":5346:5654   */\n    tag_206:\n        /* \"#utility.yul\":5371:5377   */\n      dup4\n        /* \"#utility.yul\":5368:5369   */\n      dup2\n        /* \"#utility.yul\":5365:5378   */\n      lt\n        /* \"#utility.yul\":5346:5654   */\n      iszero\n      tag_208\n      jumpi\n        /* \"#utility.yul\":5447:5453   */\n      dup2\n        /* \"#utility.yul\":5441:5454   */\n      mload\n        /* \"#utility.yul\":5474:5553   */\n      tag_209\n        /* \"#utility.yul\":5549:5552   */\n      dup9\n        /* \"#utility.yul\":5534:5547   */\n      dup3\n        /* \"#utility.yul\":5474:5553   */\n      tag_124\n      jump\t// in\n    tag_209:\n        /* \"#utility.yul\":5467:5553   */\n      swap8\n      pop\n        /* \"#utility.yul\":5576:5644   */\n      tag_210\n        /* \"#utility.yul\":5637:5643   */\n      dup4\n        /* \"#utility.yul\":5576:5644   */\n      tag_125\n      jump\t// in\n    tag_210:\n        /* \"#utility.yul\":5566:5644   */\n      swap3\n      pop\n        /* \"#utility.yul\":5406:5654   */\n      pop\n        /* \"#utility.yul\":5393:5394   */\n      0x01\n        /* \"#utility.yul\":5390:5391   */\n      dup2\n        /* \"#utility.yul\":5386:5395   */\n      add\n        /* \"#utility.yul\":5381:5395   */\n      swap1\n      pop\n        /* \"#utility.yul\":5346:5654   */\n      jump(tag_206)\n    tag_208:\n        /* \"#utility.yul\":5350:5364   */\n      pop\n        /* \"#utility.yul\":5670:5673   */\n      dup6\n        /* \"#utility.yul\":5663:5673   */\n      swap4\n      pop\n        /* \"#utility.yul\":5023:5679   */\n      pop\n      pop\n      pop\n        /* \"#utility.yul\":4883:5679   */\n      swap3\n      swap2\n      pop\n      pop\n      jump\t// out\n        /* \"#utility.yul\":5685:6090   */\n    tag_35:\n        /* \"#utility.yul\":5844:5848   */\n      0x00\n        /* \"#utility.yul\":5882:5884   */\n      0x20\n        /* \"#utility.yul\":5871:5880   */\n      dup3\n        /* \"#utility.yul\":5867:5885   */\n      add\n        /* \"#utility.yul\":5859:5885   */\n      swap1\n      pop\n        /* \"#utility.yul\":5931:5940   */\n      dup2\n        /* \"#utility.yul\":5925:5929   */\n      dup2\n        /* \"#utility.yul\":5921:5941   */\n      sub\n        /* \"#utility.yul\":5917:5918   */\n      0x00\n        /* \"#utility.yul\":5906:5915   */\n      dup4\n        /* \"#utility.yul\":5902:5919   */\n      add\n        /* \"#utility.yul\":5895:5942   */\n      mstore\n        /* \"#utility.yul\":5959:6083   */\n      tag_212\n        /* \"#utility.yul\":6078:6082   */\n      dup2\n        /* \"#utility.yul\":6069:6075   */\n      dup5\n        /* \"#utility.yul\":5959:6083   */\n      tag_126\n      jump\t// in\n    tag_212:\n        /* \"#utility.yul\":5951:6083   */\n      swap1\n      pop\n        /* \"#utility.yul\":5685:6090   */\n      swap3\n      swap2\n      pop\n      pop\n      jump\t// out\n        /* \"#utility.yul\":6177:6294   */\n    tag_128:\n        /* \"#utility.yul\":6286:6287   */\n      0x00\n        /* \"#utility.yul\":6283:6284   */\n      dup1\n        /* \"#utility.yul\":6276:6288   */\n      revert\n        /* \"#utility.yul\":6423:6500   */\n    tag_130:\n        /* \"#utility.yul\":6460:6467   */\n      0x00\n        /* \"#utility.yul\":6489:6494   */\n      dup2\n        /* \"#utility.yul\":6478:6494   */\n      swap1\n      pop\n        /* \"#utility.yul\":6423:6500   */\n      swap2\n      swap1\n      pop\n      jump\t// out\n        /* \"#utility.yul\":6506:6628   */\n    tag_131:\n        /* \"#utility.yul\":6579:6603   */\n      tag_218\n        /* \"#utility.yul\":6597:6602   */\n      dup2\n        /* \"#utility.yul\":6579:6603   */\n      tag_130\n      jump\t// in\n    tag_218:\n        /* \"#utility.yul\":6572:6577   */\n      dup2\n        /* \"#utility.yul\":6569:6604   */\n      eq\n        /* \"#utility.yul\":6559:6622   */\n      tag_219\n      jumpi\n        /* \"#utility.yul\":6618:6619   */\n      0x00\n        /* \"#utility.yul\":6615:6616   */\n      dup1\n        /* \"#utility.yul\":6608:6620   */\n      revert\n        /* \"#utility.yul\":6559:6622   */\n    tag_219:\n        /* \"#utility.yul\":6506:6628   */\n      pop\n      jump\t// out\n        /* \"#utility.yul\":6634:6773   */\n    tag_132:\n        /* \"#utility.yul\":6680:6685   */\n      0x00\n        /* \"#utility.yul\":6718:6724   */\n      dup2\n        /* \"#utility.yul\":6705:6725   */\n      calldataload\n        /* \"#utility.yul\":6696:6725   */\n      swap1\n      pop\n        /* \"#utility.yul\":6734:6767   */\n      tag_221\n        /* \"#utility.yul\":6761:6766   */\n      dup2\n        /* \"#utility.yul\":6734:6767   */\n      tag_131\n      jump\t// in\n    tag_221:\n        /* \"#utility.yul\":6634:6773   */\n      swap3\n      swap2\n      pop\n      pop\n      jump\t// out\n        /* \"#utility.yul\":6779:7108   */\n    tag_39:\n        /* \"#utility.yul\":6838:6844   */\n      0x00\n        /* \"#utility.yul\":6887:6889   */\n      0x20\n        /* \"#utility.yul\":6875:6884   */\n      dup3\n        /* \"#utility.yul\":6866:6873   */\n      dup5\n        /* \"#utility.yul\":6862:6885   */\n      sub\n        /* \"#utility.yul\":6858:6890   */\n      slt\n        /* \"#utility.yul\":6855:6974   */\n      iszero\n      tag_223\n      jumpi\n        /* \"#utility.yul\":6893:6972   */\n      tag_224\n      tag_128\n      jump\t// in\n    tag_224:\n        /* \"#utility.yul\":6855:6974   */\n    tag_223:\n        /* \"#utility.yul\":7013:7014   */\n      0x00\n        /* \"#utility.yul\":7038:7091   */\n      tag_225\n        /* \"#utility.yul\":7083:7090   */\n      dup5\n        /* \"#utility.yul\":7074:7080   */\n      dup3\n        /* \"#utility.yul\":7063:7072   */\n      dup6\n        /* \"#utility.yul\":7059:7081   */\n      add\n        /* \"#utility.yul\":7038:7091   */\n      tag_132\n      jump\t// in\n    tag_225:\n        /* \"#utility.yul\":7028:7091   */\n      swap2\n      pop\n        /* \"#utility.yul\":6984:7101   */\n      pop\n        /* \"#utility.yul\":6779:7108   */\n      swap3\n      swap2\n      pop\n      pop\n      jump\t// out\n        /* \"#utility.yul\":7114:7210   */\n    tag_133:\n        /* \"#utility.yul\":7151:7158   */\n      0x00\n        /* \"#utility.yul\":7180:7204   */\n      tag_227\n        /* \"#utility.yul\":7198:7203   */\n      dup3\n        /* \"#utility.yul\":7180:7204   */\n      tag_112\n      jump\t// in\n    tag_227:\n        /* \"#utility.yul\":7169:7204   */\n      swap1\n      pop\n        /* \"#utility.yul\":7114:7210   */\n      swap2\n      swap1\n      pop\n      jump\t// out\n        /* \"#utility.yul\":7216:7334   */\n    tag_134:\n        /* \"#utility.yul\":7303:7327   */\n      tag_229\n        /* \"#utility.yul\":7321:7326   */\n      dup2\n        /* \"#utility.yul\":7303:7327   */\n      tag_133\n      jump\t// in\n    tag_229:\n        /* \"#utility.yul\":7298:7301   */\n      dup3\n        /* \"#utility.yul\":7291:7328   */\n      mstore\n        /* \"#utility.yul\":7216:7334   */\n      pop\n      pop\n      jump\t// out\n        /* \"#utility.yul\":7340:7562   */\n    tag_42:\n        /* \"#utility.yul\":7433:7437   */\n      0x00\n        /* \"#utility.yul\":7471:7473   */\n      0x20\n        /* \"#utility.yul\":7460:7469   */\n      dup3\n        /* \"#utility.yul\":7456:7474   */\n      add\n        /* \"#utility.yul\":7448:7474   */\n      swap1\n      pop\n        /* \"#utility.yul\":7484:7555   */\n      tag_231\n        /* \"#utility.yul\":7552:7553   */\n      0x00\n        /* \"#utility.yul\":7541:7550   */\n      dup4\n        /* \"#utility.yul\":7537:7554   */\n      add\n        /* \"#utility.yul\":7528:7534   */\n      dup5\n        /* \"#utility.yul\":7484:7555   */\n      tag_134\n      jump\t// in\n    tag_231:\n        /* \"#utility.yul\":7340:7562   */\n      swap3\n      swap2\n      pop\n      pop\n      jump\t// out\n        /* \"#utility.yul\":7568:7748   */\n    tag_135:\n        /* \"#utility.yul\":7708:7740   */\n      0x43616e206f6e6c792062652063616c6c6572206279206d616e616765722e0000\n        /* \"#utility.yul\":7704:7705   */\n      0x00\n        /* \"#utility.yul\":7696:7702   */\n      dup3\n        /* \"#utility.yul\":7692:7706   */\n      add\n        /* \"#utility.yul\":7685:7741   */\n      mstore\n        /* \"#utility.yul\":7568:7748   */\n      pop\n      jump\t// out\n        /* \"#utility.yul\":7754:8120   */\n    tag_136:\n        /* \"#utility.yul\":7896:7899   */\n      0x00\n        /* \"#utility.yul\":7917:7984   */\n      tag_234\n        /* \"#utility.yul\":7981:7983   */\n      0x1e\n        /* \"#utility.yul\":7976:7979   */\n      dup4\n        /* \"#utility.yul\":7917:7984   */\n      tag_107\n      jump\t// in\n    tag_234:\n        /* \"#utility.yul\":7910:7984   */\n      swap2\n      pop\n        /* \"#utility.yul\":7993:8086   */\n      tag_235\n        /* \"#utility.yul\":8082:8085   */\n      dup3\n        /* \"#utility.yul\":7993:8086   */\n      tag_135\n      jump\t// in\n    tag_235:\n        /* \"#utility.yul\":8111:8113   */\n      0x20\n        /* \"#utility.yul\":8106:8109   */\n      dup3\n        /* \"#utility.yul\":8102:8114   */\n      add\n        /* \"#utility.yul\":8095:8114   */\n      swap1\n      pop\n        /* \"#utility.yul\":7754:8120   */\n      swap2\n      swap1\n      pop\n      jump\t// out\n        /* \"#utility.yul\":8126:8545   */\n    tag_51:\n        /* \"#utility.yul\":8292:8296   */\n      0x00\n        /* \"#utility.yul\":8330:8332   */\n      0x20\n        /* \"#utility.yul\":8319:8328   */\n      dup3\n        /* \"#utility.yul\":8315:8333   */\n      add\n        /* \"#utility.yul\":8307:8333   */\n      swap1\n      pop\n        /* \"#utility.yul\":8379:8388   */\n      dup2\n        /* \"#utility.yul\":8373:8377   */\n      dup2\n        /* \"#utility.yul\":8369:8389   */\n      sub\n        /* \"#utility.yul\":8365:8366   */\n      0x00\n        /* \"#utility.yul\":8354:8363   */\n      dup4\n        /* \"#utility.yul\":8350:8367   */\n      add\n        /* \"#utility.yul\":8343:8390   */\n      mstore\n        /* \"#utility.yul\":8407:8538   */\n      tag_237\n        /* \"#utility.yul\":8533:8537   */\n      dup2\n        /* \"#utility.yul\":8407:8538   */\n      tag_136\n      jump\t// in\n    tag_237:\n        /* \"#utility.yul\":8399:8538   */\n      swap1\n      pop\n        /* \"#utility.yul\":8126:8545   */\n      swap2\n      swap1\n      pop\n      jump\t// out\n        /* \"#utility.yul\":8551:8727   */\n    tag_137:\n        /* \"#utility.yul\":8691:8719   */\n      0x4d757374206265206174206c65617374203320706c6179657273000000000000\n        /* \"#utility.yul\":8687:8688   */\n      0x00\n        /* \"#utility.yul\":8679:8685   */\n      dup3\n        /* \"#utility.yul\":8675:8689   */\n      add\n        /* \"#utility.yul\":8668:8720   */\n      mstore\n        /* \"#utility.yul\":8551:8727   */\n      pop\n      jump\t// out\n        /* \"#utility.yul\":8733:9099   */\n    tag_138:\n        /* \"#utility.yul\":8875:8878   */\n      0x00\n        /* \"#utility.yul\":8896:8963   */\n      tag_240\n        /* \"#utility.yul\":8960:8962   */\n      0x1a\n        /* \"#utility.yul\":8955:8958   */\n      dup4\n        /* \"#utility.yul\":8896:8963   */\n      tag_107\n      jump\t// in\n    tag_240:\n        /* \"#utility.yul\":8889:8963   */\n      swap2\n      pop\n        /* \"#utility.yul\":8972:9065   */\n      tag_241\n        /* \"#utility.yul\":9061:9064   */\n      dup3\n        /* \"#utility.yul\":8972:9065   */\n      tag_137\n      jump\t// in\n    tag_241:\n        /* \"#utility.yul\":9090:9092   */\n      0x20\n        /* \"#utility.yul\":9085:9088   */\n      dup3\n        /* \"#utility.yul\":9081:9093   */\n      add\n        /* \"#utility.yul\":9074:9093   */\n      swap1\n      pop\n        /* \"#utility.yul\":8733:9099   */\n      swap2\n      swap1\n      pop\n      jump\t// out\n        /* \"#utility.yul\":9105:9524   */\n    tag_55:\n        /* \"#utility.yul\":9271:9275   */\n      0x00\n        /* \"#utility.yul\":9309:9311   */\n      0x20\n        /* \"#utility.yul\":9298:9307   */\n      dup3\n        /* \"#utility.yul\":9294:9312   */\n      add\n        /* \"#utility.yul\":9286:9312   */\n      swap1\n      pop\n        /* \"#utility.yul\":9358:9367   */\n      dup2\n        /* \"#utility.yul\":9352:9356   */\n      dup2\n        /* \"#utility.yul\":9348:9368   */\n      sub\n        /* \"#utility.yul\":9344:9345   */\n      0x00\n        /* \"#utility.yul\":9333:9342   */\n      dup4\n        /* \"#utility.yul\":9329:9346   */\n      add\n        /* \"#utility.yul\":9322:9369   */\n      mstore\n        /* \"#utility.yul\":9386:9517   */\n      tag_243\n        /* \"#utility.yul\":9512:9516   */\n      dup2\n        /* \"#utility.yul\":9386:9517   */\n      tag_138\n      jump\t// in\n    tag_243:\n        /* \"#utility.yul\":9378:9517   */\n      swap1\n      pop\n        /* \"#utility.yul\":9105:9524   */\n      swap2\n      swap1\n      pop\n      jump\t// out\n        /* \"#utility.yul\":9530:9710   */\n    tag_139:\n        /* \"#utility.yul\":9578:9655   */\n      0x4e487b7100000000000000000000000000000000000000000000000000000000\n        /* \"#utility.yul\":9575:9576   */\n      0x00\n        /* \"#utility.yul\":9568:9656   */\n      mstore\n        /* \"#utility.yul\":9675:9679   */\n      0x12\n        /* \"#utility.yul\":9672:9673   */\n      0x04\n        /* \"#utility.yul\":9665:9680   */\n      mstore\n        /* \"#utility.yul\":9699:9703   */\n      0x24\n        /* \"#utility.yul\":9696:9697   */\n      0x00\n        /* \"#utility.yul\":9689:9704   */\n      revert\n        /* \"#utility.yul\":9716:9892   */\n    tag_59:\n        /* \"#utility.yul\":9748:9749   */\n      0x00\n        /* \"#utility.yul\":9765:9785   */\n      tag_246\n        /* \"#utility.yul\":9783:9784   */\n      dup3\n        /* \"#utility.yul\":9765:9785   */\n      tag_130\n      jump\t// in\n    tag_246:\n        /* \"#utility.yul\":9760:9785   */\n      swap2\n      pop\n        /* \"#utility.yul\":9799:9819   */\n      tag_247\n        /* \"#utility.yul\":9817:9818   */\n      dup4\n        /* \"#utility.yul\":9799:9819   */\n      tag_130\n      jump\t// in\n    tag_247:\n        /* \"#utility.yul\":9794:9819   */\n      swap3\n      pop\n        /* \"#utility.yul\":9838:9839   */\n      dup3\n        /* \"#utility.yul\":9828:9863   */\n      tag_248\n      jumpi\n        /* \"#utility.yul\":9843:9861   */\n      tag_249\n      tag_139\n      jump\t// in\n    tag_249:\n        /* \"#utility.yul\":9828:9863   */\n    tag_248:\n        /* \"#utility.yul\":9884:9885   */\n      dup3\n        /* \"#utility.yul\":9881:9882   */\n      dup3\n        /* \"#utility.yul\":9877:9886   */\n      mod\n        /* \"#utility.yul\":9872:9886   */\n      swap1\n      pop\n        /* \"#utility.yul\":9716:9892   */\n      swap3\n      swap2\n      pop\n      pop\n      jump\t// out\n        /* \"#utility.yul\":9898:10078   */\n    tag_62:\n        /* \"#utility.yul\":9946:10023   */\n      0x4e487b7100000000000000000000000000000000000000000000000000000000\n        /* \"#utility.yul\":9943:9944   */\n      0x00\n        /* \"#utility.yul\":9936:10024   */\n      mstore\n        /* \"#utility.yul\":10043:10047   */\n      0x32\n        /* \"#utility.yul\":10040:10041   */\n      0x04\n        /* \"#utility.yul\":10033:10048   */\n      mstore\n        /* \"#utility.yul\":10067:10071   */\n      0x24\n        /* \"#utility.yul\":10064:10065   */\n      0x00\n        /* \"#utility.yul\":10057:10072   */\n      revert\n        /* \"#utility.yul\":10084:10264   */\n    tag_140:\n        /* \"#utility.yul\":10132:10209   */\n      0x4e487b7100000000000000000000000000000000000000000000000000000000\n        /* \"#utility.yul\":10129:10130   */\n      0x00\n        /* \"#utility.yul\":10122:10210   */\n      mstore\n        /* \"#utility.yul\":10229:10233   */\n      0x11\n        /* \"#utility.yul\":10226:10227   */\n      0x04\n        /* \"#utility.yul\":10219:10234   */\n      mstore\n        /* \"#utility.yul\":10253:10257   */\n      0x24\n        /* \"#utility.yul\":10250:10251   */\n      0x00\n        /* \"#utility.yul\":10243:10258   */\n      revert\n        /* \"#utility.yul\":10270:10680   */\n    tag_65:\n        /* \"#utility.yul\":10310:10317   */\n      0x00\n        /* \"#utility.yul\":10333:10353   */\n      tag_253\n        /* \"#utility.yul\":10351:10352   */\n      dup3\n        /* \"#utility.yul\":10333:10353   */\n      tag_130\n      jump\t// in\n    tag_253:\n        /* \"#utility.yul\":10328:10353   */\n      swap2\n      pop\n        /* \"#utility.yul\":10367:10387   */\n      tag_254\n        /* \"#utility.yul\":10385:10386   */\n      dup4\n        /* \"#utility.yul\":10367:10387   */\n      tag_130\n      jump\t// in\n    tag_254:\n        /* \"#utility.yul\":10362:10387   */\n      swap3\n      pop\n        /* \"#utility.yul\":10422:10423   */\n      dup3\n        /* \"#utility.yul\":10419:10420   */\n      dup3\n        /* \"#utility.yul\":10415:10424   */\n      mul\n        /* \"#utility.yul\":10444:10474   */\n      tag_255\n        /* \"#utility.yul\":10462:10473   */\n      dup2\n        /* \"#utility.yul\":10444:10474   */\n      tag_130\n      jump\t// in\n    tag_255:\n        /* \"#utility.yul\":10433:10474   */\n      swap2\n      pop\n        /* \"#utility.yul\":10623:10624   */\n      dup3\n        /* \"#utility.yul\":10614:10621   */\n      dup3\n        /* \"#utility.yul\":10610:10625   */\n      div\n        /* \"#utility.yul\":10607:10608   */\n      dup5\n        /* \"#utility.yul\":10604:10626   */\n      eq\n        /* \"#utility.yul\":10584:10585   */\n      dup4\n        /* \"#utility.yul\":10577:10586   */\n      iszero\n        /* \"#utility.yul\":10557:10640   */\n      or\n        /* \"#utility.yul\":10534:10673   */\n      tag_256\n      jumpi\n        /* \"#utility.yul\":10653:10671   */\n      tag_257\n      tag_140\n      jump\t// in\n    tag_257:\n        /* \"#utility.yul\":10534:10673   */\n    tag_256:\n        /* \"#utility.yul\":10318:10680   */\n      pop\n        /* \"#utility.yul\":10270:10680   */\n      swap3\n      swap2\n      pop\n      pop\n      jump\t// out\n        /* \"#utility.yul\":10686:10833   */\n    tag_141:\n        /* \"#utility.yul\":10787:10798   */\n      0x00\n        /* \"#utility.yul\":10824:10827   */\n      dup2\n        /* \"#utility.yul\":10809:10827   */\n      swap1\n      pop\n        /* \"#utility.yul\":10686:10833   */\n      swap3\n      swap2\n      pop\n      pop\n      jump\t// out\n        /* \"#utility.yul\":10839:10953   */\n    tag_142:\n      pop\n      jump\t// out\n        /* \"#utility.yul\":10959:11357   */\n    tag_143:\n        /* \"#utility.yul\":11118:11121   */\n      0x00\n        /* \"#utility.yul\":11139:11222   */\n      tag_261\n        /* \"#utility.yul\":11220:11221   */\n      0x00\n        /* \"#utility.yul\":11215:11218   */\n      dup4\n        /* \"#utility.yul\":11139:11222   */\n      tag_141\n      jump\t// in\n    tag_261:\n        /* \"#utility.yul\":11132:11222   */\n      swap2\n      pop\n        /* \"#utility.yul\":11231:11324   */\n      tag_262\n        /* \"#utility.yul\":11320:11323   */\n      dup3\n        /* \"#utility.yul\":11231:11324   */\n      tag_142\n      jump\t// in\n    tag_262:\n        /* \"#utility.yul\":11349:11350   */\n      0x00\n        /* \"#utility.yul\":11344:11347   */\n      dup3\n        /* \"#utility.yul\":11340:11351   */\n      add\n        /* \"#utility.yul\":11333:11351   */\n      swap1\n      pop\n        /* \"#utility.yul\":10959:11357   */\n      swap2\n      swap1\n      pop\n      jump\t// out\n        /* \"#utility.yul\":11363:11742   */\n    tag_67:\n        /* \"#utility.yul\":11547:11550   */\n      0x00\n        /* \"#utility.yul\":11569:11716   */\n      tag_264\n        /* \"#utility.yul\":11712:11715   */\n      dup3\n        /* \"#utility.yul\":11569:11716   */\n      tag_143\n      jump\t// in\n    tag_264:\n        /* \"#utility.yul\":11562:11716   */\n      swap2\n      pop\n        /* \"#utility.yul\":11733:11736   */\n      dup2\n        /* \"#utility.yul\":11726:11736   */\n      swap1\n      pop\n        /* \"#utility.yul\":11363:11742   */\n      swap2\n      swap1\n      pop\n      jump\t// out\n        /* \"#utility.yul\":11748:11925   */\n    tag_144:\n        /* \"#utility.yul\":11888:11917   */\n      0x4661696c656420746f2073656e64206d616e61676572206665652e0000000000\n        /* \"#utility.yul\":11884:11885   */\n      0x00\n        /* \"#utility.yul\":11876:11882   */\n      dup3\n        /* \"#utility.yul\":11872:11886   */\n      add\n        /* \"#utility.yul\":11865:11918   */\n      mstore\n        /* \"#utility.yul\":11748:11925   */\n      pop\n      jump\t// out\n        /* \"#utility.yul\":11931:12297   */\n    tag_145:\n        /* \"#utility.yul\":12073:12076   */\n      0x00\n        /* \"#utility.yul\":12094:12161   */\n      tag_267\n        /* \"#utility.yul\":12158:12160   */\n      0x1b\n        /* \"#utility.yul\":12153:12156   */\n      dup4\n        /* \"#utility.yul\":12094:12161   */\n      tag_107\n      jump\t// in\n    tag_267:\n        /* \"#utility.yul\":12087:12161   */\n      swap2\n      pop\n        /* \"#utility.yul\":12170:12263   */\n      tag_268\n        /* \"#utility.yul\":12259:12262   */\n      dup3\n        /* \"#utility.yul\":12170:12263   */\n      tag_144\n      jump\t// in\n    tag_268:\n        /* \"#utility.yul\":12288:12290   */\n      0x20\n        /* \"#utility.yul\":12283:12286   */\n      dup3\n        /* \"#utility.yul\":12279:12291   */\n      add\n        /* \"#utility.yul\":12272:12291   */\n      swap1\n      pop\n        /* \"#utility.yul\":11931:12297   */\n      swap2\n      swap1\n      pop\n      jump\t// out\n        /* \"#utility.yul\":12303:12722   */\n    tag_73:\n        /* \"#utility.yul\":12469:12473   */\n      0x00\n        /* \"#utility.yul\":12507:12509   */\n      0x20\n        /* \"#utility.yul\":12496:12505   */\n      dup3\n        /* \"#utility.yul\":12492:12510   */\n      add\n        /* \"#utility.yul\":12484:12510   */\n      swap1\n      pop\n        /* \"#utility.yul\":12556:12565   */\n      dup2\n        /* \"#utility.yul\":12550:12554   */\n      dup2\n        /* \"#utility.yul\":12546:12566   */\n      sub\n        /* \"#utility.yul\":12542:12543   */\n      0x00\n        /* \"#utility.yul\":12531:12540   */\n      dup4\n        /* \"#utility.yul\":12527:12544   */\n      add\n        /* \"#utility.yul\":12520:12567   */\n      mstore\n        /* \"#utility.yul\":12584:12715   */\n      tag_270\n        /* \"#utility.yul\":12710:12714   */\n      dup2\n        /* \"#utility.yul\":12584:12715   */\n      tag_145\n      jump\t// in\n    tag_270:\n        /* \"#utility.yul\":12576:12715   */\n      swap1\n      pop\n        /* \"#utility.yul\":12303:12722   */\n      swap2\n      swap1\n      pop\n      jump\t// out\n        /* \"#utility.yul\":12728:12908   */\n    tag_146:\n        /* \"#utility.yul\":12868:12900   */\n      0x4661696c656420746f2073656e642077696e6e65722773207072697a652e0000\n        /* \"#utility.yul\":12864:12865   */\n      0x00\n        /* \"#utility.yul\":12856:12862   */\n      dup3\n        /* \"#utility.yul\":12852:12866   */\n      add\n        /* \"#utility.yul\":12845:12901   */\n      mstore\n        /* \"#utility.yul\":12728:12908   */\n      pop\n      jump\t// out\n        /* \"#utility.yul\":12914:13280   */\n    tag_147:\n        /* \"#utility.yul\":13056:13059   */\n      0x00\n        /* \"#utility.yul\":13077:13144   */\n      tag_273\n        /* \"#utility.yul\":13141:13143   */\n      0x1e\n        /* \"#utility.yul\":13136:13139   */\n      dup4\n        /* \"#utility.yul\":13077:13144   */\n      tag_107\n      jump\t// in\n    tag_273:\n        /* \"#utility.yul\":13070:13144   */\n      swap2\n      pop\n        /* \"#utility.yul\":13153:13246   */\n      tag_274\n        /* \"#utility.yul\":13242:13245   */\n      dup3\n        /* \"#utility.yul\":13153:13246   */\n      tag_146\n      jump\t// in\n    tag_274:\n        /* \"#utility.yul\":13271:13273   */\n      0x20\n        /* \"#utility.yul\":13266:13269   */\n      dup3\n        /* \"#utility.yul\":13262:13274   */\n      add\n        /* \"#utility.yul\":13255:13274   */\n      swap1\n      pop\n        /* \"#utility.yul\":12914:13280   */\n      swap2\n      swap1\n      pop\n      jump\t// out\n        /* \"#utility.yul\":13286:13705   */\n    tag_80:\n        /* \"#utility.yul\":13452:13456   */\n      0x00\n        /* \"#utility.yul\":13490:13492   */\n      0x20\n        /* \"#utility.yul\":13479:13488   */\n      dup3\n        /* \"#utility.yul\":13475:13493   */\n      add\n        /* \"#utility.yul\":13467:13493   */\n      swap1\n      pop\n        /* \"#utility.yul\":13539:13548   */\n      dup2\n        /* \"#utility.yul\":13533:13537   */\n      dup2\n        /* \"#utility.yul\":13529:13549   */\n      sub\n        /* \"#utility.yul\":13525:13526   */\n      0x00\n        /* \"#utility.yul\":13514:13523   */\n      dup4\n        /* \"#utility.yul\":13510:13527   */\n      add\n        /* \"#utility.yul\":13503:13550   */\n      mstore\n        /* \"#utility.yul\":13567:13698   */\n      tag_276\n        /* \"#utility.yul\":13693:13697   */\n      dup2\n        /* \"#utility.yul\":13567:13698   */\n      tag_147\n      jump\t// in\n    tag_276:\n        /* \"#utility.yul\":13559:13698   */\n      swap1\n      pop\n        /* \"#utility.yul\":13286:13705   */\n      swap2\n      swap1\n      pop\n      jump\t// out\n        /* \"#utility.yul\":13711:13944   */\n    tag_82:\n        /* \"#utility.yul\":13750:13753   */\n      0x00\n        /* \"#utility.yul\":13773:13797   */\n      tag_278\n        /* \"#utility.yul\":13791:13796   */\n      dup3\n        /* \"#utility.yul\":13773:13797   */\n      tag_130\n      jump\t// in\n    tag_278:\n        /* \"#utility.yul\":13764:13797   */\n      swap2\n      pop\n        /* \"#utility.yul\":13819:13885   */\n      0xffffffffffffffffffffffffffffffffffffffffffffffffffffffffffffffff\n        /* \"#utility.yul\":13812:13817   */\n      dup3\n        /* \"#utility.yul\":13809:13886   */\n      sub\n        /* \"#utility.yul\":13806:13909   */\n      tag_279\n      jumpi\n        /* \"#utility.yul\":13889:13907   */\n      tag_280\n      tag_140\n      jump\t// in\n    tag_280:\n        /* \"#utility.yul\":13806:13909   */\n    tag_279:\n        /* \"#utility.yul\":13936:13937   */\n      0x01\n        /* \"#utility.yul\":13929:13934   */\n      dup3\n        /* \"#utility.yul\":13925:13938   */\n      add\n        /* \"#utility.yul\":13918:13938   */\n      swap1\n      pop\n        /* \"#utility.yul\":13711:13944   */\n      swap2\n      swap1\n      pop\n      jump\t// out\n        /* \"#utility.yul\":13950:14130   */\n    tag_85:\n        /* \"#utility.yul\":13998:14075   */\n      0x4e487b7100000000000000000000000000000000000000000000000000000000\n        /* \"#utility.yul\":13995:13996   */\n      0x00\n        /* \"#utility.yul\":13988:14076   */\n      mstore\n        /* \"#utility.yul\":14095:14099   */\n      0x41\n        /* \"#utility.yul\":14092:14093   */\n      0x04\n        /* \"#utility.yul\":14085:14100   */\n      mstore\n        /* \"#utility.yul\":14119:14123   */\n      0x24\n        /* \"#utility.yul\":14116:14117   */\n      0x00\n        /* \"#utility.yul\":14109:14124   */\n      revert\n        /* \"#utility.yul\":14136:14215   */\n    tag_148:\n        /* \"#utility.yul\":14175:14182   */\n      0x00\n        /* \"#utility.yul\":14204:14209   */\n      dup2\n        /* \"#utility.yul\":14193:14209   */\n      swap1\n      pop\n        /* \"#utility.yul\":14136:14215   */\n      swap2\n      swap1\n      pop\n      jump\t// out\n        /* \"#utility.yul\":14221:14378   */\n    tag_149:\n        /* \"#utility.yul\":14326:14371   */\n      tag_284\n        /* \"#utility.yul\":14346:14370   */\n      tag_285\n        /* \"#utility.yul\":14364:14369   */\n      dup3\n        /* \"#utility.yul\":14346:14370   */\n      tag_130\n      jump\t// in\n    tag_285:\n        /* \"#utility.yul\":14326:14371   */\n      tag_148\n      jump\t// in\n    tag_284:\n        /* \"#utility.yul\":14321:14324   */\n      dup3\n        /* \"#utility.yul\":14314:14372   */\n      mstore\n        /* \"#utility.yul\":14221:14378   */\n      pop\n      pop\n      jump\t// out\n        /* \"#utility.yul\":14384:14503   */\n    tag_150:\n        /* \"#utility.yul\":14456:14462   */\n      0x00\n        /* \"#utility.yul\":14490:14495   */\n      dup2\n        /* \"#utility.yul\":14484:14496   */\n      sload\n        /* \"#utility.yul\":14474:14496   */\n      swap1\n      pop\n        /* \"#utility.yul\":14384:14503   */\n      swap2\n      swap1\n      pop\n      jump\t// out\n        /* \"#utility.yul\":14509:14680   */\n    tag_151:\n        /* \"#utility.yul\":14634:14645   */\n      0x00\n        /* \"#utility.yul\":14671:14674   */\n      dup2\n        /* \"#utility.yul\":14656:14674   */\n      swap1\n      pop\n        /* \"#utility.yul\":14509:14680   */\n      swap3\n      swap2\n      pop\n      pop\n      jump\t// out\n        /* \"#utility.yul\":14686:14850   */\n    tag_152:\n        /* \"#utility.yul\":14758:14762   */\n      0x00\n        /* \"#utility.yul\":14781:14784   */\n      dup2\n        /* \"#utility.yul\":14773:14784   */\n      swap1\n      pop\n        /* \"#utility.yul\":14804:14807   */\n      dup2\n        /* \"#utility.yul\":14801:14802   */\n      0x00\n        /* \"#utility.yul\":14794:14808   */\n      mstore\n        /* \"#utility.yul\":14838:14842   */\n      0x20\n        /* \"#utility.yul\":14835:14836   */\n      0x00\n        /* \"#utility.yul\":14825:14843   */\n      keccak256\n        /* \"#utility.yul\":14817:14843   */\n      swap1\n      pop\n        /* \"#utility.yul\":14686:14850   */\n      swap2\n      swap1\n      pop\n      jump\t// out\n        /* \"#utility.yul\":14856:14996   */\n    tag_153:\n        /* \"#utility.yul\":14957:14989   */\n      tag_290\n        /* \"#utility.yul\":14983:14988   */\n      dup2\n        /* \"#utility.yul\":14957:14989   */\n      tag_113\n      jump\t// in\n    tag_290:\n        /* \"#utility.yul\":14952:14955   */\n      dup3\n        /* \"#utility.yul\":14945:14990   */\n      mstore\n        /* \"#utility.yul\":14856:14996   */\n      pop\n      pop\n      jump\t// out\n        /* \"#utility.yul\":15002:15229   */\n    tag_154:\n        /* \"#utility.yul\":15095:15105   */\n      0x00\n        /* \"#utility.yul\":15116:15186   */\n      tag_292\n        /* \"#utility.yul\":15182:15185   */\n      dup4\n        /* \"#utility.yul\":15174:15180   */\n      dup4\n        /* \"#utility.yul\":15116:15186   */\n      tag_153\n      jump\t// in\n    tag_292:\n        /* \"#utility.yul\":15218:15222   */\n      0x20\n        /* \"#utility.yul\":15213:15216   */\n      dup4\n        /* \"#utility.yul\":15209:15223   */\n      add\n        /* \"#utility.yul\":15195:15223   */\n      swap1\n      pop\n        /* \"#utility.yul\":15002:15229   */\n      swap3\n      swap2\n      pop\n      pop\n      jump\t// out\n        /* \"#utility.yul\":15235:15337   */\n    tag_155:\n        /* \"#utility.yul\":15277:15285   */\n      0x00\n        /* \"#utility.yul\":15324:15329   */\n      dup2\n        /* \"#utility.yul\":15321:15322   */\n      0x00\n        /* \"#utility.yul\":15317:15330   */\n      shr\n        /* \"#utility.yul\":15296:15330   */\n      swap1\n      pop\n        /* \"#utility.yul\":15235:15337   */\n      swap2\n      swap1\n      pop\n      jump\t// out\n        /* \"#utility.yul\":15343:15490   */\n    tag_156:\n        /* \"#utility.yul\":15401:15408   */\n      0x00\n        /* \"#utility.yul\":15441:15483   */\n      0xffffffffffffffffffffffffffffffffffffffff\n        /* \"#utility.yul\":15434:15439   */\n      dup3\n        /* \"#utility.yul\":15430:15484   */\n      and\n        /* \"#utility.yul\":15419:15484   */\n      swap1\n      pop\n        /* \"#utility.yul\":15343:15490   */\n      swap2\n      swap1\n      pop\n      jump\t// out\n        /* \"#utility.yul\":15496:15678   */\n    tag_157:\n        /* \"#utility.yul\":15573:15578   */\n      0x00\n        /* \"#utility.yul\":15598:15672   */\n      tag_296\n        /* \"#utility.yul\":15637:15671   */\n      tag_297\n        /* \"#utility.yul\":15660:15670   */\n      dup4\n        /* \"#utility.yul\":15637:15671   */\n      tag_155\n      jump\t// in\n    tag_297:\n        /* \"#utility.yul\":15598:15672   */\n      tag_156\n      jump\t// in\n    tag_296:\n        /* \"#utility.yul\":15589:15672   */\n      swap1\n      pop\n        /* \"#utility.yul\":15496:15678   */\n      swap2\n      swap1\n      pop\n      jump\t// out\n        /* \"#utility.yul\":15684:15844   */\n    tag_158:\n        /* \"#utility.yul\":15747:15752   */\n      0x00\n        /* \"#utility.yul\":15772:15837   */\n      tag_299\n        /* \"#utility.yul\":15831:15835   */\n      dup3\n        /* \"#utility.yul\":15825:15836   */\n      sload\n        /* \"#utility.yul\":15772:15837   */\n      tag_157\n      jump\t// in\n    tag_299:\n        /* \"#utility.yul\":15763:15837   */\n      swap1\n      pop\n        /* \"#utility.yul\":15684:15844   */\n      swap2\n      swap1\n      pop\n      jump\t// out\n        /* \"#utility.yul\":15850:15968   */\n    tag_159:\n        /* \"#utility.yul\":15925:15929   */\n      0x00\n        /* \"#utility.yul\":15957:15961   */\n      0x01\n        /* \"#utility.yul\":15952:15955   */\n      dup3\n        /* \"#utility.yul\":15948:15962   */\n      add\n        /* \"#utility.yul\":15940:15962   */\n      swap1\n      pop\n        /* \"#utility.yul\":15850:15968   */\n      swap2\n      swap1\n      pop\n      jump\t// out\n        /* \"#utility.yul\":16020:16887   */\n    tag_160:\n        /* \"#utility.yul\":16170:16173   */\n      0x00\n        /* \"#utility.yul\":16199:16258   */\n      tag_302\n        /* \"#utility.yul\":16252:16257   */\n      dup3\n        /* \"#utility.yul\":16199:16258   */\n      tag_150\n      jump\t// in\n    tag_302:\n        /* \"#utility.yul\":16274:16386   */\n      tag_303\n        /* \"#utility.yul\":16379:16385   */\n      dup2\n        /* \"#utility.yul\":16374:16377   */\n      dup6\n        /* \"#utility.yul\":16274:16386   */\n      tag_151\n      jump\t// in\n    tag_303:\n        /* \"#utility.yul\":16267:16386   */\n      swap4\n      pop\n        /* \"#utility.yul\":16410:16471   */\n      tag_304\n        /* \"#utility.yul\":16465:16470   */\n      dup4\n        /* \"#utility.yul\":16410:16471   */\n      tag_152\n      jump\t// in\n    tag_304:\n        /* \"#utility.yul\":16494:16501   */\n      dup1\n        /* \"#utility.yul\":16525:16526   */\n      0x00\n        /* \"#utility.yul\":16510:16862   */\n    tag_305:\n        /* \"#utility.yul\":16535:16541   */\n      dup4\n        /* \"#utility.yul\":16532:16533   */\n      dup2\n        /* \"#utility.yul\":16529:16542   */\n      lt\n        /* \"#utility.yul\":16510:16862   */\n      iszero\n      tag_307\n      jumpi\n        /* \"#utility.yul\":16605:16657   */\n      tag_308\n        /* \"#utility.yul\":16650:16656   */\n      dup3\n        /* \"#utility.yul\":16605:16657   */\n      tag_158\n      jump\t// in\n    tag_308:\n        /* \"#utility.yul\":16677:16764   */\n      tag_309\n        /* \"#utility.yul\":16760:16763   */\n      dup9\n        /* \"#utility.yul\":16745:16758   */\n      dup3\n        /* \"#utility.yul\":16677:16764   */\n      tag_154\n      jump\t// in\n    tag_309:\n        /* \"#utility.yul\":16670:16764   */\n      swap8\n      pop\n        /* \"#utility.yul\":16787:16852   */\n      tag_310\n        /* \"#utility.yul\":16845:16851   */\n      dup4\n        /* \"#utility.yul\":16787:16852   */\n      tag_159\n      jump\t// in\n    tag_310:\n        /* \"#utility.yul\":16777:16852   */\n      swap3\n      pop\n        /* \"#utility.yul\":16570:16862   */\n      pop\n        /* \"#utility.yul\":16557:16558   */\n      0x01\n        /* \"#utility.yul\":16554:16555   */\n      dup2\n        /* \"#utility.yul\":16550:16559   */\n      add\n        /* \"#utility.yul\":16545:16559   */\n      swap1\n      pop\n        /* \"#utility.yul\":16510:16862   */\n      jump(tag_305)\n    tag_307:\n        /* \"#utility.yul\":16514:16528   */\n      pop\n        /* \"#utility.yul\":16878:16881   */\n      dup6\n        /* \"#utility.yul\":16871:16881   */\n      swap4\n      pop\n        /* \"#utility.yul\":16175:16887   */\n      pop\n      pop\n      pop\n        /* \"#utility.yul\":16020:16887   */\n      swap3\n      swap2\n      pop\n      pop\n      jump\t// out\n        /* \"#utility.yul\":16893:17536   */\n    tag_99:\n        /* \"#utility.yul\":17124:17127   */\n      0x00\n        /* \"#utility.yul\":17139:17214   */\n      tag_312\n        /* \"#utility.yul\":17210:17213   */\n      dup3\n        /* \"#utility.yul\":17201:17207   */\n      dup7\n        /* \"#utility.yul\":17139:17214   */\n      tag_149\n      jump\t// in\n    tag_312:\n        /* \"#utility.yul\":17239:17241   */\n      0x20\n        /* \"#utility.yul\":17234:17237   */\n      dup3\n        /* \"#utility.yul\":17230:17242   */\n      add\n        /* \"#utility.yul\":17223:17242   */\n      swap2\n      pop\n        /* \"#utility.yul\":17252:17327   */\n      tag_313\n        /* \"#utility.yul\":17323:17326   */\n      dup3\n        /* \"#utility.yul\":17314:17320   */\n      dup6\n        /* \"#utility.yul\":17252:17327   */\n      tag_149\n      jump\t// in\n    tag_313:\n        /* \"#utility.yul\":17352:17354   */\n      0x20\n        /* \"#utility.yul\":17347:17350   */\n      dup3\n        /* \"#utility.yul\":17343:17355   */\n      add\n        /* \"#utility.yul\":17336:17355   */\n      swap2\n      pop\n        /* \"#utility.yul\":17372:17510   */\n      tag_314\n        /* \"#utility.yul\":17506:17509   */\n      dup3\n        /* \"#utility.yul\":17497:17503   */\n      dup5\n        /* \"#utility.yul\":17372:17510   */\n      tag_160\n      jump\t// in\n    tag_314:\n        /* \"#utility.yul\":17365:17510   */\n      swap2\n      pop\n        /* \"#utility.yul\":17527:17530   */\n      dup2\n        /* \"#utility.yul\":17520:17530   */\n      swap1\n      pop\n        /* \"#utility.yul\":16893:17536   */\n      swap5\n      swap4\n      pop\n      pop\n      pop\n      pop\n      jump\t// out\n\n    auxdata: 0xa2646970667358221220c05ee1bc6838adae3b94c3f76d3aa331a973df53b6a0cf620113d4c45961638364736f6c63430008130033\n}\n",
				"bytecode": {
					"linkReferences": {},
					"object": "608060405234801561001057600080fd5b50336000806101000a81548173ffffffffffffffffffffffffffffffffffffffff021916908373ffffffffffffffffffffffffffffffffffffffff1602179055506000600560006101000a81548160ff02191690836002811115610077576100766100d6565b5b021790555073f9a29f539eb63fafc725e611c9460f8b764f9069600260006101000a81548173ffffffffffffffffffffffffffffffffffffffff021916908373ffffffffffffffffffffffffffffffffffffffff160217905550610105565b7f4e487b7100000000000000000000000000000000000000000000000000000000600052602160045260246000fd5b611186806101146000396000f3fe6080604052600436106100595760003560e01c8063481c6a751461019e5780635d495aea146101c957806381447999146101e05780638b5b9ccc1461020b5780638e51001d14610236578063f71d96cb1461027357610199565b366101995760008054906101000a900473ffffffffffffffffffffffffffffffffffffffff1673ffffffffffffffffffffffffffffffffffffffff163373ffffffffffffffffffffffffffffffffffffffff16036100ec576040517f08c379a00000000000000000000000000000000000000000000000000000000081526004016100e390610947565b60405180910390fd5b66271471148780003414610135576040517f08c379a000000000000000000000000000000000000000000000000000000000815260040161012c906109d9565b60405180910390fd5b6001339080600181540180825580915050600190039060005260206000200160009091909190916101000a81548173ffffffffffffffffffffffffffffffffffffffff021916908373ffffffffffffffffffffffffffffffffffffffff1602179055005b600080fd5b3480156101aa57600080fd5b506101b36102b0565b6040516101c09190610a3a565b60405180910390f35b3480156101d557600080fd5b506101de6102d4565b005b3480156101ec57600080fd5b506101f561066c565b6040516102029190610acc565b60405180910390f35b34801561021757600080fd5b5061022061067f565b60405161022d9190610ba5565b60405180910390f35b34801561024257600080fd5b5061025d60048036038101906102589190610c02565b61079b565b60405161026a9190610c50565b60405180910390f35b34801561027f57600080fd5b5061029a60048036038101906102959190610c02565b6107ce565b6040516102a79190610a3a565b60405180910390f35b60008054906101000a900473ffffffffffffffffffffffffffffffffffffffff1681565b60008054906101000a900473ffffffffffffffffffffffffffffffffffffffff1673ffffffffffffffffffffffffffffffffffffffff163373ffffffffffffffffffffffffffffffffffffffff1614610362576040517f08c379a000000000000000000000000000000000000000000000000000000000815260040161035990610cb7565b60405180910390fd5b600360018054905010156103ab576040517f08c379a00000000000000000000000000000000000000000000000000000000081526004016103a290610d23565b60405180910390fd5b60006001805490506103bb61080d565b6103c59190610d72565b90506000600182815481106103dd576103dc610da3565b5b9060005260206000200160009054906101000a900473ffffffffffffffffffffffffffffffffffffffff16905060008060009054906101000a900473ffffffffffffffffffffffffffffffffffffffff1673ffffffffffffffffffffffffffffffffffffffff1660018054905066038d7ea4c6800061045c9190610e01565b60405161046890610e74565b60006040518083038185875af1925050503d80600081146104a5576040519150601f19603f3d011682016040523d82523d6000602084013e6104aa565b606091505b50509050806104ee576040517f08c379a00000000000000000000000000000000000000000000000000000000081526004016104e590610ed5565b60405180910390fd5b60008273ffffffffffffffffffffffffffffffffffffffff164760405161051490610e74565b60006040518083038185875af1925050503d8060008114610551576040519150601f19603f3d011682016040523d82523d6000602084013e610556565b606091505b505090508061059a576040517f08c379a000000000000000000000000000000000000000000000000000000000815260040161059190610f41565b60405180910390fd5b600360008154809291906105ad90610f61565b91905055508260046000600354815260200190815260200160002060006101000a81548173ffffffffffffffffffffffffffffffffffffffff021916908373ffffffffffffffffffffffffffffffffffffffff160217905550600067ffffffffffffffff81111561062157610620610fa9565b5b60405190808252806020026020018201604052801561064f5781602001602082028036833780820191505090505b5060019080519060200190610665929190610843565b5050505050565b600560009054906101000a900460ff1681565b606060008054906101000a900473ffffffffffffffffffffffffffffffffffffffff1673ffffffffffffffffffffffffffffffffffffffff163373ffffffffffffffffffffffffffffffffffffffff161461070f576040517f08c379a000000000000000000000000000000000000000000000000000000000815260040161070690610cb7565b60405180910390fd5b600180548060200260200160405190810160405280929190818152602001828054801561079157602002820191906000526020600020905b8160009054906101000a900473ffffffffffffffffffffffffffffffffffffffff1673ffffffffffffffffffffffffffffffffffffffff1681526020019060010190808311610747575b5050505050905090565b60046020528060005260406000206000915054906101000a900473ffffffffffffffffffffffffffffffffffffffff1681565b600181815481106107de57600080fd5b906000526020600020016000915054906101000a900473ffffffffffffffffffffffffffffffffffffffff1681565b60004442600160405160200161082593929190611117565b6040516020818303038152906040528051906020012060001c905090565b8280548282559060005260206000209081019282156108bc579160200282015b828111156108bb5782518260006101000a81548173ffffffffffffffffffffffffffffffffffffffff021916908373ffffffffffffffffffffffffffffffffffffffff16021790555091602001919060010190610863565b5b5090506108c991906108cd565b5090565b5b808211156108e65760008160009055506001016108ce565b5090565b600082825260208201905092915050565b7f4d616e616765722063616e277420706c617920746865206c6f74746572790000600082015250565b6000610931601e836108ea565b915061093c826108fb565b602082019050919050565b6000602082019050818103600083015261096081610924565b9050919050565b7f4d75737420626520302e30313145544820746f20656e74657220746865206c6f60008201527f7474657279000000000000000000000000000000000000000000000000000000602082015250565b60006109c36025836108ea565b91506109ce82610967565b604082019050919050565b600060208201905081810360008301526109f2816109b6565b9050919050565b600073ffffffffffffffffffffffffffffffffffffffff82169050919050565b6000610a24826109f9565b9050919050565b610a3481610a19565b82525050565b6000602082019050610a4f6000830184610a2b565b92915050565b7f4e487b7100000000000000000000000000000000000000000000000000000000600052602160045260246000fd5b60038110610a9557610a94610a55565b5b50565b6000819050610aa682610a84565b919050565b6000610ab682610a98565b9050919050565b610ac681610aab565b82525050565b6000602082019050610ae16000830184610abd565b92915050565b600081519050919050565b600082825260208201905092915050565b6000819050602082019050919050565b610b1c81610a19565b82525050565b6000610b2e8383610b13565b60208301905092915050565b6000602082019050919050565b6000610b5282610ae7565b610b5c8185610af2565b9350610b6783610b03565b8060005b83811015610b98578151610b7f8882610b22565b9750610b8a83610b3a565b925050600181019050610b6b565b5085935050505092915050565b60006020820190508181036000830152610bbf8184610b47565b905092915050565b600080fd5b6000819050919050565b610bdf81610bcc565b8114610bea57600080fd5b50565b600081359050610bfc81610bd6565b92915050565b600060208284031215610c1857610c17610bc7565b5b6000610c2684828501610bed565b91505092915050565b6000610c3a826109f9565b9050919050565b610c4a81610c2f565b82525050565b6000602082019050610c656000830184610c41565b92915050565b7f43616e206f6e6c792062652063616c6c6572206279206d616e616765722e0000600082015250565b6000610ca1601e836108ea565b9150610cac82610c6b565b602082019050919050565b60006020820190508181036000830152610cd081610c94565b9050919050565b7f4d757374206265206174206c65617374203320706c6179657273000000000000600082015250565b6000610d0d601a836108ea565b9150610d1882610cd7565b602082019050919050565b60006020820190508181036000830152610d3c81610d00565b9050919050565b7f4e487b7100000000000000000000000000000000000000000000000000000000600052601260045260246000fd5b6000610d7d82610bcc565b9150610d8883610bcc565b925082610d9857610d97610d43565b5b828206905092915050565b7f4e487b7100000000000000000000000000000000000000000000000000000000600052603260045260246000fd5b7f4e487b7100000000000000000000000000000000000000000000000000000000600052601160045260246000fd5b6000610e0c82610bcc565b9150610e1783610bcc565b9250828202610e2581610bcc565b91508282048414831517610e3c57610e3b610dd2565b5b5092915050565b600081905092915050565b50565b6000610e5e600083610e43565b9150610e6982610e4e565b600082019050919050565b6000610e7f82610e51565b9150819050919050565b7f4661696c656420746f2073656e64206d616e61676572206665652e0000000000600082015250565b6000610ebf601b836108ea565b9150610eca82610e89565b602082019050919050565b60006020820190508181036000830152610eee81610eb2565b9050919050565b7f4661696c656420746f2073656e642077696e6e65722773207072697a652e0000600082015250565b6000610f2b601e836108ea565b9150610f3682610ef5565b602082019050919050565b60006020820190508181036000830152610f5a81610f1e565b9050919050565b6000610f6c82610bcc565b91507fffffffffffffffffffffffffffffffffffffffffffffffffffffffffffffffff8203610f9e57610f9d610dd2565b5b600182019050919050565b7f4e487b7100000000000000000000000000000000000000000000000000000000600052604160045260246000fd5b6000819050919050565b610ff3610fee82610bcc565b610fd8565b82525050565b600081549050919050565b600081905092915050565b60008190508160005260206000209050919050565b61102d81610a19565b82525050565b600061103f8383611024565b60208301905092915050565b60008160001c9050919050565b600073ffffffffffffffffffffffffffffffffffffffff82169050919050565b600061108b6110868361104b565b611058565b9050919050565b600061109e8254611078565b9050919050565b6000600182019050919050565b60006110bd82610ff9565b6110c78185611004565b93506110d28361100f565b8060005b8381101561110a576110e782611092565b6110f18882611033565b97506110fc836110a5565b9250506001810190506110d6565b5085935050505092915050565b60006111238286610fe2565b6020820191506111338285610fe2565b60208201915061114382846110b2565b915081905094935050505056fea2646970667358221220c05ee1bc6838adae3b94c3f76d3aa331a973df53b6a0cf620113d4c45961638364736f6c63430008130033",
					"opcodes": "PUSH1 0x80 PUSH1 0x40 MSTORE CALLVALUE DUP1 ISZERO PUSH2 0x10 JUMPI PUSH1 0x0 DUP1 REVERT JUMPDEST POP CALLER PUSH1 0x0 DUP1 PUSH2 0x100 EXP DUP2 SLOAD DUP2 PUSH20 0xFFFFFFFFFFFFFFFFFFFFFFFFFFFFFFFFFFFFFFFF MUL NOT AND SWAP1 DUP4 PUSH20 0xFFFFFFFFFFFFFFFFFFFFFFFFFFFFFFFFFFFFFFFF AND MUL OR SWAP1 SSTORE POP PUSH1 0x0 PUSH1 0x5 PUSH1 0x0 PUSH2 0x100 EXP DUP2 SLOAD DUP2 PUSH1 0xFF MUL NOT AND SWAP1 DUP4 PUSH1 0x2 DUP2 GT ISZERO PUSH2 0x77 JUMPI PUSH2 0x76 PUSH2 0xD6 JUMP JUMPDEST JUMPDEST MUL OR SWAP1 SSTORE POP PUSH20 0xF9A29F539EB63FAFC725E611C9460F8B764F9069 PUSH1 0x2 PUSH1 0x0 PUSH2 0x100 EXP DUP2 SLOAD DUP2 PUSH20 0xFFFFFFFFFFFFFFFFFFFFFFFFFFFFFFFFFFFFFFFF MUL NOT AND SWAP1 DUP4 PUSH20 0xFFFFFFFFFFFFFFFFFFFFFFFFFFFFFFFFFFFFFFFF AND MUL OR SWAP1 SSTORE POP PUSH2 0x105 JUMP JUMPDEST PUSH32 0x4E487B7100000000000000000000000000000000000000000000000000000000 PUSH1 0x0 MSTORE PUSH1 0x21 PUSH1 0x4 MSTORE PUSH1 0x24 PUSH1 0x0 REVERT JUMPDEST PUSH2 0x1186 DUP1 PUSH2 0x114 PUSH1 0x0 CODECOPY PUSH1 0x0 RETURN INVALID PUSH1 0x80 PUSH1 0x40 MSTORE PUSH1 0x4 CALLDATASIZE LT PUSH2 0x59 JUMPI PUSH1 0x0 CALLDATALOAD PUSH1 0xE0 SHR DUP1 PUSH4 0x481C6A75 EQ PUSH2 0x19E JUMPI DUP1 PUSH4 0x5D495AEA EQ PUSH2 0x1C9 JUMPI DUP1 PUSH4 0x81447999 EQ PUSH2 0x1E0 JUMPI DUP1 PUSH4 0x8B5B9CCC EQ PUSH2 0x20B JUMPI DUP1 PUSH4 0x8E51001D EQ PUSH2 0x236 JUMPI DUP1 PUSH4 0xF71D96CB EQ PUSH2 0x273 JUMPI PUSH2 0x199 JUMP JUMPDEST CALLDATASIZE PUSH2 0x199 JUMPI PUSH1 0x0 DUP1 SLOAD SWAP1 PUSH2 0x100 EXP SWAP1 DIV PUSH20 0xFFFFFFFFFFFFFFFFFFFFFFFFFFFFFFFFFFFFFFFF AND PUSH20 0xFFFFFFFFFFFFFFFFFFFFFFFFFFFFFFFFFFFFFFFF AND CALLER PUSH20 0xFFFFFFFFFFFFFFFFFFFFFFFFFFFFFFFFFFFFFFFF AND SUB PUSH2 0xEC JUMPI PUSH1 0x40 MLOAD PUSH32 0x8C379A000000000000000000000000000000000000000000000000000000000 DUP2 MSTORE PUSH1 0x4 ADD PUSH2 0xE3 SWAP1 PUSH2 0x947 JUMP JUMPDEST PUSH1 0x40 MLOAD DUP1 SWAP2 SUB SWAP1 REVERT JUMPDEST PUSH7 0x27147114878000 CALLVALUE EQ PUSH2 0x135 JUMPI PUSH1 0x40 MLOAD PUSH32 0x8C379A000000000000000000000000000000000000000000000000000000000 DUP2 MSTORE PUSH1 0x4 ADD PUSH2 0x12C SWAP1 PUSH2 0x9D9 JUMP JUMPDEST PUSH1 0x40 MLOAD DUP1 SWAP2 SUB SWAP1 REVERT JUMPDEST PUSH1 0x1 CALLER SWAP1 DUP1 PUSH1 0x1 DUP2 SLOAD ADD DUP1 DUP3 SSTORE DUP1 SWAP2 POP POP PUSH1 0x1 SWAP1 SUB SWAP1 PUSH1 0x0 MSTORE PUSH1 0x20 PUSH1 0x0 KECCAK256 ADD PUSH1 0x0 SWAP1 SWAP2 SWAP1 SWAP2 SWAP1 SWAP2 PUSH2 0x100 EXP DUP2 SLOAD DUP2 PUSH20 0xFFFFFFFFFFFFFFFFFFFFFFFFFFFFFFFFFFFFFFFF MUL NOT AND SWAP1 DUP4 PUSH20 0xFFFFFFFFFFFFFFFFFFFFFFFFFFFFFFFFFFFFFFFF AND MUL OR SWAP1 SSTORE STOP JUMPDEST PUSH1 0x0 DUP1 REVERT JUMPDEST CALLVALUE DUP1 ISZERO PUSH2 0x1AA JUMPI PUSH1 0x0 DUP1 REVERT JUMPDEST POP PUSH2 0x1B3 PUSH2 0x2B0 JUMP JUMPDEST PUSH1 0x40 MLOAD PUSH2 0x1C0 SWAP2 SWAP1 PUSH2 0xA3A JUMP JUMPDEST PUSH1 0x40 MLOAD DUP1 SWAP2 SUB SWAP1 RETURN JUMPDEST CALLVALUE DUP1 ISZERO PUSH2 0x1D5 JUMPI PUSH1 0x0 DUP1 REVERT JUMPDEST POP PUSH2 0x1DE PUSH2 0x2D4 JUMP JUMPDEST STOP JUMPDEST CALLVALUE DUP1 ISZERO PUSH2 0x1EC JUMPI PUSH1 0x0 DUP1 REVERT JUMPDEST POP PUSH2 0x1F5 PUSH2 0x66C JUMP JUMPDEST PUSH1 0x40 MLOAD PUSH2 0x202 SWAP2 SWAP1 PUSH2 0xACC JUMP JUMPDEST PUSH1 0x40 MLOAD DUP1 SWAP2 SUB SWAP1 RETURN JUMPDEST CALLVALUE DUP1 ISZERO PUSH2 0x217 JUMPI PUSH1 0x0 DUP1 REVERT JUMPDEST POP PUSH2 0x220 PUSH2 0x67F JUMP JUMPDEST PUSH1 0x40 MLOAD PUSH2 0x22D SWAP2 SWAP1 PUSH2 0xBA5 JUMP JUMPDEST PUSH1 0x40 MLOAD DUP1 SWAP2 SUB SWAP1 RETURN JUMPDEST CALLVALUE DUP1 ISZERO PUSH2 0x242 JUMPI PUSH1 0x0 DUP1 REVERT JUMPDEST POP PUSH2 0x25D PUSH1 0x4 DUP1 CALLDATASIZE SUB DUP2 ADD SWAP1 PUSH2 0x258 SWAP2 SWAP1 PUSH2 0xC02 JUMP JUMPDEST PUSH2 0x79B JUMP JUMPDEST PUSH1 0x40 MLOAD PUSH2 0x26A SWAP2 SWAP1 PUSH2 0xC50 JUMP JUMPDEST PUSH1 0x40 MLOAD DUP1 SWAP2 SUB SWAP1 RETURN JUMPDEST CALLVALUE DUP1 ISZERO PUSH2 0x27F JUMPI PUSH1 0x0 DUP1 REVERT JUMPDEST POP PUSH2 0x29A PUSH1 0x4 DUP1 CALLDATASIZE SUB DUP2 ADD SWAP1 PUSH2 0x295 SWAP2 SWAP1 PUSH2 0xC02 JUMP JUMPDEST PUSH2 0x7CE JUMP JUMPDEST PUSH1 0x40 MLOAD PUSH2 0x2A7 SWAP2 SWAP1 PUSH2 0xA3A JUMP JUMPDEST PUSH1 0x40 MLOAD DUP1 SWAP2 SUB SWAP1 RETURN JUMPDEST PUSH1 0x0 DUP1 SLOAD SWAP1 PUSH2 0x100 EXP SWAP1 DIV PUSH20 0xFFFFFFFFFFFFFFFFFFFFFFFFFFFFFFFFFFFFFFFF AND DUP2 JUMP JUMPDEST PUSH1 0x0 DUP1 SLOAD SWAP1 PUSH2 0x100 EXP SWAP1 DIV PUSH20 0xFFFFFFFFFFFFFFFFFFFFFFFFFFFFFFFFFFFFFFFF AND PUSH20 0xFFFFFFFFFFFFFFFFFFFFFFFFFFFFFFFFFFFFFFFF AND CALLER PUSH20 0xFFFFFFFFFFFFFFFFFFFFFFFFFFFFFFFFFFFFFFFF AND EQ PUSH2 0x362 JUMPI PUSH1 0x40 MLOAD PUSH32 0x8C379A000000000000000000000000000000000000000000000000000000000 DUP2 MSTORE PUSH1 0x4 ADD PUSH2 0x359 SWAP1 PUSH2 0xCB7 JUMP JUMPDEST PUSH1 0x40 MLOAD DUP1 SWAP2 SUB SWAP1 REVERT JUMPDEST PUSH1 0x3 PUSH1 0x1 DUP1 SLOAD SWAP1 POP LT ISZERO PUSH2 0x3AB JUMPI PUSH1 0x40 MLOAD PUSH32 0x8C379A000000000000000000000000000000000000000000000000000000000 DUP2 MSTORE PUSH1 0x4 ADD PUSH2 0x3A2 SWAP1 PUSH2 0xD23 JUMP JUMPDEST PUSH1 0x40 MLOAD DUP1 SWAP2 SUB SWAP1 REVERT JUMPDEST PUSH1 0x0 PUSH1 0x1 DUP1 SLOAD SWAP1 POP PUSH2 0x3BB PUSH2 0x80D JUMP JUMPDEST PUSH2 0x3C5 SWAP2 SWAP1 PUSH2 0xD72 JUMP JUMPDEST SWAP1 POP PUSH1 0x0 PUSH1 0x1 DUP3 DUP2 SLOAD DUP2 LT PUSH2 0x3DD JUMPI PUSH2 0x3DC PUSH2 0xDA3 JUMP JUMPDEST JUMPDEST SWAP1 PUSH1 0x0 MSTORE PUSH1 0x20 PUSH1 0x0 KECCAK256 ADD PUSH1 0x0 SWAP1 SLOAD SWAP1 PUSH2 0x100 EXP SWAP1 DIV PUSH20 0xFFFFFFFFFFFFFFFFFFFFFFFFFFFFFFFFFFFFFFFF AND SWAP1 POP PUSH1 0x0 DUP1 PUSH1 0x0 SWAP1 SLOAD SWAP1 PUSH2 0x100 EXP SWAP1 DIV PUSH20 0xFFFFFFFFFFFFFFFFFFFFFFFFFFFFFFFFFFFFFFFF AND PUSH20 0xFFFFFFFFFFFFFFFFFFFFFFFFFFFFFFFFFFFFFFFF AND PUSH1 0x1 DUP1 SLOAD SWAP1 POP PUSH7 0x38D7EA4C68000 PUSH2 0x45C SWAP2 SWAP1 PUSH2 0xE01 JUMP JUMPDEST PUSH1 0x40 MLOAD PUSH2 0x468 SWAP1 PUSH2 0xE74 JUMP JUMPDEST PUSH1 0x0 PUSH1 0x40 MLOAD DUP1 DUP4 SUB DUP2 DUP6 DUP8 GAS CALL SWAP3 POP POP POP RETURNDATASIZE DUP1 PUSH1 0x0 DUP2 EQ PUSH2 0x4A5 JUMPI PUSH1 0x40 MLOAD SWAP2 POP PUSH1 0x1F NOT PUSH1 0x3F RETURNDATASIZE ADD AND DUP3 ADD PUSH1 0x40 MSTORE RETURNDATASIZE DUP3 MSTORE RETURNDATASIZE PUSH1 0x0 PUSH1 0x20 DUP5 ADD RETURNDATACOPY PUSH2 0x4AA JUMP JUMPDEST PUSH1 0x60 SWAP2 POP JUMPDEST POP POP SWAP1 POP DUP1 PUSH2 0x4EE JUMPI PUSH1 0x40 MLOAD PUSH32 0x8C379A000000000000000000000000000000000000000000000000000000000 DUP2 MSTORE PUSH1 0x4 ADD PUSH2 0x4E5 SWAP1 PUSH2 0xED5 JUMP JUMPDEST PUSH1 0x40 MLOAD DUP1 SWAP2 SUB SWAP1 REVERT JUMPDEST PUSH1 0x0 DUP3 PUSH20 0xFFFFFFFFFFFFFFFFFFFFFFFFFFFFFFFFFFFFFFFF AND SELFBALANCE PUSH1 0x40 MLOAD PUSH2 0x514 SWAP1 PUSH2 0xE74 JUMP JUMPDEST PUSH1 0x0 PUSH1 0x40 MLOAD DUP1 DUP4 SUB DUP2 DUP6 DUP8 GAS CALL SWAP3 POP POP POP RETURNDATASIZE DUP1 PUSH1 0x0 DUP2 EQ PUSH2 0x551 JUMPI PUSH1 0x40 MLOAD SWAP2 POP PUSH1 0x1F NOT PUSH1 0x3F RETURNDATASIZE ADD AND DUP3 ADD PUSH1 0x40 MSTORE RETURNDATASIZE DUP3 MSTORE RETURNDATASIZE PUSH1 0x0 PUSH1 0x20 DUP5 ADD RETURNDATACOPY PUSH2 0x556 JUMP JUMPDEST PUSH1 0x60 SWAP2 POP JUMPDEST POP POP SWAP1 POP DUP1 PUSH2 0x59A JUMPI PUSH1 0x40 MLOAD PUSH32 0x8C379A000000000000000000000000000000000000000000000000000000000 DUP2 MSTORE PUSH1 0x4 ADD PUSH2 0x591 SWAP1 PUSH2 0xF41 JUMP JUMPDEST PUSH1 0x40 MLOAD DUP1 SWAP2 SUB SWAP1 REVERT JUMPDEST PUSH1 0x3 PUSH1 0x0 DUP2 SLOAD DUP1 SWAP3 SWAP2 SWAP1 PUSH2 0x5AD SWAP1 PUSH2 0xF61 JUMP JUMPDEST SWAP2 SWAP1 POP SSTORE POP DUP3 PUSH1 0x4 PUSH1 0x0 PUSH1 0x3 SLOAD DUP2 MSTORE PUSH1 0x20 ADD SWAP1 DUP2 MSTORE PUSH1 0x20 ADD PUSH1 0x0 KECCAK256 PUSH1 0x0 PUSH2 0x100 EXP DUP2 SLOAD DUP2 PUSH20 0xFFFFFFFFFFFFFFFFFFFFFFFFFFFFFFFFFFFFFFFF MUL NOT AND SWAP1 DUP4 PUSH20 0xFFFFFFFFFFFFFFFFFFFFFFFFFFFFFFFFFFFFFFFF AND MUL OR SWAP1 SSTORE POP PUSH1 0x0 PUSH8 0xFFFFFFFFFFFFFFFF DUP2 GT ISZERO PUSH2 0x621 JUMPI PUSH2 0x620 PUSH2 0xFA9 JUMP JUMPDEST JUMPDEST PUSH1 0x40 MLOAD SWAP1 DUP1 DUP3 MSTORE DUP1 PUSH1 0x20 MUL PUSH1 0x20 ADD DUP3 ADD PUSH1 0x40 MSTORE DUP1 ISZERO PUSH2 0x64F JUMPI DUP2 PUSH1 0x20 ADD PUSH1 0x20 DUP3 MUL DUP1 CALLDATASIZE DUP4 CALLDATACOPY DUP1 DUP3 ADD SWAP2 POP POP SWAP1 POP JUMPDEST POP PUSH1 0x1 SWAP1 DUP1 MLOAD SWAP1 PUSH1 0x20 ADD SWAP1 PUSH2 0x665 SWAP3 SWAP2 SWAP1 PUSH2 0x843 JUMP JUMPDEST POP POP POP POP POP JUMP JUMPDEST PUSH1 0x5 PUSH1 0x0 SWAP1 SLOAD SWAP1 PUSH2 0x100 EXP SWAP1 DIV PUSH1 0xFF AND DUP2 JUMP JUMPDEST PUSH1 0x60 PUSH1 0x0 DUP1 SLOAD SWAP1 PUSH2 0x100 EXP SWAP1 DIV PUSH20 0xFFFFFFFFFFFFFFFFFFFFFFFFFFFFFFFFFFFFFFFF AND PUSH20 0xFFFFFFFFFFFFFFFFFFFFFFFFFFFFFFFFFFFFFFFF AND CALLER PUSH20 0xFFFFFFFFFFFFFFFFFFFFFFFFFFFFFFFFFFFFFFFF AND EQ PUSH2 0x70F JUMPI PUSH1 0x40 MLOAD PUSH32 0x8C379A000000000000000000000000000000000000000000000000000000000 DUP2 MSTORE PUSH1 0x4 ADD PUSH2 0x706 SWAP1 PUSH2 0xCB7 JUMP JUMPDEST PUSH1 0x40 MLOAD DUP1 SWAP2 SUB SWAP1 REVERT JUMPDEST PUSH1 0x1 DUP1 SLOAD DUP1 PUSH1 0x20 MUL PUSH1 0x20 ADD PUSH1 0x40 MLOAD SWAP1 DUP2 ADD PUSH1 0x40 MSTORE DUP1 SWAP3 SWAP2 SWAP1 DUP2 DUP2 MSTORE PUSH1 0x20 ADD DUP3 DUP1 SLOAD DUP1 ISZERO PUSH2 0x791 JUMPI PUSH1 0x20 MUL DUP3 ADD SWAP2 SWAP1 PUSH1 0x0 MSTORE PUSH1 0x20 PUSH1 0x0 KECCAK256 SWAP1 JUMPDEST DUP2 PUSH1 0x0 SWAP1 SLOAD SWAP1 PUSH2 0x100 EXP SWAP1 DIV PUSH20 0xFFFFFFFFFFFFFFFFFFFFFFFFFFFFFFFFFFFFFFFF AND PUSH20 0xFFFFFFFFFFFFFFFFFFFFFFFFFFFFFFFFFFFFFFFF AND DUP2 MSTORE PUSH1 0x20 ADD SWAP1 PUSH1 0x1 ADD SWAP1 DUP1 DUP4 GT PUSH2 0x747 JUMPI JUMPDEST POP POP POP POP POP SWAP1 POP SWAP1 JUMP JUMPDEST PUSH1 0x4 PUSH1 0x20 MSTORE DUP1 PUSH1 0x0 MSTORE PUSH1 0x40 PUSH1 0x0 KECCAK256 PUSH1 0x0 SWAP2 POP SLOAD SWAP1 PUSH2 0x100 EXP SWAP1 DIV PUSH20 0xFFFFFFFFFFFFFFFFFFFFFFFFFFFFFFFFFFFFFFFF AND DUP2 JUMP JUMPDEST PUSH1 0x1 DUP2 DUP2 SLOAD DUP2 LT PUSH2 0x7DE JUMPI PUSH1 0x0 DUP1 REVERT JUMPDEST SWAP1 PUSH1 0x0 MSTORE PUSH1 0x20 PUSH1 0x0 KECCAK256 ADD PUSH1 0x0 SWAP2 POP SLOAD SWAP1 PUSH2 0x100 EXP SWAP1 DIV PUSH20 0xFFFFFFFFFFFFFFFFFFFFFFFFFFFFFFFFFFFFFFFF AND DUP2 JUMP JUMPDEST PUSH1 0x0 PREVRANDAO TIMESTAMP PUSH1 0x1 PUSH1 0x40 MLOAD PUSH1 0x20 ADD PUSH2 0x825 SWAP4 SWAP3 SWAP2 SWAP1 PUSH2 0x1117 JUMP JUMPDEST PUSH1 0x40 MLOAD PUSH1 0x20 DUP2 DUP4 SUB SUB DUP2 MSTORE SWAP1 PUSH1 0x40 MSTORE DUP1 MLOAD SWAP1 PUSH1 0x20 ADD KECCAK256 PUSH1 0x0 SHR SWAP1 POP SWAP1 JUMP JUMPDEST DUP3 DUP1 SLOAD DUP3 DUP3 SSTORE SWAP1 PUSH1 0x0 MSTORE PUSH1 0x20 PUSH1 0x0 KECCAK256 SWAP1 DUP2 ADD SWAP3 DUP3 ISZERO PUSH2 0x8BC JUMPI SWAP2 PUSH1 0x20 MUL DUP3 ADD JUMPDEST DUP3 DUP2 GT ISZERO PUSH2 0x8BB JUMPI DUP3 MLOAD DUP3 PUSH1 0x0 PUSH2 0x100 EXP DUP2 SLOAD DUP2 PUSH20 0xFFFFFFFFFFFFFFFFFFFFFFFFFFFFFFFFFFFFFFFF MUL NOT AND SWAP1 DUP4 PUSH20 0xFFFFFFFFFFFFFFFFFFFFFFFFFFFFFFFFFFFFFFFF AND MUL OR SWAP1 SSTORE POP SWAP2 PUSH1 0x20 ADD SWAP2 SWAP1 PUSH1 0x1 ADD SWAP1 PUSH2 0x863 JUMP JUMPDEST JUMPDEST POP SWAP1 POP PUSH2 0x8C9 SWAP2 SWAP1 PUSH2 0x8CD JUMP JUMPDEST POP SWAP1 JUMP JUMPDEST JUMPDEST DUP1 DUP3 GT ISZERO PUSH2 0x8E6 JUMPI PUSH1 0x0 DUP2 PUSH1 0x0 SWAP1 SSTORE POP PUSH1 0x1 ADD PUSH2 0x8CE JUMP JUMPDEST POP SWAP1 JUMP JUMPDEST PUSH1 0x0 DUP3 DUP3 MSTORE PUSH1 0x20 DUP3 ADD SWAP1 POP SWAP3 SWAP2 POP POP JUMP JUMPDEST PUSH32 0x4D616E616765722063616E277420706C617920746865206C6F74746572790000 PUSH1 0x0 DUP3 ADD MSTORE POP JUMP JUMPDEST PUSH1 0x0 PUSH2 0x931 PUSH1 0x1E DUP4 PUSH2 0x8EA JUMP JUMPDEST SWAP2 POP PUSH2 0x93C DUP3 PUSH2 0x8FB JUMP JUMPDEST PUSH1 0x20 DUP3 ADD SWAP1 POP SWAP2 SWAP1 POP JUMP JUMPDEST PUSH1 0x0 PUSH1 0x20 DUP3 ADD SWAP1 POP DUP2 DUP2 SUB PUSH1 0x0 DUP4 ADD MSTORE PUSH2 0x960 DUP2 PUSH2 0x924 JUMP JUMPDEST SWAP1 POP SWAP2 SWAP1 POP JUMP JUMPDEST PUSH32 0x4D75737420626520302E30313145544820746F20656E74657220746865206C6F PUSH1 0x0 DUP3 ADD MSTORE PUSH32 0x7474657279000000000000000000000000000000000000000000000000000000 PUSH1 0x20 DUP3 ADD MSTORE POP JUMP JUMPDEST PUSH1 0x0 PUSH2 0x9C3 PUSH1 0x25 DUP4 PUSH2 0x8EA JUMP JUMPDEST SWAP2 POP PUSH2 0x9CE DUP3 PUSH2 0x967 JUMP JUMPDEST PUSH1 0x40 DUP3 ADD SWAP1 POP SWAP2 SWAP1 POP JUMP JUMPDEST PUSH1 0x0 PUSH1 0x20 DUP3 ADD SWAP1 POP DUP2 DUP2 SUB PUSH1 0x0 DUP4 ADD MSTORE PUSH2 0x9F2 DUP2 PUSH2 0x9B6 JUMP JUMPDEST SWAP1 POP SWAP2 SWAP1 POP JUMP JUMPDEST PUSH1 0x0 PUSH20 0xFFFFFFFFFFFFFFFFFFFFFFFFFFFFFFFFFFFFFFFF DUP3 AND SWAP1 POP SWAP2 SWAP1 POP JUMP JUMPDEST PUSH1 0x0 PUSH2 0xA24 DUP3 PUSH2 0x9F9 JUMP JUMPDEST SWAP1 POP SWAP2 SWAP1 POP JUMP JUMPDEST PUSH2 0xA34 DUP2 PUSH2 0xA19 JUMP JUMPDEST DUP3 MSTORE POP POP JUMP JUMPDEST PUSH1 0x0 PUSH1 0x20 DUP3 ADD SWAP1 POP PUSH2 0xA4F PUSH1 0x0 DUP4 ADD DUP5 PUSH2 0xA2B JUMP JUMPDEST SWAP3 SWAP2 POP POP JUMP JUMPDEST PUSH32 0x4E487B7100000000000000000000000000000000000000000000000000000000 PUSH1 0x0 MSTORE PUSH1 0x21 PUSH1 0x4 MSTORE PUSH1 0x24 PUSH1 0x0 REVERT JUMPDEST PUSH1 0x3 DUP2 LT PUSH2 0xA95 JUMPI PUSH2 0xA94 PUSH2 0xA55 JUMP JUMPDEST JUMPDEST POP JUMP JUMPDEST PUSH1 0x0 DUP2 SWAP1 POP PUSH2 0xAA6 DUP3 PUSH2 0xA84 JUMP JUMPDEST SWAP2 SWAP1 POP JUMP JUMPDEST PUSH1 0x0 PUSH2 0xAB6 DUP3 PUSH2 0xA98 JUMP JUMPDEST SWAP1 POP SWAP2 SWAP1 POP JUMP JUMPDEST PUSH2 0xAC6 DUP2 PUSH2 0xAAB JUMP JUMPDEST DUP3 MSTORE POP POP JUMP JUMPDEST PUSH1 0x0 PUSH1 0x20 DUP3 ADD SWAP1 POP PUSH2 0xAE1 PUSH1 0x0 DUP4 ADD DUP5 PUSH2 0xABD JUMP JUMPDEST SWAP3 SWAP2 POP POP JUMP JUMPDEST PUSH1 0x0 DUP2 MLOAD SWAP1 POP SWAP2 SWAP1 POP JUMP JUMPDEST PUSH1 0x0 DUP3 DUP3 MSTORE PUSH1 0x20 DUP3 ADD SWAP1 POP SWAP3 SWAP2 POP POP JUMP JUMPDEST PUSH1 0x0 DUP2 SWAP1 POP PUSH1 0x20 DUP3 ADD SWAP1 POP SWAP2 SWAP1 POP JUMP JUMPDEST PUSH2 0xB1C DUP2 PUSH2 0xA19 JUMP JUMPDEST DUP3 MSTORE POP POP JUMP JUMPDEST PUSH1 0x0 PUSH2 0xB2E DUP4 DUP4 PUSH2 0xB13 JUMP JUMPDEST PUSH1 0x20 DUP4 ADD SWAP1 POP SWAP3 SWAP2 POP POP JUMP JUMPDEST PUSH1 0x0 PUSH1 0x20 DUP3 ADD SWAP1 POP SWAP2 SWAP1 POP JUMP JUMPDEST PUSH1 0x0 PUSH2 0xB52 DUP3 PUSH2 0xAE7 JUMP JUMPDEST PUSH2 0xB5C DUP2 DUP6 PUSH2 0xAF2 JUMP JUMPDEST SWAP4 POP PUSH2 0xB67 DUP4 PUSH2 0xB03 JUMP JUMPDEST DUP1 PUSH1 0x0 JUMPDEST DUP4 DUP2 LT ISZERO PUSH2 0xB98 JUMPI DUP2 MLOAD PUSH2 0xB7F DUP9 DUP3 PUSH2 0xB22 JUMP JUMPDEST SWAP8 POP PUSH2 0xB8A DUP4 PUSH2 0xB3A JUMP JUMPDEST SWAP3 POP POP PUSH1 0x1 DUP2 ADD SWAP1 POP PUSH2 0xB6B JUMP JUMPDEST POP DUP6 SWAP4 POP POP POP POP SWAP3 SWAP2 POP POP JUMP JUMPDEST PUSH1 0x0 PUSH1 0x20 DUP3 ADD SWAP1 POP DUP2 DUP2 SUB PUSH1 0x0 DUP4 ADD MSTORE PUSH2 0xBBF DUP2 DUP5 PUSH2 0xB47 JUMP JUMPDEST SWAP1 POP SWAP3 SWAP2 POP POP JUMP JUMPDEST PUSH1 0x0 DUP1 REVERT JUMPDEST PUSH1 0x0 DUP2 SWAP1 POP SWAP2 SWAP1 POP JUMP JUMPDEST PUSH2 0xBDF DUP2 PUSH2 0xBCC JUMP JUMPDEST DUP2 EQ PUSH2 0xBEA JUMPI PUSH1 0x0 DUP1 REVERT JUMPDEST POP JUMP JUMPDEST PUSH1 0x0 DUP2 CALLDATALOAD SWAP1 POP PUSH2 0xBFC DUP2 PUSH2 0xBD6 JUMP JUMPDEST SWAP3 SWAP2 POP POP JUMP JUMPDEST PUSH1 0x0 PUSH1 0x20 DUP3 DUP5 SUB SLT ISZERO PUSH2 0xC18 JUMPI PUSH2 0xC17 PUSH2 0xBC7 JUMP JUMPDEST JUMPDEST PUSH1 0x0 PUSH2 0xC26 DUP5 DUP3 DUP6 ADD PUSH2 0xBED JUMP JUMPDEST SWAP2 POP POP SWAP3 SWAP2 POP POP JUMP JUMPDEST PUSH1 0x0 PUSH2 0xC3A DUP3 PUSH2 0x9F9 JUMP JUMPDEST SWAP1 POP SWAP2 SWAP1 POP JUMP JUMPDEST PUSH2 0xC4A DUP2 PUSH2 0xC2F JUMP JUMPDEST DUP3 MSTORE POP POP JUMP JUMPDEST PUSH1 0x0 PUSH1 0x20 DUP3 ADD SWAP1 POP PUSH2 0xC65 PUSH1 0x0 DUP4 ADD DUP5 PUSH2 0xC41 JUMP JUMPDEST SWAP3 SWAP2 POP POP JUMP JUMPDEST PUSH32 0x43616E206F6E6C792062652063616C6C6572206279206D616E616765722E0000 PUSH1 0x0 DUP3 ADD MSTORE POP JUMP JUMPDEST PUSH1 0x0 PUSH2 0xCA1 PUSH1 0x1E DUP4 PUSH2 0x8EA JUMP JUMPDEST SWAP2 POP PUSH2 0xCAC DUP3 PUSH2 0xC6B JUMP JUMPDEST PUSH1 0x20 DUP3 ADD SWAP1 POP SWAP2 SWAP1 POP JUMP JUMPDEST PUSH1 0x0 PUSH1 0x20 DUP3 ADD SWAP1 POP DUP2 DUP2 SUB PUSH1 0x0 DUP4 ADD MSTORE PUSH2 0xCD0 DUP2 PUSH2 0xC94 JUMP JUMPDEST SWAP1 POP SWAP2 SWAP1 POP JUMP JUMPDEST PUSH32 0x4D757374206265206174206C65617374203320706C6179657273000000000000 PUSH1 0x0 DUP3 ADD MSTORE POP JUMP JUMPDEST PUSH1 0x0 PUSH2 0xD0D PUSH1 0x1A DUP4 PUSH2 0x8EA JUMP JUMPDEST SWAP2 POP PUSH2 0xD18 DUP3 PUSH2 0xCD7 JUMP JUMPDEST PUSH1 0x20 DUP3 ADD SWAP1 POP SWAP2 SWAP1 POP JUMP JUMPDEST PUSH1 0x0 PUSH1 0x20 DUP3 ADD SWAP1 POP DUP2 DUP2 SUB PUSH1 0x0 DUP4 ADD MSTORE PUSH2 0xD3C DUP2 PUSH2 0xD00 JUMP JUMPDEST SWAP1 POP SWAP2 SWAP1 POP JUMP JUMPDEST PUSH32 0x4E487B7100000000000000000000000000000000000000000000000000000000 PUSH1 0x0 MSTORE PUSH1 0x12 PUSH1 0x4 MSTORE PUSH1 0x24 PUSH1 0x0 REVERT JUMPDEST PUSH1 0x0 PUSH2 0xD7D DUP3 PUSH2 0xBCC JUMP JUMPDEST SWAP2 POP PUSH2 0xD88 DUP4 PUSH2 0xBCC JUMP JUMPDEST SWAP3 POP DUP3 PUSH2 0xD98 JUMPI PUSH2 0xD97 PUSH2 0xD43 JUMP JUMPDEST JUMPDEST DUP3 DUP3 MOD SWAP1 POP SWAP3 SWAP2 POP POP JUMP JUMPDEST PUSH32 0x4E487B7100000000000000000000000000000000000000000000000000000000 PUSH1 0x0 MSTORE PUSH1 0x32 PUSH1 0x4 MSTORE PUSH1 0x24 PUSH1 0x0 REVERT JUMPDEST PUSH32 0x4E487B7100000000000000000000000000000000000000000000000000000000 PUSH1 0x0 MSTORE PUSH1 0x11 PUSH1 0x4 MSTORE PUSH1 0x24 PUSH1 0x0 REVERT JUMPDEST PUSH1 0x0 PUSH2 0xE0C DUP3 PUSH2 0xBCC JUMP JUMPDEST SWAP2 POP PUSH2 0xE17 DUP4 PUSH2 0xBCC JUMP JUMPDEST SWAP3 POP DUP3 DUP3 MUL PUSH2 0xE25 DUP2 PUSH2 0xBCC JUMP JUMPDEST SWAP2 POP DUP3 DUP3 DIV DUP5 EQ DUP4 ISZERO OR PUSH2 0xE3C JUMPI PUSH2 0xE3B PUSH2 0xDD2 JUMP JUMPDEST JUMPDEST POP SWAP3 SWAP2 POP POP JUMP JUMPDEST PUSH1 0x0 DUP2 SWAP1 POP SWAP3 SWAP2 POP POP JUMP JUMPDEST POP JUMP JUMPDEST PUSH1 0x0 PUSH2 0xE5E PUSH1 0x0 DUP4 PUSH2 0xE43 JUMP JUMPDEST SWAP2 POP PUSH2 0xE69 DUP3 PUSH2 0xE4E JUMP JUMPDEST PUSH1 0x0 DUP3 ADD SWAP1 POP SWAP2 SWAP1 POP JUMP JUMPDEST PUSH1 0x0 PUSH2 0xE7F DUP3 PUSH2 0xE51 JUMP JUMPDEST SWAP2 POP DUP2 SWAP1 POP SWAP2 SWAP1 POP JUMP JUMPDEST PUSH32 0x4661696C656420746F2073656E64206D616E61676572206665652E0000000000 PUSH1 0x0 DUP3 ADD MSTORE POP JUMP JUMPDEST PUSH1 0x0 PUSH2 0xEBF PUSH1 0x1B DUP4 PUSH2 0x8EA JUMP JUMPDEST SWAP2 POP PUSH2 0xECA DUP3 PUSH2 0xE89 JUMP JUMPDEST PUSH1 0x20 DUP3 ADD SWAP1 POP SWAP2 SWAP1 POP JUMP JUMPDEST PUSH1 0x0 PUSH1 0x20 DUP3 ADD SWAP1 POP DUP2 DUP2 SUB PUSH1 0x0 DUP4 ADD MSTORE PUSH2 0xEEE DUP2 PUSH2 0xEB2 JUMP JUMPDEST SWAP1 POP SWAP2 SWAP1 POP JUMP JUMPDEST PUSH32 0x4661696C656420746F2073656E642077696E6E65722773207072697A652E0000 PUSH1 0x0 DUP3 ADD MSTORE POP JUMP JUMPDEST PUSH1 0x0 PUSH2 0xF2B PUSH1 0x1E DUP4 PUSH2 0x8EA JUMP JUMPDEST SWAP2 POP PUSH2 0xF36 DUP3 PUSH2 0xEF5 JUMP JUMPDEST PUSH1 0x20 DUP3 ADD SWAP1 POP SWAP2 SWAP1 POP JUMP JUMPDEST PUSH1 0x0 PUSH1 0x20 DUP3 ADD SWAP1 POP DUP2 DUP2 SUB PUSH1 0x0 DUP4 ADD MSTORE PUSH2 0xF5A DUP2 PUSH2 0xF1E JUMP JUMPDEST SWAP1 POP SWAP2 SWAP1 POP JUMP JUMPDEST PUSH1 0x0 PUSH2 0xF6C DUP3 PUSH2 0xBCC JUMP JUMPDEST SWAP2 POP PUSH32 0xFFFFFFFFFFFFFFFFFFFFFFFFFFFFFFFFFFFFFFFFFFFFFFFFFFFFFFFFFFFFFFFF DUP3 SUB PUSH2 0xF9E JUMPI PUSH2 0xF9D PUSH2 0xDD2 JUMP JUMPDEST JUMPDEST PUSH1 0x1 DUP3 ADD SWAP1 POP SWAP2 SWAP1 POP JUMP JUMPDEST PUSH32 0x4E487B7100000000000000000000000000000000000000000000000000000000 PUSH1 0x0 MSTORE PUSH1 0x41 PUSH1 0x4 MSTORE PUSH1 0x24 PUSH1 0x0 REVERT JUMPDEST PUSH1 0x0 DUP2 SWAP1 POP SWAP2 SWAP1 POP JUMP JUMPDEST PUSH2 0xFF3 PUSH2 0xFEE DUP3 PUSH2 0xBCC JUMP JUMPDEST PUSH2 0xFD8 JUMP JUMPDEST DUP3 MSTORE POP POP JUMP JUMPDEST PUSH1 0x0 DUP2 SLOAD SWAP1 POP SWAP2 SWAP1 POP JUMP JUMPDEST PUSH1 0x0 DUP2 SWAP1 POP SWAP3 SWAP2 POP POP JUMP JUMPDEST PUSH1 0x0 DUP2 SWAP1 POP DUP2 PUSH1 0x0 MSTORE PUSH1 0x20 PUSH1 0x0 KECCAK256 SWAP1 POP SWAP2 SWAP1 POP JUMP JUMPDEST PUSH2 0x102D DUP2 PUSH2 0xA19 JUMP JUMPDEST DUP3 MSTORE POP POP JUMP JUMPDEST PUSH1 0x0 PUSH2 0x103F DUP4 DUP4 PUSH2 0x1024 JUMP JUMPDEST PUSH1 0x20 DUP4 ADD SWAP1 POP SWAP3 SWAP2 POP POP JUMP JUMPDEST PUSH1 0x0 DUP2 PUSH1 0x0 SHR SWAP1 POP SWAP2 SWAP1 POP JUMP JUMPDEST PUSH1 0x0 PUSH20 0xFFFFFFFFFFFFFFFFFFFFFFFFFFFFFFFFFFFFFFFF DUP3 AND SWAP1 POP SWAP2 SWAP1 POP JUMP JUMPDEST PUSH1 0x0 PUSH2 0x108B PUSH2 0x1086 DUP4 PUSH2 0x104B JUMP JUMPDEST PUSH2 0x1058 JUMP JUMPDEST SWAP1 POP SWAP2 SWAP1 POP JUMP JUMPDEST PUSH1 0x0 PUSH2 0x109E DUP3 SLOAD PUSH2 0x1078 JUMP JUMPDEST SWAP1 POP SWAP2 SWAP1 POP JUMP JUMPDEST PUSH1 0x0 PUSH1 0x1 DUP3 ADD SWAP1 POP SWAP2 SWAP1 POP JUMP JUMPDEST PUSH1 0x0 PUSH2 0x10BD DUP3 PUSH2 0xFF9 JUMP JUMPDEST PUSH2 0x10C7 DUP2 DUP6 PUSH2 0x1004 JUMP JUMPDEST SWAP4 POP PUSH2 0x10D2 DUP4 PUSH2 0x100F JUMP JUMPDEST DUP1 PUSH1 0x0 JUMPDEST DUP4 DUP2 LT ISZERO PUSH2 0x110A JUMPI PUSH2 0x10E7 DUP3 PUSH2 0x1092 JUMP JUMPDEST PUSH2 0x10F1 DUP9 DUP3 PUSH2 0x1033 JUMP JUMPDEST SWAP8 POP PUSH2 0x10FC DUP4 PUSH2 0x10A5 JUMP JUMPDEST SWAP3 POP POP PUSH1 0x1 DUP2 ADD SWAP1 POP PUSH2 0x10D6 JUMP JUMPDEST POP DUP6 SWAP4 POP POP POP POP SWAP3 SWAP2 POP POP JUMP JUMPDEST PUSH1 0x0 PUSH2 0x1123 DUP3 DUP7 PUSH2 0xFE2 JUMP JUMPDEST PUSH1 0x20 DUP3 ADD SWAP2 POP PUSH2 0x1133 DUP3 DUP6 PUSH2 0xFE2 JUMP JUMPDEST PUSH1 0x20 DUP3 ADD SWAP2 POP PUSH2 0x1143 DUP3 DUP5 PUSH2 0x10B2 JUMP JUMPDEST SWAP2 POP DUP2 SWAP1 POP SWAP5 SWAP4 POP POP POP POP JUMP INVALID LOG2 PUSH5 0x6970667358 0x22 SLT KECCAK256 0xC0 0x5E 0xE1 0xBC PUSH9 0x38ADAE3B94C3F76D3A LOG3 BALANCE 0xA9 PUSH20 0xDF53B6A0CF620113D4C45961638364736F6C6343 STOP ADDMOD SGT STOP CALLER "
				},
				"gasEstimates": {
					"creation": {
						"codeDepositCost": "897200",
						"executionCost": "73767",
						"totalCost": "970967"
					},
					"external": {
						"getPlayers()": "infinite",
						"lottery_state()": "2582",
						"manager()": "2489",
						"pickWinner()": "infinite",
						"players(uint256)": "5044",
						"roundToWinner(uint256)": "2905"
					},
					"internal": {
						"randomizer()": "infinite"
					}
				},
				"methodIdentifiers": {
					"getPlayers()": "8b5b9ccc",
					"lottery_state()": "81447999",
					"manager()": "481c6a75",
					"pickWinner()": "5d495aea",
					"players(uint256)": "f71d96cb",
					"roundToWinner(uint256)": "8e51001d"
				}
			},
			"storageLayout": {
				"storage": [
					{
						"astId": 530,
						"contract": "contracts/3_Ballot.sol:Lottery",
						"label": "manager",
						"offset": 0,
						"slot": "0",
						"type": "t_address_payable"
					},
					{
						"astId": 533,
						"contract": "contracts/3_Ballot.sol:Lottery",
						"label": "players",
						"offset": 0,
						"slot": "1",
						"type": "t_array(t_address_payable)dyn_storage"
					},
					{
						"astId": 536,
						"contract": "contracts/3_Ballot.sol:Lottery",
						"label": "consumerContract",
						"offset": 0,
						"slot": "2",
						"type": "t_contract(SubscriptionConsumer)927"
					},
					{
						"astId": 538,
						"contract": "contracts/3_Ballot.sol:Lottery",
						"label": "roundId",
						"offset": 0,
						"slot": "3",
						"type": "t_uint256"
					},
					{
						"astId": 542,
						"contract": "contracts/3_Ballot.sol:Lottery",
						"label": "roundToWinner",
						"offset": 0,
						"slot": "4",
						"type": "t_mapping(t_uint256,t_address)"
					},
					{
						"astId": 549,
						"contract": "contracts/3_Ballot.sol:Lottery",
						"label": "lottery_state",
						"offset": 0,
						"slot": "5",
						"type": "t_enum(LOTTERY_STATE)546"
					}
				],
				"types": {
					"t_address": {
						"encoding": "inplace",
						"label": "address",
						"numberOfBytes": "20"
					},
					"t_address_payable": {
						"encoding": "inplace",
						"label": "address payable",
						"numberOfBytes": "20"
					},
					"t_array(t_address_payable)dyn_storage": {
						"base": "t_address_payable",
						"encoding": "dynamic_array",
						"label": "address payable[]",
						"numberOfBytes": "32"
					},
					"t_contract(SubscriptionConsumer)927": {
						"encoding": "inplace",
						"label": "contract SubscriptionConsumer",
						"numberOfBytes": "20"
					},
					"t_enum(LOTTERY_STATE)546": {
						"encoding": "inplace",
						"label": "enum Lottery.LOTTERY_STATE",
						"numberOfBytes": "1"
					},
					"t_mapping(t_uint256,t_address)": {
						"encoding": "mapping",
						"key": "t_uint256",
						"label": "mapping(uint256 => address)",
						"numberOfBytes": "32",
						"value": "t_address"
					},
					"t_uint256": {
						"encoding": "inplace",
						"label": "uint256",
						"numberOfBytes": "32"
					}
				}
			},
			"userdoc": {
				"kind": "user",
				"methods": {},
				"version": 1
			}
		}
	}
}